:100000000C94FD030C9444040C9444040C94440498
:100010000C9444040C9444040C9444040C94440440
:100020000C9444040C9444040C948E210C944A21A6
:100030000C9434280C9444040C9444040C9444040C
:100040000C9444040C9444040C9444040C94440410
:100050000C9444040C9410280C9444040C94440410
:100060000C9444040C9444040C9444040C944404F0
:100070000C9444040C9444040C9444040C944404E0
:100080000C9444040C9444040C9444040C944404D0
:100090000C9444040C9444040C9444040C944404C0
:1000A0000C9444040C9444040C9444040501090287
:1000B000A10185020901A100050919012905150001
:1000C00025019505750181029501750381010501E1
:1000D000093009311581257F950275088106093897
:1000E0001581257F950175088106050C0A380215D2
:1000F00081257F950175088106C0C005010980A191
:1001000001850319012AB700150126B7009501756D
:10011000108100C0050C0901A101850419012AA064
:1001200002150126A002950175108100C005010984
:1001300006A1018505050719E029E71500250195A8
:1001400008750181020507190029EF1500250195A1
:10015000F0750181020508190129059505750191C0
:1001600002950175039101C00660FF0961A10109B3
:1001700062150026FF0095207508810209631500AD
:1001800026FF00952075089102C005010906A1010E
:10019000050719E029E71500250195087501810279
:1001A0009501750881010507190029FF150026FF33
:1001B0000095067508810005081901290595057542
:1001C000019102950175039101C000010101010136
:1001D0000101010102020202020202020203030300
:1001E00003030303030404040404040405050505D0
:1001F0000506060606060707070707080808080990
:100200000909090A0A0A0B0B0B0C0C0C0D0D0D0E3B
:100210000E0E0F0F0F1010111111121213131414D0
:10022000151516161717181819191A1A1B1B1C1D45
:100230001D1E1E1F2020212222232424252626279E
:100240002829292A2B2C2D2D2E2F303132323334D0
:1002500035363738393A3B3C3D3E3F4041424344D6
:1002600045464748494A4C4D4E4F505153545556B8
:1002700058595A5B5D5E5F616264656668696B6C64
:100280006D6F7072737577787A7B7D7E80828385DF
:1002900087888A8C8E8F91939596989A9C9EA0A21F
:1002A000A3A5A7A9ABADAFB1B3B5B7BABCBEC0C229
:1002B000C4C6C9CBCDCFD1D4D6D8DBDDDFE2E4E7ED
:1002C000E9EBEEF0F3F5F8FAFDFFFFAA7F554022C7
:1002D00023252628292A2C2D2F3032333536383A3B
:1002E0003B3D3E4042434547494A4C4E5051535591
:1002F00057595A5C5E6062646668696B6D6F7173B2
:100300007577797B7D7F81838587898A8C8E9092B2
:100310009496989A9C9E9FA1A3A5A7A8AAACAEAFBD
:10032000B1B3B4B6B8B9BBBCBEBFC1C2C3C5C6C702
:10033000C9CACBCCCDCED0D1D2D2D3D4D5D6D7D7B3
:10034000D8D9D9DADADBDBDBDCDCDCDCDCDDDDDDFB
:10035000DDDCDCDCDCDCDBDBDBDADAD9D9D8D7D7F7
:10036000D6D5D4D3D2D2D1D0CECDCCCBCAC9C7C6A4
:10037000C5C3C2C1BFBEBCBBB9B8B6B4B3B1AFAEE2
:10038000ACAAA8A7A5A3A19F9E9C9A989694929088
:100390008E8C8A89878583817F7D7B797775737160
:1003A0006F6D6B6968666462605E5C5A595755533D
:1003B00051504E4C4A4947454342403E3D3B3A38F6
:1003C00036353332302F2D2C2A2928262523222971
:1003D000003A003B003C003D003E003F0040004131
:1003E00000420043004400450046004700480035F5
:1003F000001E001F002000210022002300240025F1
:1004000000260027002D002E002A0049004A004B3C
:10041000002B0014001A000800150017001C00181B
:10042000000C00120013002F00300031004C004D72
:10043000004E00390004001600070009000A000BF6
:10044000000D000E000F003300340032002800E1E0
:100450000064001D001B00060019000500110010BB
:1004600000360037003800E5005200E000E300E20B
:10047000002C00E600E7006500E400500051004F4A
:10048000000000000000000000000000000000006C
:10049000000000000000000000000000000000005C
:1004A000000000000000000000000000000000004C
:1004B000000000000000000000000000000000003C
:1004C000000000000000000000000000000000002C
:1004D000000000000000000000000000000000001C
:1004E000000000000000000000000000000000000C
:1004F00000000000000000000000000000000000FC
:1005000000000000000000000000000000000000EB
:1005100000000000000000000000000000000000DB
:1005200000000000000000000000000000000000CB
:1005300000000000000000010001000100010001B6
:1005400000010001000100010001000100010001A3
:100550000001000100010001000100010001000193
:100560000001000100010001000100010001000183
:100570000001000100010001000100010001000173
:100580000001000100010001000100010001000163
:100590000001000100010001000100010001000153
:1005A0000001000100010001000100010001000143
:1005B0000001000100010001000100010001000133
:1005C0000001000100010001000100010001000123
:1005D0000001000100010001000100010001000113
:1005E0000001000100010001000000010001000104
:1005F00000010001000100010001000100010001F3
:1006000000010001000100010001000100010001E2
:1006100000010001000100010001000100010001D2
:1006200000010001000100010001000100010001C2
:1006300000010001000100010001000100010001B2
:1006400000010001000100010001000100010001A2
:100650000001000100010001000100010001000192
:100660000001000100010001000100010001000182
:100670000001000100010001000100010001000172
:100680000001000100010001000100010001000162
:100690000001000100010001000100010000000054
:1006A000000000000000000000000000000000004A
:1006B0000000007E0F00D4FFFFFFC700000078009D
:1006C000000000000000002A2B28000000000000AD
:1006D0000000000000000000000029000000002CC5
:1006E0001E3420212224342627252E362D37382764
:1006F0001E1F202122232425263333362E37381F70
:100700000405060708090A0B0C0D0E0F1011121331
:100710001415161718191A1B1C1D2F3130232D35CF
:100720000405060708090A0B0C0D0E0F1011121311
:100730001415161718191A1B1C1D2F3130354C3281
:10074000190A00047F3F1F643214643214783C1E7F
:100750001E140A0509025B00030100A0FA09040047
:1007600000010301010009211101000122400007DD
:1007700005810308000A09040100020300000009C2
:100780002111010001222200070582032000010738
:100790000503032000010904020001030000000911
:1007A000211101000122BC000705840320000A1268
:1007B000011001000000084478878701000102034E
:1007C00001040330000000120358004400380037D1
:1007D00000200054004B004C00000018034B005058
:1007E000002000520065007000750062006C006916
:1007F0000063000000040309040011241FBECFEFB2
:10080000DAE0DEBFCDBF04B603FE27C080918703C8
:1008100090918803A0918903B0918A038730904B0F
:10082000A740B04BD1F41092870310928803109226
:10083000890310928A0314BE84B7877F84BF0FB6E2
:10084000F894A89580916000886180936000109270
:1008500060000FBEE0E0F8E3099523E0ACE9B1E009
:1008600001C01D92A738B207E1F711E0A0E0B1E0A6
:10087000E4E5F4E502C005900D92AC39B107D9F773
:100880000E946D220C94DD290C940000E8EDF0E04C
:1008900080818E7F80831092E2001092DA001092A5
:1008A000E100A0EEB0E08C9181608C9380818F7725
:1008B000808319BCA7EDB0E08C918E7F8C938081F2
:1008C0008F7E80831092540308952091E40030912C
:1008D000E50095E6A9012091EC00822F817020FFB0
:1008E00006C08091E80080FF06C080E00895209156
:1008F000E80022FD1AC080918203882389F08530A8
:1009000089F08091EB0085FD0FC02091E4003091CB
:10091000E50042175307F9F29150E1F684E008959B
:1009200082E0089583E0089581E00895EF92FF92B8
:100930000F931F93CF937C018B010E946504C82FF6
:10094000811117C08091E80085FD0BC08091E800FF
:100950008E778093E8000E946504882399F3C82F5E
:1009600008C0F70181917F018093F10001501109C6
:1009700049F78C2FCF911F910F91FF90EF90089521
:10098000CF93FC0180918203843001F5C091E9008E
:10099000CF702091EC00922F917020FD90E8C92B30
:1009A00082E08093E9008091E80080FF0CC050E075
:1009B00040E060E270E0CF010E9496048091E80080
:1009C0008E778093E800CF70C093E900CF910895AF
:1009D00080917A0387FF13C08091E80082FF06C0F0
:1009E0008091E8008B778093E80004C080918203B7
:1009F0008111F2CF0895809182038823D9F38091E9
:100A0000E80080FFF8CF8091E8008E77ECCF982F38
:100A10009093E900242F762F50E0891731F07091E0
:100A2000EC002091ED005091F00021FD07C09F5F88
:100A3000973071F78093E90081E008953091EB00E1
:100A40003E7F3093EB003091ED003D7F3093ED0021
:100A50003091EB0031603093EB007093EC00209309
:100A6000ED005093F0002091EE0027FDE0CF80E0F4
:100A70000895CF92DF92EF92FF920F931F93CF933F
:100A8000DF93C8EDD0E088818F7E8883E7EDF0E0CA
:100A900080818160808384E082BF81E08093540301
:100AA00088818E7F888302EE10E0F8011082109218
:100AB000DA0081EEC82ED12CF601108288818F7762
:100AC000888388818068888388818F7D888319BC2A
:100AD0001092820310927903109278031092770398
:100AE00090EEE92EF12CF70180818B7F8083888145
:100AF0008160888342E060E080E00E940705F601A3
:100B000080818E7F8083F8018081816080838081F5
:100B100088608083F70180818E7F808388818061F7
:100B20008883DF91CF911F910F91FF90EF90DF901D
:100B3000CF900895FC0180918003909181038617E6
:100B40009707A0F06115710529F49091E8009E7750
:100B50009093E80090E06115710551F4911108C07F
:100B60008091E80082FF34C080E00895BC01F2CF9C
:100B7000809182038823C1F18530C1F18091E80022
:100B800083FD30C08091E80082FDEACF8091E800CB
:100B900080FFE1CF8091F3002091F200382F6115A2
:100BA000710519F02830310558F091E028303105F1
:100BB00009F090E02091E8002E772093E800CBCF59
:100BC00081918093F100615071092F5F3F4FE7CF12
:100BD00080918203882341F0853041F08091E800C4
:100BE00083FFBECF81E0089582E0089583E00895F9
:100BF000089580915603089590911E03803F59F403
:100C000080911F0387FF0DC010921F0391110BC02D
:100C10001092190308C0813F81F480911F031816B8
:100C20009CF3992381F08091200390912103892BDB
:100C300009F064C0109216030895823F49F497FFAB
:100C4000F0CF10921E0380911F038111ECCFE0CFF3
:100C5000833F19F41916ACF3E4CF20912003893FA8
:100C600029F41216F4F610922003DBCF8A3F19F410
:100C700027FFD7CFF8CF209121038B3F29F427FFFF
:100C8000D0CF10922103CDCF8C3F19F41216CCF3A4
:100C9000C8CF843F31F480911D038E7F80931D0364
:100CA000C0CF853F21F480911D038D7FF7CF863F14
:100CB00021F480911D038B7FF1CF873F21F4809138
:100CC0001D03877FEBCF883F21F480911D038F7E2A
:100CD000E5CF8D3F31F48091F7028E7F8093F7024C
:100CE000A0CF8E3F21F48091F7028D7FF7CF8F3F09
:100CF00009F097CF8091F7028B7FF0CF0895809114
:100D0000F70280FD16C081FD16C082FD16C08091DD
:100D100016038823A1F0883280F428E0829FC00166
:100D2000112468E270E00E949928862F672B39F021
:100D3000089582E0089584E0089588E0089581E0B0
:100D400008958091F70280FD14C081FD14C082FDDA
:100D500016C080911903882381F0843180F422E346
:100D6000829FC001112464E170E00E949928862FBF
:100D700008958CE0089589E1089585E0089582E35F
:100D80000895803F31F40E94A106819580931F034E
:100D90000895813F19F40E94A106F8CF823F31F4F3
:100DA0000E94A106819580931E030895833F19F444
:100DB0000E94A106F8CF893F29F40E947F06809304
:100DC000200308958A3F21F40E947F068195F7CF82
:100DD0008B3F31F40E947F06819580932103089513
:100DE0008C3F19F40E947F06F8CF843F31F4809144
:100DF0001D03816080931D030895853F21F4809138
:100E00001D038260F7CF863F21F480911D0384602B
:100E1000F1CF873F21F480911D038860EBCF883F9D
:100E200021F480911D038061E5CF8D3F31F48091E5
:100E3000F70281608093F70208958E3F21F480913C
:100E4000F7028260F7CF8F3FB9F78091F702846095
:100E5000F1CF9C014FB7F8948091500390915103CA
:100E6000A0915203B09153034FBF821B930B08957F
:100E70002FB7F8948091500390915103A0915203A1
:100E8000B09153032FBF08950E9438079C019091A1
:100E90001E0380911F03982B21F030931B03209396
:100EA0001A039091200380912103982B21F0309315
:100EB000180320931703E0910D03F0910E03309770
:100EC00049F082E080931C030480F581E02D8CE1E1
:100ED00093E00994089520911C012223C9F02091E8
:100EE0000A0327FF15C0E62FE695E695E695EE3155
:100EF000D8F4E80FF92FF11D677021E030E001C050
:100F0000220F6A95EAF7209582812823228308958B
:100F1000FC01329608962191621303C0DF011197FC
:100F20001C92E817F907B9F7089520911C012223B4
:100F3000C1F020910A0327FF14C0E62FE695E6953D
:100F4000E695EE31F8F4E80FF92FF11D677021E016
:100F500030E001C0220F6A95EAF78281822B8283FA
:100F60000895FC0132962FEF30E04191641751F063
:100F70002F3F19F4411101C0232F3F5F3630A9F7ED
:100F80002F3F09F40895820F911D27FD9A95FC01CA
:100F9000628308958091F20281111092F202089505
:100FA0008091F1029091F002892B9091EF02892BB0
:100FB00080939C019091F2029923A1F0892B809358
:100FC0009C0180911C01882341F180910A0387FFD5
:100FD00024C08EE1EEE9F1E090E0815000F591113E
:100FE0000E94CA07E0910D03F0910E033097E1F0E3
:100FF00080911C01882359F080910A0387FF07C064
:1010000080919C0180939D0185E080939C010280EA
:10101000F381E02D8CE991E0099486E0DBCF21910A
:101020002223D9F29F5FD9CF08952AE0929F800DA5
:101030001124982F977086958695869525E0829F36
:10104000F0011124EE54FD4F50E040E080E021918A
:1010500030E0092E02C0369527950A94E2F72170F8
:101060003327042E01C0220F0A94EAF7822B4F5F28
:101070005F4F4530510559F708952AE0929F800D42
:101080001124982F977041E001C0440F9A95EAF718
:1010900086958695869595E0899FF0011124EE54FA
:1010A000FD4F90E080E070E05191DF0111979B01CE
:1010B000082E02C0369527950A94E2F721702195F3
:1010C0002527242325272C9301968530910561F748
:1010D00008958091B10290918002981301C0089503
:1010E0008F5F8770FACF882341F080959091F1024D
:1010F00089238093F1020C94D0070895882339F056
:101100009091F102982B9093F1020C94D0070895DE
:1011100020917602309177022817390771F0909369
:10112000770280937602E0910D03F0910E033097E1
:1011300021F00084F185E02D099408952091740236
:10114000309175022817390771F0909375028093DA
:101150007402E0910D03F0910E03309721F00680A8
:10116000F781E02D099408951092F0021092EF0299
:101170000E94D00786E0ECE1F3E0DF011D928A9542
:10118000E9F710921903109216031092F7020E94C9
:10119000440790E080E00E949E0890E080E00C947C
:1011A00088086093830370938403809385039093EE
:1011B00086030C94B4080F931F936091830370917E
:1011C000840380918503909186038B019C010670B6
:1011D000112722273327063011052105310529F46F
:1011E00068601F910F910C94D108677FFACF0F931D
:1011F0001F9341E050E060E070E004C0440F551FD1
:10120000661F771F8A95D2F7CB01BA01609570955A
:10121000809590950091830310918403209185031C
:101220003091860360237123822393231F910F91B2
:101230000C94D1089091EE02809589238093EE0260
:10124000282F277071F4282F082E000C330B9217CB
:10125000130639F08595859585950E94F7081092BB
:10126000EE0208950F931F9341E050E060E070E0BC
:1012700004C0440F551F661F771F8A95D2F78091CF
:10128000830390918403A0918503B09186038A0122
:101290009B01082B192B2A2B3B2BC901B8011F914D
:1012A0000F910C94D1086093F3027093F402809331
:1012B000F5029093F6020C94B4088823B1F19CEFE8
:1012C000980F913A38F4682F8CE991E00E946B07EF
:1012D0000C94D00790E2980F983088F4877021E042
:1012E00030E0A90102C0440F551F8A95E2F7CA01F8
:1012F00080959091F10289238093F102E9CF9BE5DB
:10130000980F933020F490E080E00C949E0898E5CC
:10131000980F973120F490E080E00C948808803F8B
:1013200020F00E94FC050C9444070895CF93C82F29
:10133000882309F46FC08CEF8C0F813AC0F580913F
:101340001C01882311F180910A0387FF1EC0EC2F36
:10135000E695E695E695F0E0E456FE4F828190E052
:101360004C2F477021E030E002C0220F331F4A9516
:10137000E2F782239323892B91F06C2F8CE991E083
:101380000E946B070E94D0070AC0EEE9F1E084EAF0
:1013900091E02191C21789F38E179F07D1F76C2F27
:1013A0008CE991E00E949507CF910C94D00780E2E0
:1013B0008C0F883068F4C77021E030E001C0220F44
:1013C000CA95EAF78091F102822B8093F102ECCF6B
:1013D000EBE5EC0FE33040F4F0E0E85BFE4F80819A
:1013E00090E0CF910C949E08E8E5EC0FE73150F4C3
:1013F000F0E0EE0FFF1FE55BFE4F80819181CF9102
:101400000C948808C03F30F08C2F0E94C106CF9109
:101410000C944407CF910895E0910D03F0910E03D1
:10142000309721F00190F081E02D099480E008953B
:10143000CF92DF92EF92FF92843030F5811125C078
:10144000909180009F7D909380002E98282F30E00F
:10145000AFEFBFEF0E94CE2923E030E040E050E044
:101460000E94AC29C9012C3764E13607A0F469E079
:1014700070E00E94852870938B0060938A00FF9033
:10148000EF90DF90CF90089583E09091800090627C
:1014900090938000DBCF2A50374D4F4F5F4F942FF2
:1014A000832F722F662725EF38E241E050E00E943B
:1014B000AC2969017A01CA01B9010E945B289B012C
:1014C000AC01C701B6010E945B28672F782F892FD6
:1014D00099276115710521E08207910561F66FEF8B
:1014E0007FEFC9CF282F220F220F220F90913603B2
:1014F0009770922B90933603987F21E009F420E0B7
:101500009091360320FB90F9909336030C94180ABF
:10151000FA01811101C0FB01099480913903982FD0
:101520009E7F29F481708260809339030895863507
:10153000E8F381708465F8CFAF92BF92DF92EF92AB
:10154000FF920F931F93CF93DF93082F162FE9017C
:10155000E42FF0E0E653FE4F611110C0E4915E2FDE
:101560004E2F4983E8835A83DF91CF911F910F91CA
:10157000FF90EF90DF90BF90AF900895E62EF12C92
:101580004491D42EE42FF0E026E0829FC001112484
:101590002FEF30E0B9010E948528802F90E0880F5E
:1015A000991F55E5569FD001579FB00D11248A1BF6
:1015B0009B0B982F990F890F5901AE18BF08AE9E4B
:1015C000D001AF9EB00DBE9EB00D11245B2F189FB1
:1015D00080011124012F11275901A01AB10AAE9ED2
:1015E0008001AF9E100DBE9E100D11245901A81A46
:1015F000B108AE9CC001AF9C900DBE9C900D112413
:10160000892F9927281B390B2E9FC0012F9F900DE2
:101610003E9F900D1124E92F62307105A1F050F426
:101620006115710509F49DCF6130710581F0EB2FD3
:10163000512F97CF6430710569F080F066307105E5
:1016400009F48FCFF4CFE42F4B2F592F8ACFE42FFB
:10165000412F87CFEB2F542F492F83CF4B2F5D2D59
:10166000E12F7FCF90910A0392FF06C0282F2871A7
:101670002830F9F4877F846093FF06C0282F2871F3
:101680002831F1F4877E846120910B0320FF06C08E
:10169000382F38713830D9F4877F816021FF06C038
:1016A000282F28712831D1F4877E816194FD877EAF
:1016B0000895282F24712430F9F68B7F8860DCCFC1
:1016C000282F2471243101F78B7E8861DDCF382FDC
:1016D0003171313019F78E7F8860E0CF282F21716A
:1016E000213121F78E7E8861E1CF81FF02C0889A87
:1016F000089588980895CF93DF9300D00F92CDB7C7
:10170000DEB790918203943011F589837B836A83DD
:101710009093E9008FEF9091E800815095FD06C00D
:1017200095ED9A95F1F700008111F5CF8091E800D1
:1017300085FF0DC050E040E063E070E0CE0101960F
:101740000E9496048091E8008E778093E8000F90C5
:101750000F900F90DF91CF910895BC0184E00C941D
:101760007B0BBC0183E00C947B0B9C0184E0809399
:10177000E9009FEF8091E800915085FD06C085ED5E
:101780008A95F1F700009111F5CF8091E80085FF6F
:101790000CC050E040E066E070E0C9010E94960491
:1017A0008091E8008E778093E8000895CF93DF93CF
:1017B000EC0180911C018823B1F180910A0387FF1D
:1017C00032C060E284E08093E9008FEF9091E800FE
:1017D000815095FD06C095ED9A95F1F700008111B5
:1017E000F5CF8091E80085FF1BC080911C0170E05F
:1017F00050E040E0811104C050E040E068E070E05B
:10180000CE010E9496048091E8008E778093E800D4
:1018100080E2FE01A7E5B3E001900D928A95E1F721
:10182000DF91CF91089568E081E0CDCF81E0809392
:10183000E00080E28093D8001092C9008FE19EE41E
:101840000197F1F700C0000087E090EBDC01809386
:10185000870390938803A0938903B0938A0388E158
:101860009CE00FB6F894A895809360000FBE90930B
:101870006000FFCFCF93C82F0E949609C93349F467
:101880002FEF87EE93E0215080409040E1F700C0B9
:1018900000008C2FCF910C945D090F931F93CF9371
:1018A000DF93C42FD22FFC0182818823A1F04093C3
:1018B00078020E9438079093730280937202C77077
:1018C00081E001C0880FCA95EAF7DF91CF911F919F
:1018D0000F910C947E0810917802141335C08091FA
:1018E0007202909173020E942907883C910560F56D
:1018F000C0E2CD0F1D17B9F080E2810F883040F4AF
:10190000177081E001C0880F1A95EAF70E947308EA
:10191000C83048F481E09D2F977001C0880F9A95D8
:10192000EAF70E947E08802F0E943A0CC83098F493
:10193000D77081E001C0880FDA95EAF7DF91CF9187
:101940001F910F910C947308C77081E001C0880F3C
:10195000CA95EAF7F3CFDF91CF911F910F910895C8
:101960008091390380FD0AC0E2ECF1E0118210821F
:101970001282339652E0E430F507C1F76E9A3EB119
:101980003F7B2EB120644FB7F89482EC91E0FC01CC
:101990005191CF0168E02EB9000000C057FF3EB959
:1019A000550F000000C000C000C03EB900C06A95DD
:1019B00091F7F2E084309F0751F74FBF8FE594E035
:1019C0000197F1F700C000000895EF92FF921F9376
:1019D000CF93DF93EC0182ECE82E81E0F82E10E04B
:1019E0008C81970140913C0360913B03810F0E94E1
:1019F0009C0A155F83E0E80EF11C123F89F70E94F4
:101A0000B00C9A818C8190FF08C08F5F8C83DF912E
:101A1000CF911F91FF90EF9008958150F7CFBF9223
:101A2000CF92DF92EF92FF920F931F93CF93DF93AA
:101A3000FC018281DD24DA9480FD02C0DD24D39490
:101A400002EC11E0D0E0C0E026E1B22EF8011182F4
:101A50001082128294E0E92EF12CC12C8091BF01FA
:101A60008C0D87310CF43DC06B2D0E947728892F97
:101A7000082E000C990B8C179D0791F480913C0364
:101A80008E9DA0018F9D500D11245595479555951C
:101A90004795980160913B0380913A030E949C0A0C
:101AA000CD0CF1E0EF1AF108C9F621960D5F1F4F3A
:101AB000C631D10559F60E94B00C8091BF0191E06A
:101AC000D91215C0811111C085E18093BF01DF914A
:101AD000CF911F910F91FF90EF90DF90CF90BF902B
:101AE000089587FFC5CF8A5EC3CF8150EECF90E0C7
:101AF0000196BE010E949928E8CF0F931F93CF93C0
:101B0000DF93C2ECD1E0FE01118210821282339683
:101B100082E0E430F807C1F710E000E08091C001F6
:101B2000082E000C990B081719078CF180911001F1
:101B3000082E000C990B801791074CF19E014091E3
:101B40003C0360913B0380913A030E949C0A0F5F23
:101B50001F4F23960631110509F70E94B00C8091A2
:101B60000F019091C001980F9093C0012091100136
:101B7000280F20931001121614F495311CF0819552
:101B800080930F01DF91CF911F910F9108951982DA
:101B900018821A82DCCF8F929F92AF92BF92CF921F
:101BA000DF92EF92FF920F931F93CF93DF93EC019D
:101BB0004C81042F10E09801D8010E94CE299B018E
:101BC000AC010E9499294B015C01E0E2F0E0E01BCE
:101BD000F10BA5E5B0E0AC019B010E9499296B01D6
:101BE0007C019F01DF010E94BA289B01AC010E9489
:101BF000A4299B01AC01280D391D4A1D5B1DC7019D
:101C0000B6010E94AC29F22E822F90E039E23F15F6
:101C1000D8F143E0249F9001112435952795122F88
:101C2000109592ECC92E91E0D92E00E085E5E82EC2
:101C3000EF188E2D01FD8F2D9601412F60913B03F2
:101C40000E949C0A0F5F53E0C50ED11C063189F734
:101C50000E94B00C9C8181E0992319F0903219F414
:101C60008FEF8093110180911101890F8C83DF9197
:101C7000CF911F910F91FF90EF90DF90CF90BF9089
:101C8000AF909F908F90089525E530E0A901481B03
:101C9000590BCA019A01220F331F280F391F37FF32
:101CA000BCCF2F5F3F4FB9CFEF92FF920F931F939F
:101CB000CF93DF938C01C2ECD1E0F12CE12CF80141
:101CC000948160913B0380913A03FBE0EF16F104AD
:101CD000FCF49923F9F09E0140913C030E949C0A78
:101CE0002FEFE21AF20A239686E1E816F10439F79B
:101CF0000E94B00CF801848190E0019681709927D0
:101D00008483DF91CF911F910F91FF90EF90089501
:101D1000992309F39E0140E0E1CF9091390390FFB0
:101D20000CC0E2ECF1E0818360834283339692E061
:101D3000E430F907C1F70C94B00C08950F931F938A
:101D4000CF93DF9300D00F92CDB7DEB78C01809197
:101D5000C10181110AC09E012F5F3F4F4FEF6FEF0E
:101D60000E949C0A8A818093C101F80164816130DC
:101D700069F08091C10140E0662361F040E062308B
:101D800011F44091C10180E060E004C06091C101A4
:101D900040E080E00E948D0EF801848190E0019681
:101DA00063E070E00E94992884830F900F900F9059
:101DB000DF91CF911F910F910895CF93DF9300D0C2
:101DC0000F92CDB7DEB79091390390FF0AC09E0104
:101DD0002F5F3F4F0E949C0A4B8169818A810E943C
:101DE0008D0E0F900F900F90DF91CF910895CF93AC
:101DF000DF93EC01EC81F0E0E153FD4F4491E9E326
:101E0000F3E0628181810E94DD0E8C818F5F8C8383
:101E1000DF91CF910895CF93DF93EC01E9E3F3E0F5
:101E2000438162818C810E94DD0E8C818F5F8C8367
:101E3000DF91CF9108956F927F929F92AF92BF9260
:101E4000CF92DF92EF92FF920F931F93CF93DF9386
:101E500049E751E008EF12E03801C0E0EE24E394D6
:101E6000F12CDA018D91AD01E82FE295EF70F0E0F1
:101E700091A18F70570101C0AA0C8A95EAF7892FAA
:101E80008A2981A382A19A2C9094892182A3B0EA05
:101E9000BA95F1F782E8C82E81E0D82E30E020E034
:101EA00090E080E0D601DD916D016D2F62956F703D
:101EB00070E0DB0190966C9170E0DF7002C0759568
:101EC0006795DA95E2F760FD49C0B701022E02C0BE
:101ED000660F771F0A94E2F7862B972B2F5F3F4FF1
:101EE0002A303105F9F621A1292121A322A1A22A14
:101EF000A2A2F301208131818217930791F191838E
:101F0000808381E0C82BF2E06F0E711C81E04238C3
:101F1000580709F0A6CFCC2331F181E08093BE01B0
:101F20000E9438079093BD018093BC018091BC0151
:101F30009091BD010E9429070697C8F0EEE3F3E0F7
:101F40008AE093E0D8012D913D918D012193319349
:101F50008A179B07B9F71092BE0109C070E060E0D4
:101F6000BBCF80E0CFCF8091BE018111DFCF8C2F1E
:101F7000DF91CF911F910F91FF90EF90DF90CF9065
:101F8000BF90AF909F907F906F900895CF9384E023
:101F900090E00E943229C82F81E290E00E9432290D
:101FA000982F8C2FCF9108950F931F93CF93DF938A
:101FB000C42FD0E0CC0FDD1F24E1629FC00DD11DE6
:101FC000112434EB839FC00DD11D1124CE018696C0
:101FD0000E943229082F10E0102F0027CE0187968B
:101FE0000E9432299801282BC901DF91CF911F91BE
:101FF0000F910895462F843038F4793028F46A30F0
:1020000018F4672F0C94D40F90E080E00895CF93DC
:10201000DF930E94FA0FEC0182389105A9F1D8F5FF
:102020008133910509F496C048F58932910509F488
:102030008AC08A9709F495C0C11521E5D20708F036
:10204000BCC0C11530E5D30708F014C1C83ED105A6
:1020500008F09CC0C03ED10560F5C83AD10508F033
:1020600087C0C53AD10508F0FDC0C130D10509F1DE
:102070002097F9F0C430D105E0F440C085339105D4
:1020800009F45AC0C997C1F680910A03837089F098
:10209000C0EED0E00EC0833E910599F170F4803E11
:1020A000910501F1823E910539F680910A0382FD86
:1020B00021C0CE01DF91CF910895863E910561F157
:1020C000873E910571F1843E910509F0B5CF80916D
:1020D0000B0381FFEECF80910A03C7EED0E084FDB1
:1020E0000DC0E7CF80910A0380FD12C190910B03D0
:1020F00090FFDFCFC3EED0E084FFDBCFD0E0C0E0C5
:10210000D8CF80910A0382FD06C190910B0390FD08
:10211000BFCF84FFCECFF2CF80910A0383FDDDCF06
:10212000C8CF80910A0383FDF9C090910B0391FF02
:10213000F0CFC4EED0E0BDCF80910A0385FFB9CFC8
:10214000C9E2D0E0B6CF80910A0385FFB2CFC5E3E4
:10215000D0E0AFCF80910A0386FFABCFCAE2D0E0D8
:10216000A8CF80910A0386FFA4CFC1E3D0E0A1CF1E
:10217000CF3BD10518F6C85AD0E0CC0FDD1FC55BA8
:10218000DE4F0990D881C02DD46493CFC11540E2B1
:10219000D40758F4C11581E0D80708F08ACFC03FB2
:1021A000D10508F4ABCFD06584CFC11590E4D90731
:1021B00008F4A4CFDF70D06A7CCFC11525E5D20723
:1021C00000F5C11534E5D30708F08AC0C11543E511
:1021D000D40708F071C0C11582E5D80708F467C0BC
:1021E000CE018370992721E030E002C0220F331F17
:1021F0008A95E2F7C695C69580E2C89FE001112452
:1022000052C0C11599E5D907A8F4C11528E5D20730
:1022100008F06BC0C11536E5D30708F06FCF8C2FDF
:102220000E94320BC82FD0E0DC2FCC27CC27DF71E7
:10223000D0623FCFC1154AE5D40708F45BC0CE0198
:1022400090568115904208F059CF8D2F8F710E94C2
:10225000320B90E0982F882788279F719C012C2BA8
:10226000E901E6CFC55AD0E0C85BDE4FC881D0E0B7
:10227000D0641FCFCE01E4E096958795EA95E1F70B
:1022800083702C2F26952695237040E2249F900181
:102290001124382B8C2F8370C1E0D0E002C0CC0F0A
:1022A000DD1F8A95E2F7C22BD32BDC6802CFDC2F2F
:1022B000CC27C16FD06AFDCECE018370992721E073
:1022C00030E002C0220F331F8A95E2F7C695C6950B
:1022D00090E2C99FE0011124C22BD32BDA68E9CE2A
:1022E000DC2FCC27C46FD06AE4CEDC2FCC27C06FA4
:1022F000D06ADFCE8C2F8F700E94320B34E0D695DF
:10230000C7953A95E1F7CF709C2FEC01D069D1CEFB
:10231000C9E3D0E0CECEC2EED0E0CBCEC6EED0E068
:10232000C8CEBF92CF92DF92EF92FF920F931F938E
:10233000CF93DF938C01C0908303D0908403E0900F
:102340008503F09086038091F3029091F402A091AE
:10235000F502B091F602C82AD92AEA2AFB2ACFE16F
:10236000D0E0BC2ED701C6010C2E04C0B695A795AF
:10237000979587950A94D2F780FD0EC0219788F72C
:10238000B12C8B2DDF91CF911F910F91FF90EF908A
:10239000DF90CF90BF900895B8018C2F0E94071056
:1023A000019761F3EECFCF93DF93EC010E9491117F
:1023B000BE01DF91CF910C9407100E94D311292FF9
:1023C0002F7092959F7092509E3078F4E92FF0E034
:1023D000E152F64D0C94AD28803F19F020F4883E70
:1023E00020F481E00895843FE1F380E00895883E81
:1023F000C0F3813FD1F7F5CF822F869586958695DC
:1024000008956F927F928F929F92AF92BF92CF92D8
:10241000DF92EF92FF920F931F93CF93DF938FEC96
:10242000C82E83E0D82E9EEEE92EF12CE701C45B86
:10243000D10936011BC0F50185909490692DC80122
:102440000E944629682DC80101960E94462982E013
:10245000A80EB11C0E5F1F4FC017D10761F784E1B2
:10246000680E711C6496CE15DF0529F08E010451AB
:1024700011095301E0CF7E0184EBE80EF11C84EBDF
:10248000C80ED11C8EEBE81683E0F80679F6DF91D2
:10249000CF911F910F91FF90EF90DF90CF90BF9061
:1024A000AF909F908F907F906F900895682F86E0F7
:1024B00090E00C944629CF93DF93C6EFD2E060E022
:1024C000CE010E9446292196C11584E0D807B9F7AC
:1024D000DF91CF910895CF93C82F6FEF811160E204
:1024E00082E290E00E9446296FEFC11161E183E230
:1024F00090E00E9446296FEFC11164E084E290E011
:10250000CF910C9446298F929F92AF92BF92CF9217
:10251000DF92EF92FF920F931F93CF93DF93FC0113
:10252000B280948081E08483C4E0D2E002EC11E0C8
:102530008BE4A82E88248394EE24EA94F12C2BE4D7
:10254000C22ED12C91101DC01B821A8298014A8183
:10255000698188810E949C0A25960D5F1F4F82E049
:10256000C237D80779F7DF91CF911F910F91FF9074
:10257000EF90DF90CF90BF90AF909F908F900C9492
:10258000B00C2B81222309F121502B833C818A2D11
:10259000821B311101C0822F90913C03899FC001A1
:1025A0001124B6010E9485286A83211104C03323B7
:1025B00011F01C82AB8222E02B1540F280913A038D
:1025C000888380913B038983C1CF0E941529823083
:1025D00091400CF0BBCF82E08B15C0F40E9415290E
:1025E000B7010E949928888322E02B1590F40E945D
:1025F000152920913B032695622F70E00E949928AF
:10260000280F29831A82AB828C82A0CF80913A0353
:10261000EACF20913B03F5CF90E080E00E94402973
:1026200021E08C3E9E4F09F020E0822F08956CEE51
:102630007EEF90E080E00E94642960E082E090E01C
:102640000E94462960E083E090E00E9446291092B3
:10265000F3021092F4021092F5021092F60260E07A
:1026600084E090E00E94462960E081E290E00E94D0
:10267000462960E085E090E00E94462960E086E01F
:1026800090E00E9446296FEF87E090E00E94462983
:1026900040E050E0BA0188E090E00E94582960E0F4
:1026A0008DE090E00E94462940E050E0BA0188E1C8
:1026B00090E00E94582960E087E190E00E9446295E
:1026C00040E050E0BA018CE190E00E94582960E0BF
:1026D00080E290E00E94462940E050E0BA018FE09D
:1026E00090E00E94582940E050E0BA0183E190E078
:1026F0000C9458290E940C13811102C00E941713D8
:1027000086E090E00E94322980933603803220F0E8
:10271000877088618093360390913603892F81708A
:1027200090FF04C0892F8695869586950C94180A8B
:10273000CF92DF92EF92FF926B017C010E948D0A93
:10274000B701A60188E090E0FF90EF90DF90CF9076
:102750000C9458295F926F927F928F929F92AF92C2
:10276000BF92CF92DF92EF92FF920F931F93CF937E
:10277000DF9300D00F92CDB7DEB7182F762E042F3F
:10278000622E9091390390FF29C0E92FE695AE2F74
:10279000B0E0A35EBE4F8C91809337039E7F923052
:1027A00081F59E012F5F3F4F812F0E949C0A4B8134
:1027B00069818A810E948D0E10933A0370923B03C7
:1027C00000933C03662051F06091390370913A0305
:1027D00080913B0390913C030E9498130F900F90BF
:1027E0000F90DF91CF911F910F91FF90EF90DF90AD
:1027F000CF90BF90AF909F908F907F906F905F90A1
:102800000895823019F400913C03D6CF863019F434
:1028100010913A03D1CF8930D9F3893169F6E95162
:102820008E2F8170582EE695F0E0E653FD4FA5906F
:10283000B490BB2482ECE82E81E0F82ED12CC12C80
:1028400096E1892E912CC601B4010E948528812F22
:10285000511013C0860F9701402F672D0E949C0ACC
:10286000CA0CDB1C83E0E80EF11C84E0E81682E071
:10287000F80649F70E94B00C9FCF861BECCFE9E326
:10288000F3E0438128E0421B08F440E021E062814C
:1028900081810C94AA13E9E3F3E0438128E0420F1D
:1028A00008F44FEF21E0628181810C94AA13E9E3DF
:1028B000F3E0628128E0621B08F460E021E04381DC
:1028C00081810C94AA13E9E3F3E0628128E0620FAE
:1028D00008F46FEF21E0438181810C94AA13E9E3AE
:1028E000F3E0818121E04381628188500C94AA1336
:1028F000E9E3F3E0818121E043816281885F0C9408
:10290000AA1380913D03882319F0815080933D03E1
:102910006091390370913A0380913B0390913C039D
:102920000C94981380913D03833018F48F5F80934B
:102930003D036091390370913A0380913B0390917C
:102940003C030C949813E9E3F3E083E08083118265
:102950008FEF82838383148260817181828193816E
:102960000C9498131092F10280911C01EEE9F1E0B1
:10297000882359F080910A0387FF07C08EE1DF01A9
:102980001D928A95E9F70C94B40886E0F8CF1F935E
:10299000CF93DF93CDB7DEB7AA970FB6F894DEBF1B
:1029A0000FBECDBF8AE793E02091F100DC012D93AB
:1029B000CD01B3E082389B07B9F780917B03833068
:1029C00009F471C0B8F4813009F448C0823009F4C8
:1029D000B2C08091E80083FF3AC180917A03909160
:1029E0007B039A3008F033C1E92FF0E0E351F64D54
:1029F0000C94AD288A3009F48DC08B3009F470C076
:102A0000893039F780917A03813219F780917E03FA
:102A100090917F03009711F00297D9F68091E8001A
:102A2000877F8093E8008091E80082FF37C0909113
:102A3000F3008091F200029729F48091F1008B7FDE
:102A4000813021F48091F100809356038091E80059
:102A50008B778093E8000E94E804BBCF80917A03D3
:102A6000813A09F0B6CF8091E800877F8093E80033
:102A700080917E0390917F03892B61F460E287E56A
:102A800093E070E00E949A058091E8008B77809334
:102A9000E8009FCF60E090E080E0F3CF8091820378
:102AA0008111C1CF96CF80917A03813A09F091CFFD
:102AB00080917E0390917F03892B09F08ACF8091CA
:102AC000E800877F8093E8008091E80080FFFCCFDA
:102AD00080911C018093F1008091E8008E77B9CF3E
:102AE00080917A03813209F074CF80917E039091B6
:102AF0007F03892B09F06DCF8091E800877F809359
:102B0000E8000E94E80480917C0380931C010E94ED
:102B1000B2145FCF80917A03813209F05ACF80914D
:102B2000E800877F8093E8000E94E80480917D039D
:102B3000809355034ECF80917A03813A09F049CFB3
:102B40008091E800877F8093E8008091E80080FF13
:102B5000FCCF80915503BECF803899F0823809F0C0
:102B600076C080917E038F70873008F070C08093AC
:102B7000E9008091EB0085FB882780F91092E9003D
:102B800006C08091770390917803911182609091B3
:102B9000E800977F9093E8008093F1001092F10095
:102BA0008091E8008E77C0C1882309F4ADC18230DE
:102BB00009F04DC080917C038111B1C180917E03E9
:102BC0008F702FEF280F263008F041C08093E90066
:102BD0002091EB0020FFA3C1933031F48091EB00F2
:102BE00080628093EB009BC19091EB009061909389
:102BF000EB0021E030E001C0220F8A95EAF7209334
:102C0000EA001092EA008091EB008860EACF81111F
:102C10001EC010917C031F778091E3008078812B88
:102C20008093E3008091E800877F8093E8000E9412
:102C3000E8048091E80080FFFCCF8091E300806889
:102C40008093E30082E0111183E0809382038091FE
:102C5000E80083FF0AC08091E800877F8093E80046
:102C60008091EB0080628093EB00AA960FB6F894F7
:102C7000DEBF0FBECDBFDF91CF911F910895805869
:102C8000823028F720917C0330917D032C3DE3E0D6
:102C90003E07A1F583E08A838AE289834FB7F894DF
:102CA000DE01139620E03EE051E2E32FF0E0509386
:102CB0005700E49120FF03C0E295EF703F5FEF7093
:102CC0008E2F90E0EA30C0F0C7968D939D932F5FD2
:102CD000243159F74FBF8091E800877F8093E80047
:102CE0006AE270E0CE0101960E949A058091E800A8
:102CF0008B778093E800ABCFC096E7CF80917E03BF
:102D000090917F03432F55274330510509F44AC062
:102D100078F54130510509F485C08BE590E0E4E594
:102D2000F7E04230510509F092CF2091E800277F6B
:102D30002093E8002091800330918103821793074C
:102D400008F49C0140E02115310509F070C04111E3
:102D50006EC08091E80082FDC9CF809182038823F4
:102D600029F2853019F28091E80083FFF2CFBECFBF
:102D70004132510509F447C04232510509F067CF8D
:102D80008330910508F063CFFC01EE0FFF1FE15780
:102D9000FE4F0190F081E02D84579E4FDC018C9115
:102DA00090E01DC0332721303105E9F021153105B0
:102DB00079F022303105F9F02330310509F047CFA1
:102DC000E1ECF7E0E4918E2F90E0E1ECF7E007C052
:102DD000E5EFF7E0E4918E2F90E0E5EFF7E0009764
:102DE00009F435CFA2CFEBEDF7E0E4918E2F90E020
:102DF000EBEDF7E0F4CFE7ECF7E0E4918E2F90E015
:102E0000E7ECF7E0ECCF8330910508F020CF880F96
:102E1000991FFC01EB56FE4F0190F081E02D89E0F7
:102E200090E083CF82E190E0EFEAF7E07ECF8091FF
:102E30008203882309F45ACF853009F457CF809153
:102E4000E80083FD53CF8091E80082FD82CF80911E
:102E5000E80080FF78CF9091F3008091F200211577
:102E6000310519F08830910550F041E0089709F0DC
:102E700040E08091E8008E778093E80064CF449131
:102E80004093F1003196215031090196E8CF803806
:102E900009F0DDCE8091E800877F8093E800809183
:102EA00079038093F1007CCE8111D1CE10917C0307
:102EB000123008F0CCCE8091E800877F8093E80044
:102EC000109379030E94E804112311F084E005C0F7
:102ED0008091E30087FDFACF81E08093820342E096
:102EE00061EC81E00E94070542E261EC84E00E940F
:102EF000070542E261EC82E00E94070542E260ECD5
:102F000083E00E940705A3CE80917C03813009F005
:102F10009ECE81E0933009F080E080937803109298
:102F2000E9008091E800877F8093E8000E94E80430
:102F30008ECE9091390390FF3DC09170811129C0D0
:102F4000926090933903662351F060913903709138
:102F50003A0380913B0390913C030E949813609147
:102F60003903669570E04BE050E084E091E00E9408
:102F70002529892BA9F01092380381E0809313034F
:102F800020E040913C0360913B0380913A030C9414
:102F9000AA138B3210F09465D4CF880F982BD1CF21
:102FA00081E0809338030E94380790931103809347
:102FB0001003E3CF0895809139038695815009F479
:102FC0008AE261E00C9499178091390386958F5FAE
:102FD0008B3208F081E061E00C94991790913903ED
:102FE00090FF07C09695981720F0961710F40C9450
:102FF000E41761E00C9499174F925F926F927F9261
:103000008F929F92AF92BF92CF92DF92EF92FF92F8
:103010000F931F93CF93DF9300D000D00F92CDB7C3
:10302000DEB77C01FC0183819481892B31F08081A2
:10303000918189238F3F09F078C60F900F900F90F0
:103040000F900F90DF91CF911F910F91FF90EF9014
:10305000DF90CF90BF90AF909F908F907F906F90B8
:103060005F904F9008950E949111182F682F8981C9
:103070009A810E943D0869817A81812F0E94FA0F0E
:103080008C01F7019281992309F428C698012251F5
:103090003F452031310508F0A6C58FEF93E00E942F
:1030A0003229025156EF852E52E0952E882379F170
:1030B0008091EE02877009F4C0CFF70182818823E6
:1030C00009F4BBCF82E00F900F900F900F900F90FC
:1030D000DF91CF911F910F91FF90EF90DF90CF90F4
:1030E000BF90AF909F908F907F906F905F904F9028
:1030F0000C941A098114F4E09F06D1F2C4010E94D5
:103100003229811101C001502FEF821A920A011158
:10311000F1CF1C821B82662463944AE0542E840102
:103120000F5F1F4FC4010E94322989831A828823AE
:1031300009F4BECF9FEF980F933008F58A83698218
:1031400032E0830E911CC8010E9432298B838823B0
:1031500009F4AECF8E010F5F1F4FF80120812223AB
:10316000F1F2213009F043C091818281913049F41C
:103170000E5F1F4F0E943A0C0F5F1F4FEECF4801AA
:10318000E9CF923029F40E5F1F4F0E949609F4CFC9
:10319000933029F40E5F1F4F0E945D09EDCF9430EC
:1031A00019F00F5F1F4FE8CF0E5F1F4F30E020E098
:1031B000B8016F5F7F4FF80141818053990B8A30CE
:1031C000910550F021503109B8F28FE99FE0019745
:1031D000F1F700C00000F6CF529EF001539EF00DB3
:1031E00011249C012E0F3F1F842F8B01E1CFE22F72
:1031F000F0E0E154F94F7490822F8695869586957C
:1032000090E0FC01E155F94FA4902770B12C022EFB
:1032100002C0B594A7940A94E2F7E1E0AE22BB2481
:10322000FC01E156F94FC490D12C02C0D594C7944B
:103230002A95E2F7F1E0CF22DD24A114B10419F0C0
:1032400081EE0E949609C114D10419F086EE0E9405
:103250009609872D0E943A0CCD2819F086EE0E941F
:103260005D09AB2809F488CF81EE96CF81E00E94FA
:1032700032090E94DB081CCF81E00E94F708F9CFD9
:1032800082E0F5CF82E0F9CF0F3BFCE51F0709F4A0
:103290004AC098F1003C3CE5130709F0C0C4909186
:1032A0003603892F8695869586958F5F8F719770E7
:1032B000843008F059C0880F880F880F892B8093BD
:1032C00036038091360310C083E00E94720A809119
:1032D00036030E945612ECCE80913603982F987FC9
:1032E000E9F1885080933603887F91E009F490E0FB
:1032F0008091360390FB80F913C080913603982F9C
:10330000969596959695933040F49F5F990F990FF7
:10331000990F8770892B80933603809136038160E3
:103320008093360319C08091360380FF09C08E7FD9
:10333000809336030E94561280E00E94180AB8CE8D
:1033400080FDB6CE816080933603813019F489E028
:1033500080933603809136030E9456128091360383
:10336000869586958695E9CF90933603AACF07E296
:1033700025EE45EE68ED7CE5D4C406E221EE40EE94
:1033800063EF7CE5CEC407E225EE44EE64EF7CE516
:10339000C8C406E221EE42EE65EF7CE5C2C408E255
:1033A00021E045EE69ED7CE5BCC480910A038061B3
:1033B00006303CE5130709F47FC008F484C080910F
:1033C0000A03806279C080910A038D7F0C309CE5EE
:1033D000190709F471C070F480910A038C600A30F7
:1033E000FCE51F0709F468C008F479C080910A035E
:1033F0008E7F62C080910A03877F0E303CE5130701
:1034000009F45AC008F471C080910A038F7E54C039
:103410000B3F9CE5190709F45AC030F50331FCE570
:103420001F0709F472C078F401313CE5130709F471
:1034300068C002311C4509F041C40E94B214809159
:103440000A038F7739C005319CE5190709F465C077
:1034500008F479C080910B0381600A3F1C4509F094
:103460002DC480930B032AC40F3F2CE5120709F4E7
:1034700050C070F40D3F8CE51807D9F180910B0313
:103480008E7F0E3F1C4568F380910B038360E9CF6C
:103490000130EDE51E0709F45FC008F44AC060E0A2
:1034A00002301D4509F00AC48EE090E00E944629D2
:1034B00005C480910A03816080930A03FFC3809151
:1034C0000A038460F9CF80910A038860F5CF809168
:1034D0000B038260C6CF80910A038064EDCF0E9407
:1034E000B21480910A038068E7CF80910A038B7F32
:1034F000E3CF80910B038D7FB4CF80910A038F7D42
:10350000DBCF80910A038F7BD7CF80910A03837F23
:10351000D3CF80910B038C7FA4CF80910A0382FBD1
:10352000992790F921E0922790FB82F990FB83F98B
:10353000C3CF80910B03982F909591708E7F892B2C
:1035400090FB81F98ECF0E94B21490910A03892FCB
:1035500097FB87F98058B0CF61E0A6CF8091F10248
:1035600006313CE5130709F0F1C38A7A91E009F4CA
:1035700090E09093790269E2811165E38CE991E032
:103580000E9495070E94D00793CD8091390380FF58
:103590001BC08E7F809339036091390370913A0389
:1035A00080913B0390913C030E9498131092380342
:1035B0008FEF90E7E2E081509040E040E1F700C0FB
:1035C00000000E94B00C74CD81608093390361E0EB
:1035D00086950E9499176CCD4BED57E164EE77E12B
:1035E0000E94880A65CD44EE57E16BED77E1F8CF94
:1035F0004FE654E168E774E1F3CF48E754E16FE642
:1036000074E1EECF47E554E163E674E1E9CF43E6C8
:1036100054E167E574E1E4CF4FE354E16BE474E116
:10362000DFCF4BE454E16FE374E1DACF41E854E1DA
:1036300062E974E1D5CF42E954E161E874E1D0CFA9
:1036400061E081E0C6CF65E082E00E94EE1730CDF8
:1036500068E086E0FACF6EE089E0F7CF64E18FE0C2
:10366000F4CF67E185E1F1CF61E088E1B2CF62E2BA
:1036700089E1EBCF61E083E2ACCF0115FCE51F07E8
:1036800009F447C00E3D1C4509F450C0F701008104
:103690001181992309F44DC0C8010E949111D82EBF
:1036A000682FC8010E943D08B8018D2D0E940710A7
:1036B0008C01882EF701A580A2943FE0A322D2803E
:1036C000D1101092F0028091EE02877099F0DD2007
:1036D00089F0812F807F803421F080E2800F883054
:1036E00048F082E00E941A098091EE028770CC2493
:1036F000C3948111C12CB12EB2942FE0B222FBE011
:10370000FB1508F450C0EB2DF0E0E950F64D0C9499
:10371000AD280E94B2143FEF84E39CE0315080401A
:103720009040E1F700C000000E94160C0E941713A1
:10373000BFCCC8010E941508D82EB6CF212F2F70FC
:10374000A22E107F19F0A29490EFA922DD20C9F0DB
:10375000AA2069F080E2800F883010F081100BC041
:103760008091F102A82AA092F1020E94D007802F36
:103770000E94960918C08091F002A82AA092F00237
:10378000F4CF802F0E945D09AA2069F0A094005E0A
:10379000083010F081103DC08091F102A822A09263
:1037A000F1020E94D007EB2DE850FF0B349720F474
:1037B0000E940C0A0E94750BCC2009F43ECC80912B
:1037C000EE0280FD3ACCF7011282859585958595AC
:1037D0000E943209C7010E94FC178091EE02859574
:1037E000859585950F900F900F900F900F90DF911A
:1037F000CF911F910F91FF90EF90DF90CF90BF90EE
:10380000AF909F908F907F906F905F904F900C94AF
:10381000F7088091F002A822A092F002C2CF312FC7
:103820003F70932E107F103219F0929480EF9822FF
:10383000882071F081E0881661F1DD20B9F1AA20BD
:1038400071F1F701858180FF92CF8F70858327C04A
:10385000DD2091F09091F202892D892BA11003C0F7
:103860000E947E08A0CFE1E0AE12FACF981709F4CB
:103870009ACF8093F20297CFA11006C00E94CA0788
:10388000892D0E9473088FCFF1E0AF1609F48BCF1A
:10389000F5CFDD2031F025E02A1508F484CF892DFD
:1038A000DFCF34E03A1508F47ECFEACFAA2041F307
:1038B000F9E38F1291C12FEF37EE83E021503040B2
:1038C0008040E1F700C0000087C1812F8695869572
:1038D000837061F0813009F066CFC8019370D11018
:1038E00002C090E080E00E9488085DCFC80193701C
:1038F000D11002C090E080E00E949E0854CF802F3B
:10390000DD2029F00E94C1060E9444074CCF0E948E
:10391000FC05FACF812F837009F066C0D11043CF28
:10392000802F829586958770880F880F602F6F7023
:10393000462E512C712C612C082E04C0440C551CB1
:10394000661C771C0A94D2F740E050E0BA0104FFED
:103950000FC04FE050E060E070E004C0440F551F1E
:10396000661F771F8A95D2F74095509560957095A0
:10397000812F869586958370823019F1D8F4009155
:10398000F3021091F4022091F5023091F602813099
:1039900069F04429552966297729CB01BA016023AA
:1039A0007123822393230E945309FDCE402A512A7A
:1039B000622A732ACB01BA016429752986299729BD
:1039C000F2CF44295529662977290091F3021091F5
:1039D000F4022091F5023091F602CB01BA01602782
:1039E000712782279327DFCF8695DD2011F0812F65
:1039F0008170882309F4D7CE802F829586958770B1
:103A0000880F880F602F6F70462E512C712C612CFF
:103A1000082E04C0440C551C661C771C0A94D2F76F
:103A200040E050E0BA0104FF0FC04FE050E060E01A
:103A300070E004C0440F551F661F771F8A95D2F7A8
:103A40004095509560957095812F869586958370E9
:103A5000823019F1D8F400918303109184032091EE
:103A6000850330918603813069F044295529662900
:103A70007729CB01BA0160237123822393230E940B
:103A8000D10891CE402A512A622A732ACB01BA0169
:103A90006429752986299729F2CF44295529662951
:103AA000772900918303109184032091850330913D
:103AB0008603CB01BA016027712782279327DFCFC6
:103AC0001F70DD2029F0812F0E943209802FC8CE7F
:103AD000802F0E947308812F0E94F70864CE802FE8
:103AE00092EF891609F450C0981578F0E0EF8E1621
:103AF00019F1F1EF8F1609F43FC0DD2009F467C01A
:103B0000A11035CE812F8F713CC023EF821609F4AE
:103B100040C034EF8312F1CFDD2009F44DC01F7196
:103B2000812F0E943209E8E01E9FC00111248360AA
:103B30008093EE02812F25C0DD20C9F084E08A1534
:103B400008F431CE1F7161E070E080E090E004C0C5
:103B5000660F771F881F991F1A95D2F7009183036C
:103B6000109184032091850330918603A4CF95E0C2
:103B70009A1508F418CEE6CF812F8F71DD2009F455
:103B8000ABCF0E9432090FCE812F8F71DD20C9F398
:103B9000A3CF60E070E0CB01DD2009F470CF1F718E
:103BA00061E070E080E090E004C0660F771F881F3E
:103BB000991F1A95D2F763CF81E00E941A09F1E0AC
:103BC000FA1508F0F0CD82E00E941A09ECCDAA2087
:103BD00039F0893309F46FCE802F0E945D09E3CD5F
:103BE000812F8F7179CF0031FFE51F0709F43ECB9C
:103BF00001312FE5120709F443CB0D3B2CE51207E9
:103C000009F46ACB08F040CB0B3B8CE5180709F4AC
:103C10005BCB80E00C3BECE51E0709F456CB033F81
:103C2000ECE51E0709F4A9CB08F0B5C0083D2CE56A
:103C3000120709F49CCB093D3CE5130709F4AFCB0F
:103C4000073D8CE5180709F467C01092780202302E
:103C50008CE5180708F482CC0631ECE51E0738F035
:103C600098012A5F3C452930310508F077CC0E9445
:103C7000C60F90930B0380930A030031FCE51F07E6
:103C800009F43BCC08F0C4CB08303CE5130709F439
:103C900022CC08F098CB04309CE5190709F40FCC2E
:103CA00008F083CB0230FCE51F0709F402CC8091B9
:103CB0000A03826003301C4509F4FECB60910A03BD
:103CC00010910B0384E090E00E944629612F81E26D
:103CD00090E00E9446290E94B214EAC900313FE5F3
:103CE000130709F4C9CA01318FE5180709F4CACAD4
:103CF000033F2CE5120709F440CBA0F5083D8CE505
:103D0000180709F434CB093DECE51E0709F447CB4D
:103D1000073DFCE51F0789F506E221EE41EE67ED60
:103D20007CE5C7010E944D0CC3C985E0DE011196F8
:103D300001900D928A95E1F7F701228189819A819C
:103D4000211191C90E941508182F95C98272F80196
:103D5000E25CFC45E431F10508F08FCCED5FF54DF8
:103D60000C94AD28053F2CE5120709F412CB08F49A
:103D70000ACB063F8CE51807D1F006311C4509F047
:103D800085CC8091790269E2811165E38CE991E04B
:103D90000E946B07F7CB053FECE51E0709F4F9CA53
:103DA00008F4F1CA063F2CE5120709F04ECF07E2EE
:103DB00025EE46EE66EF7CE5B4CF1F93CF93DF93FD
:103DC00080917F02807FA9F480917C02882389F012
:103DD0008091B102D091800260917A0270917B0251
:103DE000A0917D02B0917E02C62FC72316E0D813A2
:103DF00004C0DF91CF911F91089590E0109711F0CA
:103E0000CF3F19F401968770F2CF189F9001199F48
:103E1000300D1124F901EF57FD4F41814713F2CFC7
:103E200040814613EFCF42814111ECCF4381548151
:103E30004A1B5B0B483C510528F780917F028F702D
:103E4000806180937F02F901EA57FD4F80818F7076
:103E5000806180838AE792E00E94FC17DF91CF9116
:103E60001F910C946908AF92BF92CF92DF92EF92AC
:103E7000FF920F931F93CF93DF93CDB7DEB7619778
:103E80000FB6F894DEBF0FBECDBF8C0185E0F80100
:103E9000DE011D9601900D928A95E1F7F80180816F
:103EA0009181E2802AE7A22E22E0B22E60917D026B
:103EB00070917E026115710509F43EC130917A025C
:103EC00040917B02232F24232F3F09F435C1C38067
:103ED000D480F0907C02F601E61BF70BFF2009F47A
:103EE000FBC020917F02522F507FE83CF10508F083
:103EF000BBC0511178C0FE2C491321C038131FC01C
:103F0000E1101DC02F70206120937F02C5010E9427
:103F1000FC1780917F02F80185838F2D61960FB683
:103F2000F894DEBF0FBECDBFDF91CF911F910F91EF
:103F3000FF90EF90DF90CF90BF90AF900895CD2885
:103F400029F0282F29232F3F09F014C120E0F22F58
:103F5000F170DF2E20FF3DC02091B1024091800220
:103F600056E0241315C08D879E878D859E850E94FF
:103F7000D311292F22952F702230F8F0243020F50C
:103F80009F70F9F0F8019581907FD9F4D12C1FC072
:103F900030E0529FF001539FF00D1124EF57FD4F79
:103FA0006181961306C06081861303C06281E612A8
:103FB00010C02F5F3F4F2770D4CF9F7011F0882320
:103FC00029F3805E883010F3C8010E94FC17FD2C95
:103FD000A4CFEE2009F4A1CF80917F02816080936D
:103FE0007F02F12C9ACF491312C0381310C0E11090
:103FF0000EC0F8012583C8010E94FC1786E0F80175
:10400000AAE7B2E001900D928A95E1F786CF8D87FD
:104010009E878D859E850E94DD11882309F1EE2003
:10402000F9F080917F02803270F020917A02309115
:104030007B0238872F831986DB86CA868C87CE0160
:1040400007960E94FC1786E0F801AAE7B2E001900B
:104050000D928A95E1F70E94DD1EFF24F3945DCF57
:10406000C8010E94FC17F9CF51110AC08AE792E0FB
:104070000E94FC1786E0F50111928A95E9F7B1CF0D
:1040800049130FC038130DC0E1100BC0F801258390
:10409000C8010E94FC1786E0F50111928A95E9F7A4
:1040A0003CCF8D879E878D859E850E94DD1188235C
:1040B000B9F2EE20A9F280917F02803220F22091A5
:1040C0007A0230917B023A8329831B82DD82CC8283
:1040D0008E83CE010196B5CFE83CF105E0F6FE2CCB
:1040E000EE2009F4BDCF491316C0381314C08091D7
:1040F0007F0280FD83CF982F907F09F47FCFF80156
:104100008583903F09F477CF982F907F905F8F70D1
:10411000892B858370CF8D879E878D859E850E9494
:10412000DD11811190CF80917F02816080937F02A9
:10413000C8010E94FC17F1CEEE2009F491CF8D87C3
:104140009E878D859E850E94DD11F82E882309F4B7
:1041500087CF86E0F801AAE7B2E001900D928A9538
:10416000E1F780917A0290917B020E94D3110E9424
:10417000DD1ED3CE21E02E25EACE1F93CF93DF9311
:10418000CDB7DEB767970FB6F894DEBF0FBECDBFD1
:104190004B8B5C8B6D8B7E8B8F8B1A8A198A85E09B
:1041A000FE017396DE011D9601900D928A95E1F74E
:1041B00086E0FE013D96DE01179601900D928A95EC
:1041C000E1F7CE0107960E94331F882389F016E09D
:1041D0008091B10290918002891349C067960FB611
:1041E000F894DEBF0FBECDBFDF91CF911F91089530
:1041F00086E0FE013796DE01119601900D928A95B8
:10420000E1F78A859B85892B11F38F819885892316
:104210008F3FE9F22091800230E0C901019687705A
:1042200099274091B1024817190671F40E94B214FF
:10423000109280021092B10286E0EAE7F2E0DF011C
:104240001D928A95E9F7C3CF96E0929FD001939F84
:10425000B00D1124AF57BD4FFE01319601900D9264
:104260009A95E1F7809380020E946908B0CF819F00
:10427000C00111248F579D4F0E94331F882309F4DA
:10428000ADCF8091B10290E001968770992780931D
:10429000B1029ECF1F920F920FB60F9211242F934F
:1042A0003F934F935F936F937F938F939F93AF93BE
:1042B000BF93CF93DF93EF93FF93D091E900DF702B
:1042C0008091EC00C82FC17080FDC0E81092E90019
:1042D0008091F000877F8093F00078940E94C7144B
:1042E0001092E9008091F00088608093F000CD2B5F
:1042F000CF70C093E900FF91EF91DF91CF91BF9113
:10430000AF919F918F917F916F915F914F913F916D
:104310002F910F900FBE0F901F9018951F920F9224
:104320000FB60F9211242F933F934F935F936F9388
:104330007F938F939F93AF93BF93EF93FF9380915E
:10434000E10082FF09C08091E20082FF05C08091F8
:10435000E1008B7F8093E1008091DA0080FF24C030
:104360008091D80080FF20C08091DA008E7F8093FA
:10437000DA008091D90080FFA3C080E189BD82E18D
:1043800089BD09B400FEFDCF81E080938203809156
:104390005403811109C00E9446040E94390580918E
:1043A000E20084608093E2008091E10080FF17C00A
:1043B0008091E20080FF13C08091E2008E7F8093A5
:1043C000E2008091E20080618093E2008091D80059
:1043D00080628093D80019BC85E08093820380912D
:1043E000E10084FF31C08091E20084FF2DC080E1B4
:1043F00089BD82E189BD89B5982F917080FFFBCF7F
:104400008091D8008F7D8093D8008091E1008F7ECD
:104410008093E1008091E2008F7E8093E2008091A2
:10442000E20081608093E20080917903882309F49F
:104430004DC084E0809382030E94B2140E947A13DC
:104440000E940C0A0E94750B8091E10083FF27C037
:104450008091E20083FF23C08091E100877F8093F9
:10446000E10082E080938203109279038091E10061
:104470008E7F8093E1008091E2008E7F8093E20046
:104480008091E20080618093E20042E060E080E0A1
:104490000E9407058091F00088608093F000FF91F2
:1044A000EF91BF91AF919F918F917F916F915F91AC
:1044B0004F913F912F910F900FBE0F901F90189525
:1044C00019BC10928203109254036ECF8091E300C6
:1044D00087FD93E090938203AFCFCDB7DEB7AA9765
:1044E0000FB6F894DEBF0FBECDBF84B7877F84BF01
:1044F0000FB6F894A8958091600088618093600061
:10450000109260000FBE80E890E00FB6F8948093A0
:104510006100909361000FBE85B7806885BF85B745
:10452000806885BF0E9446040E9439058091E200A0
:1045300084608093E2007894809182038823A1F0C4
:104540001091E9001F709091EC00892F817090FD0F
:1045500080E8182B1092E9008091E80083FD0E940A
:10456000C7141F701093E90082E084BD93E095BDED
:104570009AEF97BD80936E00A9E7B1E042E851E061
:1045800061E070E08D91E82FE295EF70F0E011A10D
:104590008F709B0101C0220F8A95EAF7922F9095A8
:1045A000912391A382A1822B82A34A175B0751F723
:1045B000A2E8B1E04CE851E061E070E08D91E82FB5
:1045C000E295EF70F0E011A18F709B0101C0220F06
:1045D0008A95EAF7922F9095912391A382A1822B3D
:1045E00082A34A175B0751F7E8EFF2E08AE093E015
:1045F000AEE3B3E0119211921D921D928E179F07A8
:10460000C9F70E941B0F8FE39CE90197F1F700C0E7
:1046100000000E941B0F80913E0380FF0BC080E0D2
:104620000E946B126FEF7FEF90E080E00E946429A0
:104630000E94160C0E940C13811102C00E941713D5
:10464000269A2E9882E28093800089E180938100EF
:104650008FEF9FEF90938700809386000E947A13DC
:10466000809A82E290E00E943229803209F0B8C438
:1046700083E290E00E943229813109F0B1C484E2E2
:1046800090E00E943229843009F0AAC40E940C13E1
:10469000811102C00E94171382E090E00E9432292B
:1046A000809323030E94C60F90930B0380930A0309
:1046B00083E090E00E943229682F70E090E080E073
:1046C0000E9453090E947A1380910C03811133C018
:1046D0000E940C13811104C00E9417130E94A3149E
:1046E00088E090E00E943A296093390370933A037E
:1046F00080933B0390933C036E7F71F40E94A3145C
:1047000088E090E00E943A296093390370933A035D
:1047100080933B0390933C030E948D0A10923803D0
:104720008091390380FF04C060E086950E9499174C
:1047300081E080930C0382E191E090930E038093DB
:104740000D0353E0652E712CEE24EA94F12C72E4F3
:10475000C72E77E0D72E80918203853009F481C17E
:104760000E941B0FE4E2F3E0AEE3B3E010E000E0F0
:10477000702F8D919D91219131912817390709F45E
:10478000B7C12827392760E0AA24A394B12CA90136
:104790004A215B21452B09F4A5C169A37AA39C0199
:1047A0002A213B2191E0232B09F490E09BA30E9456
:1047B00038078160782F9DA38CA349A15AA16BA1D2
:1047C0008DA10E94BD20000F111FF801EC5DFC4F70
:1047D00080819181A826B926B182A0828091380378
:1047E000882309F441C080913703E0913903E695AD
:1047F000E81BE0931203823009F091C1F0E0E05B26
:10480000F84FE4910E2F10E087EFA82E8EE0B82E1F
:1048100080911303882389F0109213030E943807B4
:10482000980120953095820F931F909311038093E8
:1048300010031092150310921403809110039091AD
:1048400011030E9429078017910770F0E09110036F
:10485000F09111030E0F1F1F10931103009310030B
:1048600080E193E0F501099586E0ECE1F3E0DE01FB
:10487000119601900D928A95E1F7B0901E03A090D9
:104880001F03109120030091210310921E03109228
:104890001F0310922003109221038B2D8A2909F403
:1048A00048C080911A0390911B030E9429079C0124
:1048B00090911903992309F4AEC323333105C8F14C
:1048C0009F3F19F09F5F90931903BB2059F00E94FE
:1048D000A1069FEF1B140CF491E0899F802D1124F9
:1048E00080931E03AA2059F00E94A1069FEF1A147C
:1048F0000CF491E0899F802D112480931F03309147
:104900001E033323B1F020911F03222391F045EBC6
:104910003403C0011124992309F46CC190931E0340
:1049200045EB240390011124332309F467C130932C
:104930001F03812F802B09F448C0809117039091A9
:1049400018030E9429079C0190911603992309F4EA
:104950005DC325363105C8F19F3F19F09F5F9093E5
:104960001603112359F00E947F069FEF11160CF4D5
:1049700091E0899F802D112480932003002359F01A
:104980000E947F069FEF10160CF491E0899F802D06
:10499000112480932103309120033323B1F020911F
:1049A0002103222391F045EB3403C0011124992304
:1049B00009F428C19093200345EB240390011124AE
:1049C000332309F423C13093210380911E03909176
:1049D0001F03892B90912003892B90912103892B10
:1049E00011F00E94440786E0FE013196ACE1B3E08D
:1049F00001900D928A95E1F70E940C0A9091220392
:104A0000891731F00E940C0A809322030E94750BD3
:104A100080918203843009F09ECE83E08093E90088
:104A20008091E80082FF97CE8091E80090E085FFBA
:104A300006C00E946504882309F4ECC091E08091CF
:104A4000E8008B778093E800992309F484CEE9810C
:104A5000E150E33108F03DC1F0E0E95EF54D0C9422
:104A6000AD2880918203843051F110920F0388E1C8
:104A700090E020E40FB6F894A895809360000FBEF4
:104A80002093600080E00E94180A80E00E94750B6D
:104A900083B7817F846083BF83B7816083BF78944D
:104AA000889583B78E7F83BF0FB6F894A8958091C1
:104AB0006000886180936000109260000FBE80915A
:104AC0007803882309F447CE0E941B0FEEE3F3E03E
:104AD00081919191892B09F06DC293E0E035F9073E
:104AE000B9F739CE6F5FAA0CBB1C6A3009F04FCE04
:104AF0000F5F1F4F0930110509F03ACE8FEF8EA3DB
:104B00008FA318A60E9438078160782F9AA789A7DB
:104B10004EA15FA168A58AA50E94BD205FCE863008
:104B200059F4F0E0E35BF84FE4910E2F10E0BBE0A6
:104B3000AB2EBFE0BB2E6CCE893061F4E695F0E081
:104B4000E65BF84FE4910E2F10E0A5EEAA2EACE044
:104B5000BA2E5ECE8F3061F4E695F0E0E95BF84F57
:104B6000E4910E2F10E0FFE0AF2EFDE0BF2E50CEFF
:104B7000853159F4F0E0EC5BF84FE4910E2F10E032
:104B8000EDE7AE2EEDE0BE2E43CE08E210E05BEC8A
:104B9000A52E5DE0B52E883109F43ACE833241F47A
:104BA000F601059114917EE9A72E7EE0B72E30CE56
:104BB00004EF11E044E5A42E4EE0B42E843209F453
:104BC00027CE00ED17E038EFA32E35E0B32E853267
:104BD00009F01ECE8E2F63E00E946B28E92FF0E0D3
:104BE000E15CF84FE4910E2F10E063E8A62E62E13D
:104BF000B62E0ECE81E080931E0392CE81E080938C
:104C00001F0397CE81E080932003D6CE81E080936E
:104C10002103DBCE00E210E0CE0101965C01809121
:104C2000E80085FD0AC08091E8008B778093E8005A
:104C30000E946504882399F301CF8091F100F5016A
:104C400081935F010150110951F7F8CE1A8289E072
:104C50008B8319C08A81823009F4CFC18330C1F0BF
:104C60008130B9F52FB7F8946091500370915103DA
:104C700080915203909153032FBF0E94B3286B83FE
:104C80007C838D839E83CE0101960E94C00463CDF8
:104C9000DE011196EEE3F3E0808191813296129667
:104CA0009C93129713968C931397129623E0E035FA
:104CB000F20791F7E8CF8A81823059F46B817C81C9
:104CC0008D819E810E94B32885E290E00E94462952
:104CD000DACF8FEF8983D7CF4C816B818A810E9495
:104CE000D40F9827892798279E838D83CCCFAD80BA
:104CF000BE80BA24AB24BA248A810B8144E1049F8C
:104D00008001112494EB899F000D111D11248C81C9
:104D100090E0880F991F080F191F6B2DC801869608
:104D20000E9446296A2DC8018796D0CF0E940112A1
:104D3000AACF8A81893059F48B81E3E08E9FC0012C
:104D40001124B7010E948528862F0E94720A8A8149
:104D50008138C1F060F4803809F095CF20E04B81B4
:104D600060913B0380913A030E94AA138CCF823852
:104D700059F1833809F087CF20E040913C036C81E2
:104D80008B81F2CF60E08B810E9499179B8180918B
:104D90003903911111C08E7F80933903109238032B
:104DA000FFEF20E742E0F15020404040E1F700C033
:104DB00000000E94B00C67CF81608093390360E0EF
:104DC00086950E9499175FCF8B8180933D035BCFBF
:104DD0008A81893059F08A30B9F0813819F1B0F4FC
:104DE000803809F050CF80913C0332CF8091360358
:104DF000869586958695EFEF8E9FC0011124B301AD
:104E00000E9485286B833FCF1B823DCF823891F073
:104E1000833809F038CF80913A038B8380913B032C
:104E20008C8331CF8091390380FF02C0869510CFEB
:104E300080E00ECF80913D030BCF809136030E941E
:104E400056126091390370913A0380913B0390911F
:104E50003C030E94981317CF80E18A8314CF81E02E
:104E60008A838AE0F5CE0A811B811027012710274B
:104E7000CE0101965C018C80FC01E80DF11D4F0113
:104E8000C8018A509D4FA814B90409F4FCCE0A3019
:104E9000F1E01F0750F40E943229F50184830F5F6F
:104EA0001F4FFFEFAF1ABF0AEBCFF5011482F7CF08
:104EB0000A811B81102701271027CE0101964C0182
:104EC000AC80A00EB12EB11CC8018A509D4FA01617
:104ED000B10609F4D8CE0A30E1E01E0720F4F4014F
:104EE00064810E944629FFEF8F1A9F0A0F5F1F4FB0
:104EF000EBCF0E945B12C7CE84E0AFCF0A811B814B
:104F0000102701271027CE0101965C018C80FC013F
:104F1000E80DF11D4F01C80186968A149B0409F41F
:104F2000B2CE003DF2E01F0750F40E943229F50195
:104F300084830F5F1F4FFFEFAF1ABF0AECCFF5015D
:104F40001482F7CF0A811B81102701271027CE0179
:104F500001964C01AC80A00EB12EB11CC801869602
:104F6000A016B10609F48FCE003DE2E01E0720F442
:104F7000F40164810E944629FFEF8F1A9F0A0F5F98
:104F80001F4FECCF80E00E946B126FEF7FEF90E03D
:104F900080E00E94642977CECE0101960E94C00471
:104FA0002FEF41EE84E0215040408040E1F700C007
:104FB00000003ECB80E189BD82E189BD09B400FEDD
:104FC000FDCF8091D8008F7D8093D8008091E00044
:104FD00082608093E0008091E00081FDFCCFBBCB3C
:104FE00060E085E290E00E9446290E9401120E9442
:104FF0005B1281E00E946B1249CB85E290E00E9437
:1050000032291B821C821D828E833DCE2D3231407F
:1050100008F0A4CCDACC2D32314008F053CC89CC46
:1050200078941F921FB61F9211248F939F93AF9372
:10503000BF938091500390915103A0915203B0917E
:1050400053030196A11DB11D80935003909351030A
:10505000A0935203B0935303BF91AF919F918F914F
:105060001F901FBE1F9018951F921FB61F921124EC
:105070008F939F93AF93BF9380910F03811113C0C0
:105080008091500390915103A0915203B09153032A
:105090004196A11DB11D8093500390935103A0939D
:1050A0005203B0935303BF91AF919F918F911F9083
:1050B0001FBE1F901895DB018F939F930E94992923
:1050C000BF91AF91A29F800D911DA39F900DB29FA4
:1050D000900D11240895991B79E004C0991F96172B
:1050E00008F0961B881F7A95C9F78095089587FB6D
:1050F000082E062687FD819567FD61950E946B2825
:105100000EF4919507FC81950895AA1BBB1B51E1F4
:1051100007C0AA1FBB1FA617B70710F0A61BB70B27
:10512000881F991F5A95A9F780959095BC01CD01CC
:10513000089597FB072E16F4009407D077FD09D049
:105140000E94852807FC05D03EF4909581959F4FDD
:105150000895709561957F4F0895EE0FFF1F05909C
:10516000F491E02D099469279627692778278727E6
:10517000782708950E94CE29332312F48A1B9B0BB3
:105180000C94C4280E94CE29B7FF0895821B930B6C
:1051900008958F929F92AF92BF92CF92DF92EF923B
:1051A000FF92CF93DF93EC01688179818A819B81A3
:1051B000611571058105910521F464E279ED8BE5B6
:1051C00097E02DE133EF41E050E00E947A29490158
:1051D0005A019B01AC01A7EAB1E40E9499296B0135
:1051E0007C01ACEEB4EFA50194010E94A729DC017B
:1051F000CB018C0D9D1DAE1DBF1DB7FF03C00197D8
:10520000A109B04888839983AA83BB839F77DF91E4
:10521000CF91FF90EF90DF90CF90BF90AF909F9095
:105220008F9008950E94C928089580E091E00E941F
:10523000C9280895B0E0A0E0809300019093010197
:10524000A0930201B09303010895FC014150504026
:1052500030F001900616D1F73197CF0108958827D5
:1052600099270895F999FECF92BD81BDF89A9927A3
:1052700080B50895A6E1B0E044E050E00C946C29BC
:10528000A8E1B0E042E050E00C946C29262FF99997
:10529000FECF92BD81BDF89A019700B4021639F095
:1052A0001FBA20BD0FB6F894FA9AF99A0FBE089566
:1052B0000396272F0E9447290E944629252F0E94E6
:1052C0004729242F0C9447290196272F0E9447290C
:1052D0000C944629DC01CB01FC01F999FECF06C0F4
:1052E000F2BDE1BDF89A319600B40D9241505040A4
:1052F000B8F70895052E97FB1EF400940E9491299B
:1053000057FD07D00E94AC2907FC03D04EF40C9443
:10531000912950954095309521953F4F4F4F5F4FC4
:10532000089590958095709561957F4F8F4F9F4F11
:1053300008950E94CE29A59F900DB49F900DA49F23
:10534000800D911D11240895B7FF0C9499290E9496
:105350009929821B930B0895A1E21A2EAA1BBB1B4D
:10536000FD010DC0AA1FBB1FEE1FFF1FA217B30731
:10537000E407F50720F0A21BB30BE40BF50B661F47
:10538000771F881F991F1A9469F76095709580950B
:1053900090959B01AC01BD01CF010895A29FB00182
:1053A000B39FC001A39F700D811D1124911DB29F59
:1053B000700D811D1124911D0895F894FFCFEC11FB
:1053C000EC11F511F511F711F511F511F511EC11BD
:1053D000EC11FC11F511F511FC11AC15D4152716C3
:1053E000D415271607163F162716471754179E1B66
:1053F0009E1B0F1C0F1C651C7F1CD31BD31B8A1C00
:10540000601D6F1D6F1DC51AEC1AF31AF81AFD1AEC
:10541000021B071B0C1B111B161B1B1B201B231B1A
:10542000281B2B1B2E1B311B341B371B3A1B26261C
:105430002A265B266C26772696269926E8261D279F
:10544000C227CC272C272F273327582779277C27BB
:045450007E27A227EA
:105454000100000001191A1B1C1D1E1F202122011E
:105464000201F905D60BB50BB10BAD0B010001021E
:105474000202020606060909090909090F0F0F0F9E
:105484000F0F1515151819191919191919191919A9
:105494002324252525252525818283E200E900EAA8
:1054A40000B500B600B700CD008301CC008A01929C
:1054B4000194012102230224022502260227022A42
:1054C40002B300B4006F0070003031323337909172
:1054D4009293959496973435F56667F74022BC8A83
:0C54E400016801AC0066077F079F07000D
:00000001FF
