:100000000C940D040C9454040C9454040C94540457
:100010000C9454040C9454040C9454040C94540400
:100020000C9454040C9454040C94E7210C94A321D4
:100030000C94A4280C9454040C9454040C9454046C
:100040000C9454040C9454040C9454040C945404D0
:100050000C9454040C9480280C9454040C94540470
:100060000C9454040C9454040C9454040C945404B0
:100070000C9454040C9454040C9454040C945404A0
:100080000C9454040C9454040C9454040C94540490
:100090000C9454040C9454040C9454040C94540480
:1000A0000C9454040C9454040C9454040501090257
:1000B000A10185020901A1000509190129081500FE
:1000C0002501950875018102050109300931158165
:1000D000257F95027508810609381581257F9501D0
:1000E00075088106050C0A38021581257F95017572
:1000F000088106C0C005010980A101850319012AF4
:10010000B700150126B700950175108100C0050CD8
:100110000901A101850419012AA002150126A002E6
:10012000950175108100C005010906A1018505052D
:100130000719E029E71500250195087501810205D9
:1001400007190029EF1500250195F07501810205B9
:10015000081901290595057501910295017503910D
:1001600001C00660FF0961A1010962150026FF00B8
:100170009520750881020963150026FF00952075FA
:10018000089102C005010906A101050719E029E748
:1001900015002501950875018102950175088101F9
:1001A0000507190029FF150026FF0095067508812F
:1001B000000508190129059505750191029501753C
:1001C000039101C0000101010101010101010202CD
:1001D00002020202020202030303030303030304F5
:1001E00004040404040405050505050606060606C0
:1001F000070707070708080808090909090A0A0A7A
:100200000B0B0B0C0C0C0D0D0D0E0E0E0F0F0F101B
:1002100010111111121213131414151516161717A5
:10022000181819191A1A1B1B1C1D1D1E1E1F202011
:10023000212222232424252626272829292A2B2C5B
:100240002D2D2E2F30313232333435363738393A7E
:100250003B3C3D3E3F404142434445464748494A76
:100260004C4D4E4F50515354555658595A5B5D5E44
:100270005F616264656668696B6C6D6F70727375DF
:1002800077787A7B7D7E8082838587888A8C8E8F43
:1002900091939596989A9C9EA0A2A3A5A7A9ABAD71
:1002A000AFB1B3B5B7BABCBEC0C2C4C6C9CBCDCF5F
:1002B000D1D4D6D8DBDDDFE2E4E7E9EBEEF0F3F50D
:1002C000F8FAFDFFFFAA7F55402223252628292A78
:1002D0002C2D2F3032333536383A3B3D3E404243A9
:1002E0004547494A4C4E5051535557595A5C5E60E8
:1002F00062646668696B6D6F71737577797B7D7FFA
:1003000081838587898A8C8E90929496989A9C9EF8
:100310009FA1A3A5A7A8AAACAEAFB1B3B4B6B8B914
:10032000BBBCBEBFC1C2C3C5C6C7C9CACBCCCDCE7C
:10033000D0D1D2D2D3D4D5D6D7D7D8D9D9DADADB5F
:10034000DBDBDCDCDCDCDCDDDDDDDDDCDCDCDCDCEB
:10035000DBDBDBDADAD9D9D8D7D7D6D5D4D3D2D22A
:10036000D1D0CECDCCCBCAC9C7C6C5C3C2C1BFBE12
:10037000BCBBB9B8B6B4B3B1AFAEACAAA8A7A5A37D
:10038000A19F9E9C9A98969492908E8C8A8987853C
:1003900083817F7D7B79777573716F6D6B6968661B
:1003A0006462605E5C5A5957555351504E4C4A49ED
:1003B00047454342403E3D3B3A3836353332302F95
:1003C0002D2C2A29282625232229003A003B003CEF
:1003D000003D003E003F0040004100420043004419
:1003E00000450046004700480035001E001F002061
:1003F0000021002200230024002500260027002DD4
:10040000002E002A0049004A004B002B0014001A5D
:10041000000800150017001C0018000C0012001343
:10042000002F00300031004C004D004E0039000418
:10043000001600070009000A000B000D000E000F57
:10044000003300340032002800E10064001D001B6E
:1004500000060019000500110010003600370038B2
:1004600000E5005200E000E300E2002C00E600E7B7
:10047000006500E400500051004F00000001000141
:100480000001000100010001000100010001000164
:100490000001000100010001000100010001000154
:1004A0000001000100010001000100010001000144
:1004B0000001000100010001000100010001000134
:1004C0000001000100010001000100010001000124
:1004D0000001000100010001000100010001000114
:1004E0000001000100010001000100010001000104
:1004F00000010001000100010001000100010001F4
:1005000000010001000100010001000100010001E3
:1005100000010001000100010001000100010001D3
:1005200000010001000100010001000100010000C4
:1005300000010001000100010001000100010001B3
:1005400000010001000100010001000100010001A3
:100550000001000100010001000100010001000193
:100560000001000100010001000100010001000183
:100570000001000100010001000100010001000173
:100580000001000100010001000100010001000163
:100590000001000100010001000100010001000153
:1005A0000001000100010001000100010001000143
:1005B0000001000100010001000100010001000133
:1005C0000001000100010001000100010001000123
:1005D0000001000100010001000100010001000113
:1005E0000001000000010001000100010001000104
:1005F00000010001000100010001000100010001F3
:1006000000010001000100010001000100010001E2
:1006100000010001000100010001000100010001D2
:1006200000010001000100010001000100010001C2
:1006300000010001000100010001000100010001B2
:1006400000010001000100010001000100010001A2
:100650000001000100010001000100010001000192
:100660000001000100010001000100010001000182
:100670000001000100010001000100010001000172
:100680000001000100010001000100010001000162
:100690000001000100010000000000000000000057
:1006A000000000000000000000000000000000004A
:1006B000000000000000000000000000007E0F00AD
:1006C000D4FFFFFFC700000078000000000000001A
:1006D000002A2B280000000000000000000000009D
:1006E0000000000029000000002C1E3420212224DC
:1006F000342627252E362D3738271E1F202122236A
:100700002425263333362E37381F040506070809FB
:100710000A0B0C0D0E0F10111213141516171819C1
:100720001A1B1C1D2F3130232D350405060708091F
:100730000A0B0C0D0E0F10111213141516171819A1
:100740001A1B1C1D2F3130354C1E0F0500047F3F36
:100750001F643214643214783C1E1E140A05090208
:100760005B00030100A0FA0904000001030101007D
:100770000921110100012240000705810308000A38
:1007800009040100020300000009211101000122F7
:100790002200070582032000010705030320000152
:1007A00009040200010300000009211101000122D7
:1007B000B6000705840320000A12011001000000A2
:1007C00008424387870100010200012803430068B3
:1007D00000650072007200790042002E0053007420
:1007E000007500640069006F00200043004200387B
:1007F00000370000001E03430068006500720072AD
:1008000000790042002E00530074007500640069F6
:10081000006F000000040309040011241FBECFEF85
:10082000DAE0DEBFCDBF04B603FE27C080918903A6
:1008300090918A03A0918B03B0918C038730904BE9
:10084000A740B04BD1F41092890310928A03109202
:100850008B0310928C0314BE84B7877F84BF0FB6BE
:10086000F894A89580916000886180936000109250
:1008700060000FBEE0E0F8E3099523E0ACE9B1E0E9
:1008800001C01D92A938B207E1F711E0A0E0B1E084
:10089000E4E3F5E502C005900D92AC39B107D9F754
:1008A0000E94BE220C944D2A0C940000E8EDF0E06A
:1008B00080818E7F80831092E2001092DA00109285
:1008C000E100A0EEB0E08C9181608C9380818F7705
:1008D000808319BCA7EDB0E08C918E7F8C938081D2
:1008E0008F7E80831092530308952091E40030910D
:1008F000E50095E6A9012091EC00822F817020FF90
:1009000006C08091E80080FF06C080E00895209135
:10091000E80022FD1AC080917803882389F0853091
:1009200089F08091EB0085FD0FC02091E4003091AB
:10093000E50042175307F9F29150E1F684E008957B
:1009400082E0089583E0089581E00895EF92FF9298
:100950000F931F93CF937C018B010E947504C82FC6
:10096000811117C08091E80085FD0BC08091E800DF
:100970008E778093E8000E947504882399F3C82F2E
:1009800008C0F70181917F018093F10001501109A6
:1009900049F78C2FCF911F910F91FF90EF90089501
:1009A00080917A0387FF13C08091E80082FF06C020
:1009B0008091E8008B778093E80004C080917803F1
:1009C0008111F2CF0895809178038823D9F3809123
:1009D000E80080FFF8CF8091E8008E77ECCF982F69
:1009E0009093E900242F762F50E0891731F0709111
:1009F000EC002091ED005091F00021FD07C09F5FB9
:100A0000973071F78093E90081E008953091EB0011
:100A10003E7F3093EB003091ED003D7F3093ED0051
:100A20003091EB0031603093EB007093EC00209339
:100A3000ED005093F0002091EE0027FDE0CF80E024
:100A40000895CF92DF92EF92FF920F931F93CF936F
:100A5000DF93C8EDD0E088818F7E8883E7EDF0E0FA
:100A600080818160808384E082BF81E08093530332
:100A700088818E7F888302EE10E0F8011082109248
:100A8000DA0081EEC82ED12CF601108288818F7792
:100A9000888388818068888388818F7D888319BC5A
:100AA00010927803109279031092770310927603D4
:100AB00090EEE92EF12CF70180818B7F8083888175
:100AC0008160888342E060E080E00E94EF04F601EC
:100AD00080818E7F8083F801808181608083808126
:100AE00088608083F70180818E7F80838881806128
:100AF0008883DF91CF911F910F91FF90EF90DF904E
:100B0000CF900895FC018091800390918103861716
:100B10009707A0F06115710529F49091E8009E7780
:100B20009093E80090E06115710551F4911108C0AF
:100B30008091E80082FF34C080E00895BC01F2CFCC
:100B4000809178038823C1F18530C1F18091E8005C
:100B500083FD30C08091E80082FDEACF8091E800FB
:100B600080FFE1CF8091F3002091F200382F6115D2
:100B7000710519F02830310558F091E02830310521
:100B800009F090E02091E8002E772093E800CBCF89
:100B900081918093F100615071092F5F3F4FE7CF42
:100BA00080917803882341F0853041F08091E800FE
:100BB00083FFBECF81E0089582E0089583E0089529
:100BC000089580E008958091550308959C014FB7E2
:100BD000F89480914F0390915003A0915103B091EC
:100BE00052034FBF821B930B08952FB7F894809147
:100BF0004F0390915003A0915103B09152032FBF26
:100C0000089520911C012223C9F02091090327FF98
:100C100015C0E62FE695E695E695EE31D8F4E80F97
:100C2000F92FF11D677021E030E001C0220F6A95B5
:100C3000EAF720958281282322830895FC013296C9
:100C400008962191621303C0DF0111971C92E817E7
:100C5000F907B9F7089520911C012223C1F02091D2
:100C6000090327FF14C0E62FE695E695E695EE31D9
:100C7000F8F4E80FF92FF11D677021E030E001C0B2
:100C8000220F6A95EAF78281822B82830895FC0104
:100C900032962FEF30E04191641751F02F3F19F455
:100CA000411101C0232F3F5F3630A9F72F3F09F4D0
:100CB0000895820F911D27FD9A95FC016283089586
:100CC0008091F20281111092F20208958091F10256
:100CD0009091F002892B9091EF02892B80939E01D5
:100CE0009091F2029923A1F0892B80939E0180912B
:100CF0001C01882341F18091090387FF24C08EE104
:100D0000E0EAF1E090E0815000F591110E94600668
:100D1000E0910C03F0910D033097E1F080911C01FC
:100D2000882359F08091090387FF07C080919E01B5
:100D300080939F0185E080939E010280F381E02DE6
:100D40008EE991E0099486E0DBCF21912223D9F24C
:100D50009F5FD9CF08952AE0929F800D1124982F8C
:100D6000977086958695869525E0829FF0011124DF
:100D7000EE54FD4F50E040E080E0219130E0092E3C
:100D800002C0369527950A94E2F721703327042E86
:100D900001C0220F0A94EAF7822B4F5F5F4F453064
:100DA000510559F708952AE0929F800D1124982F3C
:100DB000977041E001C0440F9A95EAF786958695B1
:100DC000869595E0899FF0011124EE54FD4F90E047
:100DD00080E070E05191DF0111979B01082E02C065
:100DE000369527950A94E2F721702195252724232B
:100DF00025272C9301968530910561F70895809100
:100E0000B10290918002981301C008958F5F87709E
:100E1000FACF882341F080959091F1028923809345
:100E2000F1020C9466060895882339F09091F1023E
:100E3000982B9093F1020C94660608952091760207
:100E4000309177022817390771F0909377028093D9
:100E50007602E0910C03F0910D03309721F00084AD
:100E6000F185E02D09940895209174023091750266
:100E70002817390771F09093750280937402E091FE
:100E80000C03F0910D03309721F00680F781E02DDF
:100E900009940895E0910C03F0910D03309721F02F
:100EA0000190F081E02D099480E00895CF92DF92C7
:100EB000EF92FF92843030F5811125C0909180002F
:100EC0009F7D909380002E98282F30E0AFEFBFEFEA
:100ED0000E943E2A23E030E040E050E00E941C2ABD
:100EE000C9012C3764E13607A0F469E070E00E9484
:100EF000F52870938B0060938A00FF90EF90DF904D
:100F0000CF90089583E0909180009062909380004C
:100F1000DBCF2A50374D4F4F5F4F942F832F722FC7
:100F2000662725EF38E241E050E00E941C2A690163
:100F30007A01CA01B9010E94CB289B01AC01C7010B
:100F4000B6010E94CB28672F782F892F992761152A
:100F5000710521E08207910561F66FEF7FEFC9CF40
:100F6000282F220F220F220F909135039770922B7A
:100F700090933503987F21E009F420E090913503A8
:100F800020FB90F9909335030C945607FA018111D8
:100F900001C0FB01099480913803982F9E7F29F4AA
:100FA000817082608093380308958635E8F38170FC
:100FB0008465F8CFAF92BF92DF92EF92FF920F93CA
:100FC0001F93CF93DF93082F162FE901E42FF0E052
:100FD000EC53FE4F611110C0E4915E2F4E2F4983F8
:100FE000E8835A83DF91CF911F910F91FF90EF908B
:100FF000DF90BF90AF900895E62EF12C4491D42E4F
:10100000E42FF0E026E0829FC00111242FEF30E0B2
:10101000B9010E94F528802F90E0880F991F55E5AF
:10102000569FD001579FB00D11248A1B9B0B982F00
:10103000990F890F5901AE18BF08AE9ED001AF9E1F
:10104000B00DBE9EB00D11245B2F189F800111249E
:10105000012F11275901A01AB10AAE9E8001AF9E3F
:10106000100DBE9E100D11245901A81AB108AE9C96
:10107000C001AF9C900DBE9C900D1124892F992723
:10108000281B390B2E9FC0012F9F900D3E9F900D66
:101090001124E92F62307105A1F050F4611571053A
:1010A00009F49DCF6130710581F0EB2F512F97CF5F
:1010B0006430710569F080F06630710509F48FCFF6
:1010C000F4CFE42F4B2F592F8ACFE42F412F87CF16
:1010D000EB2F542F492F83CF4B2F5D2DE12F7FCF47
:1010E0000E94F5059C0190911D0380911E03982B91
:1010F00021F030931A032093190390911F038091DC
:101100002003982B21F03093170320931603E091CE
:101110000C03F0910D03309749F082E080931B039C
:101120000480F581E02D8BE193E00994089590E02F
:1011300080E00E94340790E080E00E941E07109239
:10114000F0021092EF020E94660686E0EBE1F3E007
:10115000DF011D928A95E9F710921803109215038A
:10116000109279020C947008609385037093860343
:1011700080938703909388030C9497080F931F9391
:101180006091850370918603809187039091880315
:101190008B019C0106701127222733270630110589
:1011A0002105310529F468601F910F910C94B40852
:1011B000677FFACF0F931F9341E050E060E070E04B
:1011C00004C0440F551F661F771F8A95D2F7CB01C5
:1011D000BA01609570958095909500918503109166
:1011E0008603209187033091880360237123822333
:1011F00093231F910F910C94B4089091EE02809567
:1012000089238093EE02282F277071F4282F082E4F
:10121000000C330B9217130639F08595859585954B
:101220000E94DA081092EE0208950F931F9341E096
:1012300050E060E070E004C0440F551F661F771F48
:101240008A95D2F78091850390918603A0918703B8
:10125000B09188038A019B01082B192B2A2B3B2B69
:10126000C901B8011F910F910C94B4086093F30267
:101270007093F4028093F5029093F6020C94970811
:1012800040911D03803F59F480911E0387FF0DC0DC
:1012900010921E0341110BC01092180308C0813F29
:1012A00081F480911E0318169CF3442381F08091F1
:1012B0001F0390912003892B09F05AC01092150347
:1012C0000895823F49F447FFF0CF10921D038091AB
:1012D0001E038111ECCFE0CF833F19F41416ACF359
:1012E000E4CF90911F03893F29F41916F4F6109268
:1012F0001F03DBCF8A3F19F497FFD7CFF8CF909128
:1013000020038B3F29F497FFD0CF10922003CDCF3D
:101310008C3F19F41916CCF3C8CF9CE0980F953088
:1013200090F4845F990B21E030E0B90102C0660FB0
:10133000771F8A95E2F7CB01809590911C03892352
:1013400080931C03B2CF8D3F31F4809179028E7F60
:1013500080937902AACF8E3F21F4809179028D7F0C
:10136000F7CF8F3F09F0A1CF809179028B7FF0CF2B
:1013700008958823B1F19CEF980F913A38F4682FC3
:101380008EE991E00E9401060C94660690E2980FA7
:10139000983088F4877021E030E0A90102C0440F42
:1013A000551F8A95E2F7CA0180959091F102892331
:1013B0008093F102E9CF9BE5980F933020F490E001
:1013C00080E00C94340798E5980F973120F490E072
:1013D00080E00C941E07803F20F00E9440090C948E
:1013E000700808958091790280FD16C081FD16C0B5
:1013F00082FD16C0809115038823A1F0883280F405
:1014000028E0829FC001112468E270E00E9409294F
:10141000862F672B39F0089582E0089584E00895BF
:1014200088E0089581E008958091790280FD14C0DC
:1014300081FD14C082FD16C080911803882381F0BD
:10144000843180F422E3829FC001112464E170E0C2
:101450000E940929862F08958CE0089589E1089556
:1014600085E0089582E30895803F31F40E94140AD4
:10147000819580931E030895813F19F40E94140AF8
:10148000F8CF823F31F40E94140A819580931D03A6
:101490000895833F19F40E94140AF8CF893F29F474
:1014A0000E94F20980931F0308958A3F21F40E944D
:1014B000F2098195F7CF8B3F31F40E94F2098195B3
:1014C0008093200308958C3F19F40E94F209F8CF0D
:1014D0009CE0980F953070F4845F990B21E030E028
:1014E00001C0220F8A95EAF780911C03822B80931A
:1014F0001C0308958D3F31F48091790281608093BF
:10150000790208958E3F21F4809179028260F7CFAD
:101510008F3FB9F7809179028460F1CFCF93C82FC4
:10152000882309F46FC08CEF8C0F813AC0F580914D
:101530001C01882311F18091090387FF1EC0EC2F45
:10154000E695E695E695F0E0E256FE4F828190E062
:101550004C2F477021E030E002C0220F331F4A9524
:10156000E2F782239323892B91F06C2F8EE991E08F
:101570000E9401060E9466060AC0E0EAF1E086EADF
:1015800091E02191C21789F38E179F07D1F76C2F35
:101590008EE991E00E942B06CF910C94660680E2C2
:1015A0008C0F883068F4C77021E030E001C0220F52
:1015B000CA95EAF78091F102822B8093F102ECCF79
:1015C000EBE5EC0FE33040F4F0E0E85BFE4F8081A8
:1015D00090E0CF910C943407E8E5EC0FE73150F43C
:1015E000F0E0EE0FFF1FE55BFE4F80819181CF9110
:1015F0000C941E07C03F30F08C2F0E94340ACF910C
:101600000C947008CF910895F894E82FE295EF704C
:10161000F0E031A1282F2F7081E090E001C0880F09
:101620002A95EAF7982F9095932391A392A1892B5D
:1016300082A3789408959091090392FF06C0282F01
:1016400028712830F9F4877F846093FF06C0282F23
:1016500028712831F1F4877E846120910A0320FFEC
:1016600006C0382F38713830D9F4877F816021FF68
:1016700006C0282F28712831D1F4877E816194FD1E
:10168000877E0895282F24712430F9F68B7F886097
:10169000DCCF282F2471243101F78B7E8861DDCFC8
:1016A000382F3171313019F78E7F8860E0CF282FC5
:1016B0002171213121F78E7E8861E1CF81FF02C047
:1016C000889A089588980895CF9384E090E00E94C6
:1016D000A229C82F81E290E00E94A229982F8C2F86
:1016E000CF9108950F931F93CF93DF93C42FD0E032
:1016F000CC0FDD1F24E1629FC00DD11D112434EBFE
:10170000839FC00DD11D1124CE0186960E94A2296F
:10171000082F10E0102F0027CE0187960E94A229E3
:101720009801282BC901DF91CF911F910F91089546
:10173000462F843038F4793028F46A3018F4672F53
:101740000C94720B90E080E00895CF93DF930E9499
:10175000980BEC0182389105A9F1D8F581339105F8
:1017600009F496C048F58932910509F48AC08A9730
:1017700009F495C0C11521E5D20708F0BCC0C11518
:1017800030E5D30708F014C1C83ED10508F09CC06D
:10179000C03ED10560F5C83AD10508F087C0C53A0A
:1017A000D10508F0FDC0C130D10509F12097F9F04D
:1017B000C430D105E0F440C08533910509F45AC026
:1017C000C997C1F680910903837089F0C0EED0E01B
:1017D0000EC0833E910599F170F4803E910501F1B0
:1017E000823E910539F68091090382FD21C0CE0128
:1017F000DF91CF910895863E910561F1873E910575
:1018000071F1843E910509F0B5CF80910A0381FF03
:10181000EECF80910903C7EED0E084FD0DC0E7CF85
:101820008091090380FD12C190910A0390FFDFCFE0
:10183000C3EED0E084FFDBCFD0E0C0E0D8CF809112
:10184000090382FD06C190910A0390FDBFCF84FF7A
:10185000CECFF2CF8091090383FDDDCFC8CF809139
:10186000090383FDF9C090910A0391FFF0CFC4EE04
:10187000D0E0BDCF8091090385FFB9CFC9E2D0E0A8
:10188000B6CF8091090385FFB2CFC5E3D0E0AFCFDB
:101890008091090386FFABCFCAE2D0E0A8CF809148
:1018A000090386FFA4CFC1E3D0E0A1CFCF3BD10590
:1018B00018F6C85AD0E0CC0FDD1FC55BDE4F09908B
:1018C000D881C02DD46493CFC11540E2D40758F419
:1018D000C11581E0D80708F08ACFC03FD10508F4D0
:1018E000ABCFD06584CFC11590E4D90708F4A4CF5D
:1018F000DF70D06A7CCFC11525E5D20700F5C11590
:1019000034E5D30708F08AC0C11543E5D40708F0D1
:1019100071C0C11582E5D80708F467C0CE01837095
:10192000992721E030E002C0220F331F8A95E2F7A9
:10193000C695C69580E2C89FE001112452C0C1152A
:1019400099E5D907A8F4C11528E5D20708F06BC0BE
:10195000C11536E5D30708F06FCF8C2F0E941B0B03
:10196000C82FD0E0DC2FCC27CC27DF71D0623FCF4F
:10197000C1154AE5D40708F45BC0CE019056811525
:10198000904208F059CF8D2F8F710E941B0B90E071
:10199000982F882788279F719C012C2BE901E6CF7F
:1019A000C55AD0E0C85BDE4FC881D0E0D0641FCFFD
:1019B000CE01E4E096958795EA95E1F783702C2FA8
:1019C00026952695237040E2249F90011124382B00
:1019D0008C2F8370C1E0D0E002C0CC0FDD1F8A9550
:1019E000E2F7C22BD32BDC6802CFDC2FCC27C16FF0
:1019F000D06AFDCECE018370992721E030E002C08D
:101A0000220F331F8A95E2F7C695C69590E2C99FCB
:101A1000E0011124C22BD32BDA68E9CEDC2FCC27CE
:101A2000C46FD06AE4CEDC2FCC27C06FD06ADFCE83
:101A30008C2F8F700E941B0B34E0D695C7953A957A
:101A4000E1F7CF709C2FEC01D069D1CEC9E3D0E093
:101A5000CECEC2EED0E0CBCEC6EED0E0C8CEBF92A6
:101A6000CF92DF92EF92FF920F931F93CF93DF936A
:101A70008C01C0908503D0908603E0908703F0909E
:101A800088038091F3029091F402A091F502B09145
:101A9000F602C82AD92AEA2AFB2ACFE1D0E0BC2ED6
:101AA000D701C6010C2E04C0B695A79597958795CA
:101AB0000A94D2F780FD0EC0219788F7B12C8B2DA8
:101AC000DF91CF911F910F91FF90EF90DF90CF901A
:101AD000BF900895B8018C2F0E94A50B019761F368
:101AE000EECFCF93DF93EC010E942F0DBE01DF916B
:101AF000CF910C94A50B0E94710D292F2F709295F8
:101B00009F7092509E3078F4E92FF0E0E15BF54D44
:101B10000C941D29803F19F020F4883E20F481E0C8
:101B20000895843FE1F380E00895883EC0F3813F4B
:101B3000D1F7F5CF822F86958695869508956F9279
:101B40007F928F929F92AF92BF92CF92DF92EF924D
:101B5000FF920F931F93CF93DF9389ECC82E83E0FE
:101B6000D82E9EEEE92EF12CE701C45BD109360197
:101B70001BC0F50185909490692DC8010E94B6297B
:101B8000682DC80101960E94B62982E0A80EB11CFA
:101B90000E5F1F4FC017D10761F784E1680E711CFB
:101BA0006496CE15DF0529F08E0104511109530109
:101BB000E0CF7E0184EBE80EF11C84EBC80ED11C53
:101BC0008EEBE81683E0F80679F6DF91CF911F914E
:101BD0000F91FF90EF90DF90CF90BF90AF909F90CC
:101BE0008F907F906F900895682F86E090E00C941E
:101BF000B629CF93DF93C6EFD2E060E0CE010E941A
:101C0000B6292196C11584E0D807B9F7DF91CF91A5
:101C10000895CF93DF9300D00F92CDB7DEB79091A8
:101C20007803943011F589837B836A839093E9006C
:101C30008FEF9091E800815095FD06C095ED9A9543
:101C4000F1F700008111F5CF8091E80085FF0DC00C
:101C500050E040E063E070E0CE0101960E94A604EF
:101C60008091E8008E778093E8000F900F900F909E
:101C7000DF91CF910895BC0184E00C94090EBC0162
:101C800083E00C94090E9C0184E08093E9009FEFAF
:101C90008091E800915085FD06C085ED8A95F1F7A9
:101CA00000009111F5CF8091E80085FF0CC050E055
:101CB00040E066E070E0C9010E94A6048091E8005F
:101CC0008E778093E8000895CF93DF93EC018091A5
:101CD0001C018823B1F18091090387FF32C060E2C3
:101CE00084E08093E9008FEF9091E800815095FDAA
:101CF00006C095ED9A95F1F700008111F5CF80911E
:101D0000E80085FF1BC080911C0170E050E040E0BE
:101D1000811104C050E040E068E070E0CE010E9414
:101D2000A6048091E8008E778093E80080E2FE01AF
:101D3000A6E5B3E001900D928A95E1F7DF91CF918E
:101D4000089568E081E0CDCF81E08093E00080E2FB
:101D50008093D8001092C9008FE19EE40197F1F7BB
:101D600000C0000087E090EBDC0180938903909332
:101D70008A03A0938B03B0938C0388E19CE00FB699
:101D8000F894A895809360000FBE90936000FFCFF9
:101D90001F93CF93DF93182FD0E0C0E0893311F465
:101DA000C0E5D0E0812F0E948E0A209731F4812F68
:101DB000DF91CF911F910C94B9098FE99FE00197B2
:101DC000F1F700C000002197F0CF0F931F93CF933E
:101DD000DF93C62FD42F022FFC0182818823A1F02C
:101DE000609384030E94F50590938303809382039C
:101DF000C77081E001C0880FCA95EAF7DF91CF91E3
:101E00001F910F910C94140780918403681335C0BF
:101E100080918203909183030E94E605883C91059E
:101E200060F510E21D0FCD17B9F080E28C0F8830FD
:101E300040F4C77081E001C0880FCA95EAF70E949C
:101E40000907183048F481E09D2F977001C0880F72
:101E50009A95EAF70E941407802F0E94C80E183046
:101E600098F4D77081E001C0880FDA95EAF7DF9126
:101E7000CF911F910F910C940907C77081E001C0A9
:101E8000880FCA95EAF7F3CFDF91CF911F910F9199
:101E900008958091380380FD0AC0E4ECF1E01182DE
:101EA00010821282339652E0E630F507C1F76E9A3F
:101EB0003EB13F7B2EB120644FB7F89484EC91E0A3
:101EC000FC015191CF0168E02EB9000000C057FF1E
:101ED0003EB9550F000000C000C000C03EB900C0B0
:101EE0006A9591F7F2E086309F0751F74FBF8FE573
:101EF00094E00197F1F700C000000895EF92FF927F
:101F00001F93CF93DF93EC0184ECE82E81E0F82E51
:101F100010E08C81970140913B0360913A03810F5F
:101F20000E94DA07155F83E0E80EF11C123F89F783
:101F30000E94490F9A818C8190FF08C08F5F8C832B
:101F4000DF91CF911F91FF90EF9008958150F7CFCF
:101F5000BF92CF92DF92EF92FF920F931F93CF9396
:101F6000DF93FC018281DD24DA9480FD02C0DD2450
:101F7000D39404EC11E0D0E0C0E026E1B22EF801E9
:101F800011821082128294E0E92EF12CC12C8091F2
:101F9000C1018C0D87310CF43DC06B2D0E94E728E8
:101FA000892F082E000C990B8C179D0791F48091B6
:101FB0003B038E9DA0018F9D500D11245595479593
:101FC00055954795980160913A03809139030E9495
:101FD000DA07CD0CF1E0EF1AF108C9F621960D5F92
:101FE0001F4FC631D10559F60E94490F8091C1019A
:101FF00091E0D91215C0811111C085E18093C10112
:10200000DF91CF911F910F91FF90EF90DF90CF90D4
:10201000BF90089587FFC5CF8A5EC3CF8150EECFB2
:1020200090E00196BE010E940929E8CF0F931F930B
:10203000CF93DF93C4ECD1E0FE01118210821282B3
:10204000339682E0E630F807C1F710E000E08091B7
:10205000C201082E000C990B081719078CF180910A
:102060001001082E000C990B801791074CF19E016E
:1020700040913B0360913A03809139030E94DA0753
:102080000F5F1F4F23960631110509F70E94490F74
:1020900080910F019091C201980F9093C2012091FD
:1020A0001001280F20931001121614F495311CF022
:1020B000819580930F01DF91CF911F910F9108952A
:1020C000198218821A82DCCF8F929F92AF92BF92B0
:1020D000CF92DF92EF92FF920F931F93CF93DF93F4
:1020E000EC014C81042F10E09801D8010E943E2A97
:1020F0009B01AC010E94092A4B015C01E0E2F0E087
:10210000E01BF10BA5E5B0E0AC019B010E94092AA0
:102110006B017C019F01DF010E942A299B01AC0118
:102120000E94142A9B01AC01280D391D4A1D5B1D1C
:10213000C701B6010E941C2AF22E822F90E039E2DC
:102140003F15D8F143E0249F900111243595279540
:10215000122F109594ECC92E91E0D92E00E085E560
:10216000E82EEF188E2D01FD8F2D9601412F6091E5
:102170003A030E94DA070F5F53E0C50ED11C063107
:1021800089F70E94490F9C8181E0992319F09032D0
:1021900019F48FEF8093110180911101890F8C83C5
:1021A000DF91CF911F910F91FF90EF90DF90CF9033
:1021B000BF90AF909F908F90089525E530E0A901E2
:1021C000481B590BCA019A01220F331F280F391FD0
:1021D00037FFBCCF2F5F3F4FB9CFEF92FF920F93E6
:1021E0001F93CF93DF938C01C4ECD1E0F12CE12C51
:1021F000F801948160913A0380913903FBE0EF1676
:10220000F104FCF49923F9F09E0140913B030E94F4
:10221000DA072FEFE21AF20A239686E1E816F104B4
:1022200039F70E94490FF801848190E0019681708E
:1022300099278483DF91CF911F910F91FF90EF90A9
:102240000895992309F39E0140E0E1CF909138036E
:1022500090FF0CC0E4ECF1E081836083428333960D
:1022600092E0E630F907C1F70C94490F08950F93F7
:102270001F93CF93DF9300D00F92CDB7DEB78C01C1
:102280008091C30181110AC09E012F5F3F4F4FEF24
:102290006FEF0E94DA078A818093C301F80164819D
:1022A000613069F08091C30140E0662361F040E055
:1022B000623011F44091C30180E060E004C060919D
:1022C000C30140E080E00E942611F801848190E083
:1022D000019663E070E00E94092984830F900F90BB
:1022E0000F90DF91CF911F910F910895CF93DF93BE
:1022F00000D00F92CDB7DEB79091380390FF0AC09F
:102300009E012F5F3F4F0E94DA074B8169818A81CE
:102310000E9426110F900F900F90DF91CF9108959A
:10232000CF93DF93EC01EC81F0E0E753FD4F449154
:10233000E8E3F3E0628181810E9476118C818F5FF6
:102340008C83DF91CF910895CF93DF93EC01E8E385
:10235000F3E0438162818C810E9476118C818F5FD2
:102360008C83DF91CF9108958F929F92AF92BF920D
:10237000CF92DF92EF92FF920F931F93CF93DF9351
:1023800089E7E82E81E0F82E07EF12E0E801A12CA2
:10239000B12CCC24C394D12CD7018D917D01F8941C
:1023A000E82FE295EF70F0E021A18F70A60102C046
:1023B000440F551F8A95E2F7CA01922F982B91A3DB
:1023C00092A18095892382A3789400C0E2E8F1E08D
:1023D00030E020E0912C812C4191A42FA295AF7088
:1023E000B0E090968C9190E04F7002C095958795E3
:1023F0004A95E2F780FD4AC0C601022E02C0880F4E
:10240000991F0A94E2F7882A992A2F5F3F4F2A30B2
:10241000310511F7F701319780810E94040B58E0D4
:10242000A51619F080EA8A95F1F7888199818816B6
:10243000990679F19982888281E0B82AA39422963C
:10244000A9E0AA12A9CFBB2031F181E08093C0019D
:102450000E94F5059093BF018093BE018091BE015B
:102460009091BF010E94E6050697C8F0EDE3F3E006
:1024700089E093E0D8012D913D918D012193319315
:102480008A179B07B9F71092C00109C090E080E05D
:10249000BACF80E0D2CF8091C0018111DFCF8B2DE8
:1024A000DF91CF911F910F91FF90EF90DF90CF9030
:1024B000BF90AF909F908F9008954F925F926F92D0
:1024C0007F928F929F92AF92BF92CF92DF92EF92C4
:1024D000FF920F931F93CF93DF93FC0162804480A0
:1024E00081E08483E9ECF2E07490E8E4F3E0E491C5
:1024F000C6E0D2E034ECE32E31E0F32E44E7C42E04
:1025000042E0D42E52E0A52EBB24B39488248A94B2
:10251000912C55245A94E7190E2F10E082E086156D
:1025200030F080913903888380913A038983411088
:1025300021C01B821A8297014A81698188810E9489
:10254000DA07259683E0E80EF11CCC16DD0631F79C
:10255000DF91CF911F910F91FF90EF90DF90CF907F
:10256000BF90AF909F908F907F906F905F904F90B3
:102570000C94490F8B818823E9F081508B83859DD2
:10258000C00111246C8170E00E94F528FB01FF2737
:10259000E753FD4F8491E82FE719E59DC001112411
:1025A000B8010E94F52880913B03689FB001112477
:1025B0007A83C1CF0E94852920913B03269521581B
:1025C0002A9DA0012B9D500D1124452F55278417BE
:1025D00095070CF0B0CF82E0861588F40E9485291B
:1025E000B4010E94092988830E94852920913A0319
:1025F0002695622F70E00E940929280F29831A82EC
:1026000080913B03893C20F088EC8C838B8393CFB3
:102610008431D8F784E1F9CF90E080E00E94B029BE
:1026200021E08B3E9E4F09F020E0822F08956BEE53
:102630007EEF90E080E00E94D42960E082E090E0AC
:102640000E94B62960E083E090E00E94B6291092D3
:10265000F3021092F4021092F5021092F60260E07A
:1026600084E090E00E94B62960E081E290E00E9460
:10267000B62960E085E090E00E94B62960E086E03F
:1026800090E00E94B6296FEF87E090E00E94B629A3
:1026900040E050E0BA0188E090E00E94C82960E084
:1026A0008DE090E00E94B62940E050E0BA0188E158
:1026B00090E00E94C82960E087E190E00E94B6297E
:1026C00040E050E0BA018CE190E00E94C82960E04F
:1026D00080E290E00E94B62940E050E0BA0188E133
:1026E00090E00E94C82940E050E0BA018FE090E0FD
:1026F0000E94C82940E050E0BA0183E190E00C94C8
:10270000C8290E940C13811102C00E94171386E091
:1027100090E00E94A22980933503803220F08770D8
:1027200088618093350390913503892F817090FFE4
:1027300004C0892F8695869586950C945607CF926E
:10274000DF92EF92FF926B017C010E94CB07B701F1
:10275000A60188E090E0FF90EF90DF90CF900C947E
:10276000C8295F926F927F928F929F92AF92BF9291
:10277000CF92DF92EF92FF920F931F93CF93DF934D
:1027800000D00F92CDB7DEB7182F762E042F622E11
:102790009091380390FF29C0E92FE695AE2FB0E065
:1027A000A35EBE4F8C91809336039E7F923081F55D
:1027B0009E012F5F3F4F812F0E94DA074B81698175
:1027C0008A810E9426111093390370923A03009374
:1027D0003B03662051F0609138037091390380917A
:1027E0003A0390913B030E949F130F900F900F901C
:1027F000DF91CF911F910F91FF90EF90DF90CF90DD
:10280000BF90AF909F908F907F906F905F90089552
:10281000823019F400913B03D6CF863019F4109121
:102820003903D1CF8930D9F3893169F6E9518E2F37
:102830008170582EE695F0E0EC53FD4FA590B490D2
:10284000BB2484ECE82E81E0F82ED12CC12C96E13B
:10285000892E912CC601B4010E94F528812F5110B8
:1028600013C0860F9701402F672D0E94DA07CA0C0C
:10287000DB1C83E0E80EF11C86E0E81682E0F80637
:1028800049F70E94490F9FCF861BECCFE8E3F3E0A6
:10289000438128E0421B08F440E021E0628181810D
:1028A0000C94B113E8E3F3E0438128E0420F08F40D
:1028B0004FEF21E0628181810C94B113E8E3F3E0F2
:1028C000628128E0621B08F460E021E0438181819D
:1028D0000C94B113E8E3F3E0628128E0620F08F49E
:1028E0006FEF21E0438181810C94B113E8E3F3E0C1
:1028F000818121E04381628188500C94B113E8E327
:10290000F3E0818121E043816281885F0C94B113FF
:1029100080913C03882319F0815080933C0360919F
:1029200038037091390380913A0390913B030C94E2
:102930009F1380913C03833018F48F5F80933C0396
:10294000609138037091390380913A0390913B0371
:102950000C949F13E8E3F3E083E0808311828FEF10
:1029600082838383148260817181828193810C943C
:102970009F131092F10280911C01E0EAF1E088239C
:1029800059F08091090387FF07C08EE1DF011D9296
:102990008A95E9F70C94970886E0F8CF1F93CF93B8
:1029A000DF93CDB7DEB7AA970FB6F894DEBF0FBEA0
:1029B000CDBF8AE793E02091F100DC012D93CD019A
:1029C000B3E082389B07B9F780917B03833009F429
:1029D00071C0B8F4813009F448C0823009F4B2C043
:1029E0008091E80083FF3AC180917A0390917B0344
:1029F0009A3008F033C1E92FF0E0E35AF54D0C941A
:102A00001D298A3009F48DC08B3009F470C08930DB
:102A100039F780917A03813219F780917E03909182
:102A20007F03009711F00297D9F68091E800877F25
:102A30008093E8008091E80082FF37C09091F30016
:102A40008091F200029729F48091F1008B7F813010
:102A500021F48091F100809355038091E8008B77F9
:102A60008093E8000E94D004BBCF80917A03813A22
:102A700009F0B6CF8091E800877F8093E8008091CD
:102A80007E0390917F03892B61F460E286E593E0F9
:102A900070E00E9482058091E8008B778093E800C7
:102AA0009FCF60E090E080E0F3CF809178038111C8
:102AB000C1CF96CF80917A03813A09F091CF80916E
:102AC0007E0390917F03892B09F08ACF8091E800E3
:102AD000877F8093E8008091E80080FFFCCF8091A1
:102AE0001C018093F1008091E8008E77B9CF80912E
:102AF0007A03813209F074CF80917E0390917F0335
:102B0000892B09F06DCF8091E800877F8093E800E2
:102B10000E94D00480917C0380931C010E94B91410
:102B20005FCF80917A03813209F05ACF8091E8001B
:102B3000877F8093E8000E94D00480917D0380937A
:102B400054034ECF80917A03813A09F049CF8091A6
:102B5000E800877F8093E8008091E80080FFFCCF49
:102B600080915403BECF803899F0823809F076C046
:102B700080917E038F70873008F070C08093E900E9
:102B80008091EB0085FB882780F91092E90006C050
:102B90008091760390917703911182609091E80083
:102BA000977F9093E8008093F1001092F10080915C
:102BB000E8008E77B5C1882309F4A2C1823009F0FC
:102BC0004DC080917C038111A6C180917E038F70DE
:102BD0002FEF280F263008F041C08093E9002091A4
:102BE000EB0020FF98C1933031F48091EB008062BC
:102BF0008093EB0090C19091EB0090619093EB007B
:102C000021E030E001C0220F8A95EAF72093EA0024
:102C10001092EA008091EB008860EACF81111EC01B
:102C200010917C031F778091E3008078812B809343
:102C3000E3008091E800877F8093E8000E94D00441
:102C40008091E80080FFFCCF8091E3008068809352
:102C5000E30082E0111183E0809378038091E80023
:102C600083FF0AC08091E800877F8093E80080910D
:102C7000EB0080628093EB00AA960FB6F894DEBF5B
:102C80000FBECDBFDF91CF911F9108958058823044
:102C900028F720917C0330917D032C3DE3E03E0733
:102CA000A1F583E08A838AE289834FB7F894DE0135
:102CB000139620E03EE051E2E32FF0E050935700FE
:102CC000E49120FF03C0E295EF703F5FEF708E2F1D
:102CD00090E0EA30C0F0C7968D939D932F5F24312A
:102CE00059F74FBF8091E800877F8093E8006AE240
:102CF00070E0CE0101960E9482058091E8008B77FA
:102D00008093E800ABCFC096E7CF80917E0390918F
:102D10007F03432F55274330510509F44AC078F506
:102D20004130510509F47AC08BE590E0EEE5F7E01B
:102D30004230510509F092CF2091E800277F20937F
:102D4000E80020918003309181038217930708F4F3
:102D50009C0140E02115310509F065C0411163C0B7
:102D60008091E80082FDC9CF80917803882329F201
:102D7000853019F28091E80083FFF2CFBECF413257
:102D8000510509F43CC04232510509F067CF833048
:102D9000910508F063CFFC01EE0FFF1FE157FE4FD6
:102DA0000190F081E02D84579E4FDC018C9190E0E2
:102DB0001AC0332721303105D1F02115310561F0DA
:102DC0002230310509F04ACFEBECF7E0E4918E2F89
:102DD00090E0EBECF7E007C0E5E1F8E0E4918E2F3E
:102DE00090E0E5E1F8E0009709F438CFA5CFE5EFF2
:102DF000F7E0E4918E2F90E0E5EFF7E0F4CF833039
:102E0000910508F02BCF880F991FFC01EB56FE4F60
:102E10000190F081E02D89E090E08ECF82E190E09A
:102E2000E9EBF7E089CF80917803882309F465CF37
:102E3000853009F462CF8091E80083FD5ECF8091F8
:102E4000E80082FD8DCF8091E80080FF83CF9091D4
:102E5000F3008091F2002115310519F088309105B9
:102E600050F041E0089709F040E08091E8008E774B
:102E70008093E8006FCF44914093F1003196215048
:102E800031090196E8CF803809F0E8CE8091E8005A
:102E9000877F8093E800809179038093F10087CE4B
:102EA0008111DCCE10917C03123008F0D7CE8091D6
:102EB000E800877F8093E800109379030E94D00494
:102EC000112311F084E005C08091E30087FDFACF63
:102ED00081E08093780342E061EC81E00E94EF049E
:102EE00042E261EC84E00E94EF0442E261EC82E0A5
:102EF0000E94EF0442E260EC83E00E94EF04AECE59
:102F000080917C03813009F0A9CE81E0933009F0F3
:102F100080E0809377031092E9008091E800877F3A
:102F20008093E8000E94D00499CE9091380390FFDE
:102F30003DC09170811129C092609093380366233F
:102F400051F0609138037091390380913A03909168
:102F50003B030E949F1360913803669570E04BE03D
:102F600050E084E091E00E949529892BA9F010920D
:102F7000370381E08093120320E040913B0360918E
:102F80003A03809139030C94B1138B3210F094659D
:102F9000D4CF880F982BD1CF81E0809337030E9444
:102FA000F5059093100380930F03E3CF089580916C
:102FB00038038695815009F48AE261E00C949517F4
:102FC0008091380386958F5F8B3208F081E061E055
:102FD0000C9495179091380390FF07C09695981719
:102FE00020F0961710F40C94E01761E00C949517FC
:102FF0003F924F925F926F927F928F929F92AF9289
:10300000BF92CF92DF92EF92FF920F931F93CF93D5
:10301000DF9300D000D00F92CDB7DEB78C01FC015A
:1030200083819481892B31F08081918189238F3F25
:1030300009F0CDC60F900F900F900F900F90DF9179
:10304000CF911F910F91FF90EF90DF90CF90BF90A5
:10305000AF909F908F907F906F905F904F903F9038
:1030600008950E942F0DF82E682F89819A810E9461
:10307000D30669817A818F2D0E94980B7C01F8011B
:103080009281992309F478C6970122513F45203156
:10309000310508F0E8C58FEF93E00E94A229FEEE0B
:1030A000EF0E56EF852E52E0952E882381F1809108
:1030B000EE02877009F4BECFF8018281882309F4FB
:1030C000B9CF82E00F900F900F900F900F90DF918B
:1030D000CF911F910F91FF90EF90DF90CF90BF9015
:1030E000AF909F908F907F906F905F904F903F90A8
:1030F0000C94FD08811424E09206C9F2C4010E94D8
:10310000A229811101C0EA943FEF831A930AE110CA
:10311000F1CF1C821B82442443944AE0342E740174
:103120008FEFE81AF80AC4010E94A22989831A8243
:10313000882309F4BCCF9FEF980F933000F58A8362
:10314000498292E0890E911CC7010E94A2298B83BB
:10315000882309F4ACCFFE0131967F01F70120816D
:103160002223E9F2213009F049C091818281913016
:1031700041F4F2E0EF0EF11C0E94C80E09C04701B5
:10318000EACF923049F422E0E20EF11C0E948E0A4E
:103190003FEFE31AF30AE2CF933031F432E0E30E6B
:1031A000F11C0E94B909F4CF943021F08FEFE81A96
:1031B000F80AEECF92E0E90EF11C30E020E0B70112
:1031C0006F5F7F4FF70141818053990B8A309105E2
:1031D00050F021503109E0F28FE99FE00197F1F7BB
:1031E00000C00000F6CF329EF001339EF00D112496
:1031F0009C012E0F3F1F842F7B01E1CFE22FF0E0D7
:10320000E753F94F5490822F86958695869590E0E6
:10321000FC01E754F94F64902770712C022E02C014
:10322000759467940A94E2F7E1E06E227724FC013A
:10323000E755F94FA490B12C022E02C0B594A79483
:103240000A94E2F7F1E0AF22BB24FC01E756F94F04
:10325000C490D12C02C0D594C7942A95E2F721E0FE
:10326000C222DD246114710419F081EE0E948E0ADD
:10327000A114B10419F086EE0E948E0A852D0E94D9
:10328000C80EAB2819F086EE0E94B909672819F01C
:1032900081EE0E94B909CD2809F47ACF8CE26CCF77
:1032A00081E00E9415090E94BE0801CF81E00E94C2
:1032B000DA08F9CF82E0F5CF82E0F9CF3FEBE316F1
:1032C0003CE5F30609F44BC0A0F1E0ECEE16ECE5AA
:1032D000FE0609F0E9C490913503892F86958695FD
:1032E00086958F5F8F719770843008F059C0880F72
:1032F000880F880F892B809335038091350310C088
:1033000083E00E94B007809135030E94F40DCFCE78
:1033100080913503982F987FE9F188508093350389
:10332000887F91E009F490E08091350390FB80F96B
:1033300013C080913503982F969596959695933066
:1033400040F49F5F990F990F990F8770892B809395
:1033500035038091350381608093350319C08091D6
:10336000350380FF09C08E7F809335030E94F40DE2
:1033700080E00E9456079BCE80FD99CE81608093AD
:103380003503813019F489E080933503809135034A
:103390000E94F40D80913503869586958695E9CF38
:1033A00090933503AACF27E245EE65EE0CC526E2E1
:1033B00041EE60EE08C527E245EE64EE04C526E264
:1033C00041EE62EE00C528E241E0EFCF80910903B3
:1033D000806196E0E9169CE5F90609F4A2C08091A7
:1033E00009038860E7E0EE16ECE5FE0608F499C0F4
:1033F00080910903806295C0809109038D7FFCE074
:10340000EF16FCE5FF0609F48CC078F480910903FF
:103410008C603AE0E3163CE5F30609F482C008F458
:1034200093C0809109038E7F7CC080910903877FC0
:103430009EE0E9169CE5F90609F473C08091090342
:103440008B7FEFE0EE16ECE5FE0608F46AC0809193
:1034500009038F7E66C0FBEFEF16FCE5FF0609F45B
:103460006BC068F533E1E3163CE5F30609F47AC076
:1034700090F491E1E9169CE5F90609F46FC0E2E1E8
:10348000EE16ECE5FE0609F067C40E94B9148091BF
:1034900009038F7746C0F5E1EF16FCE5FF0609F456
:1034A00069C008F47DC080910A0381603AEFE31699
:1034B0003CE5F30609F050C480930A034DC48FEF36
:1034C000E8168CE5F80609F451C0A0F480910A03CF
:1034D0008D7FEDEFEE16ECE5FE0671F380910A03A9
:1034E0008E7FFEEFEF16FCE5FF0630F380910A03B6
:1034F0008360E2CF21E0E2162DE5F20609F459C01F
:1035000008F444C060E082E0E8168DE5F80609F0B2
:1035100023C48EE090E00E94B6291EC48091090366
:1035200081608093090318C4809109038260F9CFF8
:10353000809109038460F5CF80910A038260BCCF3B
:10354000809109038064EDCF0E94B9148091090332
:103550008068E7CF809109038F7DE3CF80910903D5
:103560008F7BDFCF80910903837FDBCF80910A03BC
:103570008C7FA2CF8091090382FB992790F921E0EB
:10358000922790FB82F990FB83F9CBCF80910A03BD
:10359000982F909591708E7F892B90FB81F98CCF1D
:1035A0000E94B91490910903892F97FB87F98058DD
:1035B000B8CF61E0AECF8091F102E6E1EE16ECE526
:1035C000FE0609F015C48A7A91E009F490E0909320
:1035D000780269E2811165E38EE991E00E942B0691
:1035E0000E94660664CD8091380380FF1BC08E7FE9
:1035F00080933803609138037091390380913A03C6
:1036000090913B030E949F1310923703FFEF20E736
:1036100032E0F15020403040E1F700C000000E944D
:10362000490F45CD81608093380361E086950E9403
:1036300095173DCD47ED57E160EE77E10E94C60753
:1036400036CD40EE57E167ED77E1F8CF46E754E13C
:103650006FE774E1F3CF4FE754E166E774E1EECF33
:103660004EE554E16AE674E1E9CF4AE654E16EE5DD
:1036700074E1E4CF46E454E162E574E1DFCF42E572
:1036800054E166E474E1DACF48E854E169E974E1B1
:10369000D5CF49E954E168E874E1D0CF61E081E039
:1036A000C6CF65E082E00E94EA1701CD68E086E0BF
:1036B000FACF6EE089E0F7CF64E18FE0F4CF67E105
:1036C00085E1F1CF61E088E1B2CF62E289E1EBCF41
:1036D00061E083E2ACCFE1148CE5F80609F447C061
:1036E000EEEDEE16ECE5FE0609F44EC0F801E080C2
:1036F000F180992309F44BC0C7010E942F0DD82EE9
:10370000682FC7010E94D306B7018D2D0E94A50B1B
:103710007C01882EF801D280A580A2943FE0A322EC
:103720008091EE028770A1F0CD2CDD2091F08F2DDD
:10373000807F803421F080E28E0D883048F082E076
:103740000E94FD088091EE028770CC24C394811101
:10375000C12C3F2C32942FE03222FBE0F31508F409
:1037600052C0E32DF0E0E959F54D0C941D290E945B
:10377000B914FFEF24E33CE0F15020403040E1F782
:1037800000C000000E94A40E0E94171390CCC70135
:103790000E94AB06D82EB8CF2F2D2F70A22E8F2DC2
:1037A000807F19F0A29490EFA922DD20C9F0AA2011
:1037B00069F080E28E0D883010F081100BC080918E
:1037C000F102A82AA092F1020E9466068E2D0E94A4
:1037D0008E0A19C08091F002A82AA092F002F4CFBC
:1037E0008E2D0E94B909AA2071F0A09480E28E0D5E
:1037F000883010F081103FC08091F102A822A09281
:10380000F1020E946606232D2850330B2430310527
:1038100020F40E944A070E945E0BCC2009F40ACCD7
:103820008091EE0280FD06CCF80112828595859587
:1038300085950E941509C8010E94F8178091EE0233
:103840008595859585950F900F900F900F900F900F
:10385000DF91CF911F910F91FF90EF90DF90CF906C
:10386000BF90AF909F908F907F906F905F904F90A0
:103870003F900C94DA088091F002A822A092F00206
:10388000C0CF3F2D3F70932E8F2D807F803219F057
:10389000929480EF9822882071F081E0881661F17F
:1038A000DD20B9F1AA2071F1F801858180FF8ECF6A
:1038B0008F70858327C0DD2091F09091F202892DD1
:1038C000892BA11003C00E9414079DCFE1E0AE1226
:1038D000FACF981709F497CF8093F20294CFA110F2
:1038E00006C00E946006892D0E9409078CCFF1E076
:1038F000AF1609F488CFF5CFDD2031F025E02A1589
:1039000008F481CF892DDFCF34E03A1508F47BCF5E
:10391000EACFAA2041F3F9E38F1209C02FEF37EE67
:1039200083E0215030408040E1F700C000008E2D40
:103930000E94B90968CF8F2D86958695837061F0B6
:10394000813009F060CFC7019370D11002C090E0C0
:1039500080E00E941E0757CFC7019370D11002C0AC
:1039600090E080E00E9434074ECF8E2DDD2029F0BC
:103970000E94340A0E94700846CF0E944009FACF84
:103980008F2D837009F066C0D1103DCF8E2D8295AA
:1039900086958770880F880F6E2D6F70462E512C7C
:1039A000712C612C082E04C0440C551C661C771C1D
:1039B0000A94D2F740E050E0BA01E4FE0FC04FE0B5
:1039C00050E060E070E004C0440F551F661F771F91
:1039D0008A95D2F740955095609570958F2D869574
:1039E00086958370823019F1D8F48090F30290901C
:1039F000F402A090F502B090F602813069F04429FB
:103A0000552966297729CB01BA01682179218A21B4
:103A10009B210E943609F7CE482859286A287B281E
:103A2000CB01BA016429752986299729F2CF442947
:103A30005529662977294090F3025090F40260904E
:103A4000F5027090F602CB01BA0164257525862532
:103A50009725DFCF8695DD2011F08F2D817088238B
:103A600009F4D1CE8E2D829586958770880F880FA8
:103A70006E2D6F70462E512C712C612C082E04C0B7
:103A8000440C551C661C771C0A94D2F740E050E0A9
:103A9000BA01E4FE0FC04FE050E060E070E004C007
:103AA000440F551F661F771F8A95D2F74095509592
:103AB000609570958F2D869586958370823019F16B
:103AC000D8F48090850390908603A0908703B090EF
:103AD0008803813069F04429552966297729CB016B
:103AE000BA01682179218A219B210E94B4088BCEDA
:103AF000482859286A287B28CB01BA0164297529EE
:103B000086299729F2CF442955296629772940909B
:103B10008503509086036090870370908803CB01E3
:103B2000BA016425752586259725DFCF9F2D9F70C7
:103B3000F92EDD2029F0892F0E9415098E2DC3CE84
:103B40008E2D0E9409078F2D0E94DA085CCE8E2DE3
:103B5000E2EF8E1609F453C0E81578F0F0EF8F16F7
:103B600029F121EF821609F442C0DD2009F46BC06F
:103B7000A1102CCE8F2D8F713FC033EF831609F427
:103B800043C094EF8912F1CFDD2009F451C02F2DED
:103B90002F71F22E822F0E94150938E0F39EC0018A
:103BA000112483608093EE028F2D26C0DD20D1F09A
:103BB000E4E0EA1508F427CE2F2D2F7161E070E0C4
:103BC00080E090E004C0660F771F881F991F2A9538
:103BD000D2F74090850350908603609087037090E1
:103BE00088039FCFF5E0FA1508F40DCEE5CF8F2DB1
:103BF0008F71DD2009F4A8CF0E94150904CE8F2D06
:103C00008F71DD20C9F3A0CF60E070E0CB01DD2033
:103C100009F46BCF2F2D2F7161E070E080E090E010
:103C200004C0660F771F881F991F2A95D2F75DCFB2
:103C300081E00E94FD0881E08A1508F0E4CD82E071
:103C40000E94FD08E0CDAA2059F0893309F06FCE1B
:103C50009FEFE7EEF3E09150E040F040E1F765CEF2
:103C60008F2D8F7171CFF0E1EF16FFE5FF0609F49C
:103C700017CB21E1E2162FE5F20609F41BCB8DEB01
:103C8000E8168CE5F80609F443CB08F017CBFBEBFC
:103C9000EF16FCE5FF0609F433CB80E02CEBE216CF
:103CA0002CE5F20609F42DCBE3EFEE16ECE5FE066B
:103CB00009F47DCB08F0C5C028EDE2162CE5F2062C
:103CC00009F471CB39EDE3163CE5F30609F47BCB3F
:103CD00087EDE8168CE5F80609F472C010928403AB
:103CE000F2E0EF16FCE5FF0608F465CC26E1E216EB
:103CF0002CE5F20638F097012A5F3C452930310562
:103D000008F059CC0E94640B90930A038093090336
:103D100030E1E3163CE5F30609F41CCC08F09BCB3C
:103D200098E0E9169CE5F90609F40ACC08F064CBA2
:103D3000F4E0EF16FCE5FF0609F4FACB08F046CBF9
:103D400032E0E3163CE5F30609F4E8CB83E0E8163D
:103D50008CE5F80609F4E8CB60910903F0900A03BA
:103D600084E090E00E94B6296F2D81E290E00E94ED
:103D7000B6290E94B9149BC930E1E3163FE5F3066A
:103D800009F494CA81E1E8168FE5F80609F494CAAB
:103D900023EFE2162CE5F20609F409CBA8F588ED2D
:103DA000E8168CE5F80609F4FECAE9EDEE16ECE536
:103DB000FE0609F408CBF7EDEF16FCE5FF0689F5E2
:103DC00026E241EE61EEC8010E94E50E70C985E071
:103DD000DE01119601900D928A95E1F7F80122819A
:103DE00089819A8121113DC90E94AB06F82E41C9F3
:103DF0008272F701E25CFC45E431F10508F06BCC1E
:103E0000ED58F54D0C941D2925EFE2162CE5F20630
:103E100009F4D5CA08F4CFCA86EFE8168CE5F8068F
:103E2000F1F0F6E1EF16FCE5FF0609F05FCC8091BA
:103E3000780269E2811165E38EE991E00E94010652
:103E4000CFCBE5EFEE16ECE5FE0609F4B8CA08F4B0
:103E5000B2CA26EFE2162CE5F20609F03FCF27E2C0
:103E600045EE66EEB0CF1F93CF93DF9380917F0234
:103E7000807FA9F480917C02882389F08091B1022F
:103E8000D091800260917A0270917B02A0917D02B4
:103E9000B0917E02C62FC72316E0D81304C0DF916D
:103EA000CF911F91089590E0109711F0CF3F19F432
:103EB00001968770F2CF189F9001199F300D112441
:103EC000F901EF57FD4F41814713F2CF408146136F
:103ED000EFCF42814111ECCF438154814A1B5B0BF0
:103EE000483C510528F780917F028F708061809354
:103EF0007F02F901EA57FD4F80818F7080618083D6
:103F00008AE792E00E94F817DF91CF911F910C94FD
:103F1000FF06AF92BF92CF92DF92EF92FF920F9384
:103F20001F93CF93DF93CDB7DEB761970FB6F894A9
:103F3000DEBF0FBECDBF8C0185E0F801DE011D960E
:103F400001900D928A95E1F7F80180819181E280DC
:103F50002AE7A22E22E0B22E60917D0270917E02AD
:103F60006115710509F43EC130917A0240917B02DE
:103F7000232F24232F3F09F435C1C380D480F09030
:103F80007C02F601E61BF70BFF2009F4FBC0209131
:103F90007F02522F507FE83CF10508F0BBC0511161
:103FA00078C0FE2C491321C038131FC0E1101DC07A
:103FB0002F70206120937F02C5010E94F817809125
:103FC0007F02F80185838F2D61960FB6F894DEBFCE
:103FD0000FBECDBFDF91CF911F910F91FF90EF905A
:103FE000DF90CF90BF90AF900895CD2829F0282F73
:103FF00029232F3F09F014C120E0F22FF170DF2EAA
:1040000020FF3DC02091B1024091800256E0241370
:1040100015C08D879E878D859E850E94710D292FE5
:1040200022952F702230F8F0243020F59F70F9F09F
:10403000F8019581907FD9F4D12C1FC030E0529FB8
:10404000F001539FF00D1124EF57FD4F618196133E
:1040500006C06081861303C06281E61210C02F5F24
:104060003F4F2770D4CF9F7011F0882329F3805ED3
:10407000883010F3C8010E94F817FD2CA4CFEE2061
:1040800009F4A1CF80917F02816080937F02F12C9F
:104090009ACF491312C0381310C0E1100EC0F801B6
:1040A0002583C8010E94F81786E0F801AAE7B2E06C
:1040B00001900D928A95E1F786CF8D879E878D8539
:1040C0009E850E947B0D882309F1EE20F9F08091F6
:1040D0007F02803270F020917A0230917B02388723
:1040E0002F831986DB86CA868C87CE0107960E94AD
:1040F000F81786E0F801AAE7B2E001900D928A95E0
:10410000E1F70E94331FFF24F3945DCFC8010E94A2
:10411000F817F9CF51110AC08AE792E00E94F81708
:1041200086E0F50111928A95E9F7B1CF49130FC0E6
:1041300038130DC0E1100BC0F8012583C8010E949F
:10414000F81786E0F50111928A95E9F73CCF8D8743
:104150009E878D859E850E947B0D8823B9F2EE2077
:10416000A9F280917F02803220F220917A02309170
:104170007B023A8329831B82DD82CC828E83CE012F
:104180000196B5CFE83CF105E0F6FE2CEE2009F4EF
:10419000BDCF491316C0381314C080917F0280FD33
:1041A00083CF982F907F09F47FCFF8018583903FCC
:1041B00009F477CF982F907F905F8F70892B85833C
:1041C00070CF8D879E878D859E850E947B0D811186
:1041D00090CF80917F02816080937F02C8010E940E
:1041E000F817F1CEEE2009F491CF8D879E878D854B
:1041F0009E850E947B0DF82E882309F487CF86E0E8
:10420000F801AAE7B2E001900D928A95E1F780915A
:104210007A0290917B020E94710D0E94331FD3CECF
:1042200021E02E25EACE1F93CF93DF93CDB7DEB7E3
:1042300067970FB6F894DEBF0FBECDBF342F4B8B00
:10424000252F5C8B6D8B7E8B8F8B8E899F89611167
:104250001092F0021A8A198A3D872E876F87998BF0
:10426000888B86E0FE013D96DE01179601900D9247
:104270008A95E1F7CE0107960E94891F882389F06D
:1042800016E08091B10290918002891349C067962F
:104290000FB6F894DEBF0FBECDBFDF91CF911F9157
:1042A000089586E0FE013796DE01119601900D9289
:1042B0008A95E1F78A859B85892B11F38F819885F3
:1042C00089238F3FE9F22091800230E0C9010196F5
:1042D000877099274091B1024817190671F40E941E
:1042E000B914109280021092B10286E0EAE7F2E07F
:1042F000DF011D928A95E9F7C3CF96E0929FD00126
:10430000939FB00D1124AF57BD4FFE013196019020
:104310000D929A95E1F7809380020E94FF06B0CF3C
:10432000819FC00111248F579D4F0E94891F8823B0
:1043300009F4ADCF8091B10290E001968770992782
:104340008093B1029ECF1F920F920FB60F9211244D
:104350002F933F934F935F936F937F938F939F938D
:10436000AF93BF93CF93DF93EF93FF93D091E90087
:10437000DF708091EC00C82FC17080FDC0E8109202
:10438000E9008091F000877F8093F00078940E948C
:10439000CE141092E9008091F00088608093F000C4
:1043A000CD2BCF70C093E900FF91EF91DF91CF91BA
:1043B000BF91AF919F918F917F916F915F914F913D
:1043C0003F912F910F900FBE0F901F9018951F9245
:1043D0000F920FB60F9211242F933F934F935F9339
:1043E0006F937F938F939F93AF93BF93EF93FF93BD
:1043F0008091E10082FF09C08091E20082FF05C048
:104400008091E1008B7F8093E1008091DA0080FF52
:1044100024C08091D80080FF20C08091DA008E7F78
:104420008093DA008091D90080FF9BC080E189BD34
:1044300082E189BD09B400FEFDCF81E0809378035D
:1044400080915303811109C00E9456040E942105E6
:104450008091E20084608093E2008091E10080FF1F
:1044600017C08091E20080FF13C08091E2008E7F30
:104470008093E2008091E20080618093E20080916D
:10448000D80080628093D80019BC85E080937803BF
:104490008091E10084FF29C08091E20084FF25C063
:1044A00080E189BD82E189BD89B5982F917080FF37
:1044B000FBCF8091D8008F7D8093D8008091E10060
:1044C0008F7E8093E1008091E2008F7E8093E200F6
:1044D0008091E20081608093E200809179038823DB
:1044E00009F445C084E0809378038091E10083FF64
:1044F00027C08091E20083FF23C08091E100877F85
:104500008093E10082E08093780310927903809198
:10451000E1008E7F8093E1008091E2008E7F8093A6
:10452000E2008091E20080618093E20042E060E07E
:1045300080E00E94EF048091F00088608093F0009A
:10454000FF91EF91BF91AF919F918F917F916F916B
:104550005F914F913F912F910F900FBE0F901F9041
:10456000189519BC109278031092530376CF80915E
:10457000E30087FD93E090937803B7CFCDB7DEB724
:10458000AA970FB6F894DEBF0FBECDBF84B7877F62
:1045900084BF0FB6F894A8958091600088618093DD
:1045A0006000109260000FBE80E890E00FB6F894B3
:1045B00080936100909361000FBE85B7806885BFCE
:1045C00085B7806885BF81EE95E090939D018093CB
:1045D0009C010E9456040E9421058091E2008460A3
:1045E0008093E2007894809178038823A1F0109161
:1045F000E9001F709091EC00892F817090FD80E898
:10460000182B1092E9008091E80083FD0E94CE14DF
:104610001F701093E90082E084BD93E095BD9AEF8E
:1046200097BD80936E0009E711E0F2E8EF2EF1E00C
:10463000FF2EF80181918F010E94040BE016F10614
:10464000C1F702E811E0ECE8EE2EE1E0FE2EF80101
:1046500081918F010E94040BE016F106C1F7E7EF8C
:10466000F2E089E093E0ADE3B3E0119211921D9284
:104670001D928E179F07C9F70E94B4118FE39CE922
:104680000197F1F700C000000E94B41180913D0332
:1046900080FF17C06FEF82E290E00E94B6296FEFB3
:1046A00083E290E00E94B6296FEF84E290E00E94DE
:1046B000B6296FEF7FEF90E080E00E94D4290E943E
:1046C000A40E0E940C13811102C00E941713809A3D
:1046D0008898269A2E9882E28093800089E18093C0
:1046E00081008FEF9FEF90938700809386000E9458
:1046F000811382E290E00E94A229813209F0D4C4A1
:1047000083E290E00E94A229843009F0CDC484E2C3
:1047100090E00E94A229833209F0C6C40E940C13C3
:10472000811102C00E94171382E090E00E94A2292A
:10473000809322030E94640B90930A0380930903E1
:1047400083E090E00E94A229682F70E090E080E072
:104750000E9436090E94811380910B03811133C09E
:104760000E940C13811104C00E9417130E94AA1406
:1047700088E090E00E94AA2960933803709339037F
:1047800080933A0390933B036E7F71F40E94AA14C6
:1047900088E090E00E94AA2960933803709339035F
:1047A00080933A0390933B030E94CB071092370308
:1047B0008091380380FF04C060E086950E949517C1
:1047C00081E080930B0382E191E090930D0380934D
:1047D0000C0358E1E52EF12C60E4B62E7FE4C72EE1
:1047E00073E0D72E8091780300E112E1853009F45F
:1047F000C1C10E94B411882359F08FB7F894409139
:104800004F035091500360915103709152038FBF39
:10481000E3E2F3E0ADE3B3E010E000E0702F8D9150
:104820009D91219131912817390709F4B7C12827A3
:10483000392760E088248394912CA90148215921CB
:10484000452B09F4A5C169A37AA39C01282139212C
:1048500091E0232B09F490E09BA30E94F505816071
:10486000782F9DA38CA349A15AA16BA18DA10E9471
:104870001321000F111FF801ED5DFC4F8081918124
:104880008826992691828082809137038823D1F1EE
:1048900080913603E0913803E695E81BE09311031D
:1048A000823009F092C1F0E0E65AF84FE4910E2F01
:1048B00010E080E9882E81E1982E809112038823F0
:1048C00061F0109212030E94F505909310038093FB
:1048D0000F0310921403109213030E94F505E09148
:1048E0000F03F09110038E1B9F0B8F3F9F4750F4D7
:1048F000E00FF11FF0931003E0930F038FE093E0BC
:10490000F401099586E0EBE1F3E0DE0111960190F8
:104910000D928A95E1F790901D0380901E031091EF
:104920001F030091200310921D0310921E0310928A
:104930001F0310922003892D882909F448C0809113
:10494000190390911A030E94E6059C0190911803A7
:10495000992309F4D0C323333105C8F19F3F19F0DF
:104960009F5F90931803992059F00E94140A9FEFBB
:1049700019140CF491E0899F802D112480931D035C
:10498000882059F00E94140A9FEF18140CF491E04B
:10499000899F802D112480931E0330911D033323A2
:1049A000B1F020911E03222391F045EB3403C001A6
:1049B0001124992309F475C190931D0345EB240339
:1049C00090011124332309F470C130931E03812F09
:1049D000802B09F448C080911603909117030E9420
:1049E000E6059C0190911503992309F47FC32536B0
:1049F0003105C8F19F3F19F09F5F90931503112374
:104A000059F00E94F2099FEF11160CF491E0899F72
:104A1000802D112480931F03002359F00E94F20976
:104A20009FEF10160CF491E0899F802D1124809344
:104A3000200330911F033323B1F020912003222360
:104A400091F045EB3403C0011124992309F431C1DD
:104A500090931F0345EB240390011124332309F4A1
:104A60002CC13093200380911D0390911E03892B4C
:104A700090911F03892B90912003892B11F00E94A4
:104A8000700886E0FE013196ABE1B3E001900D9233
:104A90008A95E1F70E944A0790912103891731F026
:104AA0000E944A07809321030E945E0B8091780345
:104AB000843009F097CE83E08093E9008091E8008C
:104AC00082FF90CE8091E80090E085FF06C00E94B2
:104AD0007504882309F4F5C091E08091E8008B7794
:104AE0008093E800992309F47DCEE981E150E33118
:104AF00008F069C1F0E0E957F54D0C941D2980914B
:104B00007803843039F180E00E94560780E00E94EB
:104B10005E0B10920E030FB6F894A895E092600019
:104B20000FBEB092600083B7817F846083BF83B77C
:104B3000816083BF7894889583B78E7F83BF0FB6DB
:104B4000F894A8958091600088618093600010922D
:104B500060000FBE80917703882361F00E94B4113A
:104B6000EDE3F3E081919191892B09F087C2CE1694
:104B7000DF06C1F780917803853009F4C0CF0E9429
:104B8000B9140E9481130E944A070E945E0B31CE25
:104B90006F5F880C991C6A3009F04FCE0F5F1F4F72
:104BA0000930110509F03ACE8FEF8EA38FA318A616
:104BB0000E94F5058160782F9AA789A74EA15FA171
:104BC00068A58AA50E9413215FCE863059F4F0E0D3
:104BD000E95AF84FE4910E2F10E0B4EA8B2EB1E1C0
:104BE0009B2E6BCE893061F4E695F0E0EC5AF84FDD
:104BF000E4910E2F10E0AEE78A2EAFE09A2E5DCE44
:104C00008F3061F4E695F0E0EF5AF84FE4910E2F03
:104C100010E0F8EA8F2EFFE09F2E4FCE853159F439
:104C2000F0E0E25BF84FE4910E2F10E0E6E18E2E0B
:104C3000E0E19E2E42CE08E210E054E6852E50E1DF
:104C4000952E883109F439CE833249F4ECE4F7E04B
:104C50000591149177E3872E71E1972E2ECE04EF04
:104C600011E04DEE842E40E1942E843209F425CEDD
:104C700000ED17E030EE832E35E0932E853209F0FB
:104C80001CCE8E2F63E00E94DB28E92FF0E0E75B6B
:104C9000F84FE4910E2F10E06DE5862E62E1962E1E
:104CA0000CCE81E080931D0389CE81E080931E03AA
:104CB0008ECE81E080931F03CDCE81E080932003D0
:104CC000D2CE00E210E0CE0101964C018091E800C6
:104CD00085FD0AC08091E8008B778093E8000E94F0
:104CE0007504882399F3F8CE8091F100F401819343
:104CF0004F010150110951F7EFCE1A8289E08B83E1
:104D00001AC08A81823009F4E8C18330D9F1813038
:104D100009F059C02FB7F89460914F037091500378
:104D200080915103909152032FBF0E9423296B83DE
:104D30007C838D839E8380917803843009F052CDEB
:104D40001091E9001F709091EC00892F817090FD07
:104D500080E8182B82E08093E9008091E80080FFD2
:104D60000DC050E040E060E270E0CE0101960E948C
:104D7000A6048091E8008E778093E8001F7010935E
:104D8000E90030CDDE011196EDE3F3E08081918101
:104D9000329612969C93129713968C9313971296B1
:104DA00023E0EF34F20791F7C6CF8A81823059F4BD
:104DB0006B817C818D819E810E94232985E290E018
:104DC0000E94B629B8CF8FEF8983B5CF4C816B8114
:104DD0008A810E94720B9827892798279E838D834A
:104DE000AACF8D809E809824892498248A810B8163
:104DF00044E1049F8001112494EB899F000D111D53
:104E000011248C8190E0880F991F080F191F692DBC
:104E1000C80186960E94B629682DC8018796D0CF12
:104E20000E949F0D88CF8A81893061F48B81E3E0F5
:104E30008E9FC00111246FEF70E00E94F528862F2D
:104E40000E94B0078A818138C1F060F4803809F08F
:104E500072CF20E04B8160913A03809139030E9428
:104E6000B11369CF823859F1833809F064CF20E05B
:104E700040913B036C818B81F2CF60E08B810E947B
:104E800095179B8180913803911111C08E7F80937B
:104E9000380310923703FFEF20E742E0F150204043
:104EA0004040E1F700C000000E94490F44CF8160FC
:104EB0008093380360E086950E9495173CCF8B81E4
:104EC00080933C0338CF8A81893059F08A30C1F011
:104ED000813821F1B8F4803809F02DCF80913B035F
:104EE0000ECF80913503869586958695EFEF8E9F40
:104EF000C001112463E070E00E94F5286B831BCF92
:104F00001B8219CF823891F0833809F014CF809139
:104F100039038B8380913A038C830DCF80913803C2
:104F200080FF02C08695EBCE80E0E9CE80913C0305
:104F3000E6CE809135030E94F40D609138037091A4
:104F4000390380913A0390913B030E949F13F3CE63
:104F500080E18A83F0CE81E08A838AE0D0CE0A8124
:104F60001B81102701271027CE0101963C018C8060
:104F7000FC01E80DF11D4F01C8018A509D4F6814D6
:104F8000790409F4D8CE0A30F1E01F0750F40E94EA
:104F9000A229F30184830F5F1F4FFFEF6F1A7F0A6F
:104FA000EBCFF3011482F7CF0A811B811027012771
:104FB0001027CE0101963C018C80800E912E911C11
:104FC000C8018A509D4F8016910609F4B4CE0A306C
:104FD000E1E01E0720F4F30164810E94B629FFEF8F
:104FE0006F1A7F0A0F5F1F4FEBCF0E94F90DA3CE00
:104FF00084E0AFCF0A811B81102701271027CE0143
:1050000001963C018C80FC01E80DF11D4F01C801A7
:1050100086968614970409F48ECE003DF2E01F07B1
:1050200050F40E94A229F30184830F5F1F4FFFEF0A
:105030006F1A7F0AECCFF3011482F7CF0A811B812C
:10504000102701271027CE0101963C018C80800E8D
:10505000912E911CC80186968016910609F46BCE9C
:10506000003DE2E01E0720F4F30164810E94B629AE
:10507000FFEF6F1A7F0A0F5F1F4FECCF09BD19BDFD
:1050800009B400FEFDCF8091D8008F7D8093D800B9
:105090008091E00082608093E0008091E00081FDDB
:1050A000FCCF0E94B91466CD60E085E290E00E94DA
:1050B000B6290E949F0D0E94F90D61E282E290E004
:1050C0000E94B62964E083E290E00E94B62963E280
:1050D00084E290E00E94B62921CB85E290E00E9414
:1050E000A2291B821C821D828E8325CE2D32314047
:1050F00008F082CCB8CC2D32314008F031CC67CCEE
:1051000078941F921FB61F9211248F939F93AF9391
:10511000BF9380914F0390915003A0915103B091A0
:1051200052030196A11DB11D80934F03909350032C
:10513000A0935103B0935203BF91AF919F918F9170
:105140001F901FBE1F9018951F921FB61F9211240B
:105150008F939F93AF93BF9380910E03811113C0E0
:1051600080914F0390915003A0915103B09152034D
:105170004196A11DB11D80934F0390935003A093BE
:105180005103B0935203BF91AF919F918F911F90A4
:105190001FBE1F901895DB018F939F930E94092AD1
:1051A000BF91AF91A29F800D911DA39F900DB29FC3
:1051B000900D11240895991B79E004C0991F96174A
:1051C00008F0961B881F7A95C9F78095089587FB8C
:1051D000082E062687FD819567FD61950E94DB28D4
:1051E0000EF4919507FC81950895AA1BBB1B51E114
:1051F00007C0AA1FBB1FA617B70710F0A61BB70B47
:10520000881F991F5A95A9F780959095BC01CD01EB
:10521000089597FB072E16F4009407D077FD09D068
:105220000E94F52807FC05D03EF4909581959F4F8C
:105230000895709561957F4F0895EE0FFF1F0590BB
:10524000F491E02D09946927962769277827872705
:10525000782708950E943E2A332312F48A1B9B0B61
:105260000C9434290E943E2AB7FF0895821B930BA9
:1052700008958F929F92AF92BF92CF92DF92EF925A
:10528000FF92CF93DF93EC01688179818A819B81C2
:10529000611571058105910521F464E279ED8BE5D5
:1052A00097E02DE133EF41E050E00E94EA29490107
:1052B0005A019B01AC01A7EAB1E40E94092A6B01E3
:1052C0007C01ACEEB4EFA50194010E94172ADC0129
:1052D000CB018C0D9D1DAE1DBF1DB7FF03C00197F7
:1052E000A109B04888839983AA83BB839F77DF9104
:1052F000CF91FF90EF90DF90CF90BF90AF909F90B5
:105300008F9008950E943929089580E091E00E94CD
:1053100039290895B0E0A0E0809300019093010145
:10532000A0930201B09303010895FC014150504045
:1053300030F001900616D1F73197CF0108958827F4
:1053400099270895F999FECF92BD81BDF89A9927C2
:1053500080B50895A6E1B0E044E050E00C94DC296B
:10536000A8E1B0E042E050E00C94DC29262FF99946
:10537000FECF92BD81BDF89A019700B4021639F0B4
:105380001FBA20BD0FB6F894FA9AF99A0FBE089585
:105390000396272F0E94B7290E94B629252F0E9425
:1053A000B729242F0C94B7290196272F0E94B729DB
:1053B0000C94B629DC01CB01FC01F999FECF06C0A3
:1053C000F2BDE1BDF89A319600B40D9241505040C3
:1053D000B8F70895052E97FB1EF400940E94012A49
:1053E00057FD07D00E941C2A07FC03D04EF40C94F2
:1053F000012A50954095309521953F4F4F4F5F4F73
:10540000089590958095709561957F4F8F4F9F4F30
:1054100008950E943E2AA59F900DB49F900DA49FD1
:10542000800D911D11240895B7FF0C94092A0E9444
:10543000092A821B930B0895A1E21A2EAA1BBB1BFB
:10544000FD010DC0AA1FBB1FEE1FFF1FA217B30750
:10545000E407F50720F0A21BB30BE40BF50B661F66
:10546000771F881F991F1A9469F76095709580952A
:1054700090959B01AC01BD01CF010895A29FB001A1
:10548000B39FC001A39F700D811D1124911DB29F78
:10549000700D811D1124911D0895F894FFCF8A0D80
:1054A0008A0D930D930D950D930D930D930D8A0D0C
:1054B0008A0D9A0D930D930D9A0DB315DB152E16CB
:1054C000DB152E160E1646162E1643175017CC1B3C
:1054D000CC1B411C411C9B1CB51C031C031CC01C89
:1054E000961DA71DA71DF31A1A1B211B261B2B1B7C
:1054F000301B351B3A1B3F1B441B491B4E1B511BCA
:10550000561B591B5C1B5F1B621B651B681B7D26A2
:105510008126D526E626F12610271327632799270B
:10552000E326E326A827AB27AF27D427F527F827BC
:04553000FA271E2810
:105534000100000001191A1B1C1D1E1F202122013D
:105544000201E305640E430E3F0E3B0E010001020F
:105554000202020606060909090909090F0F0F0FBD
:105564000F0F1515151819191919191919191919C8
:105574002324252525252525818283E200E900EAC7
:1055840000B500B600B700CD008301CC008A0192BB
:105594000194012102230224022502260227022A61
:1055A40002B300B4006F0070003031323337909191
:1055B4009293959496973435F56667F74022B684AE
:0C55C400016201AC0070078907A9070014
:00000001FF
