:100000000C94A7020C94EE020C94EE020C94EE02F7
:100010000C94EE020C94EE020C94EE020C94EE02A0
:100020000C94EE020C94EE020C94A12D0C94752EFF
:100030000C94A9280C94EE020C94EE020C94EE029F
:100040000C94EE020C94EE020C94EE020C94EE0270
:100050000C94EE020C941C290C94EE020C94EE020B
:100060000C94EE020C94EE020C94EE020C94EE0250
:100070000C94EE020C94EE020C94EE020C94EE0240
:100080000C94EE020C94EE020C94EE020C94EE0230
:100090000C94EE020C94EE020C94EE020C94EE0220
:1000A0000C94EE020C94EE020C94EE02165C1E0010
:1000B0001F0020002100220023002400250026002C
:1000C00027002D002E0031002B0014001A0008001C
:1000D000150017001C0018000C00120013002F0060
:1000E00030002A00E00004001600070009000A00A2
:1000F0000B000D000E000F00330034003500280007
:10010000D85C1D001B00060019000500110010003E
:10011000360037003800D95C000001510100E300CF
:10012000E200000000002C000000000000000000C1
:10013000E60002510000010035003A003B003C009F
:100140003D003E003F0040004100420043004400AB
:10015000450049000100C35CC45CC55CC05CC15C77
:1001600001000100460047004800520001004C0019
:100170003900AA00A900AE00B000010055005400EB
:100180004A004B0050004F004C0058000100010095
:100190000100010001000100570056004D004E0013
:1001A00051000100000001000100010001000000F9
:1001B000000001000000000000000000010001003C
:1001C0000000010001003A003B003C003D003E0001
:1001D0003F004000410042004300440045004C0005
:1001E0000100C35C0100C65CC75CC85CC95CCA5C3A
:1001F000CB5CC45C010001000100005C0100010057
:10020000010001000100010001000100CC5CCD5C97
:1002100001000100010001000100010001000100D6
:1002200001000100010001000100010001000100C6
:1002300000000100010001000100000000000100B9
:1002400000000000000000000100010000000100AB
:100250000100010001000100010001000100010096
:100260000100010001000100010001000100010086
:100270000100010001000100010001000100010076
:100280000100010001000100010001000100010066
:100290000100010001000100010001000100010056
:1002A0000100010001000100010001000100010046
:1002B0000100010001000100010001000000010037
:1002C000010001000100000000000100000000002A
:1002D0000000000001000100000001000001010118
:1002E00001010101010102020202020202020203F3
:1002F00003030303030303040404040404040505C3
:100300000505050606060606070707070708080885
:1003100008090909090A0A0A0B0B0B0C0C0C0D0D34
:100320000D0E0E0E0F0F0F101011111112121313CC
:100330001414151516161717181819191A1A1B1B45
:100340001C1D1D1E1E1F20202122222324242526A1
:1003500026272829292A2B2C2D2D2E2F30313232D9
:10036000333435363738393A3B3C3D3E3F404142E5
:10037000434445464748494A4C4D4E4F50515354CB
:10038000555658595A5B5D5E5F616264656668697F
:100390006B6C6D6F7072737577787A7B7D7E8082FF
:1003A000838587888A8C8E8F91939596989A9C9E48
:1003B000A0A2A3A5A7A9ABADAFB1B3B5B7BABCBE58
:1003C000C0C2C4C6C9CBCDCFD1D4D6D8DBDDDFE225
:1003D000E4E7E9EBEEF0F3F5F8FAFDFF180344006B
:1003E0005A00360030005200470042005F005700BC
:1003F0004B004C0000000E0344005A00540045001E
:100400004300480000000403090409023B00020104
:1004100000A0FA09040000010301010009211101F3
:1004200000012240000705810308000A09040100B9
:10043000010300000009211101000122B600070597
:10044000820320000A12011001000000085A442112
:100450001302000102000105010902A10185020940
:1004600001A1000509190129081500250195087544
:100470000181020501093009311581257F95027539
:1004800008810609381581257F95017508810605C3
:100490000C0A38021581257F950175088106C0C0B8
:1004A00005010980A101850319012AB7001501265C
:1004B000B700950175108100C0050C0901A10185E7
:1004C0000419012AA002150126A0029501751081C8
:1004D00000C005010906A1018505050719E029E706
:1004E000150025019508750181020507190029EFFE
:1004F0001500250195F075018102050819012905EE
:10050000950575019102950175039101C0050109D9
:1005100006A101050719E029E715002501950875D1
:100520000181029501750881010507190029FF1550
:100530000026FF00950675088100050819012905A8
:10054000950575019102950175039101C000112473
:100550001FBECFEFDAE0DEBFCDBF04B603FE27C07B
:1005600080911F0790912007A0912107B091220749
:100570008730904BA740B04BD1F410921F071092D8
:100580002007109221071092220714BE84B7877F9C
:1005900084BF0FB6F894A89580916000886180931D
:1005A0006000109260000FBEE0E0F8E3099513E0F0
:1005B000A0E0B1E0E0E6F3E602C005900D92A03ABB
:1005C000B107D9F727E0A0EAB3E001C01D92AF312F
:1005D000B207E1F70E94DD2A0C946F310C94000001
:1005E00081E00E944B160C94552880E00E944B1627
:1005F0000C949D280E94771C81FF07C02FEF4FEFBE
:100600006FEF89E290E00C94A10D089581E00895C8
:1006100081E008950C94080308950C940C031F9333
:10062000CF93DF9300D000D00F92CDB7DEB74983D0
:100630005A836B8330917A0489819A8131111DC06C
:100640006623B9F02223A9F00E947E25182F682F77
:1006500089819A810E942A2569817A81812F0F9050
:100660000F900F900F900F90DF91CF911F910C94EE
:10067000D5030E945625182FEFCF0E947E25698151
:100680007A81EDCFFC01262F4081518162817381F7
:1006900084810C940F03CF93DF93EC0160E00E9400
:1006A0004203BE01DF91CF910C940D030E94D80547
:1006B0000E94EF150C94FD050C94000608950E940D
:1006C0000C210E945E032FEF84E39CE021508040C8
:1006D0009040E1F700C000000C9440290F931F9355
:1006E000CF93DF938C0161E00E944203EC01B801DB
:1006F0000E940A038823D9F1B801CE010E940F1A83
:100700008823A9F1B801CE010E94611A882379F1EA
:10071000B801CE010E94841B882349F1B801CE01A3
:100720000E940919882319F1F8018281882361F058
:10073000CB35FDE5DF0721F170F4C115ECE5DE07EF
:10074000A1F0CF3DDC45C9F0C801DF91CF911F91E9
:100750000F910C940603CC358DE5D807A1F0CD356B
:10076000DD4591F70E942526EFCF0E945F0380E0D0
:10077000DF91CF911F910F9108950E949127F7CF9C
:100780000E942E26E1CF0E943126DECF08950C94E0
:10079000C60381E008950C94C903CF93C82F0E942B
:1007A000C7038C2FCF910C94CB03972F70E02EE0D2
:1007B000929F600D711D1124FB0196E4899FE00D4D
:1007C000F11D1124EE0FFF1FE455FF4F8591949109
:1007D0000895CF93DF930E94D5030E94E304EC01B8
:1007E000811521E5920708F042C0811530E5930795
:1007F00008F09DC0883E910530F5803E910508F0D7
:1008000092C0883A910588F4853A910508F084C031
:100810008130910509F487C0009709F484C00497DA
:1008200008F081C0D0E0C0E07EC08F3B9105D0F7DA
:10083000C85AD0E0CC0FDD1FC65EDC4F0990D881CE
:10084000C02DD46470C08115904250F4C11581E070
:10085000D80708F068C0CD3ED10520F3D06563C04D
:10086000C11590E4D907F0F2DF70D06A5CC0811541
:1008700025E5920700F5811534E5930708F08BC054
:10088000811543E5940708F073C0C11582E5D807C8
:1008900008F469C0CE018370992721E030E002C0DE
:1008A000220F331F8A95E2F7C695C69580E2C89F4E
:1008B000E001112454C0C11599E5D907A8F4C11568
:1008C00028E5D20708F06CC0C11536E5D30708F05B
:1008D000A9CF8C2F0E947A05C82FD0E0DC2FCC271F
:1008E000CC27DF71D0621FC0C1154AE5D40708F4D8
:1008F0005CC0CE0190568115904208F093CF8D2FA9
:100900008F710E947A0590E0982F882788279F7121
:100910009C012C2BE901E6CFC55AD0E0C85BDC4F27
:10092000C881D0E0D064CE01DF91CF910895E4E09A
:1009300096958795EA95E1F783702C2F2695269555
:10094000237040E2249F90011124382B8C2F837058
:10095000C1E0D0E002C0CC0FDD1F8A95E2F7C22BC8
:10096000D32BDC68E0CFDC2FCC27C16FD06ADBCF84
:100970008370992721E030E002C0220F331F8A954F
:10098000E2F7C695C69590E2C99FE0011124C22BFB
:10099000D32BDA68C8CFD82FCC27C46FD06AC3CF87
:1009A000DC2FCC27C06FD06ABECF8C2F8F700E94F7
:1009B0007A0534E0D695C7953A95E1F7CF709C2F2C
:1009C000EC01D069B0CF82389105B1F1B0F4813338
:1009D000910509F475C048F48932910509F469C09C
:1009E0008A32910509F473C008958533910509F49D
:1009F00059C08933910501F10895833E9105A9F10C
:100A000038F4803E9105F9F0823E910549F1089550
:100A1000863E9105A9F1873E9105C9F1843E910575
:100A200019F52091320521FF1FC08091310584FD09
:100A300014C087EE90E00895209131052370A1F055
:100A400080EE90E008952091310520FD47C030915F
:100A5000320530FF09C024FF44C090E080E004C0AC
:100A60002091310522FDF7CF08952091310522FD17
:100A70003BC03091320530FDE3CF24FFF5CFEDCF01
:100A80002091310523FFF0CF24FDE7CFD2CF209175
:100A9000310523FD2CC03091320531FFEECF84EEBD
:100AA00090E008952091310525FFDECF89E290E0A6
:100AB00008952091310525FFD7CF85E390E0089573
:100AC0002091310526FFD0CF8AE290E00895209151
:100AD000310526FFC9CF81E390E0089589E390E0D6
:100AE000089583EE90E0089582EE90E0089586EEFA
:100AF00090E008959091310592FF06C0282F28714B
:100B00002830F9F4877F846093FF06C0282F28716E
:100B10002831F1F4877E84612091320520FF06C0E0
:100B2000382F38713830D9F4877F816021FF06C0B3
:100B3000282F28712831D1F4877E816194FD877E2A
:100B40000895282F24712430F9F68B7F8860DCCF3C
:100B5000282F2471243101F78B7E8861DDCF382F57
:100B60003171313019F78E7F8860E0CF282F2171E5
:100B7000213121F78E7E8861E1CF0C94E6260E9418
:100B800079062FEF89EF90E0215080409040E1F707
:100B900000C000000E94790680E00E94020680FFEB
:100BA00004C00E94BD050C94402908950C94BF0513
:100BB0000E94EC26811102C00E9491270E94F72614
:100BC00080930D050E94FF26909332058093310596
:100BD0000E94D6050E94FB26682F70E090E080E01E
:100BE0000E942C246091E0047091E1048091E20461
:100BF0009091E3040C94662408950C94FC050895E8
:100C00000C94FF05E82FF0E0EE0FFF1FE35CFA4FB6
:100C1000808191810895089580EA8A95F1F7089579
:100C200000C008950C940C06F894E82FE295EF703C
:100C3000F0E031A1282F2F7081E090E001C0880FF3
:100C40002A95EAF7982F9095932391A392A1892B47
:100C500082A3789408950F931F93CF93DF9385EF2A
:100C60000E94140684EF0E94140681EF0E9414066D
:100C700083E30E94140682E30E941406CBE4D3E0CF
:100C800009E513E089910E9414060C171D07D1F79E
:100C9000109234051092330510923E0510923D05D6
:100CA00010923605109235051092400510923F05BE
:100CB00010923805109237051092420510924105A6
:100CC00010923A051092390510924405109243058E
:100CD00010923C0510923B05109246051092450576
:100CE00085E00E94F906DF91CF911F910F910C943E
:100CF0005603AF92BF92DF92EF92FF920F931F9332
:100D0000CF93DF93C9E5D3E003E315E0D12CEE24C4
:100D1000E394F12C8991F894E82FE295EF70F0E0DC
:100D200021A18F70A70102C0440F551F8A95E2F7D9
:100D3000CA01922F982B91A392A18095892382A317
:100D400078940E941006EBE4F3E030E020E0B12C50
:100D5000A12C4191A42FA295AF70B0E090968C91F8
:100D600090E04F7002C0959587954A95E2F780FD17
:100D70003BC0C701022E02C0880F991F0A94E2F7F8
:100D8000A82AB92A2F5F3F4F2E30310511F7FE01F7
:100D9000319780810E9414060E941206F80180811A
:100DA0009181A816B90619F1B182A08281E0D82AF2
:100DB0000E5F1F4FF3E0CE35DF0709F0ABCF2D2DCF
:100DC00045E06DE375E083E395E00E94FA060E943A
:100DD0005C038D2DDF91CF911F910F91FF90EF90CC
:100DE000DF90BF90AF90089590E080E0C9CF80E0A1
:100DF000DECF0895FF920F931F93CF93DF93F82ECA
:100E0000092F162FD72FC42F222349F081E080937A
:100E1000A4030E94D9289093A3038093A2038091F6
:100E2000A4038823A1F08091A2039091A3030E94C0
:100E3000F1280B9760F0EF2DF02FA12FBD2F90E040
:100E400080E0D0E08C179D0744F01092A403DF915E
:100E5000CF911F910F91FF900895219131912D9382
:100E60003D930196EFCF8091AB0380FF12C060915C
:100E7000090285E0689FB001112475956795759505
:100E8000679560387105A8F561157105A1F1862F88
:100E9000089581FF09C06091090285E0689FB00153
:100EA000112475956795EDCF6091090282FD0AC006
:100EB0008091AA038823D1F09091080260910902E1
:100EC000891728F085E0689FB0011124DACF869F4A
:100ED000B001112485E0869F9001879F300D112479
:100EE000692F70E0C9010E943B30CBCF65E070E014
:100EF000CECF8FE7089581E008958091AB0380FF06
:100F00000CC06091050270E07595679575956795C1
:100F10006115710549F1862F089581FF06C0609122
:100F2000050270E075956795F3CF6091050282FD2B
:100F30000BC09091A9039923A1F0609104028091C4
:100F40000502961738F0682F70E06038710500F3DD
:100F50008FE70895899FC001112470E00E943B3003
:100F6000F4CF61E070E0D7CF81E008958D3E31F499
:100F70000E94330781958093AF0308958E3E19F444
:100F80000E943307F8CF8F3E31F40E9433078195DA
:100F90008093AE030895803F19F40E943307F8CF81
:100FA000893F29F40E947D078093B00308958A3F0A
:100FB00021F40E947D078195F7CF8B3F31F40E9489
:100FC0007D0781958093B10308958C3F19F40E94A9
:100FD0007D07F8CF9FE0980F983070F4815F990BF0
:100FE00021E030E001C0220F8A95EAF78091AD033D
:100FF000822B8093AD0308958D3F31F48091AB0334
:1010000081608093AB0308958E3F21F48091AB0300
:101010008260F7CF8F3FB9F78091AB038460F1CF47
:101020004091AE038D3E59F48091AF0387FF0DC010
:101030001092AF0341110BC01092AA0308C08E3E5C
:1010400081F48091AF0318169CF3442381F08091C2
:10105000B0039091B103892B09F05AC01092A903F3
:1010600008958F3E49F447FFF0CF1092AE03809170
:10107000AF038111ECCFE0CF803F19F41416ACF32D
:10108000E4CF9091B003893F29F41916F4F6109239
:10109000B003DBCF8A3F19F497FFD7CFF8CF9091F9
:1010A000B1038B3F29F497FFD0CF1092B103CDCF7E
:1010B0008C3F19F41916CCF3C8CF9FE0980F9830E5
:1010C00090F4815F990B21E030E0B90102C0660F16
:1010D000771F8A95E2F7CB0180959091AD03892324
:1010E0008093AD03B2CF8D3F31F48091AB038E7FFF
:1010F0008093AB03AACF8E3F21F48091AB038D7F09
:10110000F7CF8F3F09F0A1CF8091AB038B7FF0CF5A
:1011100008950E94D9289C019091AE038091AF035D
:10112000982B21F03093A8032093A7039091B0034C
:101130008091B103982B21F03093A6032093A5034F
:101140008CEA93E00C949E1CEF92FF920F931F93F6
:10115000CF93DF9300D000D000D0CDB7DEB786E0CC
:10116000ECEAF3E0DE01119601900D928A95E1F729
:10117000E090AE03F090AF030091B0031091B10383
:101180001092AE031092AF031092B0031092B1030D
:101190008E2D8F2991F08091A7039091A8030E9432
:1011A000F128AC019091AA03992309F43FC08091E2
:1011B0000A028417150608F447C0802F812B91F08E
:1011C0008091A5039091A6030E94F128AC01909113
:1011D000A903992309F477C08091060284171506A4
:1011E00008F47FC08091AE039091AF03892B90915A
:1011F000B003892B9091B103892B11F00E948908CB
:1012000086E0FE013196ACEAB3E001900D928A953A
:10121000E1F726960FB6F894DEBF0FBECDBFDF9183
:10122000CF911F910F91FF90EF90089520910B02A5
:101230008AE0289F900111242417350708F0BDCFBC
:101240009F5F9093AA0302C09F3FD1F7EE2059F011
:101250000E9433079FEF1E140CF491E0899F802DAC
:1012600011248093AE03FF2059F00E9433079FEFB3
:101270001F140CF491E0899F802D11248093AF03FB
:101280003091AE03332309F498CF2091AF0322238A
:1012900009F493CF45EB3403C0011124992359F08D
:1012A0009093AE0345EB240390011124332339F0CE
:1012B0003093AF0382CF81E08093AE03F3CF81E020
:1012C0008093AF037ACF209107028AE0289F900194
:1012D00011242417350708F085CF9F5F9093A90349
:1012E00002C09F3FD1F7002359F00E947D079FEF76
:1012F00010160CF491E0899F802D11248093B00387
:10130000112359F00E947D079FEF11160CF491E014
:10131000899F802D11248093B1033091B003332332
:1013200009F460CF2091B103222309F45BCF45EB90
:101330003403C0011124992359F09093B00345EB75
:10134000240390011124332339F03093B1034ACFA1
:1013500081E08093B003F3CF81E08093B10342CF6B
:1013600086E0ECEAF3E0DF011D928A95E9F710923E
:10137000AA031092A9031092AB030895EF92FF9273
:101380000F931F93CF93DF93EB01E82FD11110C080
:10139000442321F0F0E0E452FD4FE4916E2F7E2FC4
:1013A0008E2FDF91CF911F910F91FF90EF900895B5
:1013B0000D2F10E0282F30E0442329F024523D4F18
:1013C000F901249130E0F6E0CF9FC0011124EFEF46
:1013D000F0E0BF010E942730AB018C2F90E0880F16
:1013E000991FA5E5A49FB001A59F700D1124861B30
:1013F000970B982F990F980FBF01601B710B629F7D
:10140000D001639FB00D729FB00D11248B2F9D9F53
:10141000B0011124672F7727EF01C61BD70BBE0140
:10142000629FE001639FD00D729FD00D11247F0158
:10143000E91AF108E09EB001E19E700DF09E700D7A
:101440001124672F7727E61BF70BE29F8001E39FAC
:10145000100DF29F100D1124E12F722F4230510513
:1014600099F048F44115510569F04130510581F07A
:10147000EB2F8D2F07C04430510569F080F04630C6
:101480005105B1F76E2F8DCFE22F7B2F812FFACF31
:10149000E22F7D2FF7CFEB2F822F712FF3CF7B2FF2
:1014A000822FED2FEFCF41E00C94BE0930E020E019
:1014B000869F212D969F200D311D1124C90108956D
:1014C000AC018230910508F408959FEF413E8EE112
:1014D000580740F49A0195E0369527959A95E1F7DB
:1014E00098E0920F61E0E62FE90FFF27FF1F9F01B1
:1014F00035952795822F229FF001239FF00DF00D47
:1015000011244E175F0738F49FEF920F961758F784
:101510008FEF860F08952F3FE9F361E0620FF6CF5A
:10152000E82F86FDE0952E2F2F7086FD2F5FE69524
:10153000E695E695E670F0E0E25AFC4F9181929FC5
:10154000902D212D112492959F702295207F922B12
:101550002081920F87FD919580E8890F0895E42FEF
:10156000F0E0EE0FFF1FE65BFE4F408134EE439F3D
:10157000412D1124E82FF0E050E0445E5F4FDA0186
:10158000A21BB1099D01B7FF03C031952195310917
:1015900093E0220F331F9A95E1F7AF01421B530BE3
:1015A0009A0157FD20E0582F259F212D1124822FCD
:1015B0000895622F0895E42FF0E0EE0FFF1FE65B21
:1015C000FE4F6081621B0895E42FF0E0EE0FFF1FD5
:1015D000E55BFE4F6081621B0895322F50E0FA01F7
:1015E000EE0FFF1FE55BFE4F9081905297FD9195A6
:1015F000440F551FFA01E65BFE4F2081231B330B7E
:10160000290F311D97FD3A95620F0895EF920F93C0
:10161000972F23E0029FB0011124759567956E0DF9
:10162000792F0F91EF9008950F93CF93DF93D72FDA
:10163000C82F47FD419588E390E0841B910947FD41
:101640009395889FB001899F700D700D1124229F82
:10165000C001239F900D900D1124860F971F0E94AB
:10166000600A982F990F890F682F600F7D2F8C2F9C
:10167000DF91CF910F9108950F931F93522F10E098
:10168000F801EE0FFF1FE55BFE4FA081A052BB0BE0
:101690009D015203F001539FF00D1124000F111F03
:1016A000D801A65BBE4F0C910057110B400390016F
:1016B000419F300D11242E0F3F1F37FF02C02158CC
:1016C0003F4F220F232F221F330B620F1F910F91C9
:1016D00008950F931F93522F10E0F801EE0FFF1F94
:1016E000E55BFE4FA081A052BB0B9D015203F001B0
:1016F000539FF00D1124000F111FD801A65BBE4FA0
:101700000C910057110B40039001419F300D1124A3
:101710002E0F3F1F37FF02C0215C3F4F96E03595EB
:1017200027959A95E1F7620F1F910F9108950F93F6
:101730001F9310E0F801EE0FFF1FE65BFE4F908154
:10174000905797FD9195000F111FF801E55BFE4F33
:1017500000810052110B2003F001219FF00D112494
:1017600008E310E0091B110997FD13954003900150
:10177000419F300D1124E20FF31F9F01220F331FF1
:101780002E0F3F1F37FF02C021583F4F220F232F3C
:10179000221F330B620F1F910F9108950F931F9318
:1017A000CF93DF938B01D82FC42F822F0E94900AF2
:1017B000EC2FF0E0EE0FFF1FE65BFE4F908190589C
:1017C000890F87FD8195880F682F2CE0629F612D1E
:1017D0001124600F712F8D2FDF91CF911F910F91E9
:1017E0000895E42FF0E0EE0FFF1FE65BFE4F9081BF
:1017F000921B97FD9195292F38E1239F212D1124CC
:10180000620F08954095282F429F412D1124842F67
:10181000089522E8241B08F420E0620F0895FC01DB
:101820009B01009729F480E077FF2BC080E80895A2
:10183000AC0197FF04C044275527481B590BB90139
:10184000640F751F37FD10C0241B350BC901A5E0BF
:10185000880F991FAA95E1F70E943B3080E2861B12
:10186000F7FF0FC081950895CB0165E0880F991FA0
:101870006A95E1F7BA01621B730B0E943B3080E668
:10188000EECF08950F931F93CF93DF93D62FC72FDB
:10189000182FC901212F201B022FBA010E940F0C03
:1018A000982F990F990F891B800F282F219F212D89
:1018B0001124822F6D2F7C2FDF91CF911F910F91DB
:1018C0000895EF920F931F93CF93DF93D62FC72FD7
:1018D000182FC9010E19010FBA010E940F0C081B25
:1018E000202F219F212D1124822F6D2F7C2FDF91FE
:1018F000CF911F910F91EF9008950F93CF93DF93A6
:10190000D72FC82FC901BA010E940F0C682F600F92
:101910007D2F8C2FDF91CF910F910895EF920F9330
:10192000CF93DF93D72FC82FC9010E19BA010E9498
:101930000F0C602F681B7D2F8C2FDF91CF910F91A3
:10194000EF9008950C94530AEF92FF920F931F9318
:10195000CF93DF939FEF980F41E0480FAFEFA60FB3
:10196000E1E0E60F082F10E0A61780F42EE0209F9C
:10197000E001219FD00D1124C052DC4FCA0FD11DB0
:10198000288130E1230F08F42FEF2883262F30E041
:101990005EE0509FE001519FD00D11248E01005256
:1019A0001C4F7801020F131FE801588170E2570F96
:1019B00008F45FEF5883EE3048F4E701CE0FD11DF5
:1019C000588170E1570F08F45FEF5883453018F1E4
:1019D000C92FD0E0A61708F459C04EE04C9FC001B3
:1019E0004D9F900D112480529C4FDC01A20FB31F1C
:1019F0002C9130E1230F08F42FEF2C93EE3008F0F8
:101A00003EC0E80FF92FF11D20813DE0230F08F4BF
:101A10002FEF208334C050E0A61780F47EE0749F3F
:101A2000E001759FD00D1124C052DC4FCA0FD11DAB
:101A300078811DE0710F08F47FEF78837EE0749F5A
:101A4000E001759FD00D11248E0100521C4F7801CA
:101A5000020F131FE801488150E1450F08F44FEFD2
:101A60004883EE3048F4E701CE0FD11D48815DE098
:101A7000450F08F44FEF4883981708F4A9CFDF917A
:101A8000CF911F910F91FF90EF9008954EE04C9FE2
:101A9000C0014D9F900D112480529C4FA80FB92F6B
:101AA000B11D4C915DE0450F08F44FEF4C9395CF7D
:101AB00046E050E06CE170E087E495E00C94FB3088
:101AC00046E050E06CE170E087E495E00C94193159
:101AD000E7E4F5E085E2808380911F029091200287
:101AE000A091210281839283A3838FE784838FEF68
:101AF00085830C94600D80E008950F931F93CF931E
:101B0000DF93C82FD62F8A010E947B0D9EE0C99FCC
:101B1000B00111246C5F7E4F6D0F711DFB01908130
:101B20009F3F29F0F801E80FF11D90838F5FDF914F
:101B3000CF911F910F910895E0916C03F0916D0387
:101B40000994E0916803F091690309945F926F92A0
:101B50007F928F929F92AF92BF92CF92DF92EF923D
:101B6000FF920F931F93CF93DF935C014B01FC0116
:101B7000C0818DE0C89FC02D11241DE01C0FF12EE7
:101B80001F3310F03EE3F32E60914B056695809174
:101B90004D0590914E050E94560A582ED0E0CF1563
:101BA000A0F081E01E3308F080E0DF91CF911F911B
:101BB0000F91FF90EF90DF90CF90BF90AF909F90EC
:101BC0008F907F906F905F900895FE01EA53FE4FD3
:101BD0008081F50191818923C9F1CE01880F991F78
:101BE0008C5F9E4FFC01EA5BFF4F2081422F4057E4
:101BF000550B6A01895B9F4FFC018081282F205281
:101C0000330B3901449F9001459F300D300D112455
:101C1000669CC001679C900D900D1124820F931F4C
:101C20000E94600A082F60914805709149058091D3
:101C30004A05E52C9301A601F40109950E94A20C26
:101C4000462F282F672FCE010E94A10D2196A7CFE6
:101C500061E67CE00C94A60D66E07BE00C94A60D9A
:101C60006EE87CE00C94A60DAF92BF92CF92DF920B
:101C7000EF92FF920F931F93CF93DF936C017B0141
:101C8000FC01C0818DE0C89FC02D11241DE01C0FF8
:101C9000B12E1F3310F03EE3B32E60914B056695D5
:101CA00080914D0590914E050E94560AA82ED0E0D5
:101CB000CB1578F081E01E3308F080E0DF91CF9102
:101CC0001F910F91FF90EF90DF90CF90BF90AF905A
:101CD0000895FE01EA53FE4F8081F6019181892328
:101CE00011F1CE01880F991F8C5F9E4FFC01E95BBB
:101CF000FF4F20812052330B8A5B9F4FFC014081B4
:101D00004057550B609148057091490580914A05EF
:101D10000A2DF70109950E94A20C462F282F672F44
:101D2000CE010E94A10D2196C3CF62E47CE00C9409
:101D3000340E64E17BE00C94340E6DE77CE00C948F
:101D4000340EBF92CF92DF92EF92FF920F931F93C8
:101D5000CF93DF937C018B01FC01C0818DE0C89F94
:101D6000C02D11249DE0D92EDC0ECD2CFEE3FD15F7
:101D700010F48EE3C82E60914B056695669521E0C0
:101D8000620F08F46FEF80914D0590914E050E940F
:101D9000560AB82ED0E0CC1578F081E09DE39D1571
:101DA00008F480E0DF91CF911F910F91FF90EF90A9
:101DB000DF90CF90BF900895FE01EA53FE4F8081DF
:101DC000F7019181892391F060914805709149054F
:101DD00080914A052B2D4C2FF80109950E94A20CE9
:101DE000462F282F672FCE010E94A10D2196D3CF19
:101DF0006FEA7AE00C94A10E69ED7AE00C94A10EE2
:101E00006BED7AE00C94A10E64EE7AE00C94A10ED6
:101E10006DEE7AE00C94A10E6EEC7BE00C94A10EBA
:101E200061EF7BE00C94A10E7F928F929F92AF9214
:101E3000BF92CF92DF92EF92FF920F931F93CF93B7
:101E4000DF935C016B01FC01C0818DE0C89FC02D58
:101E500011241DE01C0F912E1F3310F03EE3932E32
:101E600060914B056695669580914D0590914E0564
:101E70000E94560AF82E80E48F0D0E94900A90E886
:101E8000892E880E8F2D0E94900A20E8722E780EDF
:101E9000D0E0C91590F081E01E3308F080E0DF91BA
:101EA000CF911F910F91FF90EF90DF90CF90BF9057
:101EB000AF909F908F907F900895FE01EA53FE4F60
:101EC0008081F50191818923A1F06091480570918D
:101ED000490580914A05EF2C0C2F272D482DF6013E
:101EE00009950E94A20C462F282F672FCE010E9431
:101EF000A10D2196CECF6CE37BE00C94140F69E624
:101F00007BE00C94140F67E97BE00C94140FAF9204
:101F1000BF92CF92DF92EF92FF920F931F93CF93D6
:101F2000DF938C017B01FC01C0818DE0C89FC02D37
:101F300011242DE0B22EBC0EAB2CFEE3FB1510F4E9
:101F40009EE3A92E20914B0531E0230F08F42FEFDB
:101F500030E050E040E06FEF7FEF80E090E00E94E3
:101F60004F306901D0E02C2FCA1580F081E0FDE3ED
:101F7000FB1508F480E0DF91CF911F910F91FF9046
:101F8000EF90DF90CF90BF90AF900895FE01EA539D
:101F9000FE4F8081F8019181892311F14091510513
:101FA0004150042E000C550B47FF1CC0C601609128
:101FB0004B0521E0620F08F46FEF0E94560AAC0156
:101FC000609148057091490580914A05F70109958E
:101FD0000E94A20C462F282F672FCE010E94A10D30
:101FE0002196C1CFFA01EF5AFA4F818982130AC0B4
:101FF000FA01EE0FFF1FEF5AFA4F818D928D8C156B
:102000009D05A8F241505109CFCF62E07CE00C94CD
:10201000870F69E07CE00C94870FBF92CF92DF922C
:10202000EF92FF920F931F93CF93DF937C01FC01FC
:10203000C0818DE0C89FC02D11241DE01C0F012F11
:102040001F3308F00EE360914805709149058091B7
:102050004A050E94A20CD62EC72EB82ED0E0C0177B
:1020600070F081E01E3308F080E0DF91CF911F9186
:102070000F91FF90EF90DF90CF90BF900895FE01F9
:10208000EA53FE4F8081F7019181892331F02B2D96
:102090004D2D6C2DCE010E94A10D2196E0CF8F9287
:1020A0009F92AF92BF92CF92DF92EF92FF920F93E7
:1020B0001F93CF93DF937C01FC01C0818DE0C89F0B
:1020C000C02D11241DE01C0F012F1F3308F00EE35B
:1020D000C0904905D0904A05D09148056D2F7C2DC0
:1020E0008D2D0E94A20CB62EA72E982E60914B0526
:1020F0006D0F7C2D8D2D0E94A20CD62EC72E882E02
:10210000D0E0C01788F081E01E3308F080E0DF9156
:10211000CF911F910F91FF90EF90DF90CF90BF90E4
:10212000AF909F908F900895FE01EA53FE4F9081EB
:10213000F7018181892359F0282D4D2D6C2D90FDBB
:1021400003C0292D4B2D6A2DCE010E94A10D219691
:10215000D8CFBF92CF92DF92EF92FF920F931F934F
:10216000CF93DF938C01FC01C0818DE0C89FC02D0F
:1021700011245DE0F52EFC0EDF2CFEE3FF1510F4BC
:102180004EE3D42EC0904905B0904A0520914B05EE
:1021900030E4E32E3E2D329F312D1124E32ED0E08A
:1021A000CD1578F081E03DE33F1508F480E0DF9144
:1021B000CF911F910F91FF90EF90DF90CF90BF9044
:1021C0000895FE01EA53FE4F8081F8019181892331
:1021D000D9F0FE01EE0FFF1FE65BFE4F6081E69E29
:1021E000B001112495E0759567959A95E1F7809176
:1021F0004805680F7C2D8B2D0E94A20C462F282F9E
:10220000672FCE010E94A10D2196CACFBF92CF9217
:10221000DF92EF92FF920F931F93CF93DF938C0186
:10222000FC01C0818DE0C89FC02D11249DE0F92ED6
:10223000FC0EEF2CFEE3FF1510F48EE3E82ED09099
:102240004805D0914905C0904A0560914B056695B7
:102250006695669580914D0590914E050E94560AAF
:102260000E94900A805887FD8195880F282F3C2D69
:10227000239F212D1124822F6D2D7D2F0E94A20CD2
:10228000D62EC72EB82ED0E0CE1578F081E02DE303
:102290002F1508F480E0DF91CF911F910F91FF90EF
:1022A000EF90DF90CF90BF900895FE01EA53FE4F6C
:1022B0008081F8019181892331F02B2D4D2D6C2DDA
:1022C000CE010E94A10D2196DFCFDF92EF92FF9207
:1022D0000F931F93CF93DF938C01FC01EA53FE4FC2
:1022E0008081682381F1D0904905D0914A05C09141
:1022F0004805EC2EF12C0E94E230282FC7018C54A7
:102300009F4F68E671E00E943B308E199F0997FD50
:102310000396959587959595879523706C2F289FA3
:10232000600D11247D2D8D2F0E94A20C462F282F89
:10233000672FC801DF91CF911F910F91FF90EF9010
:10234000DF900C94A10DDF91CF911F910F91FF9021
:10235000EF90DF900895DF92EF92FF920F931F931B
:10236000CF93DF938C01FC01C281C11125C0609124
:102370004B0520E1620F08F46FEF80914D059091BD
:102380004E050E94560A6AE070E00E942730892BB1
:1023900051F40E94E2306EE370E00E943B30F8019D
:1023A00061810E9465118C2FDF91CF911F910F9158
:1023B000FF90EF90DF900895C0818DE0C89FC02D01
:1023C00011248DE0D82EDC0E8D2DFEE3FD1508F4D2
:1023D0008EE3D0E0E82EF12CCE15DF0534F0C1E01D
:1023E000FDE3FD1500F7C0E0DECFF8016181CE010D
:1023F0000E9465112196F0CF1F93CF93DF93EC01DC
:10240000FC01EA53FE4F80816823A1F00E94E23074
:10241000182F0E94E230612F782F80914A050E9488
:10242000A20C462F282F672FCE01DF91CF911F914D
:102430000C94A10DDF91CF911F910895DF92EF923F
:10244000FF920F931F93CF93DF938C01FC01C28106
:10245000C11125C060914B0520E1620F08F46FEFB8
:1024600080914D0590914E050E94560A65E070E0FE
:102470000E942730892B51F40E94E2306EE370E015
:102480000E943B30F80161810E94FC118C2FDF918A
:10249000CF911F910F91FF90EF90DF900895C08131
:1024A0008DE0C89FC02D11248DE0D82EDC0E8D2D1F
:1024B000FEE3FD1508F48EE3D0E0E82EF12CCE15F6
:1024C000DF0534F0C1E0FDE3FD1500F7C0E0DECF2D
:1024D000F8016181CE010E94FC112196F0CFBF92DC
:1024E000CF92DF92EF92FF920F931F93CF93DF93E0
:1024F0007C01FC01C0818DE0C89FC02D11241DE02E
:102500001C0F012F1F3308F00EE3C0904905D09037
:102510004A05D091480560914B056695669566958C
:1025200080914D0590914E050E94560A0E94900A96
:10253000805887FD8195880F682F2CE0629F612D60
:1025400011246D0F7C2D8D2D0E94530AD62EC72E7F
:10255000B82ED0E0C01770F081E01E3308F080E0A4
:10256000DF91CF911F910F91FF90EF90DF90CF906F
:10257000BF900895FE01EA53FE4F8081F7019181DB
:10258000892331F02B2D4D2D6C2DCE010E94A10DF4
:102590002196E0CFE0916A03F0916B0309942F92AA
:1025A0003F924F925F926F927F928F929F92AF92E3
:1025B000BF92CF92DF92EF92FF920F931F93CF9330
:1025C000DF93CDB7DEB729970FB6F894DEBF0FBE05
:1025D000CDBF6C01DC010C918DE0089F002D112412
:1025E000BDE0B00FB9874B2EB73410F086E4482E0B
:1025F000F6018281882361F040E060E080E00E9483
:10260000CA12E0EEF3E086E4DF011D928A95E9F755
:10261000F6018081811115C08091270490912804D2
:102620000E94F12821E08931910508F420E02093EF
:102630002604499730F00E94D9289093280480936B
:10264000270410E0512C9E012F5F3F4F39010415E4
:102650001505F4F081E0F985F63408F080E029965C
:102660000FB6F894DEBF0FBECDBFDF91CF911F91A3
:102670000F91FF90EF90DF90CF90BF90AF909F9021
:102680008F907F906F905F904F903F902F90089524
:10269000C80165E070E00E943B305B014C013EE008
:1026A000389FF001399FF00D1124E052FC4FE60FE6
:1026B000F71F3080A3010E947D0D282E73018E2DFF
:1026C00086198215C0F080912604882389F0232D75
:1026D00031E0231B08F420E0AEE0A89DC001A99DD5
:1026E000900D112480529C4FA80EB91EF501208335
:1026F0000F5F1F4FACCFD701EC91F0E0EA53FE4FD4
:102700008081F6019181892321F1232D35E5231B59
:1027100008F420E06AEA621B709149052AEA332D29
:10272000230F08F42FEF30914A05822F880F820F74
:102730008E5F282F239F212D1124822F0E94A20C0F
:10274000462FD7019C91282F672F892F90E00E9458
:10275000A10DBFEFEB1AFB0AB2CFAF92BF92CF929F
:10276000DF92EF92FF920F931F93CF93DF93CDB73A
:10277000DEB728970FB6F894DEBF0FBECDBFE82EA8
:10278000D62E142F0E94031D882309F454C0F12C67
:10279000112341F0AE014F5F5F4F6D2D8E2D0E94D2
:1027A0007D0DF82EC090B2030F2D10E0C8018C0DE6
:1027B000911D099764F188E090E05C01A01AB10ACC
:1027C000B8016D547C4FA50183EB93E00E94F23079
:1027D000B80165547C4FA5018BEB93E00E94F23069
:1027E000A501440F551FB801660F771F65537C4F35
:1027F0008BEC93E00E94F230B8016D537C4FA50141
:1028000083EC93E00E94F230CA94C092B20310911C
:10281000B203DE01119640E0842F810FF4121CC038
:102820008093B203809147058C7F803621F46D2D13
:102830008E2D0E94A40C28960FB6F894DEBF0FBE12
:10284000CDBFDF91CF911F910F91FF90EF90DF905F
:10285000CF90BF90AF9008955D91252F30E090E02C
:10286000BC016E547C4FF901EE0FFF1FE65BFE4F7B
:102870000081FB010183220F331FF901E55BFE4F4D
:102880002081FB012187518B880F991FFC01EE5499
:10289000FC4F128E118E4F5FBFCF08950E944D14D2
:1028A0000C94FA0208950895CF93DF93FC01C08140
:1028B0008DE0C89FC02D1124D3EFDC0FCF3308F07B
:1028C000CEE36C2F8D2F0E9452146C2F8D2FDF9131
:1028D000CF910C9453144F925F926F927F928F928C
:1028E0009F92AF92BF92CF92DF92EF92FF92CF93DF
:1028F0006091DB037091DC038091DD039091DE0336
:102900000E9400296B017C010E94E5284B015C01BB
:102910008092DB039092DC03A092DD03B092DE0391
:10292000A091B203E2EBF3E08A2F90E04FEF5FEF6C
:1029300060E070E04C195D096E097F09A9132AC097
:102940008093B2038091DF03C0E0811108C08091C1
:102950004705C82FC37019F0C82FC695C69580913A
:102960000C02813009F440C0882339F1823009F427
:1029700018C1833009F420C1CF91FF90EF90DF9010
:10298000CF90BF90AF909F908F907F906F905F900F
:102990004F900895218D328D2901712C612C4415A1
:1029A00055056605770520F481509F5F3296C6CFA6
:1029B0002C0D3D1D328F218FF8CF10920D02809289
:1029C0004D0590924E05A0924F05B092500589E2B8
:1029D000E2EBF3E0A1E5B5E001900D928A95E1F715
:1029E00081E080930C02C8CF80911002C81323C0ED
:1029F0009091470593702091110230E081E0921789
:102A0000130609F480E0817080930F0280914C05D9
:102A100090910E02981739F080930E0240E060E02A
:102A200080E00E94CA12CB3188F4EC2FF0E0EF581E
:102A3000FE4C0C946E3081E0E6CF80910F0288232B
:102A400059F040E060E080E00E94CA1280E004C0DB
:102A50008DE092E00E940D1090910D029F5F909387
:102A60000D0281119AC082E080930C0280910F02C6
:102A7000811193C0CC2309F49DC00E944E148DE0B7
:102A800092E0CF91FF90EF90DF90CF90BF90AF900A
:102A90009F908F907F906F905F904F900C94541404
:102AA0008DE092E00E944F10D7CF8DE092E00E941F
:102AB000A910D2CF8DE092E00E940611CDCF8DE01B
:102AC00092E00E94F80EC8CF8DE092E00E94950E31
:102AD000C3CF8DE092E00E94280EBECF8DE092E041
:102AE0000E94FC0EB9CF8DE092E00E94000FB4CF9F
:102AF0008DE092E00E94040FAFCF8DE092E00E9443
:102B0000080FAACF8DE092E00E942C0EA5CF8DE099
:102B100092E00E94990EA0CF8DE092E00E949D0E5F
:102B20009BCF8DE092E00E94300E96CF8DE092E038
:102B30000E947B0F91CF8DE092E00E947F0F8CCF9F
:102B40008DE092E00E94830F87CF8DE092E00E949B
:102B5000AB1182CF8DE092E00E941E127DCF8DE0FE
:102B600092E00E946F1278CF8DE092E00E940C0FED
:102B700073CF8DE092E00E94100F6ECF8DE092E057
:102B80000E94CF1269CF8DE092E00E94051064CFC1
:102B90008DE092E00E9409105FCFCC2309F4ECCEC7
:102BA0006CCFC0931002809147058370809311020F
:102BB0000E949C0D83E015CF60914D0570914E05EC
:102BC00080914F05909150050E9400296031710558
:102BD0008105910508F4D0CE10920C02CDCEE09183
:102BE0006603F09167030995109251058FEF9FEFEF
:102BF00090936B0580936A0590936D0580936C05A7
:102C000090936F0580936E05909371058093700586
:102C10009093730580937205909375058093740566
:102C20009093770580937605909379058093780546
:102C30001092B2039093CC038093CB039093CE0376
:102C40008093CD039093D0038093CF039093D203CE
:102C50008093D1039093D4038093D3039093D603AE
:102C60008093D5039093D8038093D7039093DA038E
:102C70008093D9030E94EC26811104C00E94912701
:102C80000E94680D0E94580D809147058C7F11F4B9
:102C90000C94680D0895CF93C82F882329F040E045
:102CA00060E080E00E94CA12C093DF03CF910895D4
:102CB0009091470521E092279093470510920C02CE
:102CC00081110C94600D089581E00C945816909138
:102CD0004705937099F0811109C09460909347055E
:102CE00010920C02662351F00C94600D8B3110F0A1
:102CF0009866F4CF880F880F982BF0CF089561E085
:102D00000C946716682F909147059695969581E0EB
:102D1000890F8B3108F081E00C94671681E00C94E8
:102D20008216682F90914705969596958FEF890F9B
:102D300009F48AE10C94671681E00C949116909145
:102D40004705937049F08093480560934905409387
:102D50004A0521110C94600D0895A7E4B5E0119681
:102D6000EC911197F0E0282F13964C91139712963F
:102D70006C91CF0108960C949F1681E00C94AD16CF
:102D8000E7E4F5E09181282F43816281E92FE85043
:102D9000FF0BCF010C949F1681E00C94C016E7E462
:102DA000F5E0628120E1620F08F46FEF9181282F36
:102DB0004381892F90E00C949F1681E00C94CF16EC
:102DC000E7E4F5E0628120E1621B08F460E09181B4
:102DD000282F4381892F90E00C949F1681E00C945A
:102DE000E016E7E4F5E0438120E1420F08F44FEFFD
:102DF0009181282F6281892F90E00C949F1681E0A9
:102E00000C94F116E7E4F5E0438120E1421B08F45D
:102E100040E09181282F6281892F90E00C949F16C9
:102E200081E00C94021720914B0530E1230F08F448
:102E30002FEF20934B0581110C94600D089581E0D4
:102E40000C94131720914B0530E1231B08F420E06C
:102E500020934B0581110C94600D089581E00C9432
:102E6000221760E080E50E949C1861E080E50C94E8
:102E70009C18CF930E94AE1B60E080E50E949517DE
:102E8000C0E021E041E061E08C2F0E942718CF5F75
:102E9000CE33B9F760E080E50E94D11861E080E5AB
:102EA000CF910C94D1186093FA064093FB0624E668
:102EB00030E042E050E06AEF76E0880F0E943F1C6D
:102EC00021E0892B09F020E0822F0895EF92FF92F4
:102ED0001F93CF93DF937B01182F110FD0E0C0E039
:102EE000C093FA06D701AC0FBD1FEBEFF6E08D9152
:102EF000819387E0EB30F807D1F724E630E041E139
:102F000050E06AEF76E0812F0E943F1C892B59F434
:102F10006096C03CD10521F781E0DF91CF911F91F0
:102F2000FF90EF90089580E0F8CF1F93CF93DF9349
:102F3000C82FD62F45EC6EEF0E94531740E06DEF7F
:102F40008C2F0E94531710E040E0612F8C2F0E94BD
:102F500053171F5F1831C1F745EC6EEF8C2F0E949D
:102F6000531741E06DEF8C2F0E94531710E040E0A3
:102F7000612F8C2F0E9453171F5F103CC1F745EC47
:102F80006EEF8C2F0E94531743E06DEF8C2F0E9441
:102F900053174FEF61E08C2F0E94531780E4D89FA6
:102FA000A0011124416060E08C2F0E9453178FE331
:102FB0009CE90197F1F700C00000DF91CF911F91CC
:102FC0000895CF93DF938E33910520F5880F991FD5
:102FD000880F991FFC01EE5DFD4FA2813381808136
:102FE0008370C181E82FF0E050EC859FC00111246F
:102FF00086589A4FC80FD92FD11D6883A80FB92FB3
:10300000B11D4C93830F911DDC012C93E55AFB4FAE
:1030100081E08083DF91CF910895FF920F931F93FA
:10302000CF93DF93182F062FF42ED0E0C0E02F2D82
:10303000402F612FCE010E94E1172196CE33D1059A
:10304000B1F7DF91CF911F910F91FF900895FF92FB
:103050000F931F93CF93DF9354E0859FF0011124CA
:10306000EE5DFD4FB18172813381F72EF694F694B7
:10307000F694A32FA695A695A695777037708081B4
:1030800083700B2F069506950695E82FF0E0C8E1B2
:103090008C9FC0011124855D9B4F080F192F111DB6
:1030A000E8015881B77081E090E001C0880FBA95BF
:1030B000EAF76623C1F1852B888358E15E9FC00142
:1030C0005F9F900D1124855D9B4FEC01CF0DD11DAD
:1030D000588181E090E001C0880F7A95EAF7442397
:1030E00029F1852B888348E14E9FC0014F9F900DA9
:1030F0001124855D9B4FA80FB92FB11D4C9181E024
:1031000090E001C0880F3A95EAF7222391F0842BD2
:103110008C93E75DFB4F81E08083DF91CF911F911E
:103120000F91FF90089580958523C6CF80958523C4
:10313000D9CF80958423ECCFEF92FF920F931F930A
:10314000CF93DF93D82FC62F062F10E0C801855AE2
:103150009B4F7C01FC0180818823D1F045EC6EEF10
:103160008D2F0E94531741E06DEF8D2F0E94531752
:10317000F0ECCF9FB001112466587A4F8D2F0E943A
:103180006617811105C0F801E75DFB4F81E0808380
:10319000F7011082DF91CF911F910F91FF90EF9077
:1031A0000895EF92FF920F931F93CF93DF93E82E32
:1031B000C62F062F10E0075D1B4FF8018081882382
:1031C000D1F045EC6EEF8E2D0E94531740E06DEF6D
:1031D0008E2D0E945317F8E1CF9FE0011124C55DA9
:1031E000DB4FF12C49916F2D8E2D0E945317F394D4
:1031F00088E1F812F7CFF8011082DF91CF911F918B
:103200000F91FF90EF900895FA01811101C0FB0129
:1032100009940F931F93CF938C01FB01C281CC23A0
:1032200009F48FC00E94342682720B3CFCE51F0714
:1032300009F472C060F5063CECE51E0709F458C0BD
:1032400080F4043C9CE5190709F448C008F04BC021
:10325000033C1C4509F43FC08C2FCF911F910F9167
:103260000895083C9CE5190709F44CC008F445C0D2
:10327000093CFCE51F0709F44AC040E157E16FEF44
:1032800076E10A3C1C4541F70E9404191EC0003D2E
:10329000ECE51E0709F453C080F40D3C9CE51907CA
:1032A00009F444C0F0F10E3CFCE51F0709F443C0EB
:1032B0000F3C1C4589F684E03FC0073D9CE519079B
:1032C00030F48EE0023D1C45B8F1C0E0C5CF0E35AC
:1032D0001D45D9F3C1CF0E946416F7CF4CE956E1E2
:1032E0006EE876E1D1CF4EE856E16CE976E1CCCFDD
:1032F0004CEC56E16DEB76E1C7CF4DEB56E16CEC53
:1033000076E1C2CF4EEE56E16DED76E1BDCF4DEDEB
:1033100056E16EEE76E1B8CF4FEF56E160E177E12E
:10332000B3CF4EE257E16FE177E1AECF4FE157E126
:103330006EE277E1A9CF81E00E947F16C6CF89E0D7
:10334000FBCFC1E089CF0F931F93CF93DF93C42F9F
:10335000D22FFC0182818823C9F040935F040E9430
:10336000D92890935E0480935D0480E28C0F8830AE
:1033700008F050C0C77081E001C0880FCA95EAF715
:10338000DF91CF911F910F910C94A01E10915F04BB
:10339000141335C080915D0490915E040E94F12861
:1033A000883C910560F5C0E2CD0F1D17B9F080E2B1
:1033B000810F883040F4177081E001C0880F1A95A2
:1033C000EAF70E94A71EC83048F481E09D2F97704D
:1033D00001C0880F9A95EAF70E94A01E802F0E94D4
:1033E000981EC830B8F4D77081E001C0880FDA9514
:1033F000EAF7DF91CF911F910F910C94A71E80E205
:103400008C0F883038F4C77081E001C0880FCA95EE
:10341000EAF7EFCFDF91CF911F910F9108950F93AE
:103420009C01CB01243F4CE5340759F1A8F4293D18
:10343000FCE53F0701F12A3D4CE53407D1F1283D79
:103440003C4591F406E221EE41EE68ED7CE50E94F8
:10345000A31980E00F910895263FFCE53F07E9F0AE
:10346000B0F0273F3C45F9F0FC018281882339F117
:1034700010925F04EFCF07E225EE45EE69ED7CE5A3
:10348000E6CF06E221EE40EE64EF7CE5E0CF07E216
:1034900025EE44EE65EF7CE5DACF06E221EE42EE62
:1034A00066EF7CE5D4CF07E225EE46EE67EF7CE5DC
:1034B000CECF08E221E045EE6AED7CE5C8CF81E0A1
:1034C000C9CFCF93DF93EC01FB018281882309F4FC
:1034D00019C1C230FCE5DF07C0F1C6319CE5D90750
:1034E00030F09E012B5F3C452930310570F50E947C
:1034F000FF269093320580933105C031ECE5DE075D
:1035000009F4CFC008F05BC0C8308CE5D80709F4D7
:10351000B6C088F5C430ECE5DE0709F4A8C0C0F4F5
:10352000C2308CE5D80709F49CC0809131058260D7
:10353000C330DC4509F498C0809131059091320583
:103540000E940D270E940C2180E0DF91CF91089509
:10355000809131058061C630ECE5DE0709F484C056
:10356000809131058860C730DC4508F47DC08091CA
:103570003105806279C0CC308CE5D80709F489C068
:1035800070F4809131058C60CA30ECE5DE0709F4F7
:103590006BC008F478C0809131058E7F65C0CE3055
:1035A0008CE5D80709F479C0809131058B7FCF3045
:1035B000DC4508F459C0809131058F7E55C0CC3F61
:1035C000ECE5DE0709F457C030F5C3318CE5D807C8
:1035D00009F46FC078F4C131ECE5DE0709F465C089
:1035E000C231DC4509F0A8CF0E940C218091310541
:1035F0008F773AC0C5318CE5D80709F462C008F46A
:1036000076C0809132058160CB3FDC4509F094CFD4
:103610008093320591CFC115FDE5DF0709F44DC058
:1036200088F4809132058D7FCE3F9CE5D90781F3E8
:10363000809132058E7FCF3FDC4550F3809132057B
:103640008360E6CFC230FDE5DF0709F459C008F416
:1036500044C080E0C330DD4509F06ECF0E9493275F
:103660006BCF8091310581608093310565CF80916A
:1036700031058460F9CF809132058260C9CF809195
:1036800031058064F1CF0E940C2180913105806862
:10369000EBCF809131058D7FE7CF80913105877F1A
:1036A000E3CF809131058F7DDFCF809131058F7B16
:1036B000DBCF80913105837FD7CF809132058C7F1E
:1036C000A7CF8091310582FB992790F921E09227BD
:1036D00090FB82F990FB83F9C7CF80913205982F38
:1036E000909591708E7F892B90FB81F991CF0E94EC
:1036F0000C2190913105892F97FB87F98058B4CF21
:1037000081E0ACCF81E021CFCF93DF93EB01863115
:103710009C4511F50E9434269A81992399F08A7A62
:1037200091E009F490E090936004811109C089E26E
:103730000E94EE250E94772680E0DF91CF910895C8
:1037400085E3F6CF80916004811104C089E20E9474
:10375000F525F0CF85E3FBCF81E0EFCF1092B900E4
:103760008CE08093B8000895EF92FF920F931F931F
:10377000CF93DF93182FEB011092BC0084EA809363
:10378000BC000E94D9287C018091BC0087FF27C023
:103790008091B900887F883029F08091B900887FB6
:1037A0008031D9F51093BB0084E88093BC000E945F
:1037B000D9288C018091BC0087FF24C02091B900DA
:1037C000287F90E080E02831B1F081E090E0203463
:1037D00011F490E080E09195819591090CC0CF3F64
:1037E000DC0791F20E94D9288E199F098C179D073A
:1037F00058F28EEF9FEFDF91CF911F910F91FF90C5
:10380000EF900895CF3FDC07A9F20E94D928801BD2
:10381000910B8C179D0770F2ECCF8FEF9FEFEBCFE2
:103820000F931F93CF93DF93EB018093BB0084E84A
:103830008093BC000E94D9288C018091BC0087FF36
:1038400011C02091B900287F81E090E0283211F466
:1038500090E080E0919581959109DF91CF911F9142
:103860000F910895CF3FDC0741F30E94D928801BB8
:10387000910B8C179D0708F38EEF9FEFEECFCF9241
:10388000DF92EF92FF920F931F93CF93DF936B0121
:103890008A017901B9010E94B41BE6010C0D1D1DBE
:1038A000C017D10761F424E92093BC00DF91CF91C8
:1038B0001F910F91FF90EF90DF90CF90089597FDAB
:1038C000F2CFB70189910E94101CEACF9093660451
:1038D000809365040895E0916504F0916604309743
:1038E00021F00190F081E02D099480E00895E091AD
:1038F0006504F0916604309711F480E0089501901A
:10390000F081E02D09950895E0916504F091660439
:10391000309799F020911E02222359F02091310511
:1039200027FF07C0DC012C9111962C93119725E0FD
:103930002C930280F381E02D09940895E0916504B1
:10394000F0916604309739F022E0DC012C9304807A
:10395000F581E02D09940895209163043091640469
:103960002817390771F09093640480936304E09101
:103970006504F0916604309721F00680F781E02D10
:103980000994089520916104309162042817390741
:1039900071F09093620480936104E0916504F0916A
:1039A0006604309721F00084F185E02D0994089594
:1039B0000E94E528609376047093770480937804DE
:1039C00090937904609372047093730480937404E9
:1039D00090937504089585B7806885BF85B7806822
:1039E00085BF0895089508950C94F21C08950C94D1
:1039F000F61C0E94EB1C84EE96E20E9464290E9451
:103A0000F31C0C94F41C81E008950C94031D08959C
:103A100008950E94071D0C94081D0E94D0280E9442
:103A20002B060C94F71C8F929F92AF92BF92CF926D
:103A3000DF92EF92FF920F931F93CF93DF93CDB757
:103A4000DEB72A970FB6F894DEBF0FBECDBF0E9437
:103A5000790681110E94D81C58E6852E54E0952ED7
:103A600010E000E0E02E802F0E9402065C01F401CD
:103A7000C190D1904F01C816D906B1F40F5F1F4F06
:103A80000530110579F78FEF89838A831B820E94A5
:103A9000D9288160782F9D838C8349815A816B81DD
:103AA0008D810E94CD1D3DC080910D0581FD0E943C
:103AB0000B06C6018A259B25F12CCC24C394D12C5E
:103AC0009C012C213D21232B09F44DC00E94051D92
:103AD00095012C213D21BB24B394232B09F4B12C57
:103AE000882379F0FE82EF82B8860E94D92881600F
:103AF000782F9A8789874E815F8168858A850E94A1
:103B0000CD1D000F111FF801E859FB4F80819181F5
:103B1000C826D926D182C0824B2D6F2D8E2D0E94B2
:103B2000AD130E946B140E94A4080E946B1C90911C
:103B300067048917F9F00E946B1C809367042A962A
:103B40000FB6F894DEBF0FBECDBFDF91CF911F91AE
:103B50000F91FF90EF90DF90CF90BF90AF909F902C
:103B60008F900C94CD03F394CC0CDD1CFEE0FF127F
:103B7000A7CF84CF2A960FB6F894DEBF0FBECDBF75
:103B8000DF91CF911F910F91FF90EF90DF90CF9039
:103B9000BF90AF909F908F900895DF92EF92FF9229
:103BA0000F931F93CF93DF93CDB7DEB72B970FB64D
:103BB000F894DEBF0FBECDBF7A878B87F42E052F1A
:103BC000162FE72ED82E61110E9454261E821D82C8
:103BD0007E2DEC82DD824F2D502F612F8D2D9E8109
:103BE0002B960FB6F894DEBF0FBECDBFDF91CF91FD
:103BF0001F910F91FF90EF90DF900C948223FC01B6
:103C0000808191810C94C025CF93C82F882309F41B
:103C100047C08CEF8C0F813AA0F46C2F8091120278
:103C2000909113020E94AC27882329F08C2F0E94C8
:103C3000F5250E9477268C2F0E94EE25CF910C94BB
:103C4000772680E28C0F883048F4C77081E001C08D
:103C5000880FCA95EAF70E943726F0CFEBE5EC0F04
:103C6000E33040F4F0E0E456FC4F808190E0CF91E7
:103C70000C94AC1CE8E5EC0FE73150F4F0E0EE0FEB
:103C8000FF1FE259FC4F80819181CF910C94C21C9F
:103C9000CD3E30F08C2F0E94B607CF910C9489084E
:103CA000CF910895882361F19CEF980F913A20F409
:103CB0000E94F5250C94772690E2980F983050F4E6
:103CC000877091E001C0990F8A95EAF7892F0E94C9
:103CD0003D26F0CF9BE5980F933020F490E080E0F4
:103CE0000C94AC1C98E5980F973120F490E080E09C
:103CF0000C94C21C8D3E20F00E9410080C94890880
:103D000008951F93CF93DF93182FEB010E94041E99
:103D1000209731F4812FDF91CF911F910C94521E87
:103D20008FE99FE00197F1F700C000002197F0CFE5
:103D300070E060E0893311F460E570E00C94811E5E
:103D4000882321F00E9437260C9477260895882333
:103D500021F00E943D260C9477260895BF92CF92C1
:103D6000DF92EF92FF920F931F93CF93DF936C013B
:103D7000D62FC72FFC011281058102950F700E947A
:103D80000C26E82E8823A1F0E12E112389F08C2F38
:103D9000807F803429F080E28D0FE12C883040F064
:103DA00082E00E94C8260E940C2691E0E82EE926B7
:103DB000BC2EB2949FE0B922FBE0FB1598F1EB2DED
:103DC000F0E0E457FE4C0C946E300C2F0F70C07F67
:103DD00011F00295007F1123A9F0002359F080E231
:103DE0008D0F883010F0D11109C0802F0E94372626
:103DF0000E9477268D2F0E94041E14C0802F0E94DF
:103E00004726F6CF8D2F0E94521E002359F080E2E4
:103E10008D0F883010F0D1112CC0802F0E943D26CC
:103E20000E9477262B2D2850330B2430310520F4A7
:103E30000E946B1C0E94CD03EE2009F48EC10E94EB
:103E4000082680FD8AC1F60112820E9402260E9485
:103E50008E24C6010E94CE200E940226DF91CF91BF
:103E60001F910F91FF90EF90DF90CF90BF900C9437
:103E7000AF24802F0E944D26D3CF2C2F2F70F22EEF
:103E8000C07FC03219F0F29480EFF822DD2369F090
:103E9000D13049F1112391F1002351F1F6018581CF
:103EA00080FFA8CF8F70858323C0112381F001117B
:103EB00006C00E945A268F290E94A01EB3CF01304F
:103EC000C1F70E945A268F290E946026ABCF0111AC
:103ED00006C00E946D268F2D0E94A71EA3CF013021
:103EE00009F4A0CFF6CF112329F0063008F09ACFBD
:103EF0008F2DE2CF053008F095CFEDCF002359F399
:103F0000D93349F4FFEF27EE33E0F1502040304041
:103F1000E1F700C000008D2F0E94521E83CF8C2F2E
:103F200086958695837069F0813009F07BCF8D2F5F
:103F30009C2F9370111102C090E080E00E94C21C7F
:103F400071CF8D2F9C2F9370111102C090E080E0F3
:103F50000E94AC1C67CF8D2F112329F00E94B60759
:103F60000E9489085FCF0E941008FACF8C2F8370BF
:103F700009F041C0111156CF4D2F4295469547701B
:103F8000440F440F0D2F0F7010E030E020E0042E9E
:103F900004C0000F111F221F331F0A94D2F760E0E4
:103FA00070E0CB01D4FF0FC06FE070E080E090E0E4
:103FB00004C0660F771F881F991F4A95D2F7609536
:103FC000709580959095C695C695C370602B712BA2
:103FD000822B932BC23049F058F4C13019F00E9463
:103FE000402420CF0E942E241DCF0E9452241ACF9D
:103FF0000E942C2417CF8695112311F08C2F8170ED
:10400000882309F40FCF4D2F429546954770440FF2
:10401000440F0D2F0F7010E030E020E0042E04C09C
:10402000000F111F221F331F0A94D2F760E070E0C7
:10403000CB01D4FF0FC06FE070E080E090E004C0DF
:10404000660F771F881F991F4A95D2F76095709564
:1040500080959095C695C695C370602B712B822B69
:10406000932BC23049F058F4C13019F00E94052555
:10407000D9CE0E94F324D6CE0E941725D3CE0E941B
:104080006824D0CECF70112329F08C2F0E948E246B
:104090008D2F12CF8D2F0E94A71E8C2F0E94AF2430
:1040A000C1CED23F89F160F4D03FC9F0D13F29F1B0
:1040B000112309F442C001119DCE8C2F8F7121C0B4
:1040C000D33F39F1D43FA1F7112369F1CF718C2F80
:1040D0000E948E2463E08C2F0E94AD26A3CE112374
:1040E00041F0053008F09ECE8C2F8F710E94D224B3
:1040F00099CE063008F096CEF7CF8C2F8F71112312
:1041000069F20E948E248ECE8C2F8F711123C9F3F9
:10411000C5CF112329F08C2F8F710E94792482CE74
:104120000E9474247FCE81E00E94C826023008F4E9
:1041300079CE82E00E94C82675CE002359F0D9338B
:1041400009F0E9CE8FEF97EEE3E081509040E04038
:10415000E1F7DFCE8C2F8F71A1CFDF91CF911F912F
:104160000F91FF90EF90DF90CF90BF9008950F9345
:104170001F93CF93DF93EC01688179818A810E943C
:10418000CA258C010E9429250E942B24B801CE014A
:10419000DF91CF911F910F910C94AE1ECF93DF93BF
:1041A000EC018B819C81892B29F08881998189235D
:1041B0008F3F59F4DF91CF910895CE010E94B7202F
:1041C000CE01DF91CF910C944B03CE010E946E0380
:1041D0008111F3CF0E940C26882361F38A81882302
:1041E00049F382E0DF91CF910C94C82690E080E003
:1041F0000E94AC1C90E080E00E94C21C0E945426E9
:104200000E9457260E9477260E94B0090C948908C4
:104210000E94FC250C94F6200E9444260C94082150
:10422000E92FE295EF70E250EE3070F4F0E0E856DE
:10423000FE4C0C946E30803F19F020F4883E20F440
:1042400081E00895843FE1F380E00895883EC0F363
:10425000813FD1F7F5CF93FB882780F908950E941D
:10426000C0250C941021CF93DF9300D000D00F9283
:10427000CDB7DEB70F900F900F900F900F90DF919A
:10428000CF910895CF93DF9300D000D000D0CDB769
:10429000DEB726960FB6F894DEBF0FBECDBFDF9116
:1042A000CF9108951F93CF93DF93C0917B0416E0C5
:1042B00080917C048C1304C0DF91CF911F910895ED
:1042C000D0E01C9FF0011D9FF00D1124E358FB4F1F
:1042D0004081518162817381848195810E94422154
:1042E0002196C770E5CF4091AD045091AE04609126
:1042F000AF047091B0048091B1049091B2040C9419
:1043000042211F93CF93DF938091B204807FA9F461
:104310008091AF04882389F080917B04C0917C0454
:104320006091AD047091AE04A091B004B091B1045D
:10433000D62FD72316E0C81304C0DF91CF911F9169
:10434000089590E0109711F0DF3F19F401968770FF
:10435000F2CF189F9001199F300D1124F901E358F5
:10436000FB4F41814713F2CF40814613EFCF42818B
:104370004111ECCF438154814A1B5B0B483C5105F2
:1043800028F78091B2048F7080618093B204F901A4
:10439000EE57FB4F80818F70806180838DEA94E0BF
:1043A0000E94CE20DF91CF911F910C945221AF92A9
:1043B000BF92CF92DF92EF92FF920F931F93CF9312
:1043C000DF93CDB7DEB761970FB6F894DEBF0FBEAF
:1043D000CDBF8C0185E0F801DE011D9601900D92A4
:1043E0008A95E1F7F80140815181E2808DEAC82E7B
:1043F00084E0D82E6091B0047091B104611571050C
:1044000009F461C19091AD042091AE04892F8223FB
:104410008F3F09F458C1A380B480F090AF04F50138
:10442000E61BF70BFF2009F4FCC08091B204382F83
:10443000307FE83CF10508F0B2C0311179C0FE2CA4
:10444000251323C0941321C0E1101FC08F70806119
:104450008093B2040E947321C6010E94CE208091F5
:10446000B204F80185838F2D61960FB6F894DEBFF4
:104470000FBECDBFDF91CF911F910F91FF90EF90B5
:10448000DF90CF90BF90AF900895AB2829F0842F94
:1044900085238F3F09F033C180E0F82FF170DF2EC4
:1044A00080FF3CC080917B0420917C0436E0821325
:1044B00015C04D875E878D859E850E94C025292F5A
:1044C00022952F702230F0F0243018F59F70F1F013
:1044D000F8019581907FD1F4D12C1EC090E0389FD7
:1044E000F001399FF00D1124E358FB4F61816513F2
:1044F00006C06081641303C062816E110FC0019613
:104500008770D5CF9F7011F0882331F3805E88309B
:1045100018F3C8010E94CE20FD2CA5CFEE2009F48F
:10452000A2CF8091B20481608093B204F12C9BCF22
:10453000251306C0941304C0F801EE2009F48DC0C1
:104540004D875E878D859E850E942F21882319F1D6
:10455000EE2009F18091B204803270F02091AD0418
:104560003091AE0438872F831986BB86AA868C8744
:10457000CE0107960E94CE2086E0F801ADEAB4E0B5
:1045800001900D928A95E1F70E9481210E9473218A
:10459000FF24F39468CFC8010E94CE20F9CF3111D7
:1045A00013C07A2DB98AA88A6E2D89890E94332179
:1045B0008DEA94E00E94CE2086E0F60111928A9561
:1045C000E9F70E947321B2CF25130FC094130DC0D9
:1045D000E1100BC0F8018583C8010E94CE2086E05F
:1045E000F60111928A95E9F73ECF4D875E878D855A
:1045F0009E850E942F21882371F2EE2061F2809126
:10460000B204803208F4B8CF2091AD043091AE04EA
:104610003A8329831B82BD82AC828E83CE010196B0
:10462000A9CFE83CF10508F041C0FE2CEE2009F4CA
:10463000B2CF25132AC0941328C08091B20480FD04
:104640001BC0982F907FC1F0F8018583903F31F017
:10465000982F907F905F8F70892B8583C8010E946F
:10466000CE2086E0F801ADEAB4E001900D928A9583
:10467000E1F70E947321F7CE86E0F801ADEAB4E0DD
:1046800001900D928A95E1F7EECE4D875E878D857C
:104690009E850E942F2181116FCF8091B20481608D
:1046A0008093B204C8010E94CE20DDCE7A2DB98A53
:1046B000A88A6E2D89890E94332186E0F601119225
:1046C0008A95E9F7D6CFEE2009F465CF4D875E874E
:1046D0008D859E850E942F21F82E882309F45BCFBB
:1046E00086E0F801ADEAB4E001900D928A95E1F719
:1046F0008DEA94E00E94FF1D0E948121BACF81E0E3
:104700008E25CBCE1F93CF93DF93CDB7DEB72C97FB
:104710000FB6F894DEBF0FBECDBF4F8358876987B1
:104720007A878B879C87CE0107960E94D7218823A2
:1047300069F08A859B85892B39F04F815885842FB4
:1047400085238F3F09F071C016E05FC086E0FE014F
:104750003796DE01119601900D928A95E1F78A85D0
:104760009B85892B89F38F81988589238F3F61F3FE
:1047700020917C0430E0C90101968770992740910F
:104780007B044817190671F40E940C2110927C04D6
:1047900010927B0486E0EDEAF4E0DF011D928A9539
:1047A000E9F7D2CF96E0929FD001939FB00D1124EC
:1047B000A358BB4FFE01319601900D929A95E1F7F7
:1047C00080937C040E945221BFCF819FC00111249D
:1047D00083589B4F0E94D7218823E9F0E0917B0406
:1047E0001E9FF0011124E358FB4F408151816281EB
:1047F0007381848195810E94422180917B0490E0A5
:1048000001968770992780937B0480917B04909117
:104810007C048913DACF2C960FB6F894DEBF0FBE56
:10482000CDBFDF91CF911F91089569857A858B85E2
:104830009C850E94422188CF08950C941C240E94DC
:104840001D246093E4047093E5048093E604909340
:10485000E7040C94F62008950C941F240F931F93E3
:104860000091E4041091E5042091E6043091E704FE
:10487000602B712B822B932B1F910F910C941F2473
:104880000F931F930091E4041091E5042091E60436
:104890003091E70460237123822393231F910F91AA
:1048A0000C941F240F931F930091E4041091E504CE
:1048B0002091E6043091E70460277127822793272F
:1048C0001F910F910C941F240C941C240C946424AD
:1048D0000E9466246093E0047093E1048093E204F4
:1048E0009093E3040C94F62060E070E0CB010C940C
:1048F00068240F931F9341E050E060E070E08A016C
:104900009B0104C0000F111F221F331F8A95D2F78D
:10491000C901B8011F910F910C9468240F931F9344
:1049200041E050E060E070E004C0440F551F661F96
:10493000771F8A95D2F78091E0049091E104A091CD
:10494000E204B091E3048A019B01082B192B2A2B66
:104950003B2BC901B8011F910F910C9468240F9350
:104960001F9341E050E060E070E004C0440F551F29
:10497000661F771F8A95D2F7CB01BA0160957095B3
:10498000809590950091E0041091E1042091E2045B
:104990003091E30460237123822393231F910F91AD
:1049A0000C9468240F931F9341E050E060E070E0A6
:1049B00004C0440F551F661F771F8A95D2F7809158
:1049C000E0049091E104A091E204B091E3048A0133
:1049D0009B01082719272A273B27C901B8011F91E6
:1049E0000F910C9468240F931F930091E004109191
:1049F000E1042091E2043091E304602B712B822BBF
:104A0000932B1F910F910C9468240F931F93009187
:104A1000E0041091E1042091E2043091E30460236A
:104A20007123822393231F910F910C9468240F9379
:104A30001F930091E0041091E1042091E204309171
:104A4000E30460277127822793271F910F910C940D
:104A5000682408952EE0929F800D1124982F97705E
:104A600041E001C0440F9A95EAF7869586958695B0
:104A700095E0899FF0011124ED54FB4F90E080E018
:104A800070E05191DF0111979B01082E02C036950D
:104A900027950A94E2F721702195252724232527BD
:104AA0002C9301968530910561F708952EE0929F31
:104AB000800D1124982F977086958695869525E010
:104AC000829FF0011124ED54FB4F50E040E080E064
:104AD000219130E0092E02C0369527950A94E2F71D
:104AE00021703327042E01C0220F0A94EAF7822B8B
:104AF0004F5F5F4F4530510559F70895BF92CF92F0
:104B0000DF92EF92FF920F931F93CF93DF938C016D
:104B1000C090E004D090E104E090E204F090E3045F
:104B20008091E4049091E504A091E604B091E7043B
:104B3000C82AD92AEA2AFB2ACFE1D0E0BC2ED70125
:104B4000C6010C2E04C0B695A795979587950A9433
:104B5000D2F780FD0EC0219788F7B12C8B2DDF9105
:104B6000CF911F910F91FF90EF90DF90CF90BF906A
:104B70000895B8018C2F0E94E903019761F3EECFED
:104B8000CF93DF93EC010E947E25BE01DF91CF9190
:104B90000C94E9031F93CF93DF93EB0190917A0478
:104BA000992331F0CB01DF91CF911F910C94C02557
:104BB000882379F0CB010E947E25182F682FCE0123
:104BC0000E942A25BE01812FDF91CF911F910C9465
:104BD000E903CB010E945625182FF4CF682F80914E
:104BE0001202909113020C942C28682F80911202CB
:104BF000909113020C943728809112029091130225
:104C00000C9442288091E8048595859585950895B2
:104C10008091E804877008959091E804977081E08E
:104C200009F480E008959091320592FB222720F943
:104C3000281751F080FB92F990933205809131054D
:104C4000909132050C940D2708958091320582FBD6
:104C5000882780F991E089270C94132681E00C9431
:104C6000132680E00C94132680910C0508959091F2
:104C70000C05892B80930C050895809590910C0567
:104C8000982390930C05089510920C050895909127
:104C90000B05892B80930B050895809590910B054A
:104CA000982390930B05089510920B050895109288
:104CB0000A0508958091E904089508950C945D26ED
:104CC0009091320592FD08C09091E904981721F067
:104CD0008093E9040C945E2608958091E90488236A
:104CE00029F01092E90480E00C945E260895E0918A
:104CF0001202F091130280910C058083E091120260
:104D0000F0911302808190910B05892B8083E091B3
:104D10001202F0911302808190910A05892B808301
:104D20009091E904992381F0E0911202F09113022D
:104D30008081892B808380911202909113020E94BE
:104D4000982781110E946D26809112029091130282
:104D50000C94841C08950C94AA269091320592FD1F
:104D600010C098E0899F90011124622B6093E804A1
:104D70000E948E248091E8048595859585950C94F4
:104D8000AB260C948E241092E80480E00C94AB26A1
:104D90009091E804809589238093E804282F277058
:104DA00039F4282F082E000C330B9217130621F428
:104DB0009091320592FF07C08595859585950E9453
:104DC000AF240C94C326089580E008956FEF7FEF21
:104DD00090E080E00C94473190E080E00E94133135
:104DE00021E08A3E9E4F09F020E0822F089582E064
:104DF00090E00C940B3183E090E00C940B31CF9356
:104E000084E090E00E940B31C82F82E290E00E9483
:104E10000B31982F8C2FCF910895CF93C92F682FE6
:104E200084E090E00E9429316C2F82E290E0CF91E3
:104E30000C942931AB01BC018FE090E00C943B3124
:104E4000AB01BC0183E190E00C943B3160E070E089
:104E5000CB010C94202760E070E0CB010E941A2760
:104E60000C9426276AEE7EEF90E080E00E944731A6
:104E700060E082E090E00E94293160E083E090E011
:104E80000E9429311092E4041092E5041092E60485
:104E90001092E70460E084E090E00E94293160E035
:104EA00082E290E00E94293160E085E090E00E947B
:104EB000293160E086E090E00E9429316FEF87E0C1
:104EC00090E00E94293140E050E0BA0188E090E093
:104ED0000E943B3160E08DE090E00E94293140E08B
:104EE00050E0BA0188E190E00E943B3160E087E148
:104EF00090E00E94293140E050E0BA018CE190E05E
:104F00000E943B3170E060E080E290E00E94473117
:104F100040E050E0BA0188E190E00E943B310C94FF
:104F20002B270C943227682F8EE090E00C942931C7
:104F3000FC01329680911E02882321F08091310578
:104F40009EE187FF96E080E0915008F4089521915A
:104F50002223D1F38F5FF8CF662301F120911E0247
:104F60002223F1F02091310527FF1AC0462F4695E4
:104F7000469546954E3190F4677021E030E002C0CE
:104F8000220F331F6A95E2F7840F911DFC01828185
:104F900090E02823392381E0232B69F480E00895F1
:104FA000FC01329608962191261721F0E817F9079F
:104FB000D1F7F4CF81E008959C01FC0132969FEF78
:104FC00080E04191461751F09F3F19F4411101C013
:104FD000982F8F5F8630A9F79F3F09F40895290F16
:104FE000311D97FD3A95F90162830895FC013296CF
:104FF00008962191261303C0DF0111971C92E81730
:10500000F907B9F70895E62FE695E695E695EE31AE
:1050100068F4E80FF92FF11D677021E030E001C05E
:10502000220F6A95EAF78281822B82830895E62F08
:10503000E695E695E695EE3170F4E80FF92FF11D4F
:10504000677021E030E001C0220F6A95EAF72095F1
:10505000828128232283089520911E02222329F091
:105060002091310527FD0C9403280C94DC27209116
:105070001E02222329F02091310527FD0C941728C8
:105080000C94F627FC01329680911E02882351F081
:105090008091310587FF06C08EE1DF011D928A9560
:1050A000E9F7089586E0F9CF0895089580911607ED
:1050B000843061F10E94F00280E00E94CD0381E023
:1050C0000E944B1610920E0588E190E020E40FB686
:1050D000F894A895809360000FBE2093600083B77A
:1050E000817F846083BF83B7816083BF7894889514
:1050F00083B78E7F83BF0FB6F894A8958091600028
:10510000886180936000109260000FBE089508953A
:10511000CF930E9454280E9479060E948728C0E0FD
:105120008C2F0E940206892B31F4CF5FC530C1F766
:1051300080E0CF91089581E0FCCF08950E940C217A
:105140000E946B1C0E94CD0380E00E944B160C94C1
:10515000F5021F921FB61F9211248F939F93AF9356
:10516000BF9380910E05811113C080910E0790911D
:105170000F07A0911007B09111074196A11DB11D15
:1051800080930E0790930F07A0931007B093110719
:10519000BF91AF919F918F911F901FBE1F90189547
:1051A00082E084BD93E095BD9AEF97BD80936E0039
:1051B00008952FB7F89480910E0790910F07A09152
:1051C0001007B09111072FBF08952FB7F894609181
:1051D0000E0770910F0780911007909111072FBF54
:1051E00008959C014FB7F89480910E0790910F0796
:1051F000A0911007B09111074FBF821B930B089528
:10520000CF92DF92EF92FF922FB7F894C0900E07E3
:10521000D0900F07E0901007F09011072FBFA70163
:105220009601261B370B480B590BCA01B901FF9099
:10523000EF90DF90CF90089578941F921FB61F9241
:1052400011248F939F93AF93BF9380910E079091FA
:105250000F07A0911007B09111070196A11DB11D74
:1052600080930E0790930F07A0931007B093110738
:10527000BF91AF919F918F911F901FBE1F90189566
:1052800081E08093E00080E28093D8001092C90012
:105290008FE19EE40197F1F700C0000087E090EBFA
:1052A000DC0180931F0790932007A0932107B09300
:1052B000220788E19CE00FB6F894A89580936000DF
:1052C0000FBE90936000FFCF9093A1038093A00343
:1052D000089580912F050895CF93DF9300D00F920A
:1052E000CDB7DEB790911607943019F589837B838B
:1052F0006A8382E08093E9008FEF9091E80081500B
:1053000095FD06C095ED9A95F1F700008111F5CF56
:105310008091E80085FF0DC050E040E063E070E060
:10532000CE0101960E94962B8091E8008E778093A3
:10533000E8000F900F900F90DF91CF910895BC017E
:1053400084E00C946C29BC0183E00C946C299C01D2
:1053500082E08093E9009FEF8091E800915085FD05
:1053600006C085ED8A95F1F700009111F5CF809187
:10537000E80085FF0CC050E040E066E070E0C90145
:105380000E94962B8091E8008E778093E800089524
:10539000CF93DF93EC0180911E028823B1F18091BD
:1053A000310587FF32C060E282E08093E9008FEF31
:1053B0009091E800815095FD06C095ED9A95F1F722
:1053C00000008111F5CF8091E80085FF1BC080911E
:1053D0001E0270E050E040E0811104C050E040E067
:1053E00068E070E0CE010E94962B8091E8008E77F5
:1053F0008093E80080E2FE01AFE0B5E001900D92FD
:105400008A95E1F7DF91CF91089568E081E0CDCFF3
:1054100080911507811109C00E94262D0E94832DBD
:105420008091E20084608093E20008951092150755
:10543000089508950895089542E061EC81E00E9486
:10544000A22C42E261EC82E00C94A22C809118071D
:10545000833009F45FC030F48130C1F1823009F447
:105460009BC008958A3009F487C08B3009F46DC061
:10547000893009F04EC080911707813209F049C088
:1054800080911B0790911C07029708F042C0809101
:10549000E800877F8093E8008091E80082FF35C0B4
:1054A0009091F3008091F200029729F48091F1002D
:1054B0008B7F813021F48091F10080932F058091C2
:1054C000E8008B778093E8000C94D62C8091170726
:1054D000813AF9F48091E800877F8093E800809119
:1054E0001B0790911C07892B61F460E28FE095E027
:1054F00070E00E94E52B8091E8008B778093E800B4
:10550000089560E090E080E0F3CF8091160781116C
:10551000C3CF089580911707813AD9F780911B076F
:1055200090911C07892BA9F78091E800877F8093D1
:10553000E8008091E80080FFFCCF80911E028093FC
:10554000F1008091E8008E77BDCF809117078132FE
:1055500001F780911B0790911C07892BD1F6809150
:10556000E800877F8093E8000E94D62C809119077D
:1055700080931E020C940C2180911707813249F60A
:105580008091E800877F8093E8000E94D62C80916C
:105590001A0780933005089580911707813A09F022
:1055A000B8CF8091E800877F8093E8008091E80081
:1055B00080FFFCCF80913005C2CF84B7877F84BF46
:1055C0000FB6F894A8958091600088618093600080
:1055D000109260000FBE80E890E00FB6F8948093C0
:1055E0006100909361000FBE0E94F91C0E94262D5D
:1055F0000E94832D8091E20084608093E200789481
:105600000E940C300E940D1D84E192E00E94661CF5
:1056100080911607853099F00E94131D0E94091D84
:10562000F7CF0E94562880911407882341F00E94EA
:105630008828882321F00E94802B0E940C218091D1
:105640001607853071F30E949E28E6CF0C94282B14
:10565000292F33272330310519F168F42130310522
:1056600009F444C02230310509F445C090E080E0DF
:1056700030E020E025C02132310549F122323105E8
:10568000A9F780E490E02DE035E061157105C1F0E7
:1056900086EB90E027E534E06130710589F0E6CFD4
:1056A00099278130910581F0009729F00297F1F652
:1056B000ECEDF3E002C0E6E0F4E0849190E09F01BD
:1056C000FA01318320830895E6EFF3E0F6CF89E015
:1056D00090E02CE134E06115710591F389E090E0F0
:1056E00025E334E06130710559F3C0CF82E190E0E9
:1056F00025E434E0E5CF8BE390E02AE034E0E0CF2E
:1057000080E189BD82E189BD09B400FEFDCF8091B1
:10571000D8008F7D8093D8008091E00082608093D4
:10572000E0008091E00081FDFCCF0895AF92BF9230
:10573000CF92DF92FF920F931F93CF93DF936C0171
:10574000EB018A010E94F52CF82E811123C001156E
:10575000110539F0F80180819181C81BD90BC80E61
:10576000D91EB12CA12C2097A9F08091E80085FDCD
:1057700022C08091E8008E778093E8000115110522
:10578000A1F0F80180819181A80EB91EB182A0829A
:1057900085E0F82E8F2DDF91CF911F910F91FF9013
:1057A000DF90CF90BF90AF9008950E94F52C882392
:1057B000D1F2F82EEFCFF60181916F018093F100C5
:1057C0002197FFEFAF1ABF0ACECFFC0180911D07D2
:1057D00090911E0786179707A0F06115710529F4AF
:1057E0009091E8009E779093E80090E06115710534
:1057F00051F4911108C08091E80082FF34C080E02C
:105800000895BC01F2CF809116078823C1F185303D
:10581000C1F18091E80083FD30C08091E80082FDF5
:10582000EACF8091E80080FFE1CF8091F3002091E2
:10583000F200382F6115710519F02830310558F044
:1058400091E02830310509F090E02091E8002E77B2
:105850002093E800CBCF81918093F10061507109D2
:105860002F5F3F4FE7CF80911607882341F08530A7
:1058700041F08091E80083FFBECF81E0089582E08F
:10588000089583E00895FC0180911D0790911E0703
:1058900086179707A0F06115710529F48091E8003B
:1058A0008E778093E80090E06115710551F49111B5
:1058B00008C08091E80082FF35C080E00895BC01F7
:1058C000F2CF809116078823C9F18530C9F1809104
:1058D000E80083FD31C08091E80082FDEACF80912D
:1058E000E80080FFE1CF8091F3002091F200382F93
:1058F0006115710519F02830310558F091E0283014
:10590000310509F090E08091E8008E778093E800FF
:10591000CBCF84918093F1003196615071092F5F54
:105920003F4FE6CF80911607882341F0853041F044
:105930008091E80083FFBDCF81E0089582E0089563
:1059400083E00895982F973028F08F708093E900B6
:1059500081E008959093E900242F762F50E0981766
:1059600031F07091EC002091ED005091F00021FD9C
:1059700002C09F5FE8CF3091EB003E7F3093EB0099
:105980003091ED003D7F3093ED003091EB003160C0
:105990003093EB007093EC002093ED005093F000F7
:1059A0002091EE0027FDE5CF80E008958091170754
:1059B00087FF13C08091E80082FF06C08091E80055
:1059C0008B778093E80004C0809116078111F2CF95
:1059D0000895809116078823D9F38091E80080FF0D
:1059E000F8CF8091E8008E77ECCF2091E4003091E1
:1059F000E50095E6A9012091EC00822F817020FF3F
:105A000006C08091E80080FF06C080E008952091E4
:105A1000E80022FD1AC080911607882389F085309E
:105A200089F08091EB0085FD0FC02091E40030915A
:105A3000E50042175307F9F29150E1F684E008952A
:105A400082E0089583E0089581E008950E94942DF6
:105A50000E949C2DE0EEF0E0808181608083E8ED83
:105A6000F0E080818F77808319BCA7EDB0E08C9146
:105A70008E7F8C9380818F7E80831092150708958E
:105A80000F931F93CF93DF930E94942D0E949C2D20
:105A9000C8EDD0E088818F7788838881806888838B
:105AA00088818F7D888319BC109216071092120787
:105AB000109214071092130700EE10E0F801808195
:105AC0008B7F808388818160888342E060E080E012
:105AD0000E94A22CE1EEF0E080818E7F8083E2EED6
