:100000000C9461020C94A8020C94A8020C94A8020F
:100010000C94A8020C94A8020C94A8020C94A802B8
:100020000C94A8020C94A8020C945B2D0C942F2E17
:100030000C9463280C94A8020C94A8020C94A802B7
:100040000C94A8020C94A8020C94A8020C94A80288
:100050000C94A8020C94D6280C94A8020C94A80224
:100060000C94A8020C94A8020C94A8020C94A80268
:100070000C94A8020C94A8020C94A8020C94A80258
:100080000C94A8020C94A8020C94A8020C94A80248
:100090000C94A8020C94A8020C94A8020C94A80238
:1000A0000C94A8020C94A8020C94A802165C1E00E2
:1000B0001F0020002100220023002400250026002C
:1000C00027002D002E0031002B0014001A0008001C
:1000D000150017001C0018000C00120013002F0060
:1000E00030002A00396104001600070009000A00E8
:1000F0000B000D000E000F00330034004C002800F0
:10010000E1001D001B000600190005001100100091
:10011000360037003800E50000000251E000E3003F
:10012000E200000000002C000000000000000000C1
:10013000E60001510000E40035003A003B003C00BD
:100140003D003E003F0040004100420043004400AB
:100150004500010001000100520001000100010002
:10016000B200010049000100460047004800005C61
:100170000100500051004F0001000100010001008A
:10018000010001004A004B0001000100AC00AA0080
:10019000A900A80001000100145C010001004D004D
:1001A0004E00AB0000000100010001000100000052
:1001B000000001000000000000000000010001003C
:1001C0000000010001003A003B003C003D003E0001
:1001D0003F004000410042004300440045004C0005
:1001E0000100C35C0100C65CC75CC85CC95CCA5C3A
:1001F000CB5CC45C010001000100005C0100010057
:10020000010001000100010001000100CC5CCD5C97
:1002100001000100010001000100010001000100D6
:1002200001000100010001000100010001000100C6
:1002300000000100010001000100000000000100B9
:1002400000000000000000000100010000000100AB
:100250000001010101010101010102020202020289
:10026000020202030303030303030304040404045C
:100270000404050505050506060606060707070723
:100280000708080808090909090A0A0A0B0B0B0CD8
:100290000C0C0D0D0D0E0E0E0F0F0F101011111175
:1002A00012121313141415151616171718181919F6
:1002B0001A1A1B1B1C1D1D1E1E1F2020212222235B
:1002C0002424252626272829292A2B2C2D2D2E2F9C
:1002D00030313232333435363738393A3B3C3D3EB3
:1002E0003F404142434445464748494A4C4D4E4FA2
:1002F00050515354555658595A5B5D5E5F61626464
:10030000656668696B6C6D6F7072737577787A7BF0
:100310007D7E8082838587888A8C8E8F9193959647
:10032000989A9C9EA0A2A3A5A7A9ABADAFB1B3B567
:10033000B7BABCBEC0C2C4C6C9CBCDCFD1D4D6D843
:10034000DBDDDFE2E4E7E9EBEEF0F3F5F8FAFDFFE1
:10035000180344005A0036003000520047004200A3
:100360005F0057004B004C0000000E0344005A0091
:10037000540045004300480000000403090409023A
:100380003B00020100A0FA09040000010301010082
:100390000921110100012240000705810308000A1C
:1003A00009040100010300000009211101000122DC
:1003B000B6000705820320000A12011001000000A8
:1003C000085A44211302000102000105010902A19B
:1003D0000185020901A10005091901290815002557
:1003E0000195087501810205010930093115812542
:1003F0007F95027508810609381581257F9501755D
:10040000088106050C0A38021581257F95017508BB
:100410008106C0C005010980A101850319012AB721
:1004200000150126B700950175108100C0050C0963
:1004300001A101850419012AA002150126A0029537
:100440000175108100C005010906A1018505050798
:1004500019E029E7150025019508750181020507B6
:10046000190029EF1500250195F075018102050895
:1004700019012905950575019102950175039101F1
:10048000C005010906A101050719E029E7150025A6
:10049000019508750181029501750881010507190B
:1004A0000029FF150026FF00950675088100050844
:1004B00019012905950575019102950175039101B1
:1004C000C00011241FBECFEFDAE0DEBFCDBF04B6FF
:1004D00003FE27C080911F0790912007A09121075C
:1004E000B09122078730904BA740B04BD1F41092C7
:1004F0001F0710922007109221071092220714BEA6
:1005000084B7877F84BF0FB6F894A8958091600068
:10051000886180936000109260000FBEE0E0F8E315
:10052000099513E0A0E0B1E0E4EDF2E602C0059029
:100530000D92A03AB107D9F727E0A0EAB3E001C0D5
:100540001D92AF31B207E1F70E94972A0C9429312E
:100550000C94000081E00E9405160C940F2880E0A6
:100560000E9405160C9457280E94311C81FF07C079
:100570002FEF4FEF6FEF89E290E00C945B0D089541
:1005800081E0089581E008950C94C20208950C94CE
:10059000C6021F93CF93DF9300D000D00F92CDB748
:1005A000DEB749835A836B8330917A0489819A81BB
:1005B00031111DC06623B9F02223A9F00E9438250D
:1005C000182F682F89819A810E94E42469817A8199
:1005D000812F0F900F900F900F900F90DF91CF9180
:1005E0001F910C948F030E941025182FEFCF0E94AB
:1005F000382569817A81EDCFFC01262F4081518118
:100600006281738184810C94C902CF93DF93EC01E2
:1006100060E00E94FC02BE01DF91CF910C94C70202
:100620000E9492050E94A9150C94B7050C94BA0576
:1006300008950E94C6200E9418032FEF84E39CE0D7
:10064000215080409040E1F700C000000C94FA284F
:100650000F931F93CF93DF938C0161E00E94FC0204
:10066000EC01B8010E94C4028823D9F1B801CE017F
:100670000E94C9198823A9F1B801CE010E941B1A52
:10068000882379F1B801CE010E943E1B882349F1ED
:10069000B801CE010E94C318882319F1F8018281A4
:1006A000882361F0CB35FDE5DF0721F170F4C1153A
:1006B000ECE5DE07A1F0CF3DDC45C9F0C801DF91D4
:1006C000CF911F910F910C94C002CC358DE5D807C6
:1006D000A1F0CD35DD4591F70E94DF25EFCF0E94D7
:1006E000190380E0DF91CF911F910F9108950E942F
:1006F0004B27F7CF0E94E825E1CF0E94EB25DECF04
:1007000008950C94800381E008950C948303CF93A3
:10071000C82F0E9481038C2FCF910C948503972FB3
:1007200070E02EE0929F600D711D1124FB0196E494
:10073000899FE00DF11D1124EE0FFF1FE455FF4FBF
:10074000859194910895CF93DF930E948F030E9427
:100750009D04EC01811521E5920708F042C0811546
:1007600030E5930708F09DC0883E910530F5803E46
:10077000910508F092C0883A910588F4853A910570
:1007800008F084C08130910509F487C0009709F40E
:1007900084C0049708F081C0D0E0C0E07EC08F3BE9
:1007A0009105D0F7C85AD0E0CC0FDD1FC65EDC4FF4
:1007B0000990D881C02DD46470C08115904250F446
:1007C000C11581E0D80708F068C0CD3ED10520F3FF
:1007D000D06563C0C11590E4D907F0F2DF70D06A2C
:1007E0005CC0811525E5920700F5811534E5930776
:1007F00008F08BC0811543E5940708F073C0C1155C
:1008000082E5D80708F469C0CE018370992721E0FA
:1008100030E002C0220F331F8A95E2F7C695C695D5
:1008200080E2C89FE001112454C0C11599E5D907A1
:10083000A8F4C11528E5D20708F06CC0C11536E54B
:10084000D30708F0A9CF8C2F0E943405C82FD0E021
:10085000DC2FCC27CC27DF71D0621FC0C1154AE541
:10086000D40708F45CC0CE0190568115904208F080
:1008700093CF8D2F8F710E94340590E0982F882799
:1008800088279F719C012C2BE901E6CFC55AD0E047
:10089000C85BDC4FC881D0E0D064CE01DF91CF913E
:1008A0000895E4E096958795EA95E1F783702C2FFB
:1008B00026952695237040E2249F90011124382B21
:1008C0008C2F8370C1E0D0E002C0CC0FDD1F8A9571
:1008D000E2F7C22BD32BDC68E0CFDC2FCC27C16F33
:1008E000D06ADBCF8370992721E030E002C0220F6D
:1008F000331F8A95E2F7C695C69590E2C99FE0013D
:100900001124C22BD32BDA68C8CFD82FCC27C46FC1
:10091000D06AC3CFDC2FCC27C06FD06ABECF8C2F5C
:100920008F700E94340534E0D695C7953A95E1F76B
:10093000CF709C2FEC01D069B0CF82389105B1F116
:10094000B0F48133910509F475C048F489329105FA
:1009500009F469C08A32910509F473C0089585339A
:10096000910509F459C08933910501F10895833E39
:100970009105A9F138F4803E9105F9F0823E910588
:1009800049F10895863E9105A9F1873E9105C9F187
:10099000843E910519F52091320521FF1FC08091F9
:1009A000310584FD14C087EE90E008952091310553
:1009B0002370A1F080EE90E008952091310520FD94
:1009C00047C03091320530FF09C024FF44C090E099
:1009D00080E004C02091310522FDF7CF08952091D9
:1009E000310522FD3BC03091320530FDE3CF24FFBD
:1009F000F5CFEDCF2091310523FFF0CF24FDE7CFD8
:100A0000D2CF2091310523FD2CC03091320531FF2A
:100A1000EECF84EE90E008952091310525FFDECFE2
:100A200089E290E008952091310525FFD7CF85E335
:100A300090E008952091310526FFD0CF8AE290E022
:100A400008952091310526FFC9CF81E390E00895F4
:100A500089E390E0089583EE90E0089582EE90E0BF
:100A6000089586EE90E008959091310592FF06C0BA
:100A7000282F28712830F9F4877F846093FF06C0FF
:100A8000282F28712831F1F4877E84612091320566
:100A900020FF06C0382F38713830D9F4877F816045
:100AA00021FF06C0282F28712831D1F4877E81616B
:100AB00094FD877E0895282F24712430F9F68B7FCA
:100AC0008860DCCF282F2471243101F78B7E886168
:100AD000DDCF382F3171313019F78E7F8860E0CF4C
:100AE000282F2171213121F78E7E8861E1CF0C946E
:100AF000A0260E9433062FEF8DEE92E02150804019
:100B00009040E1F700C000000E94330680E00E94A0
:100B1000BC0580FF04C00E9477050C94FA28089554
:100B20000C9479050E94A626811102C00E944B27D1
:100B30000E94B12680930D050E94B926909332053C
:100B4000809331050E9490050E94B526682F70E0C1
:100B500090E080E00E94E6236091E0047091E1045F
:100B60008091E2049091E3040C94202408950C9465
:100B7000B60508950C94B905E82FF0E0EE0FFF1FBD
:100B8000E35CFA4F808191810895089580EA8A9507
:100B9000F1F7089500C008950C94C605F894E82F65
:100BA000E295EF70F0E031A1282F2F7081E090E006
:100BB00001C0880F2A95EAF7982F9095932391A367
:100BC00092A1892B82A3789408950F931F93CF93BA
:100BD000DF9385EF0E94CE0584EF0E94CE0581EF62
:100BE0000E94CE0583E30E94CE0582E30E94CE05DB
:100BF000CBE4D3E009E513E089910E94CE050C1700
:100C00001D07D1F7109234051092330510923E055E
:100C100010923D0510923605109235051092400550
:100C200010923F0510923805109237051092420538
:100C30001092410510923A05109239051092440520
:100C40001092430510923C0510923B051092460508
:100C50001092450585E00E94B306DF91CF911F9168
:100C60000F910C941003AF92BF92DF92EF92FF921C
:100C70000F931F93CF93DF93C9E5D3E003E315E010
:100C8000D12CEE24E394F12C8991F894E82FE2958D
:100C9000EF70F0E021A18F70A70102C0440F551F33
:100CA0008A95E2F7CA01922F982B91A392A1809581
:100CB000892382A378940E94CA05EBE4F3E030E034
:100CC00020E0B12CA12C4191A42FA295AF70B0E0EF
:100CD00090968C9190E04F7002C0959587954A95BB
:100CE000E2F780FD3BC0C701022E02C0880F991FAA
:100CF0000A94E2F7A82AB92A2F5F3F4F2E30310518
:100D000011F7FE01319780810E94CE050E94CC052B
:100D1000F80180819181A816B90619F1B182A082EB
:100D200081E0D82A0E5F1F4FF3E0CE35DF0709F0D0
:100D3000ABCF2D2D45E06DE375E083E395E00E9498
:100D4000B4060E9416038D2DDF91CF911F910F9154
:100D5000FF90EF90DF90BF90AF90089590E080E01B
:100D6000C9CF80E0DECF0895FF920F931F93CF93FA
:100D7000DF93F82E092F162FD72FC42F222349F0E7
:100D800081E08093A4030E9493289093A30380930F
:100D9000A2038091A4038823A1F08091A2039091E3
:100DA000A3030E94AB284F9760F0EF2DF02FA12FE7
:100DB000BD2F90E080E0D0E08C179D0744F01092AA
:100DC000A403DF91CF911F910F91FF90089521917E
:100DD00031912D933D930196EFCF8091AB0380FF2E
:100DE00012C06091090285E0689FB00111247595D9
:100DF00067957595679560387105A8F5611571055A
:100E0000A1F1862F089581FF09C06091090285E054
:100E1000689FB001112475956795EDCF6091090227
:100E200082FD0AC08091AA038823D1F09091080224
:100E300060910902891728F085E0689FB0011124AC
:100E4000DACF869FB001112485E0869F9001879FAD
:100E5000300D1124692F70E0C9010E94F52FCBCF0E
:100E600065E070E0CECF8FE7089581E0089580912E
:100E7000AB0380FF0CC06091050270E0759567952B
:100E8000759567956115710549F1862F089581FF64
:100E900006C06091050270E075956795F3CF60918B
:100EA000050282FD0BC09091A9039923A1F06091E6
:100EB000040280910502961738F0682F70E06038C0
:100EC000710500F38FE70895899FC001112470E038
:100ED0000E94F52FF4CF61E070E0D7CF81E0089554
:100EE0008D3E31F40E94ED0681958093AF03089505
:100EF0008E3E19F40E94ED06F8CF8F3E31F40E9429
:100F0000ED0681958093AE030895803F19F40E9409
:100F1000ED06F8CF893F29F40E9437078093B0038C
:100F200008958A3F21F40E9437078195F7CF8B3FC0
:100F300031F40E94370781958093B10308958C3F67
:100F400019F40E943707F8CF9FE0980F983070F49B
:100F5000815F990B21E030E001C0220F8A95EAF70A
:100F60008091AD03822B8093AD0308958D3F31F4C2
:100F70008091AB0381608093AB0308958E3F21F491
:100F80008091AB038260F7CF8F3FB9F78091AB03BD
:100F90008460F1CF4091AE038D3E59F48091AF0350
:100FA00087FF0DC01092AF0341110BC01092AA032E
:100FB00008C08E3E81F48091AF0318169CF3442341
:100FC00081F08091B0039091B103892B09F05AC050
:100FD0001092A90308958F3E49F447FFF0CF109275
:100FE000AE038091AF038111ECCFE0CF803F19F4C5
:100FF0001416ACF3E4CF9091B003893F29F419168D
:10100000F4F61092B003DBCF8A3F19F497FFD7CFE5
:10101000F8CF9091B1038B3F29F497FFD0CF109276
:10102000B103CDCF8C3F19F41916CCF3C8CF9FE094
:10103000980F983090F4815F990B21E030E0B9016E
:1010400002C0660F771F8A95E2F7CB0180959091D9
:10105000AD0389238093AD03B2CF8D3F31F48091EE
:10106000AB038E7F8093AB03AACF8E3F21F4809198
:10107000AB038D7FF7CF8F3F09F0A1CF8091AB03FA
:101080008B7FF0CF08950E9493289C019091AE032E
:101090008091AF03982B21F03093A8032093A703EE
:1010A0009091B0038091B103982B21F03093A60367
:1010B0002093A5038CEA93E00C94581CEF92FF92C6
:1010C0000F931F93CF93DF9300D000D000D0CDB704
:1010D000DEB786E0ECEAF3E0DE01119601900D92B6
:1010E0008A95E1F7E090AE03F090AF030091B00372
:1010F0001091B1031092AE031092AF031092B0039F
:101100001092B1038E2D8F2991F08091A7039091B9
:10111000A8030E94AB28AC019091AA03992309F47B
:101120003FC080910A028417150608F447C0802F3B
:10113000812B91F08091A5039091A6030E94AB288A
:10114000AC019091A903992309F477C0809106021C
:101150008417150608F47FC08091AE039091AF0309
:10116000892B9091B003892B9091B103892B11F0B9
:101170000E94430886E0FE013196ACEAB3E001909C
:101180000D928A95E1F726960FB6F894DEBF0FBE52
:10119000CDBFDF91CF911F910F91FF90EF900895F8
:1011A00020910B028AE0289F900111242417350713
:1011B00008F0BDCF9F5F9093AA0302C09F3FD1F775
:1011C000EE2059F00E94ED069FEF1E140CF491E002
:1011D000899F802D11248093AE03FF2059F00E9437
:1011E000ED069FEF1F140CF491E0899F802D1124D0
:1011F0008093AF033091AE03332309F498CF20914D
:10120000AF03222309F493CF45EB3403C00111242B
:10121000992359F09093AE0345EB240390011124D8
:10122000332339F03093AF0382CF81E08093AE0354
:10123000F3CF81E08093AF037ACF209107028AE059
:10124000289F900111242417350708F085CF9F5F50
:101250009093A90302C09F3FD1F7002359F00E9449
:1012600037079FEF10160CF491E0899F802D112411
:101270008093B003112359F00E9437079FEF111696
:101280000CF491E0899F802D11248093B10330915B
:10129000B003332309F460CF2091B103222309F472
:1012A0005BCF45EB3403C0011124992359F090938F
:1012B000B00345EB240390011124332339F030931C
:1012C000B1034ACF81E08093B003F3CF81E08093F4
:1012D000B10342CF86E0ECEAF3E0DF011D928A958C
:1012E000E9F71092AA031092A9031092AB03089594
:1012F000EF92FF920F931F93CF93DF93EB01E82FB1
:10130000D11110C0442321F0F0E0E05BFD4FE491E7
:101310006E2F7E2F8E2FDF91CF911F910F91FF9017
:10132000EF9008950D2F10E0282F30E0442329F08E
:10133000205B3D4FF901249130E0F6E0CF9FC001E2
:101340001124EFEFF0E0BF010E94E12FAB018C2FE1
:1013500090E0880F991FA5E5A49FB001A59F700D8F
:101360001124861B970B982F990F980FBF01601BB4
:10137000710B629FD001639FB00D729FB00D11245D
:101380008B2F9D9FB0011124672F7727EF01C61B7C
:10139000D70BBE01629FE001639FD00D729FD00DFD
:1013A00011247F01E91AF108E09EB001E19E700D61
:1013B000F09E700D1124672F7727E61BF70BE29F35
:1013C0008001E39F100DF29F100D1124E12F722F69
:1013D0004230510599F048F44115510569F041300A
:1013E000510581F0EB2F8D2F07C04430510569F076
:1013F00080F046305105B1F76E2F8DCFE22F7B2F55
:10140000812FFACFE22F7D2FF7CFEB2F822F712F75
:10141000F3CF7B2F822FED2FEFCF41E00C94780993
:1014200030E020E0869F212D969F200D311D112454
:10143000C9010895AC018230910508F408959FEF29
:10144000413E8EE1580740F49A0195E03695279584
:101450009A95E1F798E0920F61E0E62FE90FFF27F8
:10146000FF1F9F0135952795822F229FF001239F13
:10147000F00DF00D11244E175F0738F49FEF920F17
:10148000961758F78FEF860F08952F3FE9F361E025
:10149000620FF6CFE82F86FDE0952E2F2F7086FD88
:1014A0002F5FE695E695E695E670F0E0E25AFC4F90
:1014B0009181929F902D212D112492959F702295BC
:1014C000207F922B2081920F87FD919580E8890FD4
:1014D0000895E42FF0E0EE0FFF1FE65BFE4F408122
:1014E00034EE439F412D1124E82FF0E050E0445E9C
:1014F0005F4FDA01A21BB1099D01B7FF03C031950F
:101500002195310993E0220F331F9A95E1F7AF013E
:10151000421B530B9A0157FD20E0582F259F212D88
:101520001124822F0895622F0895E42FF0E0EE0F2A
:10153000FF1FE65BFE4F6081621B0895E42FF0E021
:10154000EE0FFF1FE55BFE4F6081621B0895322F97
:1015500050E0FA01EE0FFF1FE55BFE4F90819052C5
:1015600097FD9195440F551FFA01E65BFE4F2081D0
:10157000231B330B290F311D97FD3A95620F0895F8
:10158000EF920F93972F23E0029FB00111247595DE
:1015900067956E0D792F0F91EF9008950F93CF936C
:1015A000DF93D72FC82F47FD419588E390E0841B38
:1015B000910947FD9395889FB001899F700D700D2B
:1015C0001124229FC001239F900D900D1124860F9E
:1015D000971F0E941A0A982F990F890F682F600F82
:1015E0007D2F8C2FDF91CF910F9108950F931F9333
:1015F000522F10E0F801EE0FFF1FE55BFE4FA081B8
:10160000A052BB0B9D015203F001539FF00D11241A
:10161000000F111FD801A65BBE4F0C910057110B94
:1016200040039001419F300D11242E0F3F1F37FFC3
:1016300002C021583F4F220F232F221F330B620F6E
:101640001F910F9108950F931F93522F10E0F801EF
:10165000EE0FFF1FE55BFE4FA081A052BB0B9D016B
:101660005203F001539FF00D1124000F111FD801F8
:10167000A65BBE4F0C910057110B40039001419F98
:10168000300D11242E0F3F1F37FF02C0215C3F4F4A
:1016900096E0359527959A95E1F7620F1F910F9186
:1016A00008950F931F9310E0F801EE0FFF1FE65B04
:1016B000FE4F9081905797FD9195000F111FF801F3
:1016C000E55BFE4F00810052110B2003F001219FCA
:1016D000F00D112408E310E0091B110997FD139583
:1016E00040039001419F300D1124E20FF31F9F0131
:1016F000220F331F2E0F3F1F37FF02C021583F4FCD
:10170000220F232F221F330B620F1F910F91089579
:101710000F931F93CF93DF938B01D82FC42F822F6A
:101720000E944A0AEC2FF0E0EE0FFF1FE65BFE4F2F
:1017300090819058890F87FD8195880F682F2CE044
:10174000629F612D1124600F712F8D2FDF91CF913A
:101750001F910F910895E42FF0E0EE0FFF1FE65B5D
:10176000FE4F9081921B97FD9195292F38E1239F81
:10177000212D1124620F08954095282F429F412D5D
:101780001124842F089522E8241B08F420E0620F1E
:101790000895FC019B01009729F480E077FF2BC09E
:1017A00080E80895AC0197FF04C044275527481BE3
:1017B000590BB901640F751F37FD10C0241B350B81
:1017C000C901A5E0880F991FAA95E1F70E94F52F9E
:1017D00080E2861BF7FF0FC081950895CB0165E07D
:1017E000880F991F6A95E1F7BA01621B730B0E947B
:1017F000F52F80E6EECF08950F931F93CF93DF93DD
:10180000D62FC72F182FC901212F201B022FBA0155
:101810000E94C90B982F990F990F891B800F282FB1
:10182000219F212D1124822F6D2F7C2FDF91CF91AD
:101830001F910F910895EF920F931F93CF93DF9312
:10184000D62FC72F182FC9010E19010FBA010E94F8
:10185000C90B081B202F219F212D1124822F6D2FB2
:101860007C2FDF91CF911F910F91EF9008950F93EF
:10187000CF93DF93D72FC82FC901BA010E94C90B9C
:10188000682F600F7D2F8C2FDF91CF910F910895DE
:10189000EF920F93CF93DF93D72FC82FC9010E1963
:1018A000BA010E94C90B602F681B7D2F8C2FDF911E
:1018B000CF910F91EF9008950C940D0AEF92FF9243
:1018C0000F931F93CF93DF939FEF980F41E0480F43
:1018D000AFEFA60FE1E0E60F082F10E0A61780F4A7
:1018E0002EE0209FE001219FD00D1124C052DC4F3B
:1018F000CA0FD11D288130E1230F08F42FEF288370
:10190000262F30E05EE0509FE001519FD00D112462
:101910008E0100521C4F7801020F131FE8015881FD
:1019200070E2570F08F45FEF5883EE3048F4E70198
:10193000CE0FD11D588170E1570F08F45FEF588327
:10194000453018F1C92FD0E0A61708F459C04EE071
:101950004C9FC0014D9F900D112480529C4FDC0183
:10196000A20FB31F2C9130E1230F08F42FEF2C931B
:10197000EE3008F03EC0E80FF92FF11D20813DE068
:10198000230F08F42FEF208334C050E0A61780F413
:101990007EE0749FE001759FD00D1124C052DC4F92
:1019A000CA0FD11D78811DE0710F08F47FEF788395
:1019B0007EE0749FE001759FD00D11248E010052CE
:1019C0001C4F7801020F131FE801488150E1450FB9
:1019D00008F44FEF4883EE3048F4E701CE0FD11DF5
:1019E00048815DE0450F08F44FEF4883981708F4ED
:1019F000A9CFDF91CF911F910F91FF90EF900895A4
:101A00004EE04C9FC0014D9F900D112480529C4F81
:101A1000A80FB92FB11D4C915DE0450F08F44FEFB1
:101A20004C9395CF46E050E06CE170E087E495E0A0
:101A30000C94B53046E050E06CE170E087E495E04E
:101A40000C94D330E7E4F5E085E2808380911F02B7
:101A500090912002A091210281839283A3838FE73A
:101A600084838FEF85830C941A0D80E008950F9383
:101A70001F93CF93DF93C82FD62F8A010E94350D75
:101A80009EE0C99FB00111246C5F7E4F6D0F711DE8
:101A9000FB0190819F3F29F0F801E80FF11D908331
:101AA0008F5FDF91CF911F910F910895E0916C03AB
:101AB000F0916D030994E0916803F0916903099432
:101AC0005F926F927F928F929F92AF92BF92CF92CE
:101AD000DF92EF92FF920F931F93CF93DF935C01FE
:101AE0004B01FC01C0818DE0C89FC02D11241DE079
:101AF0001C0FF12E1F3310F03EE3F32E60914B05C7
:101B0000669580914D0590914E050E94100A582EC1
:101B1000D0E0CF15A0F081E01E3308F080E0DF9127
:101B2000CF911F910F91FF90EF90DF90CF90BF90DA
:101B3000AF909F908F907F906F905F900895FE017F
:101B4000EA53FE4F8081F50191818923C9F1CE01CD
:101B5000880F991F8C5F9E4FFC01EA5BFF4F20812D
:101B6000422F4057550B6A01895B9F4FFC018081D2
:101B7000282F2052330B3901449F9001459F300D8F
:101B8000300D1124669CC001679C900D900D1124AE
:101B9000820F931F0E941A0A082F609148057091C6
:101BA000490580914A05E52C9301A601F4010995A8
:101BB0000E945C0C462F282F672FCE010E945B0DE0
:101BC0002196A7CF6BE17CE00C94600D60EC7AE08D
:101BD0000C94600D68E47CE00C94600DAF92BF92B1
:101BE000CF92DF92EF92FF920F931F93CF93DF93E9
:101BF0006C017B01FC01C0818DE0C89FC02D1124C8
:101C00001DE01C0FB12E1F3310F03EE3B32E609188
:101C10004B05669580914D0590914E050E94100AE6
:101C2000A82ED0E0CB1578F081E01E3308F080E0DC
:101C3000DF91CF911F910F91FF90EF90DF90CF90A8
:101C4000BF90AF900895FE01EA53FE4F8081F601E8
:101C50009181892311F1CE01880F991F8C5F9E4FCE
:101C6000FC01E95BFF4F20812052330B8A5B9F4FC1
:101C7000FC0140814057550B609148057091490522
:101C800080914A050A2DF70109950E945C0C462FA8
:101C9000282F672FCE010E945B0D2196C3CF6CEFDA
:101CA0007BE00C94EE0D6EEC7AE00C94EE0D67E3A5
:101CB0007CE00C94EE0DBF92CF92DF92EF92FF92F8
:101CC0000F931F93CF93DF937C018B01FC01C081A5
:101CD0008DE0C89FC02D11249DE0D92EDC0ECD2CA7
:101CE000FEE3FD1510F48EE3C82E60914B0566955A
:101CF000669521E0620F08F46FEF80914D05909199
:101D00004E050E94100AB82ED0E0CC1578F081E084
:101D10009DE39D1508F480E0DF91CF911F910F9115
:101D2000FF90EF90DF90CF90BF900895FE01EA53AF
:101D3000FE4F8081F7019181892391F060914805E0
:101D40007091490580914A052B2D4C2FF80109957A
:101D50000E945C0C462F282F672FCE010E945B0D3E
:101D60002196D3CF69E67AE00C945B0E63E97AE0C2
:101D70000C945B0E65E97AE00C945B0E6EE97AE0F8
:101D80000C945B0E67EA7AE00C945B0E68E87BE0EB
:101D90000C945B0E6BEA7BE00C945B0E7F928F924F
:101DA0009F92AF92BF92CF92DF92EF92FF920F93EA
:101DB0001F93CF93DF935C016B01FC01C0818DE029
:101DC000C89FC02D11241DE01C0F912E1F3310F051
:101DD0003EE3932E60914B056695669580914D0587
:101DE00090914E050E94100AF82E80E48F0D0E94FB
:101DF0004A0A90E8892E880E8F2D0E944A0A20E810
:101E0000722E780ED0E0C91590F081E01E3308F0F4
:101E100080E0DF91CF911F910F91FF90EF90DF90C5
:101E2000CF90BF90AF909F908F907F900895FE01CC
:101E3000EA53FE4F8081F50191818923A1F06091E1
:101E400048057091490580914A05EF2C0C2F272DEC
:101E5000482DF60109950E945C0C462F282F672F0C
:101E6000CE010E945B0D2196CECF66EF7AE00C94F6
:101E7000CE0E63E27BE00C94CE0E61E57BE00C9429
:101E8000CE0EAF92BF92CF92DF92EF92FF920F935E
:101E90001F93CF93DF938C017B01FC01C0818DE008
:101EA000C89FC02D11242DE0B22EBC0EAB2CFEE33A
:101EB000FB1510F49EE3A92E20914B0531E0230F72
:101EC00008F42FEF30E050E040E06FEF7FEF80E06C
:101ED00090E00E9409306901D0E02C2FCA1580F0F3
:101EE00081E0FDE3FB1508F480E0DF91CF911F91C5
:101EF0000F91FF90EF90DF90CF90BF90AF9008953B
:101F0000FE01EA53FE4F8081F8019181892311F18E
:101F1000409151054150042E000C550B47FF1CC049
:101F2000C60160914B0521E0620F08F46FEF0E943B
:101F3000100AAC01609148057091490580914A05ED
:101F4000F70109950E945C0C462F282F672FCE01C0
:101F50000E945B0D2196C1CFFA01EF5AFA4F818999
:101F600082130AC0FA01EE0FFF1FEF5AFA4F818D5C
:101F7000928D8C159D05A8F241505109CFCF6CEB85
:101F80007BE00C94410F63EC7BE00C94410FBF921B
:101F9000CF92DF92EF92FF920F931F93CF93DF9335
:101FA0007C01FC01C0818DE0C89FC02D11241DE083
:101FB0001C0F012F1F3308F00EE36091480570914C
:101FC000490580914A050E945C0CD62EC72EB82E7A
:101FD000D0E0C01770F081E01E3308F080E0DF91A0
:101FE000CF911F910F91FF90EF90DF90CF90BF9016
:101FF0000895FE01EA53FE4F8081F7019181892304
:1020000031F02B2D4D2D6C2DCE010E945B0D2196B4
:10201000E0CF8F929F92AF92BF92CF92DF92EF92DA
:10202000FF920F931F93CF93DF937C01FC01C0813C
:102030008DE0C89FC02D11241DE01C0F012F1F3300
:1020400008F00EE3C0904905D0904A05D0914805AC
:102050006D2F7C2D8D2D0E945C0CB62EA72E982EF8
:1020600060914B056D0F7C2D8D2D0E945C0CD62E42
:10207000C72E882ED0E0C01788F081E01E3308F00C
:1020800080E0DF91CF911F910F91FF90EF90DF9053
:10209000CF90BF90AF909F908F900895FE01EA532C
:1020A000FE4F9081F7018181892359F0282D4D2D14
:1020B0006C2D90FD03C0292D4B2D6A2DCE010E9461
:1020C0005B0D2196D8CFBF92CF92DF92EF92FF9215
:1020D0000F931F93CF93DF938C01FC01C0818DE0A0
:1020E000C89FC02D11245DE0F52EFC0EDF2CFEE311
:1020F000FF1510F44EE3D42EC0904905B0904A0568
:1021000020914B0530E4E32E3E2D329F312D1124DA
:10211000E32ED0E0CD1578F081E03DE33F1508F4E3
:1021200080E0DF91CF911F910F91FF90EF90DF90B2
:10213000CF90BF900895FE01EA53FE4F8081F801D1
:1021400091818923D9F0FE01EE0FFF1FE65BFE4F60
:102150006081E69EB001112495E0759567959A958A
:10216000E1F780914805680F7C2D8B2D0E945C0C57
:10217000462F282F672FCE010E945B0D2196CACFD4
:10218000BF92CF92DF92EF92FF920F931F93CF9364
:10219000DF938C01FC01C0818DE0C89FC02D11240C
:1021A0009DE0F92EFC0EEF2CFEE3FF1510F48EE3FC
:1021B000E82ED0904805D0914905C0904A0560911D
:1021C0004B0566956695669580914D0590914E05F7
:1021D0000E94100A0E944A0A805887FD8195880F44
:1021E000282F3C2D239F212D1124822F6D2D7D2FF3
:1021F0000E945C0CD62EC72EB82ED0E0CE1578F0FB
:1022000081E02DE32F1508F480E0DF91CF911F913D
:102210000F91FF90EF90DF90CF90BF900895FE0157
:10222000EA53FE4F8081F8019181892331F02B2DF3
:102230004D2D6C2DCE010E945B0D2196DFCFDF92DC
:10224000EF92FF920F931F93CF93DF938C01FC01CA
:10225000EA53FE4F8081682381F1D0904905D091E7
:102260004A05C0914805EC2EF12C0E949C30282F85
:10227000C7018C549F4F68E671E00E94F52F8E19BC
:102280009F0997FD0396959587959595879523705A
:102290006C2F289F600D11247D2D8D2F0E945C0CCA
:1022A000462F282F672FC801DF91CF911F910F91E3
:1022B000FF90EF90DF900C945B0DDF91CF911F9119
:1022C0000F91FF90EF90DF900895DF92EF92FF92D1
:1022D0000F931F93CF93DF938C01FC01C281C11137
:1022E00025C060914B0520E1620F08F46FEF8091EB
:1022F0004D0590914E050E94100A6AE070E00E9420
:10230000E12F892B51F40E949C306EE370E00E9413
:10231000F52FF80161810E941F118C2FDF91CF9161
:102320001F910F91FF90EF90DF900895C0818DE095
:10233000C89FC02D11248DE0D82EDC0E8D2DFEE31C
:10234000FD1508F48EE3D0E0E82EF12CCE15DF0564
:1023500034F0C1E0FDE3FD1500F7C0E0DECFF80189
:102360006181CE010E941F112196F0CF1F93CF9360
:10237000DF93EC01FC01EA53FE4F80816823A1F05A
:102380000E949C30182F0E949C30612F782F8091E2
:102390004A050E945C0C462F282F672FCE01DF9143
:1023A000CF911F910C945B0DDF91CF911F910895F8
:1023B000DF92EF92FF920F931F93CF93DF938C01E5
:1023C000FC01C281C11125C060914B0520E1620F63
:1023D00008F46FEF80914D0590914E050E94100A10
:1023E00065E070E00E94E12F892B51F40E949C303F
:1023F0006EE370E00E94F52FF80161810E94B61132
:102400008C2FDF91CF911F910F91FF90EF90DF9074
:102410000895C0818DE0C89FC02D11248DE0D82E75
:10242000DC0E8D2DFEE3FD1508F48EE3D0E0E82EE2
:10243000F12CCE15DF0534F0C1E0FDE3FD1500F70A
:10244000C0E0DECFF8016181CE010E94B611219675
:10245000F0CFBF92CF92DF92EF92FF920F931F9334
:10246000CF93DF937C01FC01C0818DE0C89FC02D1C
:1024700011241DE01C0F012F1F3308F00EE3C09044
:102480004905D0904A05D091480560914B05669565
:102490006695669580914D0590914E050E94100AB3
:1024A0000E944A0A805887FD8195880F682F2CE08A
:1024B000629F612D11246D0F7C2D8D2D0E940D0AC0
:1024C000D62EC72EB82ED0E0C01770F081E01E3394
:1024D00008F080E0DF91CF911F910F91FF90EF9076
:1024E000DF90CF90BF900895FE01EA53FE4F8081A8
:1024F000F7019181892331F02B2D4D2D6C2DCE01CB
:102500000E945B0D2196E0CFE0916A03F0916B038E
:1025100009942F923F924F925F926F927F928F9287
:102520009F92AF92BF92CF92DF92EF92FF920F9362
:102530001F93CF93DF93CDB7DEB729970FB6F894EB
:10254000DEBF0FBECDBF6C01DC010C918DE0089F9A
:10255000002D1124BDE0B00FB9874B2EB73410F019
:1025600086E4482EF6018281882361F040E060E035
:1025700080E00E948412E0EEF3E086E4DF011D9229
:102580008A95E9F7F6018081811115C080912704B1
:10259000909128040E94AB2821E08931910508F42C
:1025A00020E020932604499730F00E9493289093CE
:1025B00028048093270410E0512C9E012F5F3F4F89
:1025C000390104151505F4F081E0F985F63408F0B9
:1025D00080E029960FB6F894DEBF0FBECDBFDF9125
:1025E000CF911F910F91FF90EF90DF90CF90BF9010
:1025F000AF909F908F907F906F905F904F903F90A3
:102600002F900895C80165E070E00E94F52F5B01EE
:102610004C013EE0389FF001399FF00D1124E0524B
:10262000FC4FE60FF71F3080A3010E94370D282EC4
:1026300073018E2D86198215C0F08091260488239F
:1026400089F0232D31E0231B08F420E0AEE0A89DA3
:10265000C001A99D900D112480529C4FA80EB91E57
:10266000F50120830F5F1F4FACCFD701EC91F0E055
:10267000EA53FE4F8081F6019181892321F1232DB8
:1026800035E5231B08F420E06AEA621B70914905D6
:102690002AEA332D230F08F42FEF30914A05822FB9
:1026A000880F820F8E5F282F239F212D1124822FC8
:1026B0000E945C0C462FD7019C91282F672F892FF1
:1026C00090E00E945B0DBFEFEB1AFB0AB2CFAF9216
:1026D000BF92CF92DF92EF92FF920F931F93CF930F
:1026E000DF93CDB7DEB728970FB6F894DEBF0FBEE5
:1026F000CDBFE82ED62E142F0E94BD1C882309F4CE
:1027000054C0F12C112341F0AE014F5F5F4F6D2D8E
:102710008E2D0E94370DF82EC090B2030F2D10E0C1
:10272000C8018C0D911D099764F188E090E05C016F
:10273000A01AB10AB8016D547C4FA50183EB93E058
:102740000E94AC30B80165547C4FA5018BEB93E03F
:102750000E94AC30A501440F551FB801660F771FCA
:1027600065537C4F8BEC93E00E94AC30B8016D5305
:102770007C4FA50183EC93E00E94AC30CA94C092D8
:10278000B2031091B203DE01119640E0842F810F55
:10279000F4121CC08093B203809147058C7F803671
:1027A00021F46D2D8E2D0E945E0C28960FB6F894A4
:1027B000DEBF0FBECDBFDF91CF911F910F91FF9074
:1027C000EF90DF90CF90BF90AF9008955D91252F4F
:1027D00030E090E0BC016E547C4FF901EE0FFF1F1A
:1027E000E65BFE4F0081FB010183220F331FF901DD
:1027F000E55BFE4F2081FB012187518B880F991FDC
:10280000FC01EE54FC4F128E118E4F5FBFCF089526
:102810000E9407140C94B40208950895CF93DF9397
:10282000FC01C0818DE0C89FC02D1124D3EFDC0FC7
:10283000CF3308F0CEE36C2F8D2F0E940C146C2F39
:102840008D2FDF91CF910C940D144F925F926F9268
:102850007F928F929F92AF92BF92CF92DF92EF9230
:10286000FF92CF936091DB037091DC038091DD03D5
:102870009091DE030E94BA286B017C010E949F2880
:102880004B015C018092DB039092DC03A092DD039C
:10289000B092DE03A091B203E2EBF3E08A2F90E066
:1028A0004FEF5FEF60E070E04C195D096E097F0942
:1028B000A9132AC08093B2038091DF03C0E0811185
:1028C00008C080914705C82FC37019F0C82FC6955E
:1028D000C69580910C02813009F440C0882339F1FB
:1028E000823009F418C1833009F420C1CF91FF90E0
:1028F000EF90DF90CF90BF90AF909F908F907F90A0
:102900006F905F904F900895218D328D2901712C29
:10291000612C441555056605770520F481509F5FAD
:102920003296C6CF2C0D3D1D328F218FF8CF1092DD
:102930000D0280924D0590924E05A0924F05B092E7
:10294000500589E2E2EBF3E0A1E5B5E001900D92DC
:102950008A95E1F781E080930C02C8CF8091100244
:10296000C81323C09091470593702091110230E065
:1029700081E09217130609F480E0817080930F02C2
:1029800080914C0590910E02981739F080930E02B9
:1029900040E060E080E00E948412CB3188F4EC2FAC
:1029A000F0E0E55DFE4C0C94283081E0E6CF8091AC
:1029B0000F02882359F040E060E080E00E9484121A
:1029C00080E004C08DE092E00E94C70F90910D025C
:1029D0009F5F90930D0281119AC082E080930C0258
:1029E00080910F02811193C0CC2309F49DC00E94F5
:1029F00008148DE092E0CF91FF90EF90DF90CF90A0
:102A0000BF90AF909F908F907F906F905F904F900E
:102A10000C940E148DE092E00E940910D7CF8DE047
:102A200092E00E946310D2CF8DE092E00E94C0102D
:102A3000CDCF8DE092E00E94B20EC8CF8DE092E043
:102A40000E944F0EC3CF8DE092E00E94E20DBECFF8
:102A50008DE092E00E94B60EB9CF8DE092E00E9428
:102A6000BA0EB4CF8DE092E00E94BE0EAFCF8DE0E3
:102A700092E00E94C20EAACF8DE092E00E94E60D85
:102A8000A5CF8DE092E00E94530EA0CF8DE092E0A2
:102A90000E94570E9BCF8DE092E00E94EA0D96CFE8
:102AA0008DE092E00E94350F91CF8DE092E00E9480
:102AB000390F8CCF8DE092E00E943D0F87CF8DE0E3
:102AC00092E00E94651182CF8DE092E00E94D811C1
:102AD0007DCF8DE092E00E94291278CF8DE092E0C8
:102AE0000E94C60E73CF8DE092E00E94CA0E6ECF98
:102AF0008DE092E00E94891269CF8DE092E00E9401
:102B0000BF0F64CF8DE092E00E94C30F5FCFCC2354
:102B100009F4ECCE6CCFC09310028091470583700E
:102B2000809311020E94560D83E015CF60914D05F0
:102B300070914E0580914F05909150050E94BA28E2
:102B4000603171058105910508F4D0CE10920C0218
:102B5000CDCEE0916603F09167030995109251057F
:102B60008FEF9FEF90936B0580936A0590936D05AF
:102B700080936C0590936F0580936E05909371051B
:102B800080937005909373058093720590937505FB
:102B900080937405909377058093760590937905DB
:102BA000809378051092B2039093CC038093CB036B
:102BB0009093CE038093CD039093D0038093CF0363
:102BC0009093D2038093D1039093D4038093D30343
:102BD0009093D6038093D5039093D8038093D70323
:102BE0009093DA038093D9030E94A626811104C032
:102BF0000E944B270E94220D0E94120D80914705D2
:102C00008C7F11F40C94220D0895CF93C82F882344
:102C100029F040E060E080E00E948412C093DF036E
:102C2000CF9108959091470521E092279093470511
:102C300010920C0281110C941A0D089581E00C94ED
:102C4000121690914705937099F0811109C0946014
:102C50009093470510920C02662351F00C941A0DC4
:102C60008B3110F09866F4CF880F880F982BF0CF37
:102C7000089561E00C942116682F90914705969570
:102C8000969581E0890F8B3108F081E00C94211634
:102C900081E00C943C16682F909147059695969587
:102CA0008FEF890F09F48AE10C94211681E00C94CE
:102CB0004B1690914705937049F0809348056093B7
:102CC000490540934A0521110C941A0D0895A7E473
:102CD000B5E01196EC911197F0E0282F13964C91E6
:102CE000139712966C91CF0108960C94591681E0B7
:102CF0000C946716E7E4F5E09181282F4381628107
:102D0000E92FE850FF0BCF010C94591681E00C9489
:102D10007A16E7E4F5E0628120E1620F08F46FEFD4
:102D20009181282F4381892F90E00C94591681E0DE
:102D30000C948916E7E4F5E0628120E1621B08F457
:102D400060E09181282F4381892F90E00C945916DF
:102D500081E00C949A16E7E4F5E0438120E1420F0C
:102D600008F44FEF9181282F6281892F90E00C9415
:102D7000591681E00C94AB16E7E4F5E0438120E1BD
:102D8000421B08F440E09181282F6281892F90E056
:102D90000C94591681E00C94BC1620914B0530E13F
:102DA000230F08F42FEF20934B0581110C941A0D7B
:102DB000089581E00C94CD1620914B0530E1231B42
:102DC00008F420E020934B0581110C941A0D08950E
:102DD00081E00C94DC1660E080E50E94561861E00A
:102DE00080E50C945618CF930E94681B60E080E544
:102DF0000E944F17C0E021E041E061E08C2F0E946B
:102E0000E117CF5FCE33B9F760E080E50E948B1801
:102E100061E080E5CF910C948B186093FA064093A3
:102E2000FB0624E630E042E050E06AEF76E0880FEF
:102E30000E94F91B21E0892B09F020E0822F0895E0
:102E4000EF92FF921F93CF93DF937B01182F110F07
:102E5000D0E0C0E0C093FA06D701AC0FBD1FEBEF86
:102E6000F6E08D91819387E0EB30F807D1F724E607
:102E700030E041E150E06AEF76E0812F0E94F91BDB
:102E8000892B59F46096C03CD10521F781E0DF9190
:102E9000CF911F91FF90EF90089580E0F8CF1F939E
:102EA000CF93DF93C82FD62F45EC6EEF0E940D17FE
:102EB00040E06DEF8C2F0E940D1710E040E0612F75
:102EC0008C2F0E940D171F5F1831C1F745EC6EEF74
:102ED0008C2F0E940D1741E06DEF8C2F0E940D1773
:102EE00010E040E0612F8C2F0E940D171F5F103CF7
:102EF000C1F745EC6EEF8C2F0E940D1743E06DEF8C
:102F00008C2F0E940D174FEF61E08C2F0E940D1740
:102F100080E4D89FA0011124416060E08C2F0E94C2
:102F20000D178FE39CE90197F1F700C00000DF91D6
:102F3000CF911F910895CF93DF938E33910520F5A4
:102F4000880F991F880F991FFC01EE5DFD4FA2812C
:102F5000338180818370C181E82FF0E050EC859F40
:102F6000C001112486589A4FC80FD92FD11D6883EC
:102F7000A80FB92FB11D4C93830F911DDC012C9329
:102F8000E55AFB4F81E08083DF91CF910895FF9256
:102F90000F931F93CF93DF93182F062FF42ED0E0BB
:102FA000C0E02F2D402F612FCE010E949B1721964C
:102FB000CE33D105B1F7DF91CF911F910F91FF90E3
:102FC0000895FF920F931F93CF93DF9354E0859F53
:102FD000F0011124EE5DFD4FB18172813381F72E36
:102FE000F694F694F694A32FA695A695A6957770D9
:102FF0003770808183700B2F069506950695E82F14
:10300000F0E0C8E18C9FC0011124855D9B4F080F43
:10301000192F111DE8015881B77081E090E001C0BF
:10302000880FBA95EAF76623C1F1852B888358E1AA
:103030005E9FC0015F9F900D1124855D9B4FEC0149
:10304000CF0DD11D588181E090E001C0880F7A95A5
:10305000EAF7442329F1852B888348E14E9FC0017C
:103060004F9F900D1124855D9B4FA80FB92FB11D67
:103070004C9181E090E001C0880F3A95EAF7222355
:1030800091F0842B8C93E75DFB4F81E08083DF918F
:10309000CF911F910F91FF90089580958523C6CF02
:1030A00080958523D9CF80958423ECCFEF92FF9232
:1030B0000F931F93CF93DF93D82FC62F062F10E0C7
:1030C000C801855A9B4F7C01FC0180818823D1F087
:1030D00045EC6EEF8D2F0E940D1741E06DEF8D2FA7
:1030E0000E940D17F0ECCF9FB001112466587A4F63
:1030F0008D2F0E942017811105C0F801E75DFB4F5D
:1031000081E08083F7011082DF91CF911F910F91B1
:10311000FF90EF900895EF92FF920F931F93CF933C
:10312000DF93E82EC62F062F10E0075D1B4FF80136
:1031300080818823D1F045EC6EEF8E2D0E940D1713
:1031400040E06DEF8E2D0E940D17F8E1CF9FE0015A
:103150001124C55DDB4FF12C49916F2D8E2D0E94FE
:103160000D17F39488E1F812F7CFF8011082DF9180
:10317000CF911F910F91FF90EF900895FA01811167
:1031800001C0FB0109940F931F93CF938C01FB01A6
:10319000C281CC2309F48FC00E94EE2582720B3CC1
:1031A000FCE51F0709F472C060F5063CECE51E075C
:1031B00009F458C080F4043C9CE5190709F448C0A0
:1031C00008F04BC0033C1C4509F43FC08C2FCF9145
:1031D0001F910F910895083C9CE5190709F44CC014
:1031E00008F445C0093CFCE51F0709F44AC04AEC55
:1031F00056E169EB76E10A3C1C4541F70E94BE1896
:103200001EC0003DECE51E0709F453C080F40D3CE0
:103210009CE5190709F444C0F0F10E3CFCE51F07DA
:1032200009F443C00F3C1C4589F684E03FC0073DCC
:103230009CE5190730F48EE0023D1C45B8F1C0E072
:10324000C5CF0E351D45D9F3C1CF0E941E16F7CF4D
:1032500046E556E168E476E1D1CF48E456E166E51B
:1032600076E1CCCF46E856E167E776E1C7CF47E79E
:1032700056E166E876E1C2CF48EA56E167E976E1D1
:10328000BDCF47E956E168EA76E1B8CF49EB56E1B0
:103290006AEC76E1B3CF48EE56E169ED76E1AECF68
:1032A00049ED56E168EE76E1A9CF81E00E9439163A
:1032B000C6CF89E0FBCFC1E089CF0F931F93CF9397
:1032C000DF93C42FD22FFC0182818823C9F0409361
:1032D0005F040E94932890935E0480935D0480E2D3
:1032E0008C0F883008F050C0C77081E001C0880F93
:1032F000CA95EAF7DF91CF911F910F910C945A1E56
:1033000010915F04141335C080915D0490915E04A8
:103310000E94AB28883C910560F5C0E2CD0F1D17D7
:10332000B9F080E2810F883040F4177081E001C06D
:10333000880F1A95EAF70E94611EC83048F481E0B0
:103340009D2F977001C0880F9A95EAF70E945A1E28
:10335000802F0E94521EC830B8F4D77081E001C09F
:10336000880FDA95EAF7DF91CF911F910F910C94B6
:10337000611E80E28C0F883038F4C77081E001C094
:10338000880FCA95EAF7EFCFDF91CF911F910F9188
:1033900008950F939C01CB01243F4CE5340759F16C
:1033A000A8F4293DFCE53F0701F12A3D4CE534072F
:1033B000D1F1283D3C4591F406E221EE41EE68ED65
:1033C0007CE50E945D1980E00F910895263FFCE5A1
:1033D0003F07E9F0B0F0273F3C45F9F0FC0182815E
:1033E000882339F110925F04EFCF07E225EE45EE16
:1033F00069ED7CE5E6CF06E221EE40EE64EF7CE588
:10340000E0CF07E225EE44EE65EF7CE5DACF06E299
:1034100021EE42EE66EF7CE5D4CF07E225EE46EEE4
:1034200067EF7CE5CECF08E221E045EE6AED7CE572
:10343000C8CF81E0C9CFCF93DF93EC01FB0182813C
:10344000882309F419C1C230FCE5DF07C0F1C63199
:103450009CE5D90730F09E012B5F3C4529303105B2
:1034600070F50E94B9269093320580933105C031E2
:10347000ECE5DE0709F4CFC008F05BC0C8308CE58E
:10348000D80709F4B6C088F5C430ECE5DE0709F4C6
:10349000A8C0C0F4C2308CE5D80709F49CC0809164
:1034A00031058260C330DC4509F498C08091310554
:1034B000909132050E94C7260E94C62080E0DF91CD
:1034C000CF910895809131058061C630ECE5DE072B
:1034D00009F484C0809131058860C730DC4508F468
:1034E0007DC080913105806279C0CC308CE5D807F1
:1034F00009F489C070F4809131058C60CA30ECE524
:10350000DE0709F46BC008F478C0809131058E7F26
:1035100065C0CE308CE5D80709F479C080913105BB
:103520008B7FCF30DC4508F459C0809131058F7E08
:1035300055C0CC3FECE5DE0709F457C030F5C33188
:103540008CE5D80709F46FC078F4C131ECE5DE07EB
:1035500009F465C0C231DC4509F0A8CF0E94C6203D
:10356000809131058F773AC0C5318CE5D80709F4D1
:1035700062C008F476C0809132058160CB3FDC45A3
:1035800009F094CF8093320591CFC115FDE5DF0797
:1035900009F44DC088F4809132058D7FCE3F9CE5C3
:1035A000D90781F3809132058E7FCF3FDC4550F300
:1035B000809132058360E6CFC230FDE5DF0709F474
:1035C00059C008F444C080E0C330DD4509F06ECF37
:1035D0000E944D276BCF809131058160809331052A
:1035E00065CF809131058460F9CF8091320582608A
:1035F000C9CF809131058064F1CF0E94C6208091AF
:1036000031058068EBCF809131058D7FE7CF8091C8
:103610003105877FE3CF809131058F7DDFCF8091AA
:1036200031058F7BDBCF80913105837FD7CF8091B0
:1036300032058C7FA7CF8091310582FB992790F9C5
:1036400021E0922790FB82F990FB83F9C7CF80910C
:103650003205982F909591708E7F892B90FB81F980
:1036600091CF0E94C62090913105892F97FB87F951
:103670008058B4CF81E0ACCF81E021CFCF93DF93EE
:10368000EB0186319C4511F50E94EE259A81992324
:1036900099F08A7A91E009F490E0909360048111A6
:1036A00009C089E20E94A8250E94312680E0DF91AE
:1036B000CF91089585E3F6CF80916004811104C015
:1036C00089E20E94AF25F0CF85E3FBCF81E0EFCF09
:1036D0001092B9008CE08093B8000895EF92FF92A9
:1036E0000F931F93CF93DF93182FEB011092BC0021
:1036F00084EA8093BC000E9493287C018091BC00E6
:1037000087FF27C08091B900887F883029F0809199
:10371000B900887F8031D9F51093BB0084E880938D
:10372000BC000E9493288C018091BC0087FF24C0BC
:103730002091B900287F90E080E02831B1F081E04D
:1037400090E0203411F490E080E09195819591090A
:103750000CC0CF3FDC0791F20E9493288E199F097D
:103760008C179D0758F28EEF9FEFDF91CF911F913D
:103770000F91FF90EF900895CF3FDC07A9F20E94D0
:103780009328801B910B8C179D0770F2ECCF8FEF65
:103790009FEFEBCF0F931F93CF93DF93EB018093BA
:1037A000BB0084E88093BC000E9493288C01809128
:1037B000BC0087FF11C02091B900287F81E090E014
:1037C000283211F490E080E0919581959109DF9184
:1037D000CF911F910F910895CF3FDC0741F30E94D5
:1037E0009328801B910B8C179D0708F38EEF9FEF9A
:1037F000EECFCF92DF92EF92FF920F931F93CF9372
:10380000DF936B018A017901B9010E946E1BE60109
:103810000C0D1D1DC017D10761F424E92093BC00D5
:10382000DF91CF911F910F91FF90EF90DF90CF909C
:10383000089597FDF2CFB70189910E94CA1BEACF84
:1038400090936604809365040895E0916504F09177
:103850006604309721F00190F081E02D099480E01A
:103860000895E0916504F0916604309711F480E0CA
:1038700008950190F081E02D09950895E091650487
:10388000F0916604309799F020911E02222359F09E
:103890002091310527FF07C0DC012C9111962C9354
:1038A000119725E02C930280F381E02D099408956F
:1038B000E0916504F0916604309739F022E0DC0174
:1038C0002C930480F581E02D0994089520916304E0
:1038D000309164042817390771F090936404809341
:1038E0006304E0916504F0916604309721F006804E
:1038F000F781E02D099408952091610430916204CC
:103900002817390771F09093620480936104E09165
:103910006504F0916604309721F00084F185E02D74
:10392000099408950E949F28609376047093770409
:103930008093780490937904609372047093730475
:103940008093740490937504089585B7806885BF4B
:1039500085B7806885BF0895089508950C94AC1CC0
:1039600008950C94B01C0E94A51C8EE996E20E945A
:103970001E290E94AD1C0C94AE1C81E008950C948D
:10398000BD1C089508950E94C11C0C94C21C0E9485
:103990008A280E94E5050C94B11C8F929F92AF92E9
:1039A000BF92CF92DF92EF92FF920F931F93CF932C
:1039B000DF93CDB7DEB72A970FB6F894DEBF0FBE00
:1039C000CDBF0E94330681110E94921C58E6852EBD
:1039D00054E0952E10E000E0E02E802F0E94BC0500
:1039E0005C01F401C190D1904F01C816D906B1F421
:1039F0000F5F1F4F0530110579F78FEF89838A8399
:103A00001B820E9493288160782F9D838C8349813B
:103A10005A816B818D810E94871D3DC080910D056B
:103A200081FD0E94C505C6018A259B25F12CCC2469
:103A3000C394D12C9C012C213D21232B09F44DC092
:103A40000E94BF1C95012C213D21BB24B394232B44
:103A500009F4B12C882379F0FE82EF82B8860E94A7
:103A600093288160782F9A8789874E815F81688546
:103A70008A850E94871D000F111FF801E859FB4F2E
:103A800080819181C826D926D182C0824B2D6F2D8D
:103A90008E2D0E9467130E9425140E945E080E94CA
:103AA000251C909167048917F9F00E94251C8093CA
:103AB00067042A960FB6F894DEBF0FBECDBFDF9124
:103AC000CF911F910F91FF90EF90DF90CF90BF901B
:103AD000AF909F908F900C948703F394CC0CDD1CD7
:103AE000FEE0FF12A7CF84CF2A960FB6F894DEBF70
:103AF0000FBECDBFDF91CF911F910F91FF90EF903F
:103B0000DF90CF90BF90AF909F908F900895DF92FD
:103B1000EF92FF920F931F93CF93DF93CDB7DEB752
:103B20002B970FB6F894DEBF0FBECDBF7A878B8779
:103B3000F42E052F162FE72ED82E61110E940E2687
:103B40001E821D827E2DEC82DD824F2D502F612F33
:103B50008D2D9E812B960FB6F894DEBF0FBECDBF84
:103B6000DF91CF911F910F91FF90EF90DF900C9418
:103B70003C23FC01808191810C947A25CF93C82F3E
:103B8000882309F447C08CEF8C0F813AA0F46C2F86
:103B900080911202909113020E946627882329F0D7
:103BA0008C2F0E94AF250E9431268C2F0E94A825C1
:103BB000CF910C94312680E28C0F883048F4C77086
:103BC00081E001C0880FCA95EAF70E94F125F0CF85
:103BD000EBE5EC0FE33040F4F0E0E456FC4F80817D
:103BE00090E0CF910C94661CE8E5EC0FE73150F4BF
:103BF000F0E0EE0FFF1FE259FC4F80819181CF91E1
:103C00000C947C1CCD3E30F08C2F0E947007CF911D
:103C10000C944308CF910895882361F19CEF980F8D
:103C2000913A20F40E94AF250C94312690E2980F2F
:103C3000983050F4877091E001C0990F8A95EAF7A7
:103C4000892F0E94F725F0CF9BE5980F933020F441
:103C500090E080E00C94661C98E5980F973120F472
:103C600090E080E00C947C1C8D3E20F00E94CA07FE
:103C70000C94430808951F93CF93DF93182FEB0103
:103C80000E94BE1D209731F4812FDF91CF911F91AB
:103C90000C940C1E8FE99FE00197F1F700C0000023
:103CA0002197F0CF70E060E0893311F460E570E0B7
:103CB0000C943B1E882321F00E94F1250C943126A0
:103CC0000895882321F00E94F7250C943126089549
:103CD000BF92CF92DF92EF92FF920F931F93CF93F9
:103CE000DF936C01D62FC72FFC011281058102954D
:103CF0000F700E94C625E82E8823A1F0E12E112323
:103D000089F08C2F807F803429F080E28D0FE12CA8
:103D1000883040F082E00E9482260E94C62591E011
:103D2000E82EE926BC2EB2949FE0B922FBE0FB15F9
:103D300098F1EB2DF0E0EA5BFE4C0C9428300C2F50
:103D40000F70C07F11F00295007F1123A9F00023AE
:103D500059F080E28D0F883010F0D11109C0802F0A
:103D60000E94F1250E9431268D2F0E94BE1D14C095
:103D7000802F0E940126F6CF8D2F0E940C1E00235B
:103D800059F080E28D0F883010F0D1112CC0802FB7
:103D90000E94F7250E9431262B2D2850330B24300A
:103DA000310520F40E94251C0E948703EE2009F4AF
:103DB0008EC10E94C22580FD8AC1F60112820E9436
:103DC000BC250E944824C6010E9488200E94BC2570
:103DD000DF91CF911F910F91FF90EF90DF90CF90E7
:103DE000BF900C946924802F0E940726D3CF2C2FDC
:103DF0002F70F22EC07FC03219F0F29480EFF822BB
:103E0000DD2369F0D13049F1112391F1002351F103
:103E1000F601858180FFA8CF8F70858323C0112391
:103E200081F0011106C00E9414268F290E945A1E9B
:103E3000B3CF0130C1F70E9414268F290E941A26A1
:103E4000ABCF011106C00E9427268F2D0E94611E54
:103E5000A3CF013009F4A0CFF6CF112329F006300B
:103E600008F09ACF8F2DE2CF053008F095CFEDCF37
:103E7000002359F3D93349F4FFEF27EE33E0F15033
:103E800020403040E1F700C000008D2F0E940C1E42
:103E900083CF8C2F86958695837069F0813009F0E9
:103EA0007BCF8D2F9C2F9370111102C090E080E08A
:103EB0000E947C1C71CF8D2F9C2F9370111102C01A
:103EC00090E080E00E94661C67CF8D2F112329F0BF
:103ED0000E9470070E9443085FCF0E94CA07FACF72
:103EE0008C2F837009F041C0111156CF4D2F429590
:103EF00046954770440F440F0D2F0F7010E030E0CF
:103F000020E0042E04C0000F111F221F331F0A944B
:103F1000D2F760E070E0CB01D4FF0FC06FE070E03B
:103F200080E090E004C0660F771F881F991F4A95B4
:103F3000D2F76095709580959095C695C695C3709B
:103F4000602B712B822B932BC23049F058F4C13077
:103F500019F00E94FA2320CF0E94E8231DCF0E946F
:103F60000C241ACF0E94E62317CF8695112311F057
:103F70008C2F8170882309F40FCF4D2F42954695E1
:103F80004770440F440F0D2F0F7010E030E020E019
:103F9000042E04C0000F111F221F331F0A94D2F7F2
:103FA00060E070E0CB01D4FF0FC06FE070E080E014
:103FB00090E004C0660F771F881F991F4A95D2F7BB
:103FC0006095709580959095C695C695C370602B49
:103FD000712B822B932BC23049F058F4C13019F069
:103FE0000E94BF24D9CE0E94AD24D6CE0E94D124F7
:103FF000D3CE0E942224D0CECF70112329F08C2F53
:104000000E9448248D2F12CF8D2F0E94611E8C2F6D
:104010000E946924C1CED23F89F160F4D03FC9F03B
:10402000D13F29F1112309F442C001119DCE8C2FFB
:104030008F7121C0D33F39F1D43FA1F7112369F12A
:10404000CF718C2F0E94482463E08C2F0E9467263A
:10405000A3CE112341F0053008F09ECE8C2F8F7136
:104060000E948C2499CE063008F096CEF7CF8C2F84
:104070008F71112369F20E9448248ECE8C2F8F718C
:104080001123C9F3C5CF112329F08C2F8F710E9402
:10409000332482CE0E942E247FCE81E00E9482268D
:1040A000023008F479CE82E00E94822675CE002389
:1040B00059F0D93309F0E9CE8FEF97EEE3E0815064
:1040C0009040E040E1F7DFCE8C2F8F71A1CFDF91E0
:1040D000CF911F910F91FF90EF90DF90CF90BF9005
:1040E00008950F931F93CF93DF93EC01688179813B
:1040F0008A810E9484258C010E94E3240E94E5238A
:10410000B801CE01DF91CF911F910F910C94681EE1
:10411000CF93DF93EC018B819C81892B29F08881DF
:10412000998189238F3F59F4DF91CF910895CE0172
:104130000E947120CE01DF91CF910C940503CE0136
:104140000E9428038111F3CF0E94C625882361F3C2
:104150008A81882349F382E0DF91CF910C948226F3
:1041600090E080E00E94661C90E080E00E947C1C51
:104170000E940E260E9411260E9431260E946A0982
:104180000C9443080E94B6250C94B0200E94FE2592
:104190000C94C220E92FE295EF70E250EE3070F4FB
:1041A000F0E0EE5AFE4C0C942830803F19F020F4D9
:1041B000883E20F481E00895843FE1F380E0089593
:1041C000883EC0F3813FD1F7F5CF93FB882780F974
:1041D00008950E947A250C94CA20CF93DF9300D0D3
:1041E00000D00F92CDB7DEB70F900F900F900F90C9
:1041F0000F90DF91CF910895CF93DF9300D000D03F
:1042000000D0CDB7DEB726960FB6F894DEBF0FBE4E
:10421000CDBFDF91CF9108951F93CF93DF93C091CE
:104220007B0416E080917C048C1304C0DF91CF9155
:104230001F910895D0E01C9FF0011D9FF00D1124E7
:10424000E358FB4F40815181628173818481958164
:104250000E94FC202196C770E5CF4091AD0450919B
:10426000AE046091AF047091B0048091B10490915C
:10427000B2040C94FC201F93CF93DF938091B2047F
:10428000807FA9F48091AF04882389F080917B041A
:10429000C0917C046091AD047091AE04A091B00413
:1042A000B091B104D62FD72316E0C81304C0DF9114
:1042B000CF911F91089590E0109711F0DF3F19F40E
:1042C00001968770F2CF189F9001199F300D11242D
:1042D000F901E358FB4F41814713F2CF4081461368
:1042E000EFCF42814111ECCF438154814A1B5B0BDC
:1042F000483C510528F78091B2048F70806180930B
:10430000B204F901EE57FB4F80818F70806180838A
:104310008DEA94E00E948820DF91CF911F910C9448
:104320000C21AF92BF92CF92DF92EF92FF920F9348
:104330001F93CF93DF93CDB7DEB761970FB6F89495
:10434000DEBF0FBECDBF8C0185E0F801DE011D96FA
:1043500001900D928A95E1F7F80140815181E28048
:104360008DEAC82E84E0D82E6091B0047091B1041B
:104370006115710509F461C19091AD042091AE04FD
:10438000892F82238F3F09F458C1A380B480F09015
:10439000AF04F501E61BF70BFF2009F4FCC0809188
:1043A000B204382F307FE83CF10508F0B2C031117B
:1043B00079C0FE2C251323C0941321C0E1101FC027
:1043C0008F7080618093B2040E942D21C6010E94EB
:1043D00088208091B204F80185838F2D61960FB6F5
:1043E000F894DEBF0FBECDBFDF91CF911F910F912B
:1043F000FF90EF90DF90CF90BF90AF900895AB28E3
:1044000029F0842F85238F3F09F033C180E0F82FF6
:10441000F170DF2E80FF3CC080917B0420917C04F2
:1044200036E0821315C04D875E878D859E850E947C
:104430007A25292F22952F702230F0F0243018F59C
:104440009F70F1F0F8019581907FD1F4D12C1EC0BE
:1044500090E0389FF001399FF00D1124E358FB4F95
:104460006181651306C06081641303C062816E11AF
:104470000FC001968770D5CF9F7011F0882331F35C
:10448000805E883018F3C8010E948820FD2CA5CFDB
:10449000EE2009F4A2CF8091B20481608093B2042F
:1044A000F12C9BCF251306C0941304C0F801EE2015
:1044B00009F48DC04D875E878D859E850E94E92019
:1044C000882319F1EE2009F18091B204803270F056
:1044D0002091AD043091AE0438872F831986BB86B6
:1044E000AA868C87CE0107960E94882086E0F80174
:1044F000ADEAB4E001900D928A95E1F70E943B216C
:104500000E942D21FF24F39468CFC8010E948820C7
:10451000F9CF311113C07A2DB98AA88A6E2D8989F5
:104520000E94ED208DEA94E00E94882086E0F6014A
:1045300011928A95E9F70E942D21B2CF25130FC061
:1045400094130DC0E1100BC0F8018583C8010E94CF
:10455000882086E0F60111928A95E9F73ECF4D87D3
:104560005E878D859E850E94E920882371F2EE206A
:1045700061F28091B204803208F4B8CF2091AD048A
:104580003091AE043A8329831B82BD82AC828E8334
:10459000CE010196A9CFE83CF10508F041C0FE2C00
:1045A000EE2009F4B2CF25132AC0941328C08091BD
:1045B000B20480FD1BC0982F907FC1F0F801858365
:1045C000903F31F0982F907F905F8F70892B85837B
:1045D000C8010E94882086E0F801ADEAB4E00190AD
:1045E0000D928A95E1F70E942D21F7CE86E0F80121
:1045F000ADEAB4E001900D928A95E1F7EECE4D87D9
:104600005E878D859E850E94E92081116FCF809104
:10461000B20481608093B204C8010E948820DDCE7C
:104620007A2DB98AA88A6E2D89890E94ED2086E0AC
:10463000F60111928A95E9F7D6CFEE2009F465CFFD
:104640004D875E878D859E850E94E920F82E882300
:1046500009F45BCF86E0F801ADEAB4E001900D9279
:104660008A95E1F78DEA94E00E94B91D0E943B21F2
:10467000BACF81E08E25CBCE1F93CF93DF93CDB7FA
:10468000DEB72C970FB6F894DEBF0FBECDBF4F83B9
:10469000588769877A878B879C87CE0107960E9407
:1046A0009121882369F08A859B85892B39F04F8178
:1046B0005885842F85238F3F09F071C016E05FC0B5
:1046C00086E0FE013796DE01119601900D928A95E3
:1046D000E1F78A859B85892B89F38F8198858923CA
:1046E0008F3F61F320917C0430E0C901019687700F
:1046F000992740917B044817190671F40E94C6203F
:1047000010927C0410927B0486E0EDEAF4E0DF0175
:104710001D928A95E9F7D2CF96E0929FD001939FA0
:10472000B00D1124A358BB4FFE01319601900D929C
:104730009A95E1F780937C040E940C21BFCF819F62
:10474000C001112483589B4F0E9491218823E9F0D6
:10475000E0917B041E9FF0011124E358FB4F408140
:10476000518162817381848195810E94FC208091B6
:104770007B0490E001968770992780937B04809159
:104780007B0490917C048913DACF2C960FB6F894B1
:10479000DEBF0FBECDBFDF91CF911F910895698518
:1047A0007A858B859C850E94FC2088CF08950C9487
:1047B000D6230E94D7236093E4047093E50480938A
:1047C000E6049093E7040C94B02008950C94D92348
:1047D0000F931F930091E4041091E5042091E604E7
:1047E0003091E704602B712B822B932B1F910F913B
:1047F0000C94D9230F931F930091E4041091E504C6
:104800002091E6043091E7046023712382239323EF
:104810001F910F910C94D9230F931F930091E404DF
:104820001091E5042091E6043091E7046027712798
:10483000822793271F910F910C94D9230C94D62390
:104840000C941E240E9420246093E0047093E104E1
:104850008093E2049093E3040C94B02060E070E055
:10486000CB010C9422240F931F9341E050E060E0B1
:1048700070E08A019B0104C0000F111F221F331F2B
:104880008A95D2F7C901B8011F910F910C94222487
:104890000F931F9341E050E060E070E004C0440FCC
:1048A000551F661F771F8A95D2F78091E00490917B
:1048B000E104A091E204B091E3048A019B01082B7A
:1048C000192B2A2B3B2BC901B8011F910F910C9476
:1048D00022240F931F9341E050E060E070E004C099
:1048E000440F551F661F771F8A95D2F7CB01BA0177
:1048F00060957095809590950091E0041091E10489
:104900002091E2043091E3046023712382239323F6
:104910001F910F910C9422240F931F9341E050E0BC
:1049200060E070E004C0440F551F661F771F8A9532
:10493000D2F78091E0049091E104A091E204B0915B
:10494000E3048A019B01082719272A273B27C9016D
:10495000B8011F910F910C9422240F931F93009183
:10496000E0041091E1042091E2043091E304602B13
:10497000712B822B932B1F910F910C9422240F9358
:104980001F930091E0041091E1042091E204309122
:10499000E30460237123822393231F910F910C94CE
:1049A00022240F931F930091E0041091E1042091C1
:1049B000E2043091E30460277127822793271F9137
:1049C0000F910C94222408952EE0929F800D1124C3
:1049D000982F977041E001C0440F9A95EAF78695A9
:1049E0008695869595E0899FF0011124ED54FB4F43
:1049F00090E080E070E05191DF0111979B01082E5B
:104A000002C0369527950A94E2F721702195252753
:104A1000242325272C9301968530910561F708956D
:104A20002EE0929F800D1124982F97708695869581
:104A3000869525E0829FF0011124ED54FB4F50E054
:104A400040E080E0219130E0092E02C036952795A4
:104A50000A94E2F721703327042E01C0220F0A9432
:104A6000EAF7822B4F5F5F4F4530510559F70895A4
:104A7000BF92CF92DF92EF92FF920F931F93CF934B
:104A8000DF938C01C090E004D090E104E090E20458
:104A9000F090E3048091E4049091E504A091E60491
:104AA000B091E704C82AD92AEA2AFB2ACFE1D0E04C
:104AB000BC2ED701C6010C2E04C0B695A7959795BC
:104AC00087950A94D2F780FD0EC0219788F7B12C04
:104AD0008B2DDF91CF911F910F91FF90EF90DF9081
:104AE000CF90BF900895B8018C2F0E94A303019727
:104AF00061F3EECFCF93DF93EC010E943825BE0126
:104B0000DF91CF910C94A3031F93CF93DF93EB011D
:104B100090917A04992331F0CB01DF91CF911F91CD
:104B20000C947A25882379F0CB010E943825182F20
:104B3000682FCE010E94E424BE01812FDF91CF9126
:104B40001F910C94A303CB010E941025182FF4CFC2
:104B5000682F80911202909113020C94E627682F1F
:104B600080911202909113020C94F127809112020D
:104B7000909113020C94FC278091E804859585950B
:104B8000859508958091E804877008959091E804D0
:104B9000977081E009F480E008959091320592FBCE
:104BA000222720F9281751F080FB92F990933205C3
:104BB00080913105909132050C94C726089580911B
:104BC000320582FB882780F991E089270C94CD2556
:104BD00081E00C94CD2580E00C94CD2580910C05CE
:104BE000089590910C05892B80930C05089580956C
:104BF00090910C05982390930C05089510920C0544
:104C0000089590910B05892B80930B05089580954D
:104C100090910B05982390930B05089510920B0526
:104C2000089510920A0508958091E9040895089561
:104C30000C9417269091320592FD08C09091E904DA
:104C4000981721F08093E9040C9418260895809118
:104C5000E904882329F01092E90480E00C941826D6
:104C60000895E0911202F091130280910C05808367
:104C7000E0911202F0911302808190910B05892B33
:104C80008083E0911202F0911302808190910A05D5
:104C9000892B80839091E904992381F0E09112029D
:104CA000F09113028081892B808380911202909170
:104CB00013020E94522781110E942726809112021E
:104CC000909113020C943E1C08950C9464269091CC
:104CD000320592FD10C098E0899F90011124622B4B
:104CE0006093E8040E9448248091E80485958595A6
:104CF00085950C9465260C9448241092E80480E075
:104D00000C9465269091E804809589238093E804AB
:104D1000282F277039F4282F082E000C330B9217F8
:104D2000130621F49091320592FF07C08595859571
:104D300085950E9469240C947D26089580E008954D
:104D40006FEF7FEF90E080E00C94013190E080E025
:104D50000E94CD3021E08A3E9E4F09F020E0822F54
:104D6000089582E090E00C94C53083E090E00C94CC
:104D7000C530CF9384E090E00E94C530C82F82E216
:104D800090E00E94C530982F8C2FCF910895CF933B
:104D9000C92F682F84E090E00E94E3306C2F82E2FC
:104DA00090E0CF910C94E330AB01BC018FE090E038
:104DB0000C94F530AB01BC0183E190E00C94F5302C
:104DC00060E070E0CB010C94DA2660E070E0CB018B
:104DD0000E94D4260C94E0266AEE7EEF90E080E0FC
:104DE0000E94013160E082E090E00E94E33060E0E8
:104DF00083E090E00E94E3301092E4041092E50416
:104E00001092E6041092E70460E084E090E00E94D3
:104E1000E33060E082E290E00E94E33060E085E011
:104E200090E00E94E33060E086E090E00E94E33092
:104E30006FEF87E090E00E94E33040E050E0BA017D
:104E400088E090E00E94F53060E08DE090E00E9404
:104E5000E33040E050E0BA0188E190E00E94F53094
:104E600060E087E190E00E94E33040E050E0BA016A
:104E70008CE190E00E94F53070E060E080E290E02C
:104E80000E94013140E050E0BA0188E190E00E94C8
:104E9000F5300C94E5260C94EC26682F8EE090E01B
:104EA0000C94E330FC01329680911E02882321F09D
:104EB000809131059EE187FF96E080E0915008F4F3
:104EC000089521912223D1F38F5FF8CF662301F15A
:104ED00020911E022223F1F02091310527FF1AC0F4
:104EE000462F4695469546954E3190F4677021E0E1
:104EF00030E002C0220F331F6A95E2F7840F911D44
:104F0000FC01828190E02823392381E0232B69F47E
:104F100080E00895FC01329608962191261721F031
:104F2000E817F907D1F7F4CF81E008959C01FC015F
:104F300032969FEF80E04191461751F09F3F19F460
:104F4000411101C0982F8F5F8630A9F79F3F09F468
:104F50000895290F311D97FD3A95F901628308954F
:104F6000FC01329608962191261303C0DF011197A8
:104F70001C92E817F907B9F70895E62FE695E6952C
:104F8000E695EE3168F4E80FF92FF11D677021E026
:104F900030E001C0220F6A95EAF78281822B82837A
:104FA0000895E62FE695E695E695EE3170F4E80F64
:104FB000F92FF11D677021E030E001C0220F6A95E2
:104FC000EAF72095828128232283089520911E02EA
:104FD000222329F02091310527FD0C94BD270C9444
:104FE000962720911E02222329F02091310527FDCA
:104FF0000C94D1270C94B027FC01329680911E02AC
:10500000882351F08091310587FF06C08EE1DF01D2
:105010001D928A95E9F7089586E0F9CF08950895DD
:1050200080911607843061F10E94AA0280E00E94FC
:10503000870381E00E94051610920E0588E190E03A
:1050400020E40FB6F894A895809360000FBE2093DB
:10505000600083B7817F846083BF83B7816083BF33
:105060007894889583B78E7F83BF0FB6F894A89500
:1050700080916000886180936000109260000FBE94
:1050800008950895CF930E940E280E9433060E942F
:105090004128C0E08C2F0E94BC05892B31F4CF5FE2
:1050A000C530C1F780E0CF91089581E0FCCF08952D
:1050B0000E94C6200E94251C0E94870380E00E9457
:1050C00005160C94AF021F921FB61F9211248F93E6
:1050D0009F93AF93BF9380910E05811113C0809170
:1050E0000E0790910F07A0911007B09111074196FC
:1050F000A11DB11D80930E0790930F07A093100779
:10510000B0931107BF91AF919F918F911F901FBED8
:105110001F90189582E084BD93E095BD9AEF97BDEE
:1051200080936E0008952FB7F89480910E079091A8
:105130000F07A0911007B09111072FBF08952FB747
:10514000F89460910E0770910F078091100790916D
:1051500011072FBF08959C014FB7F89480910E0757
:1051600090910F07A0911007B09111074FBF821BBC
:10517000930B0895CF92DF92EF92FF922FB7F8949E
:10518000C0900E07D0900F07E0901007F090110725
:105190002FBFA7019601261B370B480B590BCA01DD
:1051A000B901FF90EF90DF90CF90089578941F920F
:1051B0001FB61F9211248F939F93AF93BF9380913B
:1051C0000E0790910F07A0911007B091110701965B
:1051D000A11DB11D80930E0790930F07A093100798
:1051E000B0931107BF91AF919F918F911F901FBEF8
:1051F0001F90189581E08093E00080E28093D800B2
:105200001092C9008FE19EE40197F1F700C0000001
:1052100087E090EBDC0180931F0790932007A09319
:105220002107B093220788E19CE00FB6F894A89577
:10523000809360000FBE90936000FFCF9093A10316
:105240008093A003089580912F050895CF93DF9355
:1052500000D00F92CDB7DEB790911607943019F5B4
:1052600089837B836A8382E08093E9008FEF90914A
:10527000E800815095FD06C095ED9A95F1F7000084
:105280008111F5CF8091E80085FF0DC050E040E02E
:1052900063E070E0CE0101960E94502B8091E800FF
:1052A0008E778093E8000F900F900F90DF91CF9151
:1052B0000895BC0184E00C942629BC0183E00C9481
:1052C00026299C0182E08093E9009FEF8091E8000D
:1052D000915085FD06C085ED8A95F1F7000091118A
:1052E000F5CF8091E80085FF0CC050E040E066E01B
:1052F00070E0C9010E94502B8091E8008E77809366
:10530000E8000895CF93DF93EC0180911E0288237B
:10531000B1F18091310587FF32C060E282E0809375
:10532000E9008FEF9091E800815095FD06C095ED62
:105330009A95F1F700008111F5CF8091E80085FF83
:105340001BC080911E0270E050E040E0811104C05B
:1053500050E040E068E070E0CE010E94502B809168
:10536000E8008E778093E80080E2FE01AFE0B5E0D0
:1053700001900D928A95E1F7DF91CF91089568E051
:1053800081E0CDCF80911507811109C00E94E02CEA
:105390000E943D2D8091E20084608093E200089598
:1053A00010921507089508950895089542E061EC5C
:1053B00081E00E945C2C42E261EC82E00C945C2C67
:1053C00080911807833009F45FC030F48130C1F157
:1053D000823009F49BC008958A3009F487C08B306D
:1053E00009F46DC0893009F04EC0809117078132F1
:1053F00009F049C080911B0790911C07029708F0A3
:1054000042C08091E800877F8093E8008091E800A7
:1054100082FF35C09091F3008091F200029729F449
:105420008091F1008B7F813021F48091F100809395
:105430002F058091E8008B778093E8000C94902CE6
:1054400080911707813AF9F48091E800877F809373
:10545000E80080911B0790911C07892B61F460E2A2
:105460008FE095E070E00E949F2B8091E8008B77A1
:105470008093E800089560E090E080E0F3CF8091B1
:1054800016078111C3CF089580911707813AD9F784
:1054900080911B0790911C07892BA9F78091E80048
:1054A000877F8093E8008091E80080FFFCCF8091A7
:1054B0001E028093F1008091E8008E77BDCF80912D
:1054C0001707813201F780911B0790911C07892BE8
:1054D000D1F68091E800877F8093E8000E94902CAD
:1054E0008091190780931E020C94C62080911707A3
:1054F000813249F68091E800877F8093E8000E941E
:10550000902C80911A078093300508958091170799
:10551000813A09F0B8CF8091E800877F8093E80056
:105520008091E80080FFFCCF80913005C2CF84B726
:10553000877F84BF0FB6F894A8958091600088613A
:1055400080936000109260000FBE80E890E00FB67C
:10555000F89480936100909361000FBE0E94B31C89
:105560000E94E02C0E943D2D8091E2008460809397
:10557000E20078940E94C62F0E94C71C84E192E04A
:105580000E94201C80911607853099F00E94CD1C46
:105590000E94C31CF7CF0E94102880911407882313
:1055A00041F00E944228882321F00E943A2B0E9459
:1055B000C62080911607853071F30E945828E6CFE7
:1055C0000C94E22A292F33272330310519F168F48E
:1055D0002130310509F444C02230310509F445C0B9
:1055E00090E080E030E020E025C02132310549F133
:1055F00022323105A9F780E490E021E834E061151A
:105600007105C1F086EB90E02BEC33E06130710561
:1056100089F0E6CF99278130910581F0009729F034
:105620000297F1F6E0E5F3E002C0EAE7F3E08491E7
:1056300090E09F01FA01318320830895EAE6F3E0C8
:10564000F6CF89E090E020E933E06115710591F330
:1056500089E090E029EA33E06130710559F3C0CF69
:1056600082E190E029EB33E0E5CF8BE390E02EE799
:1056700033E0E0CF80E189BD82E189BD09B400FE5D
:10568000FDCF8091D8008F7D8093D8008091E0007D
:1056900082608093E0008091E00081FDFCCF08955E
:1056A000AF92BF92CF92DF92FF920F931F93CF934F
:1056B000DF936C01EB018A010E94AF2CF82E81115F
:1056C00023C00115110539F0F80180819181C81BB3
:1056D000D90BC80ED91EB12CA12C2097A9F080910E
:1056E000E80085FD22C08091E8008E778093E80075
:1056F00001151105A1F0F80180819181A80EB91E54
:10570000B182A08285E0F82E8F2DDF91CF911F917D
:105710000F91FF90DF90CF90BF90AF9008950E94BF
:10572000AF2C8823D1F2F82EEFCFF60181916F01D3
:105730008093F1002197FFEFAF1ABF0ACECFFC0193
:1057400080911D0790911E0786179707A0F061159D
:10575000710529F49091E8009E779093E80090E01D
:105760006115710551F4911108C08091E80082FF24
:1057700034C080E00895BC01F2CF809116078823E1
:10578000C1F18530C1F18091E80083FD30C0809186
:10579000E80082FDEACF8091E80080FFE1CF8091B0
:1057A000F3002091F200382F6115710519F02830AF
:1057B000310558F091E02830310509F090E0209152
:1057C000E8002E772093E800CBCF81918093F10001
:1057D000615071092F5F3F4FE7CF809116078823F3
:1057E00041F0853041F08091E80083FFBECF81E039
:1057F000089582E0089583E00895FC0180911D07DB
:1058000090911E0786179707A0F06115710529F47E
:105810008091E8008E778093E80090E06115710533
:1058200051F4911108C08091E80082FF35C080E0FA
:105830000895BC01F2CF809116078823C9F1853005
:10584000C9F18091E80083FD31C08091E80082FDBC
:10585000EACF8091E80080FFE1CF8091F3002091B2
:10586000F200382F6115710519F02830310558F014
:1058700091E02830310509F090E08091E8008E77C2
:105880008093E800CBCF84918093F10031966150F2
:1058900071092F5F3F4FE6CF80911607882341F0B3
:1058A000853041F08091E80083FFBDCF81E008950D
:1058B00082E0089583E00895982F973028F08F7044
:1058C0008093E90081E008959093E900242F762FDA
:1058D00050E0981731F07091EC002091ED0050915C
:1058E000F00021FD02C09F5FE8CF3091EB003E7FCA
:1058F0003093EB003091ED003D7F3093ED0030911F
:10590000EB0031603093EB007093EC002093ED00DE
:105910005093F0002091EE0027FDE5CF80E0089540
:105920008091170787FF13C08091E80082FF06C0AF
:105930008091E8008B778093E80004C0809116077F
:105940008111F2CF0895809116078823D9F38091B1
:10595000E80080FFF8CF8091E8008E77ECCF2091AF
:10596000E4003091E50095E6A9012091EC00822F3A
:10597000817020FF06C08091E80080FF06C080E0B3
:1059800008952091E80022FD1AC08091160788230F
:1059900089F0853089F08091EB0085FD0FC0209162
:1059A000E4003091E50042175307F9F29150E1F617
:1059B00084E0089582E0089583E0089581E00895E9
:1059C0000E944E2D0E94562DE0EEF0E08081816015
:1059D0008083E8EDF0E080818F77808319BCA7EDAC
:1059E000B0E08C918E7F8C9380818F7E808310922B
:1059F000150708950F931F93CF93DF930E944E2DA9
:105A00000E94562DC8EDD0E088818F7788838881E9
:105A10008068888388818F7D888319BC10921607DF
:105A200010921207109214071092130700EE10E064
:105A3000F80180818B7F808388818160888342E048
:105A400060E080E00E945C2CE1EEF0E080818E7FDF
:105A50008083E2EEF0E080818160808380818860D5
:105A60008083F80180818E7F808388818061888334
:105A7000DF91CF911F910F910895E8EDF0E08081C3
:105A80008F7E8083E7EDF0E080818160808384E019
:105A900082BF81E0809315070C94FA2CE8EDF0E0CA
:105AA00080818E7F80831092E20008951092DA0048
:105AB0001092E10008951F920F920FB60F921124D9
:105AC0002F933F934F935F936F937F938F939F9306
:105AD000AF93BF93EF93FF938091E10082FF0BC0E0
