:100000000C9420030C9467030C9467030C9467030F
:100010000C9467030C9467030C9467030C946703B8
:100020000C9467030C9467030C942C130C94E31743
:100030000C942D2D0C9467030C9467030C946703A8
:100040000C9467030C9467030C9467030C94670388
:100050000C9467030C9403140C9467030C946703CB
:100060000C9467030C9467030C9467030C94670368
:100070000C9467030C9467030C9467030C94670358
:100080000C9467030C9467030C9467030C94670348
:100090000C9467030C9467030C9467030C94670338
:1000A0000C9467030C9467030C9467030501090221
:1000B000A10185020901A1000509190129081500FE
:1000C0002501950875018102050109300931158165
:1000D000257F95027508810609381581257F9501D0
:1000E00075088106050C0A38021581257F95017572
:1000F000088106C0C005010980A101850319012AF4
:10010000B700150126B700950175108100C0050CD8
:100110000901A101850419012AA002150126A002E6
:10012000950175108100C005010906A1018505052D
:100130000719E029E71500250195087501810205D9
:1001400007190029EF1500250195F07501810205B9
:10015000081901290595057501910295017503910D
:1001600001C00660FF0961A1010962150026FF00B8
:100170009520750881020963150026FF00952075FA
:10018000089102C005010906A101050719E029E748
:1001900015002501950875018102950175088101F9
:1001A0000507190029FF150026FF0095067508812F
:1001B000000508190129059505750191029501753C
:1001C000039101C0000101010101010101010202CD
:1001D00002020202020202030303030303030304F5
:1001E00004040404040405050505050606060606C0
:1001F000070707070708080808090909090A0A0A7A
:100200000B0B0B0C0C0C0D0D0D0E0E0E0F0F0F101B
:1002100010111111121213131414151516161717A5
:10022000181819191A1A1B1B1C1D1D1E1E1F202011
:10023000212222232424252626272829292A2B2C5B
:100240002D2D2E2F30313232333435363738393A7E
:100250003B3C3D3E3F404142434445464748494A76
:100260004C4D4E4F50515354555658595A5B5D5E44
:100270005F616264656668696B6C6D6F70727375DF
:1002800077787A7B7D7E8082838587888A8C8E8F43
:1002900091939596989A9C9EA0A2A3A5A7A9ABAD71
:1002A000AFB1B3B5B7BABCBEC0C2C4C6C9CBCDCF5F
:1002B000D1D4D6D8DBDDDFE2E4E7E9EBEEF0F3F50D
:1002C000F8FAFDFF165C1E001F002000210022002E
:1002D000230024002500260027002D002E003100D9
:1002E0002B0014001A000800150017001C0018004D
:1002F0000C00120013002F0030002A0039610400A6
:100300001600070009000A000B000D000E000F0088
:10031000330034004C002800E1001D001B000600E3
:100320001900050011001000360037003800E50004
:1003300000000251E000E300E200000000002C0099
:100340000000000000000000E60001510000E40091
:1003500035003A003B003C003D003E003F004000BD
:10036000410042004300440045000100010001003B
:100370005200010001000100B2000100490001002B
:10038000460047004800005C0100500051004F004B
:100390000100010001000100010001004A004B00C2
:1003A00001000100AC00AA00A900A80001000100A2
:1003B000145C010001004D004E00AB000000010084
:1003C0000100010001000000000001000000000029
:1003D00000000000010001000000010001003A00DF
:1003E0003B003C003D003E003F0040004100420019
:1003F0004300440045004C000100C25C0100C55CA4
:10040000C65CC75CC85CC95CCA5CC35C0100010017
:100410000100005C01000100010001000100010079
:1004200001000100CB5CCC5C010001000100010077
:1004300001000100010001000100010001000100B4
:1004400001000100010001000000010001000100A5
:10045000010000000000010000000000000000009A
:100460000100010000000100010001000100010085
:100470000100010001000100010001000100010074
:100480000100010001000100010001000100010064
:100490000100010001000100010001000100010054
:1004A0000100010001000100010001000100010044
:1004B0000100010001000100010001000100010034
:1004C0000100010001000100010001000100010024
:1004D0000100010000000100010001000100000016
:1004E0000000010000000000000000000100010009
:1004F00000000100000000000000000000000000FB
:1005000000000000000000000000000000000000EB
:1005100000000000000000007E0F00D4FFFFFFC7B6
:100520000000007800000000000000002A2B2800D6
:100530000000000000000000000000000000002992
:10054000000000002C1E3420212224342627252ED2
:10055000362D3738271E1F2021222324252633330A
:10056000362E37381F0405060708090A0B0C0D0E36
:100570000F101112131415161718191A1B1C1D2F02
:100580003130232D350405060708090A0B0C0D0E22
:100590000F101112131415161718191A1B1C1D2FE2
:1005A0003130354C09025B00030100A0FA09040058
:1005B000000103010100092111010001224000078F
:1005C00005810308000A0904010002030000000974
:1005D00021110100012222000705820320000107EA
:1005E00005030320000109040200010300000009C3
:1005F000211101000122B6000705840320000A1220
:10060000011001000000085A4421130200010200F9
:1006100001180344005A00360030005200470042DF
:10062000005F0057004B004C0000000E0344005ACE
:100630000054004500430048000000040309040082
:1006400011241FBECFEFDAE0DEBFCDBF04B603FE3C
:1006500027C08091E2069091E306A091E406B09154
:10066000E5068730904BA740B04BD1F41092E206DC
:100670001092E3061092E4061092E50614BE84B7C9
:10068000877F84BF0FB6F894A89580916000886139
:1006900080936000109260000FBEE0E0F8E30995DF
:1006A00026E0ACE6B3E001C01D92A23EB207E1F73E
:1006B00013E0A0E0B1E0EEE5FFE502C005900D9289
:1006C000AC36B107D9F70E9457230C945B2F0C94DA
:1006D0000000E8EDF0E080818E7F80831092E200E0
:1006E0001092DA001092E100A0EEB0E08C918160EF
:1006F0008C9380818F77808319BCA7EDB0E08C91BB
:100700008E7F8C9380818F7E80831092B1040895B8
:100710002091E4003091E50095E6A9012091EC00DC
:10072000822F817020FF06C08091E80080FF06C004
:1007300080E008952091E80022FD1AC08091D6043F
:10074000882389F0853089F08091EB0085FD0FC00A
:100750002091E4003091E50042175307F9F29150DF
:10076000E1F684E0089582E0089583E0089581E051
:100770000895EF92FF920F931F93CF937C018B010B
:100780000E948803C82F811117C08091E80085FD61
:100790000BC08091E8008E778093E8000E94880368
:1007A000882399F3C82F08C0F70181917F018093B6
:1007B000F1000150110949F78C2FCF911F910F9132
:1007C000FF90EF9008958091D80487FF13C0809127
:1007D000E80082FF06C08091E8008B778093E800F4
:1007E00004C08091D6048111F2CF08958091D6047F
:1007F0008823D9F38091E80080FFF8CF8091E8004A
:100800008E77ECCF982F9093E900242F762F50E02D
:10081000891731F07091EC002091ED005091F000BB
:1008200021FD07C09F5F973071F78093E90081E059
:1008300008953091EB003E7F3093EB003091ED0056
:100840003D7F3093ED003091EB0031603093EB0051
:100850007093EC002093ED005093F0002091EE0097
:1008600027FDE0CF80E00895CF92DF92EF92FF92D4
:100870000F931F93CF93DF93C8EDD0E088818F7ED5
:100880008883E7EDF0E080818160808384E082BF2F
:1008900081E08093B10488818E7F888302EE10E02E
:1008A000F80110821092DA0081EEC82ED12CF601E8
:1008B000108288818F778883888180688883888187
:1008C0008F7D888319BC1092D6041092D7041092A1
:1008D000D5041092D40490EEE92EF12CF70180811A
:1008E0008B7F808388818160888342E060E080E044
:1008F0000E940204F60180818E7F8083F80180814E
:1009000081608083808188608083F70180818E7F11
:100910008083888180618883DF91CF911F910F91BF
:10092000FF90EF90DF90CF900895FC018091DE045E
:100930009091DF0486179707A0F06115710529F4DF
:100940009091E8009E779093E80090E06115710522
:1009500051F4911108C08091E80082FF34C080E01A
:100960000895BC01F2CF8091D6048823C1F185306F
:10097000C1F18091E80083FD30C08091E80082FDE4
:10098000EACF8091E80080FFE1CF8091F3002091D1
:10099000F200382F6115710519F02830310558F033
:1009A00091E02830310509F090E02091E8002E77A1
:1009B0002093E800CBCF81918093F10061507109C1
:1009C0002F5F3F4FE7CF8091D604882341F08530D9
:1009D00041F08091E80083FFBECF81E0089582E07E
:1009E000089583E0089522E8241B08F420E0620FB4
:1009F00008954095282F429F412D1124842F08955A
:100A0000E42FF0E0EE0FFF1FEF54FD4F9081921B9B
:100A100097FD9195292F38E1239F212D1124620FF5
:100A200008950F931F9310E0F801EE0FFF1FEF548E
:100A3000FD4F9081905797FD9195000F111FF80180
:100A4000EE54FD4F00810052110B2003F001219F55
:100A5000F00D112408E310E0091B110997FD13950F
:100A600040039001419F300D1124E20FF31F9F01BD
:100A7000220F331F2E0F3F1F37FF02C021583F4F59
:100A8000220F232F221F330B620F1F910F91089506
:100A90000F931F93522F10E0F801EE0FFF1FEE543B
:100AA000FD4FA081A052BB0B9D015203F001539F4B
:100AB000F00D1124000F111FD801AF54BD4F0C9140
:100AC0000057110B40039001419F300D11242E0F50
:100AD0003F1F37FF02C0215C3F4F96E035952795B9
:100AE0009A95E1F7620F1F910F9108950F931F934D
:100AF000522F10E0F801EE0FFF1FEE54FD4FA081C2
:100B0000A052BB0B9D015203F001539FF00D112425
:100B1000000F111FD801AF54BD4F0C910057110B9E
:100B200040039001419F300D11242E0F3F1F37FFCE
:100B300002C021583F4F220F232F221F330B620F79
:100B40001F910F910895EF920F93972F23E0029F2B
:100B5000B0011124759567956E0D792F0F91EF9067
:100B60000895322F50E0FA01EE0FFF1FEE54FD4FB3
:100B70009081905297FD9195440F551FFA01EF54C3
:100B8000FD4F2081231B330B290F311D97FD3A9513
:100B9000620F0895E42FF0E0EE0FFF1FEE54FD4FBB
:100BA0006081621B0895E42FF0E0EE0FFF1FEF5409
:100BB000FD4F6081621B0895622F0895E42FF0E0DD
:100BC000EE0FFF1FEF54FD4F408134EE439F412D48
:100BD0001124E82FF0E050E0445E5F4FDA01A21BE1
:100BE000B1099D01B7FF03C031952195310993E00B
:100BF000220F331F9A95E1F7AF01421B530B9A0165
:100C000057FD20E0582F259F212D1124822F089574
:100C100080E008958091B30408959C014FB7F89443
:100C20008091AD049091AE04A091AF04B091B00456
:100C30004FBF821B930B0895209110012223C9F00E
:100C40002091050427FF15C0E62FE695E695E69569
:100C5000EE31D8F4E80FF92FF11D677021E030E094
:100C600001C0220F6A95EAF720958281282322830A
:100C70000895FC01329608962191621303C0DF01AA
:100C800011971C92E817F907B9F708952091100100
:100C90002223C1F02091050427FF14C0E62FE6951A
:100CA000E695E695EE31F8F4E80FF92FF11D67703F
:100CB00021E030E001C0220F6A95EAF78281822BA1
:100CC00082830895FC0132962FEF30E04191641742
:100CD00051F02F3F19F4411101C0232F3F5F3630EF
:100CE000A9F72F3F09F40895820F911D27FD9A95CA
:100CF000FC01628308958091000481111092000428
:100D000008958091FF039091FE03892B9091FD033C
:100D1000892B80936E03909100049923A1F0892B75
:100D200080936E0380911001882341F18091050426
:100D300087FF24C08EE1E0E7F3E090E0815000F50A
:100D400091110E947B06E0918804F091890430970C
:100D5000E1F080911001882359F08091050487FF0C
:100D600007C080916E0380936F0385E080936E03CC
:100D70000280F381E02D8EE693E0099486E0DBCFDC
:100D800021912223D9F29F5FD9CF08952EE0929F1F
:100D9000800D1124982F977086958695869525E06D
:100DA000829FF0011124E153FC4F50E040E080E0CD
:100DB000219130E0092E02C0369527950A94E2F77A
:100DC00021703327042E01C0220F0A94EAF7822BE8
:100DD0004F5F5F4F4530510559F708952EE0929FC0
:100DE000800D1124982F977041E001C0440F9A950F
:100DF000EAF786958695869595E0899FF0011124FE
:100E0000E153FC4F90E080E070E05191DF011197D9
:100E10009B01082E02C0369527950A94E2F72170AF
:100E200021952527242325272C930196853091058C
:100E300061F708958091CE0390919D03981301C0AE
:100E400008958F5F8770FACF882341F08095909145
:100E5000FF0389238093FF030C9481060895882360
:100E600039F09091FF03982B9093FF030C94810627
:100E7000089520919303309194032817390771F056
:100E80009093940380939303E0918804F0918904F4
:100E9000309721F00084F185E02D09940895209188
:100EA0009103309192032817390771F090939203C0
:100EB00080939103E0918804F0918904309721F0A8
:100EC0000680F781E02D09940895E0918804F0915F
:100ED0008904309721F00190F081E02D099480E0A1
:100EE0000895FA01811101C0FB010994CF93DF93AA
:100EF0008E33910520F5880F991F880F991FFC01EB
:100F0000E05EFE4FA281338180818370C181E82F32
:100F1000F0E050EC859FC00111248E5E9A4FC80FFF
:100F2000D92FD11D6883A80FB92FB11D4C93830F02
:100F3000911DDC012C93EE56F94F81E08083DF9107
:100F4000CF910895FF920F931F93CF93DF93182FA4
:100F5000062FF42ED0E0C0E02F2D402F612FCE01C0
:100F60000E9476072196CE33D105B1F7DF91CF915C
:100F70001F910F91FF9008950C94A2070C9476078F
:100F8000FC019B01009729F480E077FF2BC080E8EB
:100F90000895AC0197FF04C044275527481B590BFF
:100FA000B901640F751F37FD10C0241B350BC90133
:100FB000A5E0880F991FAA95E1F70E94202E80E2F4
:100FC000861BF7FF0FC081950895CB0165E0880F60
:100FD000991F6A95E1F7BA01621B730B0E94202EDC
:100FE00080E6EECF0895EF920F93CF93DF93D72F44
:100FF000C82FC9010E19BA010E94C007602F681BD3
:101000007D2F8C2FDF91CF910F91EF9008950F934B
:10101000CF93DF93D72FC82FC901BA010E94C00711
:10102000682F600F7D2F8C2FDF91CF910F91089546
:10103000EF920F931F93CF93DF93D62FC72F182FC5
:10104000C9010E19010FBA010E94C007081B202F09
:10105000219F212D1124822F6D2F7C2FDF91CF9185
:101060001F910F91EF9008950F931F93CF93DF93EC
:10107000D62FC72F182FC901212F201B022FBA01ED
:101080000E94C007982F990F990F891B800F282F56
:10109000219F212D1124822F6D2F7C2FDF91CF9145
:1010A0001F910F910895E82F86FDE0952E2F2F7048
:1010B00086FD2F5FE695E695E695E670F0E0E85E42
:1010C000FE4F9181929F902D212D112492959F701A
:1010D0002295207F922B2081920F87FD919580E8A9
:1010E000890F08950F931F93CF93DF938B01D82F10
:1010F000C42F822F0E945308EC2FF0E0EE0FFF1F49
:10110000EF54FD4F90819058890F87FD8195880F8E
:10111000682F2CE0629F612D1124600F712F8D2F9D
:10112000DF91CF911F910F910895AC01823091050D
:1011300008F408959FEF413E8EE1580740F49A016C
:1011400095E0369527959A95E1F798E0920F61E042
:10115000E62FE90FFF27FF1F9F0135952795822F67
:10116000229FF001239FF00DF00D11244E175F0711
:1011700038F49FEF920F961758F78FEF860F089568
:101180002F3FE9F361E0620FF6CF0F93CF93DF9328
:10119000D72FC82F47FD419588E390E0841B910924
:1011A00047FD9395889FB001899F700D700D1124A4
:1011B000229FC001239F900D900D1124860F971F31
:1011C0000E949508982F990F890F682F600F7D2F27
:1011D0008C2FDF91CF910F91089530E020E0869F12
:1011E000212D969F200D311D1124C9010895AF9224
:1011F000BF92CF92DF92FF920F931F93CF93DF9313
:10120000362F472FE82FF0E0EC53FE4F71110FC03F
:10121000E4918E2F2E2F6E2F722FDF91CF911F9181
:101220000F91FF90DF90CF90BF90AF900895C72FA0
:10123000D0E02491F22E022F10E056E0659FC0010D
:101240001124EFEFF0E0BF010E940C2E832F90E0FD
:10125000880F991F35E5369FD001379FB00D1124B7
:101260008A1B9B0B982F990F980F6F01CC1ADD0AE0
:10127000C09ED001C19EB00DD09EB00D11248B2F09
:10128000499FA0011124452F55276F01C41AD50A83
:10129000C09EA001C19E500DD09E500D11245F0133
:1012A000A91AB108AC9E6001AD9ED00CBC9ED00CBA
:1012B0001124CD2CDD24EC19FD09E09FE001E19F14
:1012C000D00DF09FD00D1124ED2F62307105A1F0EB
:1012D00050F46115710509F49ECF6130710581F0FC
:1012E000EB2F852F98CF6430710569F080F0663060
:1012F000710509F490CFF4CFE22F2B2F8D2F8BCFD8
:10130000E22F252F88CFEB2F822F2D2F84CF2B2F4D
:101310008F2DE52F80CF7F928F929F92AF92BF92B9
:10132000CF92DF92EF92FF920F931F93CF93DF93B1
:101330005C01C09111018DE0C89FC02D11241DE0FA
:101340001C0FF12E1F3310F03EE3F32E6091DC06EC
:1013500066958091D1069091D2060E94ED08782E74
:10136000D0E0CF1590F081E01E3308F080E0DF91EF
:10137000CF911F910F91FF90EF90DF90CF90BF9092
:10138000AF909F908F907F900895FE01E35DFC4F9A
:101390008081909112018923C9F1CE01880F991F94
:1013A00085599D4FFC01EA5BFF4F2081422F40573A
:1013B000550B6A01895B9F4FFC018081282F2052C9
:1013C000330B4901449F9001459F300D300D11248E
:1013D000889CC001899C900D900D1124820F931F51
:1013E0000E949508082F6091D9067091DA068091C5
:1013F000DB06E72C9401A601F50109950E94F70888
:10140000462F282F672FCE010E94BE072196A9CF15
:10141000CF92DF92EF92FF920F931F93CF93DF93C0
:101420007C01C09111018DE0C89FC02D11241DE0E9
:101430001C0FD12E1F3310F03EE3D32E6091DC063B
:1014400066958091D1069091D2060E94ED08C82E33
:10145000D0E0CD1568F081E01E3308F080E0DF9128
:10146000CF911F910F91FF90EF90DF90CF90089553
:10147000FE01E35DFC4F808190911201892311F1FF
:10148000CE01880F991F85599D4FFC01E95BFF4FE5
:1014900020812052330B8A5B9F4FFC0140814057D3
:1014A000550B6091D9067091DA068091DB060C2D00
:1014B000F70109950E94F708462F282F672FCE01C4
:1014C0000E94BE072196C5CFDF92EF92FF920F9345
:1014D0001F93CF93DF937C01C09111018DE0C89FD2
:1014E000C02D11241DE01C0F012F1F3308F00EE347
:1014F0006091DC066695669521E0620F08F46FEF57
:101500008091D1069091D2060E94ED08D82ED0E0AD
:10151000C01760F081E01E3308F080E0DF91CF91CA
:101520001F910F91FF90EF90DF900895FE01E35D12
:10153000FC4F808190911201892391F06091D9062E
:101540007091DA068091DB062D2D4C2FF70109955D
:101550000E94F708462F282F672FCE010E94BE0752
:101560002196D6CF9F92AF92BF92CF92DF92EF9209
:10157000FF920F931F93CF93DF936C01C0911101E2
:101580008DE0C89FC02D11241DE01C0FB12E1F330C
:1015900010F03EE3B32E6091DC066695669580916F
:1015A000D1069091D2060E94ED08F82E80E48F0DAE
:1015B0000E94530890E8A92EA80E8F2D0E94530870
:1015C00020E8922E980ED0E0CB1580F081E01E33FB
:1015D00008F080E0DF91CF911F910F91FF90EF9085
:1015E000DF90CF90BF90AF909F900895FE01E35D94
:1015F000FC4F8081909112018923A1F06091D9065E
:101600007091DA068091DB06EF2C0C2F292D4A2DE4
:10161000F60109950E94F708462F282F672FCE0163
:101620000E94BE072196D0CFCF92DF92EF92FF9219
:101630000F931F93CF93DF938C01C09111018DE025
:10164000C89FC02D11242DE0D22EDC0ECD2C2EE310
:101650002D1510F49EE3C92E2091DC0631E0230FF6
:1016600008F42FEF30E050E040E06FEF7FEF80E0D4
:1016700090E00E94F82E7901D0E02C2FCC1570F06C
:1016800081E0FDE3FD1508F480E0DF91CF911F912B
:101690000F91FF90EF90DF90CF900895FE01E35DF2
:1016A000FC4F808190911201892311F14091A8068D
:1016B0004150042E000C550B47FF1CC0C701609120
:1016C000DC0621E0620F08F46FEF0E94ED08AC0128
:1016D0006091D9067091DA068091DB06F8010995D0
:1016E0000E94F708462F282F672FCE010E94BE07C1
:1016F0002196C3CFFA01E855F94F818982130AC0B8
:10170000FA01EE0FFF1FE855F94F818D928D8E156E
:101710009F05A8F241505109CFCF40919304803FDB
:1017200059F48091940487FF0DC0109294044111E4
:101730000BC010928E0408C0813F81F48091940404
:1017400018169CF3442381F080919504909196049F
:10175000892B09F05AC010928B040895823F49F4F6
:1017600047FFF0CF10929304809194048111ECCF45
:10177000E0CF833F19F41416ACF3E4CF90919504B5
:10178000893F29F41916F4F610929504DBCF8A3FAD
:1017900019F497FFD7CFF8CF909196048B3F29F497
:1017A00097FFD0CF10929604CDCF8C3F19F4191625
:1017B000CCF3C8CF9CE0980F953090F4845F990BE0
:1017C00021E030E0B90102C0660F771F8A95E2F789
:1017D000CB01809590919204892380939204B2CF9B
:1017E0008D3F31F4809196038E7F80939603AACF2C
:1017F0008E3F21F4809196038D7FF7CF8F3F09F0C4
:10180000A1CF809196038B7FF0CF089580919603AE
:1018100080FD16C081FD16C082FD16C080918B042C
:101820008823A1F0883280F428E0829FC00111242F
:1018300068E270E00E94202E862F672B39F0089511
:1018400082E0089584E0089588E0089581E0089595
:101850008091960380FD14C081FD14C082FD16C0E6
:1018600080918E04882381F0843180F422E3829F6A
:10187000C001112464E170E00E94202E862F08959B
:101880008CE0089589E1089585E0089582E3089544
:10189000803F31F40E94280C819580939404089530
:1018A000813F19F40E94280CF8CF823F31F40E9446
:1018B000280C8195809393040895833F19F40E9426
:1018C000280CF8CF893F29F40E94060C80939504D8
:1018D00008958A3F21F40E94060C8195F7CF8B3F33
:1018E00031F40E94060C81958093960408958C3FF4
:1018F00019F40E94060CF8CF9CE0980F953070F414
:10190000845F990B21E030E001C0220F8A95EAF74D
:1019100080919204822B8093920408958D3F31F43C
:101920008091960381608093960308958E3F21F401
:10193000809196038260F7CF8F3FB9F7809196032D
:101940008460F1CFF894E82FE295EF70F0E031A1D8
:10195000282F2F7081E090E001C0880F2A95EAF7C8
:10196000982F9095932391A392A1892B82A3789489
:1019700008959091050492FF06C0282F2871283001
:10198000F9F4877F846093FF06C0282F28712831DF
:10199000F1F4877E84612091060420FF06C0382F71
:1019A00038713830D9F4877F816021FF06C0282F35
:1019B00028712831D1F4877E816194FD877E089556
:1019C000282F24712430F9F68B7F8860DCCF282FF4
:1019D0002471243101F78B7E8861DDCF382F31717E
:1019E000313019F78E7F8860E0CF282F21712131A7
:1019F00021F78E7E8861E1CF8093940660939506EF
:101A000024E630E042E050E064E976E080EA0E94BB
:101A1000E52D21E0892B09F020E0822F0895FF9227
:101A20000F931F93CF93DF93C82F082F10E0005F11
:101A30001A4FF80180818823B9F065EC8EEF0E947F
:101A4000FC0C60E08DEF0E94FC0CF8E1CF9FE00100
:101A50001124C052DB4FF12C69918F2D0E94FC0C98
:101A6000F39488E1F812F8CFF8011082DF91CF915A
:101A70001F910F91FF900895CF92DF92EF92FF9206
:101A80000F931F93CF93DF93C82FC82ED12CC6017D
:101A90008E56994F7C01FC018081882369F165ECA9
:101AA0008EEF0E94FC0C61E08DEF0E94FC0CF0ECCC
:101AB000CF9FE0011124CE5EDA4F10E000E00093EA
:101AC0009406DE01A00FB11FE5E9F6E08D91819348
:101AD00086E0E53AF807D1F724E630E041E150E04E
:101AE00064E976E080EA0E94E52D892B81F4005FAD
:101AF0001F4F003C110519F7F7011082DF91CF91BC
:101B00001F910F91FF90EF90DF90CF900895F60115
:101B1000E05FFA4F81E08083EFCF80E00E943C0DD0
:101B200081E00C943C0DCF9384E090E00E94B62EAF
:101B3000C82F82E290E00E94B62E982F8C2FCF9172
:101B400008950F931F93CF93DF93C42FD0E0CC0F52
:101B5000DD1F2CE1629FC00DD11D11243CE8839F45
:101B6000C00DD11D1124CE0187960E94B62E082FDC
:101B700010E0102F0027CE0188960E94B62E980103
:101B8000282BC901DF91CF911F910F910895462F06
:101B9000843038F4753028F46E3018F4672F0C94C4
:101BA000A10D90E080E00895CF93DF930E94C70DD0
:101BB000EC0182389105A9F1D8F58133910509F43A
:101BC00096C048F58932910509F48AC08A9709F4CC
:101BD00095C0C11521E5D20708F0BCC0C11530E59C
:101BE000D30708F014C1C83ED10508F09CC0C03E20
:101BF000D10560F5C83AD10508F087C0C53AD105CE
:101C000008F0FDC0C130D10509F12097F9F0C430CA
:101C1000D105E0F440C08533910509F45AC0C99755
:101C2000C1F680910504837089F0C0EED0E00EC04B
:101C3000833E910599F170F4803E910501F1823E59
:101C4000910539F68091050482FD21C0CE01DF9116
:101C5000CF910895863E910561F1873E910571F11E
:101C6000843E910509F0B5CF8091060481FFEECF47
:101C700080910504C7EED0E084FD0DC0E7CF8091D0
:101C8000050480FD12C19091060490FFDFCFC3EEE2
:101C9000D0E084FFDBCFD0E0C0E0D8CF8091050456
:101CA00082FD06C19091060490FDBFCF84FFCECF88
:101CB000F2CF8091050483FDDDCFC8CF809105046C
:101CC00083FDF9C09091060491FFF0CFC4EED0E0FF
:101CD000BDCF8091050485FFB9CFC9E2D0E0B6CF72
:101CE0008091050485FFB2CFC5E3D0E0AFCF8091EE
:101CF000050486FFABCFCAE2D0E0A8CF80910504EF
:101D000086FFA4CFC1E3D0E0A1CFCF3BD10518F629
:101D1000C85AD0E0CC0FDD1FC55EDD4F0990D881D9
:101D2000C02DD46493CFC11540E2D40758F4C11537
:101D300081E0D80708F08ACFC03FD10508F4ABCFC7
:101D4000D06584CFC11590E4D90708F4A4CFDF7023
:101D5000D06A7CCFC11525E5D20700F5C11534E561
:101D6000D30708F08AC0C11543E5D40708F071C055
:101D7000C11582E5D80708F467C0CE0183709927A2
:101D800021E030E002C0220F331F8A95E2F7C695AA
:101D9000C69580E2C89FE001112452C0C11599E5A3
:101DA000D907A8F4C11528E5D20708F06BC0C11502
:101DB00036E5D30708F06FCF8C2F0E94B90CC82FDF
:101DC000D0E0DC2FCC27CC27DF71D0623FCFC1150C
:101DD0004AE5D40708F45BC0CE01905681159042C5
:101DE00008F059CF8D2F8F710E94B90C90E0982F79
:101DF000882788279F719C012C2BE901E6CFC55AC3
:101E0000D0E0C85EDD4FC881D0E0D0641FCFCE01E6
:101E1000E4E096958795EA95E1F783702C2F269557
:101E20002695237040E2249F90011124382B8C2F9B
:101E30008370C1E0D0E002C0CC0FDD1F8A95E2F7CD
:101E4000C22BD32BDC6802CFDC2FCC27C16FD06A2A
:101E5000FDCECE018370992721E030E002C0220F31
:101E6000331F8A95E2F7C695C69590E2C99FE001B7
:101E70001124C22BD32BDA68E9CEDC2FCC27C46F18
:101E8000D06AE4CEDC2FCC27C06FD06ADFCE8C2F97
:101E90008F700E94B90C34E0D695C7953A95E1F75A
:101EA000CF709C2FEC01D069D1CEC9E3D0E0CECE6B
:101EB000C2EED0E0CBCEC6EED0E0C8CEBF92CF927D
:101EC000DF92EF92FF920F931F93CF93DF938C01DA
:101ED000C090DE06D090DF06E090E006F090E106CC
:101EE0008091010490910204A0910304B091040434
:101EF000C82AD92AEA2AFB2ACFE1D0E0BC2ED70192
:101F0000C6010C2E04C0B695A795979587950A949F
:101F1000D2F780FD0EC0219788F7B12C8B2DDF9171
:101F2000CF911F910F91FF90EF90DF90CF90BF90D6
:101F30000895B8018C2F0E94D40D019761F3EECF64
:101F4000CF93DF93EC010E945E0FBE01DF91CF9132
:101F50000C94D40D0E94A00F292F2F7092959F7082
:101F600092509E3078F4E92FF0E0E35AF04D0C9453
:101F7000342E803F19F020F4883E20F481E008954B
:101F8000843FE1F380E00895883EC0F3813FD1F7BC
:101F9000F5CF822F86958695869508956F927F92CC
:101FA0008F929F92AF92BF92CF92DF92EF92FF9269
:101FB0000F931F93CF93DF9384ECC82E82E0D82E2B
:101FC0009FECE92EF12CE701CC58D10936011BC05A
:101FD000F50185909490692DC8010E94D42E682D3A
:101FE000C80101960E94D42E82E0A80EB11C0E5F9B
:101FF0001F4FC017D10761F78CE1680E711C6C96FA
:10200000CE15DF0529F08E010C5111095301E0CFE7
:102010007E018CE8E80EF11C8CE8C80ED11C8FEF15
:10202000E81682E0F80679F6DF91CF911F910F91C3
:10203000FF90EF90DF90CF90BF90AF909F908F90E8
:102040007F906F900895CF93C0910604C2FB9927AB
:1020500090F9981781F080FBC2F9C0930604609153
:10206000050484E090E00E94D42E6C2F82E290E080
:10207000CF910C94D42ECF910895CF93DF93C7E5E1
:10208000D2E060E0CE010E94D42E2196C11584E0FA
:10209000D807B9F7DF91CF9108951F93CF93DF93BE
:1020A000EC01FC01E35DFC4F80816823A1F00E94FC
:1020B0008D2E182F0E948D2E612F782F8091DB0698
:1020C0000E94F708462F282F672FCE01DF91CF916E
:1020D0001F910C94BE07DF91CF911F910895DF925D
:1020E000EF92FF920F931F93CF93DF938C01FC012C
:1020F000E35DFC4F8081682381F1D090DA06D091B6
:10210000DB06C091D906EC2EF12C0E948D2E282FD3
:10211000C7018C549F4F68E671E00E94202E8E19F3
:102120009F0997FD039695958795959587952370BB
:102130006C2F289F600D11247D2D8D2F0E94F70894
:10214000462F282F672FC801DF91CF911F910F9144
:10215000FF90EF90DF900C94BE07DF91CF911F911D
:102160000F91FF90EF90DF900895CF93DF9300D011
:102170000F92CDB7DEB79091D604943011F58983D4
:102180007B836A839093E9008FEF9091E800815000
:1021900095FD06C095ED9A95F1F700008111F5CFF8
:1021A0008091E80085FF0DC050E040E063E070E002
:1021B000CE0101960E94B9038091E8008E7780934A
:1021C000E8000F900F900F90DF91CF910895BC0120
:1021D00084E00C94B510BC0183E00C94B5109C0114
:1021E00084E08093E9009FEF8091E800915085FDA5
:1021F00006C085ED8A95F1F700009111F5CF809129
:10220000E80085FF0CC050E040E066E070E0C901E6
:102210000E94B9038091E8008E778093E8000895CA
:10222000CF93DF93EC01809110018823B1F180916D
:10223000050487FF32C060E284E08093E9008FEFFD
:102240009091E800815095FD06C095ED9A95F1F7C3
:1022500000008111F5CF8091E80085FF1BC08091BF
:10226000100170E050E040E0811104C050E040E017
:1022700068E070E0CE010E94B9038091E8008E779B
:102280008093E80080E2FE01A4EBB4E001900D929F
:102290008A95E1F7DF91CF91089568E081E0CDCF95
:1022A00081E08093E00080E28093D8001092C90022
:1022B0008FE19EE40197F1F700C0000087E090EB0A
:1022C000DC018093E2069093E306A093E406B093CA
:1022D000E50688E19CE00FB6F894A895809360002D
:1022E0000FBE90936000FFCF6AEE7EEF90E080E03B
:1022F0000E94F22E60E082E090E00E94D42E60E026
:1023000083E090E00E94D42E109201041092020407
:10231000109203041092040460E084E090E00E94B4
:10232000D42E60E082E290E00E94D42E60E085E04E
:1023300090E00E94D42E60E086E090E00E94D42ECF
:102340006FEF87E090E00E94D42E40E050E0BA01A9
:1023500088E090E00E94E62E60E08DE090E00E9430
:10236000D42E40E050E0BA0188E190E00E94E62ED1
:1023700060E087E190E00E94D42E40E050E0BA0196
:102380008CE190E00E94E62E70E060E080E290E058
:102390000E94F22E40E050E0BA0188E190E00E94F5
:1023A000E62E40E050E0BA018FE090E00E94E62E79
:1023B00040E050E0BA0183E190E00C94E62ECF9229
:1023C000DF92FF920F931F93CF93DF930E94542DC0
:1023D00065EC8EEF0E94FC0C60E08DEF0E94FC0C1F
:1023E000C0E060E08C2F0E94FC0CCF5FC831C9F7C1
:1023F00065EC8EEF0E94FC0C61E08DEF0E94FC0CFE
:10240000C0E060E08C2F0E94FC0CCF5FC03CC9F79D
:1024100065EC8EEF0E94FC0C63E08DEF0E94FC0CDB
:102420006FEF81E00E94FC0C61E080E00E94FC0CF8
:102430008FE39CE90197F1F700C00000E0E2F1E0D2
:1024400050E040E098E1F92EC1E0D0E001E01181D8
:1024500072816381DA01AA0FBB1FAA0FBB1FA05EA6
:10246000BE4F8C91837090E0A12FA695A695A6955E
:10247000F89E9001F99E300D112420523B4FA20F7F
:10248000B32FB11D17706E0101C0CC0C1A95EAF77D
:102490001C911C291C93A72FA695A695A695A20F63
:1024A000B32FB11D77706E0101C0CC0C7A95EAF79D
:1024B0007C917C297C93A62FA695A695A695A20F24
:1024C000B32FB11D67709E0102C0220F331F6A95A2
:1024D000E2F7B9012C91262B2C93805F9A4FDC01F7
:1024E0000C934F5F5F4F34964E33510509F0AFCFD9
:1024F00080E00E940F0D81E0DF91CF911F910F913D
:10250000FF90DF90CF900C940F0D46E050E06CE10F
:1025100070E088ED96E00C94C42E9091D8069370EC
:1025200089F0811107C094609093D806109214012D
:102530000C9485128B3110F09866F6CF880F880FB7
:10254000982BF2CF08958091D80686958695815074
:1025500009F48AE10C948D128091D80686958695AF
:102560008F5F8B3108F081E00C948D129091D8062A
:10257000937041F08093D9066093DA064093DB06AE
:102580000C9485120895E8EDF6E0438120E1421BAA
:1025900008F440E08181628190E00C94B612E8ED8D
:1025A000F6E0438120E1420F08F44FEF8181628120
:1025B00090E00C94B612E8EDF6E0628120E1621B37
:1025C00008F460E08181438190E00C94B612E8ED5C
:1025D000F6E0628120E1620F08F46FEF81814381B0
:1025E00090E00C94B612E8EDF6E0818143816281BF
:1025F0008850990B0C94B612E8EDF6E0818190E0DA
:102600004381628108960C94B612E8EDF6E02481CD
:1026100030E1230F08F42FEF24830C948512E8EDAA
:10262000F6E0248130E1231B08F420E024830C949D
:102630008512E8EDF6E085E28083809115019091A6
:102640001601A091170181839283A3838FE784836E
:102650008FEF85830C9485121F920F920FB60F9205
:1026600011242F933F934F935F936F937F938F9397
:102670009F93AF93BF93EF93FF938091E10082FF0D
:1026800009C08091E20082FF05C08091E1008B7F4C
:102690008093E1008091DA0080FF24C08091D8000F
:1026A00080FF20C08091DA008E7F8093DA008091D5
:1026B000D90080FF9BC080E189BD82E189BD09B45A
:1026C00000FEFDCF81E08093D6048091B10481119A
:1026D00009C00E9469030E9434048091E200846072
:1026E0008093E2008091E10080FF17C08091E200BA
:1026F00080FF13C08091E2008E7F8093E200809182
:10270000E20080618093E2008091D8008062809333
:10271000D80019BC85E08093D6048091E10084FF45
:1027200029C08091E20084FF25C080E189BD82E15B
:1027300089BD89B5982F917080FFFBCF8091D8001B
:102740008F7D8093D8008091E1008F7E8093E1009F
:102750008091E2008F7E8093E2008091E2008160B0
:102760008093E2008091D704882309F445C084E077
:102770008093D6048091E10083FF27C08091E2001E
:1027800083FF23C08091E100877F8093E10082E096
:102790008093D6041092D7048091E1008E7F8093BD
:1027A000E1008091E2008E7F8093E2008091E20060
:1027B00080618093E20042E060E080E00E940204D9
:1027C0008091F00088608093F000FF91EF91BF91BD
:1027D000AF919F918F917F916F915F914F913F91B9
:1027E0002F910F900FBE0F901F90189519BC10924B
:1027F000D6041092B10476CF8091E30087FD93E078
:102800009093D604B7CF78941F921FB61F921124CD
:102810008F939F93AF93BF938091AD049091AE043B
:10282000A091AF04B091B0040196A11DB11D809399
:10283000AD049093AE04A093AF04B093B004BF91E5
:10284000AF919F918F911F901FBE1F9018952FB72A
:10285000F8948091AD049091AE04A091AF04B09132
:10286000B0042FBF08950E9427149C0190919304F7
:1028700080919404982B21F03093900420938F043E
:102880009091950480919604982B21F030938D04BB
:1028900020938C04E0918804F0918904309749F0EA
:1028A00082E0809391040480F581E02D81E994E039
:1028B0000994089590E080E00E944F0790E080E046
:1028C0000E9439071092FE031092FD030E948106B8
:1028D00086E0E1E9F4E0DF011D928A95E9F71092C4
:1028E0008E0410928B04109296030C943314609310
:1028F000DE067093DF068093E0069093E1060C9469
:102900005A140F931F936091DE067091DF06809139
:10291000E0069091E1068B019C01067011272227A9
:102920003327063011052105310529F468601F9110
:102930000F910C947714677FFACF0F931F9341E0A8
:1029400050E060E070E004C0440F551F661F771F21
:102950008A95D2F7CB01BA016095709580959095D4
:102960000091DE061091DF062091E0063091E1062D
:1029700060237123822393231F910F910C9477146A
:102980009091FC03809589238093FC03282F277066
:1029900039F4282F082E000C330B9217130621F45C
:1029A0009091060492FF07C08595859585950E94B4
:1029B0009D141092FC0308950F931F9341E050E083
:1029C00060E070E004C0440F551F661F771F8A95B2
:1029D000D2F78091DE069091DF06A091E006B091DB
:1029E000E1068A019B01082B192B2A2B3B2BC901DD
:1029F000B8011F910F910C947714609301047093A8
:102A0000020480930304909304040C945A141092CB
:102A1000FF0380911001E0E7F3E0882359F08091F3
:102A2000050487FF07C08EE1DF011D928A95E9F753
:102A30000C945A1486E0F8CF1F93CF93DF93CDB751
:102A4000DEB7AA970FB6F894DEBF0FBECDBF88EDF4
:102A500094E02091F100DC012D93CD01B4E0803EA3
:102A60009B07B9F78091D904833009F471C0B8F499
:102A7000813009F448C0823009F4B2C08091E80086
:102A800083FF3AC18091D8049091D9049A3008F01C
:102A900033C1E92FF0E0E559F04D0C94342E8A3023
:102AA00009F48DC08B3009F470C0893039F78091FA
:102AB000D804813219F78091DC049091DD040097ED
:102AC00011F00297D9F68091E800877F8093E800A3
:102AD0008091E80082FF37C09091F3008091F2006E
:102AE000029729F48091F1008B7F813021F480914D
:102AF000F1008093B3048091E8008B778093E80025
:102B00000E94E303BBCF8091D804813A09F0B6CF8D
:102B10008091E800877F8093E8008091DC049091A9
:102B2000DD04892B61F460E284EB94E070E00E94A4
:102B300095048091E8008B778093E8009FCF60E058
:102B400090E080E0F3CF8091D6048111C1CF96CF81
:102B50008091D804813A09F091CF8091DC04909162
:102B6000DD04892B09F08ACF8091E800877F80936C
:102B7000E8008091E80080FFFCCF809110018093F5
:102B8000F1008091E8008E77B9CF8091D80481322E
:102B900009F074CF8091DC049091DD04892B09F059
:102BA0006DCF8091E800877F8093E8000E94E30367
:102BB0008091DA04809310010E9407155FCF809105
:102BC000D804813209F05ACF8091E800877F809342
:102BD000E8000E94E3038091DB048093B2044ECFAF
:102BE0008091D804813A09F049CF8091E800877F2D
:102BF0008093E8008091E80080FFFCCF8091B204D0
:102C0000BECF803899F0823809F076C08091DC041C
:102C10008F70873008F070C08093E9008091EB00DE
:102C200085FB882780F91092E90006C08091D404C2
:102C30009091D504911182609091E800977F9093D4
:102C4000E8008093F1001092F1008091E8008E7707
:102C5000B5C1882309F4A2C1823009F04DC080912A
:102C6000DA048111A6C18091DC048F702FEF280F48
:102C7000263008F041C08093E9002091EB0020FF4E
:102C800098C1933031F48091EB0080628093EB0027
:102C900090C19091EB0090619093EB0021E030E0C7
:102CA00001C0220F8A95EAF72093EA001092EA0009
:102CB0008091EB008860EACF81111EC01091DA0488
:102CC0001F778091E3008078812B8093E3008091CF
:102CD000E800877F8093E8000E94E3038091E8008A
:102CE00080FFFCCF8091E30080688093E30082E066
:102CF000111183E08093D6048091E80083FF0AC01D
:102D00008091E800877F8093E8008091EB008062EB
:102D10008093EB00AA960FB6F894DEBF0FBECDBF2E
:102D2000DF91CF911F9108958058823028F720912C
:102D3000DA043091DB042C3DE3E03E07A1F583E0AB
:102D40008A838AE289834FB7F894DE01139620E0E4
:102D50003EE051E2E32FF0E050935700E49120FF72
:102D600003C0E295EF703F5FEF708E2F90E0EA3086
:102D7000C0F0C7968D939D932F5F243159F74FBFB5
:102D80008091E800877F8093E8006AE270E0CE01DE
:102D900001960E9495048091E8008B778093E8006B
:102DA000ABCFC096E7CF8091DC049091DD04432F38
:102DB00055274330510509F44AC078F54130510593
:102DC00009F47AC08BE590E0E4EAF5E04230510581
:102DD00009F092CF2091E800277F2093E80020910E
:102DE000DE043091DF048217930708F49C0140E071
:102DF0002115310509F065C0411163C08091E800DB
:102E000082FDC9CF8091D604882329F2853019F23A
:102E10008091E80083FFF2CFBECF4132510509F423
:102E20003CC04232510509F067CF8330910508F06C
:102E300063CFFC01EE0FFF1FE15AFD4F0190F081BF
:102E4000E02D845A9D4FDC018C9190E01AC033270D
:102E500021303105D1F02115310561F022303105E5
:102E600009F04ACFE1E1F6E0E4918E2F90E0E1E154
:102E7000F6E007C0EBE3F6E0E4918E2F90E0EBE3A1
:102E8000F6E0009709F438CFA5CFEBE2F6E0E49145
:102E90008E2F90E0EBE2F6E0F4CF8330910508F05E
:102EA0002BCF880F991FFC01EB59FD4F0190F0814A
:102EB000E02D89E090E08ECF82E190E0EFEFF5E049
:102EC00089CF8091D604882309F465CF853009F431
:102ED00062CF8091E80083FD5ECF8091E80082FDA3
:102EE0008DCF8091E80080FF83CF9091F300809197
:102EF000F2002115310519F08830910550F041E0BC
:102F0000089709F040E08091E8008E778093E80010
:102F10006FCF44914093F1003196215031090196D1
:102F2000E8CF803809F0E8CE8091E800877F809371
:102F3000E8008091D7048093F10087CE8111DCCE28
:102F40001091DA04123008F0D7CE8091E800877F24
:102F50008093E8001093D7040E94E303112311F03B
:102F600084E005C08091E30087FDFACF81E0809383
:102F7000D60442E061EC81E00E94020442E261EC8E
:102F800084E00E94020442E261EC82E00E940204BA
:102F900042E260EC83E00E940204AECE8091DA044B
:102FA000813009F0A9CE81E0933009F080E0809370
:102FB000D5041092E9008091E800877F8093E800B3
:102FC0000E94E30399CE1F920F920FB60F92112425
:102FD0002F933F934F935F936F937F938F939F9321
:102FE000AF93BF93CF93DF93EF93FF93D091E9001B
:102FF000DF708091EC00C82FC17080FDC0E8109296
:10300000E9008091F000877F8093F00078940E941F
:103010001C151092E9008091F00088608093F00008
:10302000CD2BCF70C093E900FF91EF91DF91CF914D
:10303000BF91AF919F918F917F916F915F914F91D0
:103040003F912F910F900FBE0F901F9018958823DE
:10305000B1F19CEF980F913A38F4682F8EE693E027
:103060000E941C060C94810690E2980F983088F418
:10307000877021E030E0A90102C0440F551F8A95F6
:10308000E2F7CA0180959091FF0389238093FF03A3
:10309000E9CF9BE5980F933020F490E080E00C940A
:1030A0004F0798E5980F973120F490E080E00C945A
:1030B0003907803F20F00E948D0B0C943314089543
:1030C000CF93C82F882309F46FC08CEF8C0F813AFF
:1030D000C0F580911001882311F18091050487FFCC
:1030E0001EC0EC2FE695E695E695F0E0E259FC4F20
:1030F000828190E04C2F477021E030E002C0220F27
:10310000331F4A95E2F782239323892B91F06C2F8A
:103110008EE693E00E941C060E9481060AC0E0E74A
:10312000F3E086E793E02191C21789F38E179F079A
:10313000D1F76C2F8EE693E00E944606CF910C9457
:10314000810680E28C0F883068F4C77021E030E09F
:1031500001C0220FCA95EAF78091FF03822B80936A
:10316000FF03ECCFEBE5EC0FE33040F4F0E0E85E7A
:10317000FD4F808190E0CF910C944F07E8E5EC0F74
:10318000E73150F4F0E0EE0FFF1FE55EFD4F808168
:103190009181CF910C943907C03F30F08C2F0E9461
:1031A000480CCF910C943314CF9108951F93CF9373
:1031B000DF93182FD0E0C0E0893311F4C0E5D0E0F0
:1031C000812F0E946018209731F4812FDF91CF91D9
:1031D0001F910C9427188FE99FE00197F1F700C029
:1031E00000002197F0CF0F931F93CF93DF93C62F4B
:1031F000D42F022FFC0182818823A1F06093D7068F
:103200000E9427149093D6068093D506C77081E05C
:1032100001C0880FCA95EAF7DF91CF911F910F91F6
:103220000C942F078091D706681335C08091D5067E
:103230009091D6060E940D06883C910560F510E23B
:103240001D0FCD17B9F080E28C0F883040F4C770A5
:1032500081E001C0880FCA95EAF70E942407183060
:1032600048F481E09D2F977001C0880F9A95EAF786
:103270000E942F07802F0E94D618183098F4D7701C
:1032800081E001C0880FDA95EAF7DF91CF911F91B5
:103290000F910C942407C77081E001C0880FCA9574
:1032A000EAF7F3CFDF91CF911F910F9108953F92ED
:1032B0004F925F926F927F928F929F92AF92BF9246
:1032C000CF92DF92EF92FF920F931F93CF93DF93F2
:1032D00000D000D00F92CDB7DEB78C01FC01838106
:1032E0009481892B31F08081918189238F3F09F06E
:1032F000D7C50F900F900F900F900F90DF91CF9147
:103300001F910F91FF90EF90DF90CF90BF90AF9003
:103310009F908F907F906F905F904F903F90089517
:103320000E945E0FF82E682F89819A810E94EE0616
:1033300069817A818F2D0E94C70D7C01F8018281FD
:10334000882309F4A0C5970122513F45203131055A
:1033500008F06CC58FEF93E00E94B62EFEEEEF0EE4
:1033600057E5852E52E0952E882381F18091FC034C
:10337000877009F4BECFF8018281882309F4B9CFA0
:1033800082E00F900F900F900F900F90DF91CF91F0
:103390001F910F91FF90EF90DF90CF90BF90AF9073
:1033A0009F908F907F906F905F904F903F900C9484
:1033B000C014811424E09206C9F2C4010E94B62E02
:1033C000811101C0EA943FEF831A930AE110F1CF13
:1033D0001C821B82442443944AE0342E74018FEFF4
:1033E000E81AF80AC4010E94B62E89831A8288233B
:1033F00009F4BCCF9FEF980F933000F58A83498280
:1034000092E0890E911CC7010E94B62E8B838823FF
:1034100009F4ACCFFE0131967F01F7012081222310
:10342000E9F2213009F049C091818281913041F463
:10343000F2E0EF0EF11C0E94D61809C04701EACF56
:10344000923049F422E0E20EF11C0E9460183FEF36
:10345000E31AF30AE2CF933031F432E0E30EF11CC9
:103460000E942718F4CF943021F08FEFE81AF80A61
:10347000EECF92E0E90EF11C30E020E0B7016F5F83
:103480007F4FF70141818053990B8A30910550F0AD
:1034900021503109E0F28FE99FE00197F1F700C078
:1034A0000000F6CF329EF001339EF00D11249C01F6
:1034B0002E0F3F1F842F7B01E1CFE22FF0E0EC5D68
:1034C000FA4F5490822F86958695869590E0FC0160
:1034D000EC5EFA4F64902770712C022E02C0759436
:1034E00067940A94E2F7E1E06E227724FC01EC5F36
:1034F000FA4FA490B12C022E02C0B594A7940A945E
:10350000E2F7F1E0AF22BB24FC01EC50FB4FC4908A
:10351000D12C02C0D594C7942A95E2F721E0C222AB
:10352000DD246114710419F081EE0E946018A11469
:10353000B10419F086EE0E946018852D0E94D618FD
:10354000AB2819F086EE0E942718672819F081EE43
:103550000E942718CD2809F47ACF8CE26CCF81E045
:103560000E94DC140E94811401CF81E00E949D140E
:10357000F9CF82E0F5CF95EFE9169CE5F90609F45D
:1035800069C008F463C027E245EE66EEF6EFEF1679
:10359000FCE5FF0609F473C4882309F492C4109271
:1035A000D70622E0E2162CE5F20608F44CC136E11B
:1035B000E3163CE5F30630F0C7018A5F9C450997A6
:1035C00008F041C10E94930D909306048093050476
:1035D00080E1E8168CE5F80609F404C108F083C020
:1035E000E8E0EE16ECE5FE0609F4EEC008F04FC088
:1035F00024E0E2162CE5F20609F4DEC090F582E044
:10360000E8168CE5F80609F4D1C0809105048260C3
:1036100093E0E9169CE5F90609F4CBC06091050436
:10362000F090060484E090E00E94D42E6F2D82E298
:1036300090E00E94D42E0E94071598CE27E245EE16
:1036400065EE1DC426E241EE60EE19C427E245EEA8
:1036500064EE15C426E241EE62EE11C428E241E0B8
:10366000EFCF809105048061E6E0EE16ECE5FE0602
:1036700009F49FC0809105048860F7E0EF16FCE52F
:10368000FF0608F496C080910504806292C0809184
:1036900005048D7F2CE0E2162CE5F20609F489C0C2
:1036A00060F48AE0E8168CE5F80609F497C008F49F
:1036B0008FC0809105048E7F7CC080910504877F38
:1036C000EEE0EE16ECE5FE0609F473C08091050409
:1036D0008B7FFFE0EF16FCE5FF0608F46AC08091DF
:1036E00005048F7E66C02BEFE2162CE5F20609F486
:1036F00067C068F583E1E8168CE5F80609F47AC03E
:1037000090F4E1E1EE16ECE5FE0609F46FC0F2E19B
:10371000EF16FCE5FF0609F081CF0E9407158091A6
:1037200005048F7746C025E1E2162CE5F20609F480
:1037300069C008F47DC08AEFE8168CE5F80609F048
:103740006DCF8091060481608093060467CF9FEF60
:10375000E9169CE5F90609F451C0A0F4809106042D
:103760008D7FFDEFEF16FCE5FF0671F380910604F7
:103770008E7F2EEFE2162CE5F20630F380910604E0
:103780008360E2CF31E0E3163DE5F30609F459C06A
:1037900008F444C060E092E0E9169DE5F90609F0FE
:1037A0003DCF8EE090E00E94D42E38CF809105046A
:1037B00081608093050432CF809105048460F9CF45
:1037C000809106048260C0CF809105048064F1CFAF
:1037D0000E940715809105048068EBCF8091050455
:1037E0008C60E7CF809105048F7DE3CF8091050445
:1037F0008F7BDFCF80910504837FDBCF8091060430
:103800008C7FA2CF8091050482FB992790F921E05B
:10381000922790FB82F990FB83F9CBCF809106042D
:10382000982F909591708E7F892B90FB81F98CCF8A
:103830000E94071590910504892F97FB87F98058FE
:10384000B8CF61E0AECF8091FF03E6E1EE16ECE584
:10385000FE0609F045C38A7A91E009F490E090935E
:10386000950369E2811165E38EE693E00E944606C6
:103870000E9481067BCD8091D80691E089278093B4
:10388000D806109214010E94851270CD43EA52E1CD
:103890006CEA72E10E94710769CD4CEA52E163EA79
:1038A00072E1F8CF43EF52E16CEF72E1F3CF4CEFEE
:1038B00052E163EF72E1EECF4BED52E167EE72E160
:1038C000E9CF47EE52E16BED72E1E4CF4FEC52E10C
:1038D00063EC72E1DFCF4FE053E165E073E1DACFF3
:1038E00045E053E16FE073E1D5CF81E00E948D1296
:1038F0003DCD89E0FBCF9BE5E9169DE5F90611F189
:10390000ECE5EE16EDE5FE0609F01CC38091060419
:1039100082FB882780F991E089270E94231012C337
:103920000E940715FFEF24E33CE0F15020403040B7
:10393000E1F700C000000E9450110E94741116CDE2
:1039400081E0EBCF80E0E9CFC7010E94C606D82E08
:1039500008C32F2D2F70A22E8F2D807F19F0A294D7
:1039600090EFA922DD20C9F0AA2069F080E28E0D37
:10397000883010F081100BC08091FF03A82AA0921C
:10398000FF030E9481068E2D0E94601819C080914D
:10399000FE03A82AA092FE03F4CF8E2D0E942718C2
:1039A000AA2071F0A09480E28E0D883010F0811072
:1039B0003DC08091FF03A822A092FF030E948106D0
:1039C000232D2850330B2430310510F40E94650755
:1039D000CC2009F48ECC8091FC0380FD8ACCF801C8
:1039E00012828595859585950E94DC14C8010E94F8
:1039F00057198091FC038595859585950F900F90BB
:103A00000F900F900F90DF91CF911F910F91FF902A
:103A1000EF90DF90CF90BF90AF909F908F907F906E
:103A20006F905F904F903F900C949D148091FE0397
:103A3000A822A092FE03C2CF3F2D3F70932E8F2D60
:103A4000807F803219F0929480EF9822882071F064
:103A500081E0881681F1DD20D9F1AA2091F1F801E9
:103A6000858180FF90CF8F7085832BC0DD20B1F0E2
:103A700090910004892D892BA11003C00E942F076B
:103A80009FCFE1E0AE12FACF2091060422FD98CF3D
:103A9000981709F495CF8093000492CFA11006C027
:103AA0000E947B06892D0E9424078ACFF1E0AF1681
:103AB00009F486CFF5CFDD2031F025E02A1508F492
:103AC0007FCF892DDBCF34E03A1508F479CFEACFE8
:103AD000AA2041F3F9E38F1209C02FEF37EE83E0FC
:103AE000215030408040E1F700C000008E2D0E9440
:103AF000271866CF8F2D86958695837061F081306B
:103B000009F05ECFC7019370D11002C090E080E051
:103B10000E94390755CFC7019370D11002C090E0C1
:103B200080E00E944F074CCF8E2DDD2029F00E94AF
:103B3000480C0E94331444CF0E948D0BFACF8F2D76
:103B4000837009F066C0D1103BCF8E2D829586958B
:103B50008770880F880F6E2D6F70462E512C712C38
:103B6000612C082E04C0440C551C661C771C0A945A
:103B7000D2F740E050E0BA01E4FE0FC04FE050E061
:103B800060E070E004C0440F551F661F771F8A95E0
:103B9000D2F740955095609570958F2D86958695B6
:103BA0008370823019F1D8F480900104909002045F
:103BB000A0900304B0900404813069F04429552991
:103BC00066297729CB01BA01682179218A219B21B5
:103BD0000E94FD14F5CE482859286A287B28CB017D
:103BE000BA016429752986299729F2CF44295529D4
:103BF00066297729409001045090020460900304E4
:103C000070900404CB01BA0164257525862597259B
:103C1000DFCF8695DD2011F08F2D8170882309F488
:103C2000CFCE8E2D829586958770880F880F6E2D4A
:103C30006F70462E512C712C612C082E04C0440C40
:103C4000551C661C771C0A94D2F740E050E0BA017C
:103C5000E4FE0FC04FE050E060E070E004C0440FAD
:103C6000551F661F771F8A95D2F74095509560952E
:103C700070958F2D869586958370823019F1D8F4D2
:103C80008090DE069090DF06A090E006B090E106FE
:103C9000813069F04429552966297729CB01BA0179
:103CA000682179218A219B210E94771489CE482896
:103CB00059286A287B28CB01BA01642975298629ED
:103CC0009729F2CF44295529662977294090DE06A5
:103CD0005090DF066090E0067090E106CB01BA01DB
:103CE0006425752586259725DFCF9F2D9F70F92E9A
:103CF000DD2029F0892F0E94DC148E2DBFCE8E2D61
:103D00000E9424078F2D0E949D145ACE8E2DE2EF23
:103D10008E1609F457C0E81578F0F0EF8F1649F1C8
:103D200021EF821609F446C0DD2009F46FC0A1100E
:103D30002ACE8F2D8F7143C033EF831609F447C00D
:103D400094EF8912F1CFDD2009F455C02F2D2F718A
:103D5000F22E822F0E94DC148091060482FD07C09F
:103D600038E0F39EC001112483608093FC038F2D03
:103D700026C0DD20D1F0E4E0EA1508F421CE2F2D95
:103D80002F7161E070E080E090E004C0660F771F63
:103D9000881F991F2A95D2F74090DE065090DF06C3
:103DA0006090E0067090E1069BCFF5E0FA1508F40C
:103DB00007CEE5CF8F2D8F71DD2009F4A4CF0E94AF
:103DC000DC14FECD8F2D8F71DD20C9F39CCF60E018
:103DD00070E0CB01DD2009F467CF2F2D2F7161E05A
:103DE00070E080E090E004C0660F771F881F991F85
:103DF0002A95D2F759CF81E00E94C01481E08A153C
:103E000008F0DECD82E00E94C014DACDAA2059F07D
:103E1000893309F06BCE9FEFE7EEF3E09150E0407D
:103E2000F040E1F761CE8F2D8F716DCFF0E1EF168D
:103E3000FFE5FF0609F493CB21E1E2162FE5F20638
:103E400009F497CB93EFE9169CE5F90609F4FACB50
:103E500008F091CBF8EDEF16FCE5FF0609F4EECB88
:103E600029EDE2162CE5F20609F4F8CB37EDE3165E
:103E70003CE5F30609F090CB26E241EE61EEC80185
:103E80000E94F31873CA30E1E3163FE5F30609F424
:103E90006CCB91E1E9169FE5F906A1F682E066CBCD
:103EA00085E0DE01119601900D928A95E1F7F80107
:103EB000228189819A81211133CA0E94C606F82E77
:103EC00037CAF6E1EF16FCE5FF06E1F580919503B0
:103ED00069E2811165E38EE693E00E941C06C8CC7E
:103EE00082722AECE2162CE5F20609F4EFCC08F017
:103EF00084C095ECE9169CE5F90609F4D3CC08F0EA
:103F000063C0F3ECEF16FCE5FF0609F4BFCC08F044
:103F1000C4CC32ECE3163CE5F30609F4ACCCFAE58C
:103F2000EF16FDE5FF0609F40BCD08F0E4CCE11433
:103F30003CE5F30609F4F4CC8EEDE8168CE5F806C2
:103F400009F4FBCCF8018281E080F180882309F438
:103F5000FBCCC7010E945E0FD82E682FC7010E94BC
:103F6000EE06B7018D2D0E94D40D7C01882EF8013C
:103F7000D280A580A2943FE0A3228091FC038770A9
:103F8000A1F0CD2CDD2091F08F2D807F803421F0A9
:103F900080E28E0D883048F082E00E94C01480914B
:103FA000FC038770CC24C3948111C12C3F2C329424
:103FB0002FE03222FBE0F31508F402CDE32DF0E010
:103FC000EB58F04D0C94342E97ECE9169CE5F9066D
:103FD00009F472CC08F46BCCF8ECEF16FCE5FF06A4
:103FE00009F46FCC43EC52E16FEC72E129ECE2167C
:103FF0002CE5F20609F44ECC92CF3FECE3163CE5FB
:10400000F30609F476CCB0F4ECECEE16ECE5FE0623
:1040100009F466CC08F45FCC2DECE2162CE5F20630
:1040200009F463CC84E03EECE3163CE5F30609F4C6
:104030005DCC75CF86EDE8168CE5F80640F48EE091
:1040400091EDE9169CE5F90608F450CC8FC9EDE531
:10405000EE16FE0609F48AC962CF1F93CF93DF9351
:1040600080919C03807FA9F480919903882389F033
:104070008091CE03D0919D03609197037091980336
:10408000A0919A03B0919B03C62FC72316E0D813C3
:1040900004C0DF91CF911F91089590E0109711F027
:1040A000CF3F19F401968770F2CF189F9001199FA6
:1040B000300D1124F901E256FC4F41814713F2CF34
:1040C00040814613EFCF42814111ECCF43815481AF
:1040D0004A1B5B0B483C510528F780919C038F706D
:1040E000806180939C03F901ED55FC4F80818F70B6
:1040F0008061808387E993E00E945719DF91CF9117
:104100001F910C941A07AF92BF92CF92DF92EF9259
:10411000FF920F931F93CF93DF93CDB7DEB76197D5
:104120000FB6F894DEBF0FBECDBF8C0185E0F8015D
:10413000DE011D9601900D928A95E1F7F8018081CC
:104140009181E28027E9A22E23E0B22E60919A03AA
:1041500070919B036115710509F43EC1309197037D
:1041600040919803232F24232F3F09F435C1C380A6
:10417000D480F0909903F601E61BF70BFF2009F4B9
:10418000FBC020919C03522F507FE83CF10508F0C2
:10419000BBC0511178C0FE2C491321C038131FC079
:1041A000E1101DC02F70206120939C03C5010E9467
:1041B000571980919C03F80185838F2D61960FB666
:1041C000F894DEBF0FBECDBFDF91CF911F910F914D
:1041D000FF90EF90DF90CF90BF90AF900895CD28E3
:1041E00029F0282F29232F3F09F014C120E0F22FB6
:1041F000F170DF2E20FF3DC02091CE0340919D0342
:1042000056E0241315C08D879E878D859E850E945C
:10421000A00F292F22952F702230F8F0243020F59E
:104220009F70F9F0F8019581907FD9F4D12C1FC0CF
:1042300030E0529FF001539FF00D1124E256FC4FE5
:104240006181961306C06081861303C06281E61205
:1042500010C02F5F3F4F2770D4CF9F7011F088237D
:1042600029F3805E883010F3C8010E945719FD2C95
:10427000A4CFEE2009F4A1CF80919C0381608093AC
:104280009C03F12C9ACF491312C0381310C0E110CF
:104290000EC0F8012583C8010E94571986E0F80175
:1042A000A7E9B3E001900D928A95E1F786CF8D875B
:1042B0009E878D859E850E94AA0F882309F1EE2096
:1042C000F9F080919C03803270F020919703309137
:1042D000980338872F831986DB86CA868C87CE01A0
:1042E00007960E94571986E0F801A7E9B3E001900C
:1042F0000D928A95E1F70E942D20FF24F3945DCF63
:10430000C8010E945719F9CF51110AC087E993E0FB
:104310000E94571986E0F50111928A95E9F7B1CF0D
:1043200049130FC038130DC0E1100BC0F8012583ED
:10433000C8010E94571986E0F50111928A95E9F7A4
:104340003CCF8D879E878D859E850E94AA0F8823EE
:10435000B9F2EE20A9F280919C03803220F22091E4
:104360009703309198033A8329831B82DD82CC82A4
:104370008E83CE010196B5CFE83CF105E0F6FE2C28
:10438000EE2009F4BDCF491316C0381314C0809134
:104390009C0380FD83CF982F907F09F47FCFF80195
:1043A0008583903F09F477CF982F907F905F8F702F
:1043B000892B858370CF8D879E878D859E850E94F2
:1043C000AA0F811190CF80919C03816080939C0300
:1043D000C8010E945719F1CEEE2009F491CF8D87C4
:1043E0009E878D859E850E94AA0FF82E882309F44A
:1043F00087CF86E0F801A7E9B3E001900D928A9596
:10440000E1F780919703909198030E94A00F0E947A
:104410002D20D3CE21E02E25EACE1F93CF93DF931C
:10442000CDB7DEB767970FB6F894DEBF0FBECDBF2E
:10443000342F4B8B252F5C8B6D8B7E8B8F8B8E89D6
:104440009F8961111092FE031A8A198A3D872E876F
:104450006F87998B888B86E0FE013D96DE0117966B
:1044600001900D928A95E1F7CE0107960E94832074
:10447000882389F016E08091CE0390919D038913E3
:1044800049C067960FB6F894DEBF0FBECDBFDF916F
:10449000CF911F91089586E0FE013796DE011196B7
:1044A00001900D928A95E1F78A859B85892B11F3FE
:1044B0008F81988589238F3FE9F220919D0330E019
:1044C000C9010196877099274091CE0348171906B4
:1044D00071F40E94071510929D031092CE0386E09E
:1044E000E7E9F3E0DF011D928A95E9F7C3CF96E093
:1044F000929FD001939FB00D1124A256BC4FFE0194
:10450000319601900D929A95E1F780939D030E9458
:104510001A07B0CF819FC001112482569C4F0E9480
:104520008320882309F4ADCF8091CE0390E00196DB
:10453000877099278093CE039ECFAF92BF92DF9270
:10454000EF92FF920F931F93CF93DF93C9E4D2E0D2
:1045500007E014E0D12CEE24E394F12C8991F89437
:10456000E82FE295EF70F0E021A18F70A70102C063
:10457000440F551F8A95E2F7CA01922F982B91A3F9
:1045800092A18095892382A3789400C0EEE4F2E0A2
:1045900030E020E0B12CA12C4191A42FA295AF7066
:1045A000B0E090968C9190E04F7002C09595879501
:1045B0004A95E2F780FD67C0C701022E02C0880F4E
:1045C000991F0A94E2F7A82AB92A2F5F3F4F2E308D
:1045D000310511F7FE01319780810E94A20C50EA4B
:1045E0005A95F1F7F80180819181A816B90609F46E
:1045F0004DC0B182A08281E0D82A0E5F1F4FF2E049
:10460000CE34DF0709F0AACFDD2009F441C081E0F4
:10461000809390030E94271490938F0380938E03BE
:1046200080918E0390918F030E940D060897A0F150
:1046300080910704909108049093A4048093A304AC
:104640008091090490910A049093A6048093A50494
:1046500080910B0490910C049093A8048093A7047C
:1046600080910D0490910E049093AA048093A90464
:1046700080910F04909110049093AC048093AB044C
:104680001092900309C090E080E09DCF80E0B4CF0D
:10469000809190038111C4CF8D2DDF91CF911F9117
:1046A0000F91FF90EF90DF90BF90AF900895CDB73E
:1046B000DEB7AB970FB6F894DEBF0FBECDBF84B7A1
:1046C000877F84BF0FB6F894A895809160008861B9
:1046D00080936000109260000FBE80E890E00FB6FB
:1046E000F89480936100909361000FBE85B7806855
:1046F00085BF85B7806885BF88E096E090936D039D
:1047000080936C030E9469030E9434048091E2004C
:1047100084608093E20078948091D6048823A1F08D
:104720001091E9001F709091EC00892F817090FD2D
:1047300080E8182B1092E9008091E80083FD0E9428
:104740001C151F701093E90082E084BD93E095BDB5
:104750009AEF97BD80936E0085EF0E94A20C84EFC4
:104760000E94A20C81EF0E94A20C83E30E94A20C83
:1047700082E30E94A20C0EE412E0D8018D918D011B
:104780000E94A20CB2E00C351B07B9F71092080486
:10479000109207041092A4041092A30410920A0429
:1047A000109209041092A6041092A50410920C0411
:1047B00010920B041092A8041092A70410920E04F9
:1047C00010920D041092AA041092A90410921004E1
:1047D00010920F041092AC041092AB0490E080E0B1
:1047E0000E94BE2E8A3E9E4F11F00E94741182E0FC
:1047F00090E00E94B62E809398040E94930D9093AF
:104800000604809305040E949D228FEB9AED019788
:10481000F1F700C000000E949D228091A30480FF58
:1048200017C06FEF83E290E00E94D42E6FEF84E216
:1048300090E00E94D42E6FEF85E290E00E94D42E8B
:104840006FEF7FEF90E080E00E94F22E0E94501107
:1048500083E090E00E94B62E682F70E090E080E048
:104860000E94FD140E94DF111092A8068FEF9FEFA7
:104870009093C2068093C1069093C4068093C306AA
:104880009093C6068093C5069093C8068093C7068A
:104890009093CA068093C9069093CC068093CB066A
:1048A0009093CE068093CD069093D0068093CF064A
:1048B0001092120490932C0480932B0490932E0456
:1048C00080932D049093300480932F0490933204AE
:1048D000809331049093340480933304909336048E
:1048E00080933504909338048093370490933A046E
:1048F0008093390490E080E00E94BE2E8A3E9E4F55
:1049000021F00E9474110E94191346E050E06CE1FE
:1049100070E088ED96E00E94A62E8091D8068C7FEC
:1049200011F40E94191383E290E00E94B62E8132A6
:1049300011F00C94F82C84E290E00E94B62E87309F
:1049400011F00C94F82C85E290E00E94B62E86328D
:1049500011F00C94F82C86E091E0909389048093F8
:1049600088048091D604853081F480E4E82E90E1BB
:10497000F92E12E18091D604853009F4A8C00E9476
:1049800007150E94650710928A040E949D228823C1
:1049900059F08FB7F8944091AD045091AE046091F6
:1049A000AF047091B0048FBFA3EAB4E0E9E9F4E08A
:1049B000F12CE12C9E2CAD90BD90219131912A15C6
:1049C0003B0509F4E2C22A253B2510E0CC24C39420
:1049D000D12CA60142235323452B09F4D0C219A39D
:1049E0009AA2AC20BD2081E0A114B10409F480E0BA
:1049F0008BA30E9427148160782F9DA38CA349A1CB
:104A00005AA16BA18DA10E940D22F701EE0FFF1F8D
:104A1000E756FB4F80819181C826D926D182C0827A
:104A2000AB2871F08EE08E9DF0018F9DF00D11246A
:104A3000E559FD4FE10FF11D80818F3F09F093C0D3
:104A400000E070901204C02ED12CC601870D911D7C
:104A5000099764F188E090E05C01AC18BD08B601EC
:104A60006D5E7B4FA50183E194E00E949D2EB6010F
:104A7000655E7B4FA5018BE194E00E949D2EA50110
:104A8000440F551FB601660F771F655D7B4F8BE2A4
:104A900094E00E949D2EB6016D5D7B4FA50183E2DF
:104AA00094E00E949D2E7A947092120480911204D8
:104AB00090E0EBA5AE2FB0E09D01220F331F2F54E5
:104AC0003D4FAA0FBB1FBD016E547D4F64C0809146
:104AD000D604843009F433C040E060E080E00E94F6
:104AE000BC07B1E0B0938A0440E060E080E00E943F
:104AF000BC07E1E0E0938A041092110428E130E061
:104B00000FB6F894A895209360000FBEE092600065
:104B100083B7817F846083BF83B7816083BF7894CC
:104B2000889583B78E7F83BF0FB6F894A895809140
:104B30006000886180936000109260000FBE8091D9
:104B4000D504882309F416CF0E949D22E3EAF4E0FD
:104B500081919191892B09F034C74DEA54E04E17A9
:104B60005F07B1F707CF8BA701E06BCF90E0FC01A7
:104B7000EE5EFB4FD9015C915183DB015C91518763
:104B8000BBA5B18B880F991FFC01EE5EFB4F128E07
:104B9000118E91E0842F41E0480F901738F38093F5
:104BA00012048091D8068C7F803609F095C08FEF73
:104BB000890D21E0290D9FEF910FA1E0A10F911721
:104BC00080F43EE03E9DF0013F9DF00D1124EE5B30
:104BD000FB4FE90FF11D308140E1340F08F43FEF46
:104BE0003083612F70E03EE03E9DA0013F9D500D5F
:104BF00011244E5B5B4FFA01E60FF71F308100E294
:104C0000300F08F43FEF3083AE3009F422C7FA01C9
:104C1000EA0FF11D308140E1340F08F43FEF30839B
:104C2000253061F5911770F45EE0859FF001112445
:104C3000EE5BFB4FE90FF11D20813DE0230F08F4EF
:104C40002FEF2083BEE08B9FC00111248E5B9B4F12
:104C5000FC01E60FF71F208130E1230F08F42FEF4E
:104C60002083AE3009F438C0A80FB92FB11D2C91A4
:104C70003DE0230F08F42FEF2C932EC0911770F412
:104C80003EE0239FF0011124EE5BFB4FE90FF11D85
:104C900030814DE0340F08F43FEF30834EE0249F25
:104CA000900111242E5B3B4FF901E60FF71F408165
:104CB00050E1450F08F44FEF4083AE3009F4C5C60C
:104CC000F901EA0FF11D20813DE0230F08F42FEFD9
:104CD0002083891508F4A6CF80913B0490913C0471
:104CE000A0913D04B0913E042FB7F8944090AD04DC
:104CF0005090AE046090AF047090B0042FBF530189
:104D00004201881A990AAA0ABB0A2FB7F894C090E0
:104D1000AD04D090AE04E090AF04F090B0042FBF8B
:104D2000C0923B04D0923C04E0923D04F0923E04D9
:104D300060911204E2E1F4E0462F50E00197AF4F9A
:104D4000BF4F84199509A609B709651337C1409368
:104D5000120480918A0410E0811108C08091D80665
:104D6000182F137019F0182F1695169580911401AD
:104D7000813009F44DC1882309F433C1823009F42C
:104D80006FC4833009F479C486E0E1E9F4E0DE0120
:104D9000119601900D928A95E1F7E0909304D090DE
:104DA000940410919504F09096041092930410923C
:104DB000940410929504109296048E2D8D2909F476
:104DC00048C080918F04909190040E940D069C0130
:104DD00090918E04992309F433C623333105C8F129
:104DE0009F3F19F09F5F90938E04EE2059F00E9430
:104DF000280C9FEF1E140CF491E0899F802D112444
:104E000080939304DD2059F00E94280C9FEF1D141D
:104E10000CF491E0899F802D1124809394043091AB
:104E200093043323B1F020919404222391F045EBB5
:104E30003403C0011124992309F43EC490939304D0
:104E400045EB240390011124332309F439C4309332
:104E50009404812F8F2909F448C080918C0490918B
:104E60008D040E940D069C0190918B04992309F4F6
:104E7000E2C525363105C8F19F3F19F09F5F909339
:104E80008B04112359F00E94060C9FEF11160CF4AD
:104E900091E0899F802D112480939504FF2059F083
:104EA0000E94060C9FEF1F140CF491E0899F802D47
:104EB000112480939604309195043323B1F020910E
:104EC0009604222391F045EB3403C0011124992369
:104ED00009F4FAC39093950445EB2403900111243F
:104EE000332309F4F5C33093960480919304909191
:104EF0009404892B90919504892B90919604892B89
:104F000011F00E94331486E0FE013196A1E9B4E06D
:104F100001900D928A95E1F70E94650790919704A0
:104F2000891721F00E946507809397048091D60429
:104F3000843009F016CD83E08093E9008091E80089
:104F400082FF0FCD8091E80090E085FF06C00E94AF
:104F50008803882309F4C0C391E08091E8008B772F
:104F60008093E800992309F4FCCCE981E150E33116
:104F700008F051C4F0E0EF57F04D0C94342E1F5F51
:104F8000CC0CDD1C1E3009F024CD2FEFE21AF20A02
:104F900035E0E316F10409F00DCD8FEF8EA38FA35A
:104FA00018A60E9427148160782F9AA789A74EA17E
:104FB0005FA168A58AA50E940D228ECE218D328D1B
:104FC0002901712C612C84159505A605B70520F4DF
:104FD00041505F5F3296B9CE280D391D328F218F37
:104FE000F8CF10921101C092D106D092D206E09271
:104FF000D306F092D40689E2E2E1F4E0A8EAB6E052
:1050000001900D928A95E1F741E040931401BCCEE6
:1050100080910501181323C09091D80693702091B8
:10502000040130E081E09217130609F480E08170FA
:10503000809313018091DD0690911201981739F049
:105040008093120140E060E080E00E94BC071B31C9
:1050500060F4E12FF0E0EC56F04D0C94342E81E03A
:10506000E6CF80911301811102C000E026C040E02C
:1050700060E080E00E94BC07F8CFE09011018DE075
:10508000E89EE02C11244DE0D42EDE0C0D2D5EE3C5
:105090005D1508F40EE36091D9067091DA068091EF
:1050A000DB060E94F708B62EA72E982EF12CE016EC
:1050B00050F101E09DE39D15C0F2809111018F5FD9
:1050C000809311010111C8C282E080931401809184
:1050D00013018111C1C2112309F4CBC2E0918804EC
:1050E000F0918904309709F44FCE0190F081E02DC2
:1050F000099581FF49CE2FEF4FEF6FEF89E290E0E6
:105100000E94BE0741CEF701E35DFC4F8081909184
:105110001201892331F0292D4B2D6A2DC7010E94E0
:10512000BE078FEFE81AF80AC2CFE09011018DE0B8
:10513000E89EE02C11243DE0D32EDE0C0D2DAEE3D5
:10514000AD1508F40EE37090DA068090DB06F0905F
:10515000D9066F2D772D882D0E94F708B62EA72E21
:10516000982E6091DC066F0D772D882D0E94F70830
:10517000862E772E682EF12CE01630F001E0EDE35C
:10518000ED1508F09ACF71CFF701E35DFC4F9081E8
:1051900080911201892359F0262D482D672D90FD0D
:1051A00003C0292D4B2D6A2DC7010E94BE07BFEFFA
:1051B000EB1AFB0AE1CFE09011018DE0E89E802D13
:1051C00011242DE0D22ED80E0D2DFEE3FD1508F48E
:1051D0000EE3A090DA069090DB062091DC0690E4C6
:1051E000C92E3C2D329F312D1124C32EE82EF12CD7
:1051F000E01630F001E05DE35D1508F05ECF35CFDD
:10520000F701E35DFC4F8081909112018923D9F071
:10521000F701EE0FFF1FEF54FD4F6081C69EB001F6
:105220001124B5E075956795BA95E1F78091D90697
:10523000680F7A2D892D0E94F708462F282F672F97
:10524000C7010E94BE074FEFE41AF40AD1CFE090E5
:1052500011018DE0E89EE02C1124FDE0DF2EDE0C34
:105260000D2D8EE38D1508F40EE3B090D906F09065
:10527000DA06A090DB066091DC0666956695669579
:105280008091D1069091D2060E94ED080E945308A9
:10529000805887FD8195880F282F3A2D239F212D37
:1052A0001124822F6B2D7F2D0E94F708B62EA72E7A
:1052B000982EF12CE01608F09DCFF701E35DFC4F2E
:1052C000808190911201892331F0292D4B2D6A2D77
:1052D000C7010E94BE074FEFE41AF40AEBCF8EED30
:1052E00095E00E94640A04C084E398E00E94080AE2
:1052F000082FE3CE88E198E00E948B09F9CF8CED6E
:1053000095E0EFCF83ED95E0ECCF8AEC95E0E9CF27
:1053100081EB95E0E6CF83EA95E0EECF85EC98E06F
:10532000E5CF87E098E0E2CF83EF97E0E5CF86E72F
:1053300095E00E94B20ADCCF88E495E0FACF81E1E3
:1053400095E0F7CF0091130101111EC06091DC06BA
:1053500020E1620F08F46FEF8091D1069091D206A0
:105360000E94ED086AE070E00E940C2E892B09F083
:105370007CCE0E948D2E6EE370E00E94202E609104
:1053800012010E946F1099CEE09011018DE0E89E0D
:10539000802D1124EDE0BE2EB80E9B2DAEE3AB1593
:1053A00008F49EE3E82EF12CC92ED12CEC14FD0458
:1053B00034F001E0EDE3EB1508F07FCE56CE6091BE
:1053C0001201C7010E946F10BFEFEB1AFB0AEECF6C
:1053D0000091130101111EC06091DC0620E1620FF3
:1053E00008F46FEF8091D1069091D2060E94ED08EB
:1053F00065E070E00E940C2E892B09F036CE0E94E9
:105400008D2E6EE370E00E94202E609112010E94AA
:105410004D1053CEE09011018DE0E89E802D1124B7
:105420007DE0B72EB80E9B2DFEE3FB1508F49EE33E
:10543000E82EF12CC92ED12CEC14FD0434F001E03F
:105440003DE33B1508F039CE10CE60911201C70143
:105450000E944D102FEFE21AF20AEECFE0901101F8
:105460008DE0E89EE02C11246DE0D62EDE0C0D2D93
:105470004EE34D1508F40EE3A090DA06B090DB067B
:10548000F090D9066091DC066695669566958091E8
:10549000D1069091D2060E94ED080E9453088058D0
:1054A00087FD8195880F682F2CE0629F612D112464
:1054B0006F0D7A2D8B2D0E94F708B62EA72E982EF1
:1054C000F12CE01630F001E08DE38D1508F0F5CDFC
:1054D000CCCDF701E35DFC4F8081909112018923CF
:1054E00031F0292D4B2D6A2DC7010E94BE075FEFB9
:1054F000E51AF50AE6CF82E798E0F3CE80E095E082
:10550000F0CEE09011018DE0E89EE02C11245DE0EA
:10551000652E6E0C062D96E4961508F406E480912F
:105520001301882361F040E060E080E00E94BC0746
:10553000E2E4F4E086E4DF011D928A95E9F78091C8
:105540001101811115C080914004909141040E9485
:105550000D0621E08931910508F420E020933F04F5
:10556000499730F00E94271490934104809340049F
:10557000F12C202E312C0EE04AEA442EE214F304E2
:1055800034F001E0E5E4E61508F097CD6ECDC701F3
:1055900065E070E00E94202E5B014C01089DC00177
:1055A000099D900D1124FC01EE5BFB4FE60FF71FE8
:1055B000708085599D4FFC01E60FF71F80818F3F5A
:1055C00059F1C82ED12CF601E35DFC4F80819091FA
:1055D0001201892309F1372D25E5321B08F430E04B
:1055E0007091DA06242D472D240F08F42FEF4091F7
:1055F000DB06822F880F820F8E5F582F549F512D0C
:105600001124852F642D631B0E94F708462F282F35
:10561000672FC6010E94BE0780913F04882381F056
:10562000272D31E0231B08F420E0089DC001099DCF
:10563000900D11248E5B9B4FA80EB91ED5012C93A3
:10564000BFEFEB1AFB0A9ACF89EF94E00E94140B8C
:105650004FCE83EF94E0FACF112309F495CB3ECDE2
:10566000109305018091D8068370809304010E94F5
:105670008D0D83E08093140187CB4091D10650912A
:10568000D2066091D3067091D4062FB7F89480911A
:10569000AD049091AE04A091AF04B091B0042FBFBF
:1056A000841B950BA60BB70B4097A105B10508F419
:1056B0006BCB1092140168CB51E050939304C0CB94
:1056C00051E050939404C5CB51E05093950404CC21
:1056D00051E05093960409CC30E2C32ED12CCE0178
:1056E00001967C018091E80085FD0AC08091E80068
:1056F0008B778093E8000E948803882399F32CCC51
:105700008091F100D7018D937D01B1E0CB1AD108D2
:1057100049F722CC1A8289E08B831AC08A818230B1
:1057200009F480C18330D9F1813009F074C02FB7FA
:10573000F8946091AD047091AE048091AF049091A3
:10574000B0042FBF0E943A2E6B837C838D839E838F
:105750008091D604843009F004C91091E9001F70CB
:105760009091EC00892F817090FD80E8182B82E0E9
:105770008093E9008091E80080FF0DC050E040E098
:1057800060E270E0CE0101960E94B9038091E800CA
:105790008E778093E8001F701093E900E2C8809133
:1057A000A3049091A4049827892798279C838B832E
:1057B0008091A5049091A6049827892798279E8315
:1057C0008D838091A7049091A80498278927982712
:1057D00098878F838091A9049091AA04982789279C
:1057E00098279A8789878091AB049091AC04982779
:1057F000892798279C878B87ABCF8A81823059F481
:105800006B817C818D819E810E943A2E86E290E0A0
:105810000E94D42E9DCF8FEF89839ACF4C816B81CC
:105820008A810E94A10D9827892798279E838D83BE
:105830008FCFED80FE80FE24EF24FE248A81CB8072
:10584000ECE1CE9E60011124FCE88F9FC00CD11CBE
:1058500011248C8190E0880F991FC80ED91E6F2DDE
:10586000C60187960E94D42E6E2DC6018896D0CF91
:105870000E94CE0F6DCF80E18A836ACF21E02A8318
:1058800089EA4ACFEA80FB80FE24EF24FE24AE01A1
:105890004F5F5F4F5A01CC80CA018C0D911D6C0186
:1058A000C701895A9D4FAC14BD0409F451CFA9EA30
:1058B000EA16A1E0FA0658F40E94B62EF501848398
:1058C000BFEFEB1AFB0AEFEFAE1ABE0AE9CFD50124
:1058D00014961C92F5CFEA80FB80FE24EF24FE2470
:1058E0009E012F5F3F4F5901CC80CE0CDF2CD11C85
:1058F000C701895A9D4FCE14DF0409F429CF39EA34
:10590000E31631E0F30628F4D50114966C910E9459
:10591000D42EBFEFAB1ABB0AEFEFEE1AFE0AE8CFA8
:105920000E943D1015CF84E0A7CFEA80FB80FE24C3
:10593000EF24FE249E012F5F3F4F5901CC80A90127
:105940004C0D511D6A01C7018796CA14DB0409F486
:10595000FFCE50E3E51652E0F50660F40E94B62E45
:10596000D50114968C93FFEFEF1AFF0A2FEFA21ABE
:10597000B20AE9CFF5011482F6CFEA80FB80FE245B
:10598000EF24FE24AE014F5F5F4F5A01CC80CE0C56
:10599000DF2CD11CC7018796EC14FD0409F4D8CE86
:1059A00050E3E51652E0F50628F4D50114966C9103
:1059B0000E94D42EBFEFAB1ABB0AEFEFEE1AFE0A1D
:1059C000E9CFF9BC19BD09B400FEFDCF8091D80024
:1059D0008F7D8093D8008091E00082608093E0000A
:1059E0008091E00081FDFCCF0E9407150C94BA2441
:1059F00060E086E290E00E94D42E0E94CE0F0E94CA
:105A00003D1061E283E290E00E94D42E67E084E2E0
:105A100090E00E94D42E66E285E290E00E94D42EAF
:105A20000C94AB2486E290E00E94B62E1B821C826E
:105A30001D828E838DCE2D32314008F01FCA55CA8B
:105A40002D32314008F0CEC904CA891508F044C986
:105A5000EBC8253009F014C9E7C81F921FB61F9282
:105A600011248F939F93AF93BF9380911104811161
:105A700013C08091AD049091AE04A091AF04B09199
:105A8000B0044196A11DB11D8093AD049093AE0466
:105A9000A093AF04B093B004BF91AF919F918F9149
:105AA0001F901FBE1F9018951092B9008CE0809334
:105AB000B8000895EF92FF920F931F93CF93DF9357
:105AC000182FEB011092BC0084EA8093BC000E9466
:105AD00027147C018091BC0087FF27C08091B9000A
